{
  "_format": "hh-sol-artifact-1",
  "contractName": "GraffitETH2",
  "sourceName": "contracts/GraffitETH2.sol",
  "abi": [
    {
      "inputs": [
        {
          "internalType": "uint128",
          "name": "width",
          "type": "uint128"
        },
        {
          "internalType": "uint128",
          "name": "height",
          "type": "uint128"
        },
        {
          "internalType": "uint256",
          "name": "taxRateNumerator",
          "type": "uint256"
        },
        {
          "internalType": "uint256",
          "name": "taxRateDenominator",
          "type": "uint256"
        },
        {
          "internalType": "uint64",
          "name": "taxStartTime",
          "type": "uint64"
        },
        {
          "internalType": "uint64",
          "name": "initialPrice",
          "type": "uint64"
        },
        {
          "internalType": "uint256",
          "name": "rugPullHeadsUp",
          "type": "uint256"
        }
      ],
      "stateMutability": "nonpayable",
      "type": "constructor"
    },
    {
      "anonymous": false,
      "inputs": [
        {
          "indexed": true,
          "internalType": "address",
          "name": "owner",
          "type": "address"
        },
        {
          "indexed": true,
          "internalType": "address",
          "name": "approved",
          "type": "address"
        },
        {
          "indexed": true,
          "internalType": "uint256",
          "name": "tokenId",
          "type": "uint256"
        }
      ],
      "name": "Approval",
      "type": "event"
    },
    {
      "anonymous": false,
      "inputs": [
        {
          "indexed": true,
          "internalType": "address",
          "name": "owner",
          "type": "address"
        },
        {
          "indexed": true,
          "internalType": "address",
          "name": "operator",
          "type": "address"
        },
        {
          "indexed": false,
          "internalType": "bool",
          "name": "approved",
          "type": "bool"
        }
      ],
      "name": "ApprovalForAll",
      "type": "event"
    },
    {
      "anonymous": false,
      "inputs": [
        {
          "indexed": true,
          "internalType": "uint256",
          "name": "pixelID",
          "type": "uint256"
        },
        {
          "indexed": true,
          "internalType": "address",
          "name": "seller",
          "type": "address"
        },
        {
          "indexed": true,
          "internalType": "address",
          "name": "buyer",
          "type": "address"
        },
        {
          "indexed": false,
          "internalType": "uint64",
          "name": "price",
          "type": "uint64"
        }
      ],
      "name": "Bought",
      "type": "event"
    },
    {
      "anonymous": false,
      "inputs": [
        {
          "indexed": true,
          "internalType": "uint256",
          "name": "pixelID",
          "type": "uint256"
        },
        {
          "indexed": true,
          "internalType": "address",
          "name": "owner",
          "type": "address"
        },
        {
          "indexed": false,
          "internalType": "uint8",
          "name": "color",
          "type": "uint8"
        }
      ],
      "name": "ColorChanged",
      "type": "event"
    },
    {
      "anonymous": false,
      "inputs": [
        {
          "indexed": true,
          "internalType": "address",
          "name": "account",
          "type": "address"
        },
        {
          "indexed": true,
          "internalType": "address",
          "name": "depositor",
          "type": "address"
        },
        {
          "indexed": false,
          "internalType": "uint64",
          "name": "amount",
          "type": "uint64"
        },
        {
          "indexed": false,
          "internalType": "int64",
          "name": "balance",
          "type": "int64"
        }
      ],
      "name": "Deposited",
      "type": "event"
    },
    {
      "anonymous": false,
      "inputs": [
        {
          "indexed": true,
          "internalType": "uint256",
          "name": "pixelID",
          "type": "uint256"
        },
        {
          "indexed": true,
          "internalType": "address",
          "name": "owner",
          "type": "address"
        },
        {
          "indexed": true,
          "internalType": "address",
          "name": "receiver",
          "type": "address"
        },
        {
          "indexed": false,
          "internalType": "uint64",
          "name": "amount",
          "type": "uint64"
        }
      ],
      "name": "Earmarked",
      "type": "event"
    },
    {
      "anonymous": false,
      "inputs": [
        {
          "indexed": true,
          "internalType": "address",
          "name": "previousOwner",
          "type": "address"
        },
        {
          "indexed": true,
          "internalType": "address",
          "name": "newOwner",
          "type": "address"
        }
      ],
      "name": "OwnershipTransferred",
      "type": "event"
    },
    {
      "anonymous": false,
      "inputs": [
        {
          "indexed": true,
          "internalType": "uint256",
          "name": "pixelID",
          "type": "uint256"
        },
        {
          "indexed": true,
          "internalType": "address",
          "name": "oldOwner",
          "type": "address"
        },
        {
          "indexed": true,
          "internalType": "address",
          "name": "newOwner",
          "type": "address"
        },
        {
          "indexed": false,
          "internalType": "uint64",
          "name": "amount",
          "type": "uint64"
        }
      ],
      "name": "PixelClaimed",
      "type": "event"
    },
    {
      "anonymous": false,
      "inputs": [
        {
          "indexed": true,
          "internalType": "uint256",
          "name": "pixelID",
          "type": "uint256"
        },
        {
          "indexed": true,
          "internalType": "address",
          "name": "owner",
          "type": "address"
        },
        {
          "indexed": false,
          "internalType": "uint64",
          "name": "price",
          "type": "uint64"
        }
      ],
      "name": "PriceChanged",
      "type": "event"
    },
    {
      "anonymous": false,
      "inputs": [
        {
          "indexed": true,
          "internalType": "address",
          "name": "sender",
          "type": "address"
        },
        {
          "indexed": false,
          "internalType": "uint256",
          "name": "timestamp",
          "type": "uint256"
        },
        {
          "indexed": false,
          "internalType": "uint256",
          "name": "rugPullTime",
          "type": "uint256"
        }
      ],
      "name": "RugPullAnnounced",
      "type": "event"
    },
    {
      "anonymous": false,
      "inputs": [
        {
          "indexed": true,
          "internalType": "address",
          "name": "sender",
          "type": "address"
        }
      ],
      "name": "RugPullDisabled",
      "type": "event"
    },
    {
      "anonymous": false,
      "inputs": [
        {
          "indexed": true,
          "internalType": "address",
          "name": "sender",
          "type": "address"
        },
        {
          "indexed": true,
          "internalType": "address",
          "name": "receiver",
          "type": "address"
        },
        {
          "indexed": false,
          "internalType": "uint256",
          "name": "value",
          "type": "uint256"
        }
      ],
      "name": "RugPulled",
      "type": "event"
    },
    {
      "anonymous": false,
      "inputs": [
        {
          "indexed": false,
          "internalType": "uint256",
          "name": "amount",
          "type": "uint256"
        },
        {
          "indexed": true,
          "internalType": "address",
          "name": "receiver",
          "type": "address"
        }
      ],
      "name": "TaxWithdrawn",
      "type": "event"
    },
    {
      "anonymous": false,
      "inputs": [
        {
          "indexed": true,
          "internalType": "address",
          "name": "from",
          "type": "address"
        },
        {
          "indexed": true,
          "internalType": "address",
          "name": "to",
          "type": "address"
        },
        {
          "indexed": true,
          "internalType": "uint256",
          "name": "tokenId",
          "type": "uint256"
        }
      ],
      "name": "Transfer",
      "type": "event"
    },
    {
      "anonymous": false,
      "inputs": [
        {
          "indexed": true,
          "internalType": "address",
          "name": "account",
          "type": "address"
        },
        {
          "indexed": true,
          "internalType": "address",
          "name": "receiver",
          "type": "address"
        },
        {
          "indexed": false,
          "internalType": "uint64",
          "name": "amount",
          "type": "uint64"
        },
        {
          "indexed": false,
          "internalType": "int64",
          "name": "balance",
          "type": "int64"
        }
      ],
      "name": "Withdrawn",
      "type": "event"
    },
    {
      "inputs": [],
      "name": "announceRugPull",
      "outputs": [],
      "stateMutability": "nonpayable",
      "type": "function"
    },
    {
      "inputs": [
        {
          "internalType": "address",
          "name": "to",
          "type": "address"
        },
        {
          "internalType": "uint256",
          "name": "tokenId",
          "type": "uint256"
        }
      ],
      "name": "approve",
      "outputs": [],
      "stateMutability": "nonpayable",
      "type": "function"
    },
    {
      "inputs": [
        {
          "internalType": "address",
          "name": "owner",
          "type": "address"
        }
      ],
      "name": "balanceOf",
      "outputs": [
        {
          "internalType": "uint256",
          "name": "",
          "type": "uint256"
        }
      ],
      "stateMutability": "view",
      "type": "function"
    },
    {
      "inputs": [],
      "name": "baseURI",
      "outputs": [
        {
          "internalType": "string",
          "name": "",
          "type": "string"
        }
      ],
      "stateMutability": "view",
      "type": "function"
    },
    {
      "inputs": [],
      "name": "checkRugPullAnnounced",
      "outputs": [
        {
          "internalType": "bool",
          "name": "",
          "type": "bool"
        }
      ],
      "stateMutability": "view",
      "type": "function"
    },
    {
      "inputs": [],
      "name": "checkRugPullDisabled",
      "outputs": [
        {
          "internalType": "bool",
          "name": "",
          "type": "bool"
        }
      ],
      "stateMutability": "view",
      "type": "function"
    },
    {
      "inputs": [
        {
          "internalType": "uint256",
          "name": "pixelID",
          "type": "uint256"
        },
        {
          "internalType": "uint64",
          "name": "maxPrice",
          "type": "uint64"
        },
        {
          "internalType": "uint64",
          "name": "minAmount",
          "type": "uint64"
        }
      ],
      "name": "claim",
      "outputs": [],
      "stateMutability": "nonpayable",
      "type": "function"
    },
    {
      "inputs": [],
      "name": "deposit",
      "outputs": [],
      "stateMutability": "payable",
      "type": "function"
    },
    {
      "inputs": [
        {
          "internalType": "address",
          "name": "buyerAddress",
          "type": "address"
        },
        {
          "components": [
            {
              "internalType": "uint256",
              "name": "pixelID",
              "type": "uint256"
            },
            {
              "internalType": "uint64",
              "name": "maxPrice",
              "type": "uint64"
            },
            {
              "internalType": "uint64",
              "name": "newPrice",
              "type": "uint64"
            },
            {
              "internalType": "uint8",
              "name": "color",
              "type": "uint8"
            }
          ],
          "internalType": "struct PixelBuyArgs[]",
          "name": "buyArgss",
          "type": "tuple[]"
        },
        {
          "components": [
            {
              "internalType": "uint256",
              "name": "pixelID",
              "type": "uint256"
            },
            {
              "internalType": "uint8",
              "name": "newColor",
              "type": "uint8"
            }
          ],
          "internalType": "struct SetColorArgs[]",
          "name": "setColorArgss",
          "type": "tuple[]"
        },
        {
          "components": [
            {
              "internalType": "uint256",
              "name": "pixelID",
              "type": "uint256"
            },
            {
              "internalType": "uint64",
              "name": "newPrice",
              "type": "uint64"
            }
          ],
          "internalType": "struct SetPriceArgs[]",
          "name": "setPriceArgss",
          "type": "tuple[]"
        }
      ],
      "name": "depositAndEdit",
      "outputs": [],
      "stateMutability": "payable",
      "type": "function"
    },
    {
      "inputs": [
        {
          "internalType": "address",
          "name": "account",
          "type": "address"
        }
      ],
      "name": "depositTo",
      "outputs": [],
      "stateMutability": "payable",
      "type": "function"
    },
    {
      "inputs": [],
      "name": "disableRugPull",
      "outputs": [],
      "stateMutability": "nonpayable",
      "type": "function"
    },
    {
      "inputs": [
        {
          "internalType": "uint256",
          "name": "pixelID",
          "type": "uint256"
        },
        {
          "internalType": "address",
          "name": "receiver",
          "type": "address"
        },
        {
          "internalType": "uint64",
          "name": "amount",
          "type": "uint64"
        }
      ],
      "name": "earmark",
      "outputs": [],
      "stateMutability": "nonpayable",
      "type": "function"
    },
    {
      "inputs": [
        {
          "internalType": "address",
          "name": "buyerAddress",
          "type": "address"
        },
        {
          "components": [
            {
              "internalType": "uint256",
              "name": "pixelID",
              "type": "uint256"
            },
            {
              "internalType": "uint64",
              "name": "maxPrice",
              "type": "uint64"
            },
            {
              "internalType": "uint64",
              "name": "newPrice",
              "type": "uint64"
            },
            {
              "internalType": "uint8",
              "name": "color",
              "type": "uint8"
            }
          ],
          "internalType": "struct PixelBuyArgs[]",
          "name": "buyArgss",
          "type": "tuple[]"
        },
        {
          "components": [
            {
              "internalType": "uint256",
              "name": "pixelID",
              "type": "uint256"
            },
            {
              "internalType": "uint8",
              "name": "newColor",
              "type": "uint8"
            }
          ],
          "internalType": "struct SetColorArgs[]",
          "name": "setColorArgss",
          "type": "tuple[]"
        },
        {
          "components": [
            {
              "internalType": "uint256",
              "name": "pixelID",
              "type": "uint256"
            },
            {
              "internalType": "uint64",
              "name": "newPrice",
              "type": "uint64"
            }
          ],
          "internalType": "struct SetPriceArgs[]",
          "name": "setPriceArgss",
          "type": "tuple[]"
        }
      ],
      "name": "edit",
      "outputs": [],
      "stateMutability": "nonpayable",
      "type": "function"
    },
    {
      "inputs": [
        {
          "internalType": "uint256",
          "name": "pixelID",
          "type": "uint256"
        }
      ],
      "name": "exists",
      "outputs": [
        {
          "internalType": "bool",
          "name": "",
          "type": "bool"
        }
      ],
      "stateMutability": "view",
      "type": "function"
    },
    {
      "inputs": [
        {
          "internalType": "uint256",
          "name": "tokenId",
          "type": "uint256"
        }
      ],
      "name": "getApproved",
      "outputs": [
        {
          "internalType": "address",
          "name": "",
          "type": "address"
        }
      ],
      "stateMutability": "view",
      "type": "function"
    },
    {
      "inputs": [
        {
          "internalType": "address",
          "name": "account",
          "type": "address"
        }
      ],
      "name": "getBalance",
      "outputs": [
        {
          "internalType": "int64",
          "name": "",
          "type": "int64"
        }
      ],
      "stateMutability": "view",
      "type": "function"
    },
    {
      "inputs": [
        {
          "internalType": "uint256",
          "name": "pixelID",
          "type": "uint256"
        }
      ],
      "name": "getEarmarkAmount",
      "outputs": [
        {
          "internalType": "uint64",
          "name": "",
          "type": "uint64"
        }
      ],
      "stateMutability": "view",
      "type": "function"
    },
    {
      "inputs": [
        {
          "internalType": "uint256",
          "name": "pixelID",
          "type": "uint256"
        }
      ],
      "name": "getEarmarkReceiver",
      "outputs": [
        {
          "internalType": "address",
          "name": "",
          "type": "address"
        }
      ],
      "stateMutability": "view",
      "type": "function"
    },
    {
      "inputs": [],
      "name": "getInitialPrice",
      "outputs": [
        {
          "internalType": "uint64",
          "name": "",
          "type": "uint64"
        }
      ],
      "stateMutability": "view",
      "type": "function"
    },
    {
      "inputs": [
        {
          "internalType": "address",
          "name": "account",
          "type": "address"
        }
      ],
      "name": "getLastTaxPayment",
      "outputs": [
        {
          "internalType": "uint64",
          "name": "",
          "type": "uint64"
        }
      ],
      "stateMutability": "view",
      "type": "function"
    },
    {
      "inputs": [],
      "name": "getMaxPixelID",
      "outputs": [
        {
          "internalType": "uint256",
          "name": "",
          "type": "uint256"
        }
      ],
      "stateMutability": "view",
      "type": "function"
    },
    {
      "inputs": [
        {
          "internalType": "uint256",
          "name": "pixelID",
          "type": "uint256"
        }
      ],
      "name": "getNominalPrice",
      "outputs": [
        {
          "internalType": "uint64",
          "name": "",
          "type": "uint64"
        }
      ],
      "stateMutability": "view",
      "type": "function"
    },
    {
      "inputs": [],
      "name": "getOwnerWithdrawableAmount",
      "outputs": [
        {
          "internalType": "uint64",
          "name": "",
          "type": "uint64"
        }
      ],
      "stateMutability": "view",
      "type": "function"
    },
    {
      "inputs": [
        {
          "internalType": "uint256",
          "name": "pixelID",
          "type": "uint256"
        }
      ],
      "name": "getPrice",
      "outputs": [
        {
          "internalType": "uint64",
          "name": "",
          "type": "uint64"
        }
      ],
      "stateMutability": "view",
      "type": "function"
    },
    {
      "inputs": [
        {
          "internalType": "address",
          "name": "account",
          "type": "address"
        }
      ],
      "name": "getRecordedBalance",
      "outputs": [
        {
          "internalType": "int64",
          "name": "",
          "type": "int64"
        }
      ],
      "stateMutability": "view",
      "type": "function"
    },
    {
      "inputs": [],
      "name": "getRugPullHeadsUp",
      "outputs": [
        {
          "internalType": "uint256",
          "name": "",
          "type": "uint256"
        }
      ],
      "stateMutability": "view",
      "type": "function"
    },
    {
      "inputs": [],
      "name": "getRugPullTime",
      "outputs": [
        {
          "internalType": "uint256",
          "name": "",
          "type": "uint256"
        }
      ],
      "stateMutability": "view",
      "type": "function"
    },
    {
      "inputs": [
        {
          "internalType": "address",
          "name": "account",
          "type": "address"
        }
      ],
      "name": "getTaxBase",
      "outputs": [
        {
          "internalType": "uint64",
          "name": "",
          "type": "uint64"
        }
      ],
      "stateMutability": "view",
      "type": "function"
    },
    {
      "inputs": [],
      "name": "getTaxRate",
      "outputs": [
        {
          "internalType": "uint256",
          "name": "",
          "type": "uint256"
        },
        {
          "internalType": "uint256",
          "name": "",
          "type": "uint256"
        }
      ],
      "stateMutability": "view",
      "type": "function"
    },
    {
      "inputs": [],
      "name": "getTaxStartTime",
      "outputs": [
        {
          "internalType": "uint64",
          "name": "",
          "type": "uint64"
        }
      ],
      "stateMutability": "view",
      "type": "function"
    },
    {
      "inputs": [],
      "name": "getTotalInitialSaleRevenue",
      "outputs": [
        {
          "internalType": "uint256",
          "name": "",
          "type": "uint256"
        }
      ],
      "stateMutability": "view",
      "type": "function"
    },
    {
      "inputs": [],
      "name": "getTotalTaxesPaid",
      "outputs": [
        {
          "internalType": "uint64",
          "name": "",
          "type": "uint64"
        }
      ],
      "stateMutability": "view",
      "type": "function"
    },
    {
      "inputs": [
        {
          "internalType": "address",
          "name": "account",
          "type": "address"
        }
      ],
      "name": "getTotalTaxesPaidBy",
      "outputs": [
        {
          "internalType": "uint64",
          "name": "",
          "type": "uint64"
        }
      ],
      "stateMutability": "view",
      "type": "function"
    },
    {
      "inputs": [],
      "name": "getTotalWithdrawnByOwner",
      "outputs": [
        {
          "internalType": "uint256",
          "name": "",
          "type": "uint256"
        }
      ],
      "stateMutability": "view",
      "type": "function"
    },
    {
      "inputs": [
        {
          "internalType": "address",
          "name": "account",
          "type": "address"
        }
      ],
      "name": "getVirtualTotalTaxesPaidBy",
      "outputs": [
        {
          "internalType": "uint64",
          "name": "",
          "type": "uint64"
        }
      ],
      "stateMutability": "view",
      "type": "function"
    },
    {
      "inputs": [
        {
          "internalType": "uint256[]",
          "name": "pixelIDs",
          "type": "uint256[]"
        },
        {
          "internalType": "address[]",
          "name": "owners",
          "type": "address[]"
        },
        {
          "internalType": "uint64[]",
          "name": "prices",
          "type": "uint64[]"
        },
        {
          "internalType": "uint8[]",
          "name": "colors",
          "type": "uint8[]"
        }
      ],
      "name": "init",
      "outputs": [],
      "stateMutability": "nonpayable",
      "type": "function"
    },
    {
      "inputs": [
        {
          "internalType": "address",
          "name": "owner",
          "type": "address"
        },
        {
          "internalType": "address",
          "name": "operator",
          "type": "address"
        }
      ],
      "name": "isApprovedForAll",
      "outputs": [
        {
          "internalType": "bool",
          "name": "",
          "type": "bool"
        }
      ],
      "stateMutability": "view",
      "type": "function"
    },
    {
      "inputs": [],
      "name": "isInitializing",
      "outputs": [
        {
          "internalType": "bool",
          "name": "",
          "type": "bool"
        }
      ],
      "stateMutability": "view",
      "type": "function"
    },
    {
      "inputs": [],
      "name": "name",
      "outputs": [
        {
          "internalType": "string",
          "name": "",
          "type": "string"
        }
      ],
      "stateMutability": "view",
      "type": "function"
    },
    {
      "inputs": [],
      "name": "owner",
      "outputs": [
        {
          "internalType": "address",
          "name": "",
          "type": "address"
        }
      ],
      "stateMutability": "view",
      "type": "function"
    },
    {
      "inputs": [
        {
          "internalType": "uint256",
          "name": "tokenId",
          "type": "uint256"
        }
      ],
      "name": "ownerOf",
      "outputs": [
        {
          "internalType": "address",
          "name": "",
          "type": "address"
        }
      ],
      "stateMutability": "view",
      "type": "function"
    },
    {
      "inputs": [
        {
          "internalType": "address",
          "name": "account",
          "type": "address"
        }
      ],
      "name": "payTaxes",
      "outputs": [],
      "stateMutability": "nonpayable",
      "type": "function"
    },
    {
      "inputs": [
        {
          "internalType": "address",
          "name": "receiver",
          "type": "address"
        },
        {
          "internalType": "uint256",
          "name": "value",
          "type": "uint256"
        }
      ],
      "name": "performRugPull",
      "outputs": [],
      "stateMutability": "nonpayable",
      "type": "function"
    },
    {
      "inputs": [],
      "name": "renounceOwnership",
      "outputs": [],
      "stateMutability": "nonpayable",
      "type": "function"
    },
    {
      "inputs": [
        {
          "internalType": "address",
          "name": "",
          "type": "address"
        },
        {
          "internalType": "address",
          "name": "",
          "type": "address"
        },
        {
          "internalType": "uint256",
          "name": "",
          "type": "uint256"
        }
      ],
      "name": "safeTransferFrom",
      "outputs": [],
      "stateMutability": "nonpayable",
      "type": "function"
    },
    {
      "inputs": [
        {
          "internalType": "address",
          "name": "",
          "type": "address"
        },
        {
          "internalType": "address",
          "name": "",
          "type": "address"
        },
        {
          "internalType": "uint256",
          "name": "",
          "type": "uint256"
        },
        {
          "internalType": "bytes",
          "name": "",
          "type": "bytes"
        }
      ],
      "name": "safeTransferFrom",
      "outputs": [],
      "stateMutability": "nonpayable",
      "type": "function"
    },
    {
      "inputs": [
        {
          "internalType": "address",
          "name": "operator",
          "type": "address"
        },
        {
          "internalType": "bool",
          "name": "approved",
          "type": "bool"
        }
      ],
      "name": "setApprovalForAll",
      "outputs": [],
      "stateMutability": "nonpayable",
      "type": "function"
    },
    {
      "inputs": [],
      "name": "stopInitialization",
      "outputs": [],
      "stateMutability": "nonpayable",
      "type": "function"
    },
    {
      "inputs": [
        {
          "internalType": "bytes4",
          "name": "interfaceId",
          "type": "bytes4"
        }
      ],
      "name": "supportsInterface",
      "outputs": [
        {
          "internalType": "bool",
          "name": "",
          "type": "bool"
        }
      ],
      "stateMutability": "view",
      "type": "function"
    },
    {
      "inputs": [],
      "name": "symbol",
      "outputs": [
        {
          "internalType": "string",
          "name": "",
          "type": "string"
        }
      ],
      "stateMutability": "view",
      "type": "function"
    },
    {
      "inputs": [
        {
          "internalType": "uint256",
          "name": "index",
          "type": "uint256"
        }
      ],
      "name": "tokenByIndex",
      "outputs": [
        {
          "internalType": "uint256",
          "name": "",
          "type": "uint256"
        }
      ],
      "stateMutability": "view",
      "type": "function"
    },
    {
      "inputs": [
        {
          "internalType": "address",
          "name": "owner",
          "type": "address"
        },
        {
          "internalType": "uint256",
          "name": "index",
          "type": "uint256"
        }
      ],
      "name": "tokenOfOwnerByIndex",
      "outputs": [
        {
          "internalType": "uint256",
          "name": "",
          "type": "uint256"
        }
      ],
      "stateMutability": "view",
      "type": "function"
    },
    {
      "inputs": [
        {
          "internalType": "uint256",
          "name": "tokenId",
          "type": "uint256"
        }
      ],
      "name": "tokenURI",
      "outputs": [
        {
          "internalType": "string",
          "name": "",
          "type": "string"
        }
      ],
      "stateMutability": "view",
      "type": "function"
    },
    {
      "inputs": [],
      "name": "totalSupply",
      "outputs": [
        {
          "internalType": "uint256",
          "name": "",
          "type": "uint256"
        }
      ],
      "stateMutability": "view",
      "type": "function"
    },
    {
      "inputs": [
        {
          "internalType": "address",
          "name": "",
          "type": "address"
        },
        {
          "internalType": "address",
          "name": "",
          "type": "address"
        },
        {
          "internalType": "uint256",
          "name": "",
          "type": "uint256"
        }
      ],
      "name": "transferFrom",
      "outputs": [],
      "stateMutability": "nonpayable",
      "type": "function"
    },
    {
      "inputs": [
        {
          "internalType": "address",
          "name": "newOwner",
          "type": "address"
        }
      ],
      "name": "transferOwnership",
      "outputs": [],
      "stateMutability": "nonpayable",
      "type": "function"
    },
    {
      "inputs": [
        {
          "internalType": "address",
          "name": "account",
          "type": "address"
        },
        {
          "internalType": "uint64",
          "name": "amount",
          "type": "uint64"
        },
        {
          "internalType": "address",
          "name": "receiver",
          "type": "address"
        }
      ],
      "name": "withdraw",
      "outputs": [],
      "stateMutability": "nonpayable",
      "type": "function"
    },
    {
      "inputs": [
        {
          "internalType": "address",
          "name": "account",
          "type": "address"
        },
        {
          "internalType": "address",
          "name": "receiver",
          "type": "address"
        }
      ],
      "name": "withdrawMax",
      "outputs": [],
      "stateMutability": "nonpayable",
      "type": "function"
    },
    {
      "inputs": [
        {
          "internalType": "address",
          "name": "receiver",
          "type": "address"
        }
      ],
      "name": "withdrawMaxOwner",
      "outputs": [],
      "stateMutability": "nonpayable",
      "type": "function"
    },
    {
      "inputs": [
        {
          "internalType": "uint64",
          "name": "amount",
          "type": "uint64"
        },
        {
          "internalType": "address",
          "name": "receiver",
          "type": "address"
        }
      ],
      "name": "withdrawOwner",
      "outputs": [],
      "stateMutability": "nonpayable",
      "type": "function"
    }
  ],
  "bytecode": "0x60806040523480156200001157600080fd5b50604051620062e0380380620062e08339810160408190526200003491620003f4565b6040805180820182526005815264141a5e195b60da1b6020808301919091528251808401909352600383526214161360ea1b9083015282916200007e6301ffc9a760e01b6200028a565b81516200009390600690602085019062000313565b508051620000a990600790602084019062000313565b50620000bc6380ac58cd60e01b6200028a565b620000ce635b5e139f60e01b6200028a565b620000e063780e9d6360e01b6200028a565b5060009050620000ef6200030f565b600a80546001600160a01b0319166001600160a01b038316908117909155604051919250906000907f8be0079c531659141344cd1fd0a4f28419497f9722a3daafe3b4186f6b6457e0908290a35063096601808111156200016d5760405162461bcd60e51b815260040162000164906200046d565b60405180910390fd5b600b55600d805460ff191690556000600c556001600160801b038716620001a85760405162461bcd60e51b8152600401620001649062000553565b6000866001600160801b031611620001d45760405162461bcd60e51b8152600401620001649062000596565b6001600160401b03851115620001fe5760405162461bcd60e51b81526004016200016490620004a4565b60008411620002215760405162461bcd60e51b8152600401620001649062000501565b506012805495909602600019016001600160801b0316601155600e93909355600f91909155601080546001600160401b03199081166001600160401b03938416179091556801000000000000000060ff60401b19909416939093179092169116179055620005da565b6001600160e01b03198082161415620002ea576040805162461bcd60e51b815260206004820152601c60248201527f4552433136353a20696e76616c696420696e7465726661636520696400000000604482015290519081900360640190fd5b6001600160e01b0319166000908152602081905260409020805460ff19166001179055565b3390565b828054600181600116156101000203166002900490600052602060002090601f0160209004810192826200034b576000855562000396565b82601f106200036657805160ff191683800117855562000396565b8280016001018555821562000396579182015b828111156200039657825182559160200191906001019062000379565b50620003a4929150620003a8565b5090565b5b80821115620003a45760008155600101620003a9565b80516001600160801b0381168114620003d757600080fd5b919050565b80516001600160401b0381168114620003d757600080fd5b600080600080600080600060e0888a0312156200040f578283fd5b6200041a88620003bf565b96506200042a60208901620003bf565b955060408801519450606088015193506200044860808901620003dc565b92506200045860a08901620003dc565b915060c0880151905092959891949750929550565b60208082526019908201527f52756750756c6c3a20686561647320757020746f6f2062696700000000000000604082015260600190565b60208082526035908201527f47726166666974455448323a207461782072617465206e756d657261746f722060408201527f6d757374206e6f7420626520746f6f206c617267650000000000000000000000606082015260800190565b60208082526032908201527f47726166666974455448323a2074617820726174652064656e6f6d696e61746f60408201527172206d757374206e6f74206265207a65726f60701b606082015260800190565b60208082526023908201527f47726166666974455448323a207769647468206d757374206e6f74206265207a60408201526265726f60e81b606082015260800190565b60208082526024908201527f47726166666974455448323a20686569676874206d757374206e6f74206265206040820152637a65726f60e01b606082015260800190565b615cf680620005ea6000396000f3fe6080604052600436106102a75760003560e01c806301ffc9a7146102ac57806302e08073146102e257806306f660ef1461030f57806306fdde0314610331578063081812fc14610353578063095ea7b3146103805780630bdfc9e1146103a25780630cb9bce2146103c257806314c53886146103e257806318160ddd146104045780631ac2e30514610419578063209b19001461042e578063234bc02614610443578063238314941461046357806323b872dd1461047857806329039967146104985780632f745c59146104ad5780633dbe1b3b146104cd5780633ec91f05146104e257806342842e0e146104785780634764b194146104f757806347e4d1321461050a578063492a80111461052a5780634f558e791461054a5780634f6ccce71461056a5780635057f0e21461058a57806351dde5a8146105aa5780635df33607146105bf5780636352211e146105df57806369476fe4146105ff5780636c0360eb1461061f57806370a0823114610634578063715018a6146106545780638024f2c41461066957806384b00178146106895780638da5cb5b146106a957806395d89b41146106be57806399dabf93146106d3578063a09c3729146106e8578063a22cb46514610708578063a5e139e614610728578063ab06a18414610748578063b10a7cce1461075d578063b760faf914610772578063b88d4fde14610785578063c0530090146107a0578063c229aaf8146107b5578063c87b56dd146107d5578063cb66667f146107f5578063cc1c332614610818578063cfaca2d014610838578063d0e30db014610858578063dc28d24e14610860578063e528815c14610875578063e757223014610895578063e985e9c5146108b5578063ef43e29d146108d5578063f2fde38b146108f5578063f88b8a5714610915578063f8b2cb4f1461092a575b600080fd5b3480156102b857600080fd5b506102cc6102c7366004614e9c565b61094a565b6040516102d99190614f64565b60405180910390f35b3480156102ee57600080fd5b506103026102fd366004614a85565b61096d565b6040516102d99190614f6f565b34801561031b57600080fd5b5061032461098b565b6040516102d99190615978565b34801561033d57600080fd5b5061034661099a565b6040516102d99190614f7d565b34801561035f57600080fd5b5061037361036e366004614ec4565b610a30565b6040516102d99190614f50565b34801561038c57600080fd5b506103a061039b366004614d40565b610a92565b005b3480156103ae57600080fd5b506103246103bd366004614a85565b610b68565b3480156103ce57600080fd5b506103246103dd366004614a85565b610b93565b3480156103ee57600080fd5b506103f7610c12565b6040516102d99190615961565b34801561041057600080fd5b506103f7610c28565b34801561042557600080fd5b506103a0610c39565b34801561043a57600080fd5b506103f7610cdc565b34801561044f57600080fd5b506103a061045e366004614a85565b610ceb565b34801561046f57600080fd5b506103f7610e38565b34801561048457600080fd5b506103a0610493366004614ad1565b610e3e565b3480156104a457600080fd5b50610324610e40565b3480156104b957600080fd5b506103f76104c8366004614d40565b610e56565b3480156104d957600080fd5b506102cc610e81565b3480156104ee57600080fd5b506102cc610e89565b6103a0610505366004614bbd565b610e99565b34801561051657600080fd5b506103a0610525366004614f0e565b610ec8565b34801561053657600080fd5b506103a0610545366004614a85565b610ed4565b34801561055657600080fd5b506102cc610565366004614ec4565b610f4a565b34801561057657600080fd5b506103f7610585366004614ec4565b610f55565b34801561059657600080fd5b506103246105a5366004614a85565b610f6b565b3480156105b657600080fd5b506102cc610f96565b3480156105cb57600080fd5b506103246105da366004614ec4565b610f9f565b3480156105eb57600080fd5b506103736105fa366004614ec4565b610fdc565b34801561060b57600080fd5b5061032461061a366004614a85565b611004565b34801561062b57600080fd5b5061034661102f565b34801561064057600080fd5b506103f761064f366004614a85565b611090565b34801561066057600080fd5b506103a06110f8565b34801561067557600080fd5b506103a0610684366004614d40565b611192565b34801561069557600080fd5b506103a06106a4366004614dab565b611202565b3480156106b557600080fd5b50610373611587565b3480156106ca57600080fd5b50610346611596565b3480156106df57600080fd5b506103a06115f7565b3480156106f457600080fd5b50610324610703366004614ec4565b611663565b34801561071457600080fd5b506103a0610723366004614d06565b611685565b34801561073457600080fd5b506103a0610743366004614bbd565b610ea3565b34801561075457600080fd5b50610324611786565b34801561076957600080fd5b506103f76117e6565b6103a0610780366004614a85565b6117ec565b34801561079157600080fd5b506103a0610493366004614b0c565b3480156107ac57600080fd5b506103a06117f6565b3480156107c157600080fd5b506103a06107d0366004614f32565b611860565b3480156107e157600080fd5b506103466107f0366004614ec4565b6118cc565b34801561080157600080fd5b5061080a611b4d565b6040516102d992919061596a565b34801561082457600080fd5b506103a0610833366004614edc565b611b57565b34801561084457600080fd5b50610373610853366004614ec4565b611bff565b6103a0611c1a565b34801561086c57600080fd5b506103f7611c24565b34801561088157600080fd5b506103a0610890366004614a9f565b611c2a565b3480156108a157600080fd5b506103246108b0366004614ec4565b611c35565b3480156108c157600080fd5b506102cc6108d0366004614a9f565b611c9e565b3480156108e157600080fd5b506103a06108f0366004614d69565b611ccc565b34801561090157600080fd5b506103a0610910366004614a85565b611cd8565b34801561092157600080fd5b50610324611dc9565b34801561093657600080fd5b50610302610945366004614a85565b611dd8565b6001600160e01b0319811660009081526020819052604090205460ff165b919050565b6001600160a01b031660009081526014602052604090205460070b90565b6012546001600160401b031690565b60068054604080516020601f6002600019610100600188161502019095169490940493840181900481028201810190925282815260609390929091830182828015610a265780601f106109fb57610100808354040283529160200191610a26565b820191906000526020600020905b815481529060010190602001808311610a0957829003601f168201915b5050505050905090565b6000610a3b82611e54565b610a765760405162461bcd60e51b815260040180806020018281038252602c815260200180615b7c602c913960400191505060405180910390fd5b506000908152600460205260409020546001600160a01b031690565b6000610a9d82610fdc565b9050806001600160a01b0316836001600160a01b03161415610af05760405162461bcd60e51b8152600401808060200182810382526021815260200180615c606021913960400191505060405180910390fd5b806001600160a01b0316610b02611e61565b6001600160a01b03161480610b1e5750610b1e816108d0611e61565b610b595760405162461bcd60e51b8152600401808060200182810382526038815260200180615aaf6038913960400191505060405180910390fd5b610b638383611e65565b505050565b6001600160a01b0316600090815260146020526040902054600160801b90046001600160401b031690565b6001600160a01b038116600090815260146020908152604080832081516080810183529054600781810b810b900b82526001600160401b03600160401b8204811694830194909452600160801b8104841692820192909252600160c01b909104909116606082015281610c0582611ed3565b5060600151949350505050565b601654600160801b90046001600160401b031690565b6000610c346002611f04565b905090565b610c41611e61565b6001600160a01b0316610c52611587565b6001600160a01b031614610c9b576040805162461bcd60e51b81526020600482018190526024820152600080516020615ba8833981519152604482015290519081900360640190fd5b601254600160401b900460ff16610ccd5760405162461bcd60e51b8152600401610cc49061582d565b60405180910390fd5b6012805460ff60401b19169055565b6016546001600160401b031690565b6001600160a01b038116600090815260146020908152604080832081516080810183529054600781810b810b900b82526001600160401b03600160401b8204811694830194909452600160801b8104841692820192909252600160c01b909104909116606082015290610d5d82611ed3565b6001600160a01b03851660009081526014602090815260409182902084518154928601519386015160608701516001600160401b031990941660079290920b6001600160401b0390811692909217600160401b600160801b031916600160401b958316860217600160801b600160c01b031916600160801b91831691909102176001600160c01b0316600160c01b93821693909302929092179055601654939550919350610e0d92041682611f0f565b601660086101000a8154816001600160401b0302191690836001600160401b03160217905550505050565b600c5490565bfe5b601654600160401b90046001600160401b031690565b6001600160a01b0382166000908152600160205260408120610e789083611fa8565b90505b92915050565b600c54151590565b601254600160401b900460ff1690565b610ea33385611fb4565b610eae3385856121c2565b610eb83383612aaa565b610ec23382612b81565b50505050565b610b6333848484612e42565b610edc611e61565b6001600160a01b0316610eed611587565b6001600160a01b031614610f36576040805162461bcd60e51b81526020600482018190526024820152600080516020615ba8833981519152604482015290519081900360640190fd5b610f47610f41611786565b82613430565b50565b6000610e7b82611e54565b600080610f6360028461359e565b509392505050565b6001600160a01b0316600090815260146020526040902054600160c01b90046001600160401b031690565b600d5460ff1690565b6000610faa82611e54565b610fc057506012546001600160401b0316610968565b506000908152601360205260409020546001600160401b031690565b6000610e7b82604051806060016040528060298152602001615b1160299139600291906135ba565b6001600160a01b0316600090815260146020526040902054600160401b90046001600160401b031690565b60098054604080516020601f6002600019610100600188161502019095169490940493840181900481028201810190925282815260609390929091830182828015610a265780601f106109fb57610100808354040283529160200191610a26565b60006001600160a01b0382166110d75760405162461bcd60e51b815260040180806020018281038252602a815260200180615ae7602a913960400191505060405180910390fd5b6001600160a01b0382166000908152600160205260409020610e7b90611f04565b611100611e61565b6001600160a01b0316611111611587565b6001600160a01b03161461115a576040805162461bcd60e51b81526020600482018190526024820152600080516020615ba8833981519152604482015290519081900360640190fd5b600a546040516000916001600160a01b031690600080516020615bc8833981519152908390a3600a80546001600160a01b0319169055565b61119a611e61565b6001600160a01b03166111ab611587565b6001600160a01b0316146111f4576040805162461bcd60e51b81526020600482018190526024820152600080516020615ba8833981519152604482015290519081900360640190fd5b6111fe82826135d1565b5050565b61120a611e61565b6001600160a01b031661121b611587565b6001600160a01b031614611264576040805162461bcd60e51b81526020600482018190526024820152600080516020615ba8833981519152604482015290519081900360640190fd5b601254600160401b900460ff1661128d5760405162461bcd60e51b8152600401610cc49061582d565b8351835181146112af5760405162461bcd60e51b8152600401610cc490615720565b808351146112cf5760405162461bcd60e51b8152600401610cc490615694565b808251146112ef5760405162461bcd60e51b8152600401610cc4906154c8565b60005b8181101561157f57600086828151811061130857fe5b60200260200101519050600086838151811061132057fe5b60200260200101519050600086848151811061133857fe5b60200260200101519050600086858151811061135057fe5b6020026020010151905061136384611e54565b156113805760405162461bcd60e51b8152600401610cc490614fd0565b61138a8385613701565b6001600160a01b038316600090815260146020908152604080832081516080810183529054600781810b810b900b82526001600160401b03600160401b8204811694830194909452600160801b8104841692820192909252600160c01b9091049091166060820152906113fc82611ed3565b909250905061140b828561381c565b600087815260136020908152604080832080546001600160401b03808b166001600160401b0319928316179092556001600160a01b038b168552601484529382902085518154948701519387015160608801518416600160c01b026001600160c01b03918516600160801b02600160801b600160c01b0319968616600160401b02600160401b600160801b031960079590950b87169890991697909717929092169690961793909316939093179390931617905590925081161561150d576016546114e690600160401b90046001600160401b031682611f0f565b601660086101000a8154816001600160401b0302191690836001600160401b031602179055505b846001600160a01b031686600080516020615ca1833981519152866040516115359190615978565b60405180910390a3846001600160a01b031686600080516020615b3a8339815191528560405161156591906159a8565b60405180910390a35050600190940193506112f292505050565b505050505050565b600a546001600160a01b031690565b60078054604080516020601f6002600019610100600188161502019095169490940493840181900481028201810190925282815260609390929091830182828015610a265780601f106109fb57610100808354040283529160200191610a26565b6115ff611e61565b6001600160a01b0316611610611587565b6001600160a01b031614611659576040805162461bcd60e51b81526020600482018190526024820152600080516020615ba8833981519152604482015290519081900360640190fd5b61166161387c565b565b600090815260156020526040902054600160a01b90046001600160401b031690565b61168d611e61565b6001600160a01b0316826001600160a01b031614156116ef576040805162461bcd60e51b815260206004820152601960248201527822a9219b99189d1030b8383937bb32903a379031b0b63632b960391b604482015290519081900360640190fd5b80600560006116fc611e61565b6001600160a01b03908116825260208083019390935260409182016000908120918716808252919093529120805460ff191692151592909217909155611740611e61565b6001600160a01b03167f17307eab39ab6107e8899845ad3d59bd9653f200f220920489ca2b5937696c318360405180821515815260200191505060405180910390a35050565b60165460009081906117aa906001600160401b03600160401b820481169116611f0f565b6016549091506001600160401b03808316600160801b9092041611156117cc57fe5b601654600160801b90046001600160401b03169003919050565b60115490565b610f473382611fb4565b6117fe611e61565b6001600160a01b031661180f611587565b6001600160a01b031614611858576040805162461bcd60e51b81526020600482018190526024820152600080516020615ba8833981519152604482015290519081900360640190fd5b6116616138d9565b611868611e61565b6001600160a01b0316611879611587565b6001600160a01b0316146118c2576040805162461bcd60e51b81526020600482018190526024820152600080516020615ba8833981519152604482015290519081900360640190fd5b6111fe8282613430565b60606118d782611e54565b6119125760405162461bcd60e51b815260040180806020018281038252602f815260200180615c11602f913960400191505060405180910390fd5b60008281526008602090815260408083208054825160026001831615610100026000190190921691909104601f8101859004850282018501909352828152929091908301828280156119a55780601f1061197a576101008083540402835291602001916119a5565b820191906000526020600020905b81548152906001019060200180831161198857829003601f168201915b5050505050905060006119b661102f565b90508051600014156119ca57509050610968565b815115611a8b5780826040516020018083805190602001908083835b60208310611a055780518252601f1990920191602091820191016119e6565b51815160209384036101000a600019018019909216911617905285519190930192850191508083835b60208310611a4d5780518252601f199092019160209182019101611a2e565b6001836020036101000a0380198251168184511680821785525050505050509050019250505060405160208183030381529060405292505050610968565b80611a9585613962565b6040516020018083805190602001908083835b60208310611ac75780518252601f199092019160209182019101611aa8565b51815160209384036101000a600019018019909216911617905285519190930192850191508083835b60208310611b0f5780518252601f199092019160209182019101611af0565b6001836020036101000a0380198251168184511680821785525050505050509050019250505060405160208183030381529060405292505050919050565b600e54600f549091565b611b6083611e54565b611b7c5760405162461bcd60e51b8152600401610cc4906156df565b6000611b8784610fdc565b9050336001600160a01b0382161480611ba55750611ba58133611c9e565b611bc15760405162461bcd60e51b8152600401610cc49061587b565b806001600160a01b0316836001600160a01b03161415611bf35760405162461bcd60e51b8152600401610cc49061544c565b610ec284828585613a3c565b6000908152601560205260409020546001600160a01b031690565b6116613333611fb4565b600b5490565b6111fe338383613ae8565b6000611c4082611e54565b611c5657506012546001600160401b0316610968565b6000611c6183610fdc565b90506000611c6e82611dd8565b60070b1215611c81576000915050610968565b50506000908152601360205260409020546001600160401b031690565b6001600160a01b03918216600090815260056020908152604080832093909416825291909152205460ff1690565b610b6333848484613b45565b611ce0611e61565b6001600160a01b0316611cf1611587565b6001600160a01b031614611d3a576040805162461bcd60e51b81526020600482018190526024820152600080516020615ba8833981519152604482015290519081900360640190fd5b6001600160a01b038116611d7f5760405162461bcd60e51b8152600401808060200182810382526026815260200180615a196026913960400191505060405180910390fd5b600a546040516001600160a01b03808416921690600080516020615bc883398151915290600090a3600a80546001600160a01b0319166001600160a01b0392909216919091179055565b6010546001600160401b031690565b6001600160a01b038116600090815260146020908152604080832081516080810183529054600781810b810b900b82526001600160401b03600160401b8204811694830194909452600160801b8104841692820192909252600160c01b909104909116606082015281611e4a82611ed3565b5051949350505050565b6000610e7b600283613dfb565b3390565b600081815260046020526040902080546001600160a01b0319166001600160a01b0384169081179091558190611e9a82610fdc565b6001600160a01b03167f8c5be1e5ebec7d5bd14f71427d1e84f3dd0314c0f7b2291e5b200ac8c7c3b92560405160405180910390a45050565b611edb6147ae565b600e54600f54601054600092611efb9286926001600160401b0316613e07565b91509150915091565b6000610e7b82613f6e565b600080826001600160401b03036001600160401b0316846001600160401b031611611f3d5750828201611f47565b506001600160401b035b836001600160401b0316816001600160401b031610158015611f7b5750826001600160401b0316816001600160401b031610155b611f8157fe5b826001600160401b0316846001600160401b031601816001600160401b03161115610e7857fe5b6000610e788383613f72565b34611fbe576111fe565b6001600160a01b038116600090815260146020908152604080832081516080810183529054600781810b810b900b82526001600160401b03600160401b8204811694830194909452600160801b8104841692820192909252600160c01b90910490911660608201529061203082611ed3565b9092509050633b9aca003406156120595760405162461bcd60e51b8152600401610cc490615347565b633b9aca0034046001600160401b038111156120875760405162461bcd60e51b8152600401610cc4906158d0565b80612093848285613fd6565b6001600160a01b03871660009081526014602090815260409182902084518154928601519386015160608701516001600160401b031990941660079290920b6001600160401b0390811692909217600160401b600160801b031916600160401b958316860217600160801b600160c01b031916600160801b91831691909102176001600160c01b0316600160c01b9382169390930292909217905560165493975091955061214392041684611f0f565b601660086101000a8154816001600160401b0302191690836001600160401b03160217905550856001600160a01b0316856001600160a01b03167f7f47d64cdde07db4fa19e0a84cd922350a3d36ea535615d05520cf9531966a778387600001516040516121b292919061598c565b60405180910390a3505050505050565b816001600160a01b0316836001600160a01b031614806121e757506121e78284611c9e565b6122035760405162461bcd60e51b8152600401610cc490615061565b805161220e57610b63565b6001600160a01b038216600090815260146020908152604080832081516080810183529054600781810b810b900b82526001600160401b03600160401b8204811694830194909452600160801b8104841692820192909252600160c01b9091048216606082015283519092918291908111801561228a57600080fd5b506040519080825280602002602001820160405280156122b4578160200160208202803683370190505b509050600084516001600160401b03811180156122d057600080fd5b5060405190808252806020026020018201604052801561230a57816020015b6122f76147ae565b8152602001906001900390816122ef5790505b50905060008061231a868361406f565b909650915060005b87518110156128a457801580612368575087600182038151811061234257fe5b60200260200101516000015188828151811061235a57fe5b602002602001015160000151115b6123845760405162461bcd60e51b8152600401610cc4906155b6565b60006123a689838151811061239557fe5b602002602001015160000151611c35565b90508882815181106123b457fe5b6020026020010151602001516001600160401b0316816001600160401b031611156123f15760405162461bcd60e51b8152600401610cc49061523c565b806001600160401b0316886000015160070b600f0b12156124245760405162461bcd60e51b8152600401610cc4906151f6565b61242e88826140a6565b9750612451888a848151811061244057fe5b60200260200101516040015161381c565b975060006124758a848151811061246457fe5b602002602001015160000151611e54565b156126ac5761249a8a848151811061248957fe5b602002602001015160000151610fdc565b90508a6001600160a01b0316816001600160a01b031614156124ce5760405162461bcd60e51b8152600401610cc49061576b565b6124d66147ae565b60005b8981101561253157826001600160a01b03168982815181106124f757fe5b60200260200101516001600160a01b031614156125295787818151811061251a57fe5b60200260200101519150612531565b6001016124d9565b8981111561253b57fe5b898114156125f2576001600160a01b03831660009081526014602090815260409182902082516080810184529054600781810b810b900b82526001600160401b03600160401b8204811693830193909352600160801b8104831693820193909352600160c01b90920416606082015289516001909b019a90925083908a90839081106125c357fe5b60200260200101906001600160a01b031690816001600160a01b0316815250506125ed828861406f565b975091505b6000601360008e888151811061260457fe5b602090810291909101810151518252810191909152604001600020546001600160401b0316905061263683868a613fd6565b9850925061264483826140ca565b92508289838151811061265357fe5b60200260200101819052506126828d878151811061266d57fe5b60200260200101516000015185600080613a3c565b6126a4848f8f898151811061269357fe5b60200260200101516000015161410b565b505050612715565b5060006126b98483611f0f565b93506011548a84815181106126ca57fe5b60200260200101516000015111156126f45760405162461bcd60e51b8152600401610cc4906150b2565b6127158b8b858151811061270457fe5b602002602001015160000151613701565b89838151811061272157fe5b602002602001015160400151601360008c868151811061273d57fe5b602002602001015160000151815260200190815260200160002060006101000a8154816001600160401b0302191690836001600160401b031602179055508a6001600160a01b0316816001600160a01b03168b858151811061279b57fe5b6020026020010151600001517f42a061f17422d0a3fce98316d85925477270aa3f53991439bfc973e72f65f160856040516127d69190615978565b60405180910390a48a6001600160a01b03168a84815181106127f457fe5b602002602001015160000151600080516020615b3a8339815191528c868151811061281b57fe5b60200260200101516060015160405161283491906159a8565b60405180910390a38a6001600160a01b03168a848151811061285257fe5b602002602001015160000151600080516020615ca18339815191528c868151811061287957fe5b6020026020010151604001516040516128929190615978565b60405180910390a35050600101612322565b506001600160a01b03881660009081526014602090815260409182902088518154928a0151938a015160608b01516001600160401b03908116600160c01b026001600160c01b03928216600160801b02600160801b600160c01b0319978316600160401b02600160401b600160801b031960079690960b9093166001600160401b0319909716969096179390931617949094169290921792909216179055825184511461294d57fe5b60005b8451811015612a2f57600085828151811061296757fe5b6020026020010151905084828151811061297d57fe5b6020908102919091018101516001600160a01b03929092166000908152601482526040908190208351815493850151928501516060909501516001600160401b031990941660079190910b6001600160401b0390811691909117600160401b600160801b031916600160401b9382169390930292909217600160801b600160c01b031916600160801b94831694909402939093176001600160c01b0316600160c01b9190921602179055600101612950565b50601654612a4d90600160401b90046001600160401b031683611f0f565b60168054600160401b600160801b031916600160401b6001600160401b03938416021790819055612a7f911682611f0f565b601680546001600160401b0319166001600160401b0392909216919091179055505050505050505050565b60005b8151811015610b63576000828281518110612ac457fe5b60200260200101516000015190506000838381518110612ae057fe5b6020026020010151602001519050612af782611e54565b612b135760405162461bcd60e51b8152600401610cc4906156df565b6000612b1e83610fdc565b9050612b2a8684614245565b612b465760405162461bcd60e51b8152600401610cc490615016565b806001600160a01b031683600080516020615b3a83398151915284604051612b6e91906159a8565b60405180910390a3505050600101612aad565b8051612b8c576111fe565b6000612b966147ae565b6000805b8451811015612d71576000858281518110612bb157fe5b60200260200101516000015190506000868381518110612bcd57fe5b6020026020010151602001519050612be482611e54565b612bed57600080fd5b6000612bf883610fdc565b9050612c048984614245565b612c205760405162461bcd60e51b8152600401610cc49061556b565b83612ca5576001600160a01b03811660009081526014602090815260409182902082516080810184529054600781810b810b900b82526001600160401b03600160401b8204811693830193909352600160801b8104831693820193909352600160c01b909204166060820152909650945085612c9b86611ed3565b9096509450612cd6565b866001600160a01b0316816001600160a01b031614612cd65760405162461bcd60e51b8152600401610cc49061539d565b6000838152601360205260409020546001600160401b0316612cf887826140ca565b9650612d04878461381c565b6000858152601360205260409081902080546001600160401b0319166001600160401b038716179055519097506001600160a01b038316908590600080516020615ca183398151915290612d59908790615978565b60405180910390a3505060019092019150612b9a9050565b50601654612d8f90600160401b90046001600160401b031682611f0f565b601680546001600160401b03928316600160401b908102600160401b600160801b0319928316179092556001600160a01b039095166000908152601460209081526040918290208651815492880151938801516060909801518616600160c01b026001600160c01b03988716600160801b02600160801b600160c01b031995881690960260079290920b9096166001600160401b0319909316929092179097161716179290921691909117909155505050565b612e4b83611e54565b612e675760405162461bcd60e51b8152600401610cc4906156df565b6000612e7284610fdc565b6000858152601560209081526040918290208251808401909352546001600160a01b03808216808552600160a01b9092046001600160401b031692840192909252929350909190871614612ed85760405162461bcd60e51b8152600401610cc4906155f7565b60008060146000856001600160a01b03166001600160a01b031681526020019081526020016000206040518060800160405290816000820160009054906101000a900460070b60070b60070b81526020016000820160089054906101000a90046001600160401b03166001600160401b03166001600160401b031681526020016000820160109054906101000a90046001600160401b03166001600160401b03166001600160401b031681526020016000820160189054906101000a90046001600160401b03166001600160401b03166001600160401b03168152505090506000601460008a6001600160a01b03166001600160a01b031681526020019081526020016000206040518060800160405290816000820160009054906101000a900460070b60070b60070b81526020016000820160089054906101000a90046001600160401b03166001600160401b03166001600160401b031681526020016000820160109054906101000a90046001600160401b03166001600160401b03166001600160401b031681526020016000820160189054906101000a90046001600160401b03166001600160401b03166001600160401b031681525050905061309f828461406f565b935091506130ad818461406f565b9350905060006130bc89610f9f565b9050876001600160401b0316816001600160401b031611156130f05760405162461bcd60e51b8152600401610cc490615286565b6130fa83826140ca565b9250613106828261381c565b9150600085602001516001600160401b0316846000015160070b600f0b1261313357506020850151613169565b6000846000015160070b126131655783516001600160401b0360079190910b600f0b131561315d57fe5b508251613169565b5060005b876001600160401b0316816001600160401b0316101561319b5760405162461bcd60e51b8152600401610cc4906157b5565b6131a584826140a6565b93506131b2838287613fd6565b80965081945050508360146000896001600160a01b03166001600160a01b0316815260200190815260200160002060008201518160000160006101000a8154816001600160401b03021916908360070b6001600160401b0316021790555060208201518160000160086101000a8154816001600160401b0302191690836001600160401b0316021790555060408201518160000160106101000a8154816001600160401b0302191690836001600160401b0316021790555060608201518160000160186101000a8154816001600160401b0302191690836001600160401b0316021790555090505082601460008d6001600160a01b03166001600160a01b0316815260200190815260200160002060008201518160000160006101000a8154816001600160401b03021916908360070b6001600160401b0316021790555060208201518160000160086101000a8154816001600160401b0302191690836001600160401b0316021790555060408201518160000160106101000a8154816001600160401b0302191690836001600160401b0316021790555060608201518160000160186101000a8154816001600160401b0302191690836001600160401b03160217905550905050613399601660089054906101000a90046001600160401b031686611f0f565b601660086101000a8154816001600160401b0302191690836001600160401b031602179055506133ca878c8c61410b565b6133d78a88600080613a3c565b8a6001600160a01b0316876001600160a01b03168b7f054b2f294b34d5fac1690903e9fe65921870f8d7c1ef57f4ca2301894737c3638460405161341b9190615978565b60405180910390a45050505050505050505050565b600061343a611786565b9050806001600160401b0316836001600160401b0316111561346e5760405162461bcd60e51b8152600401610cc490615918565b60165461348b90600160801b90046001600160401b031684611f0f565b60168054600160801b600160c01b031916600160801b6001600160401b03938416021790558316633b9aca0002478111156134c257fe5b6001600160401b038416633b9aca008204146134da57fe5b6000836001600160a01b0316826040516134f390614f4d565b60006040518083038185875af1925050503d8060008114613530576040519150601f19603f3d011682016040523d82523d6000602084013e613535565b606091505b50509050806135565760405162461bcd60e51b8152600401610cc4906151ad565b836001600160a01b03167f8320dd0681f508ec596969c6cb3b91527fbef7815183fa91fcde63f05e2be3128660405161358f9190615978565b60405180910390a25050505050565b60008080806135ad86866142e9565b9097909650945050505050565b60006135c7848484614364565b90505b9392505050565b600d5460ff16156135f45760405162461bcd60e51b8152600401610cc490615421565b600c546136135760405162461bcd60e51b8152600401610cc490615145565b600c544210156136355760405162461bcd60e51b8152600401610cc4906153ec565b6000826001600160a01b03168260405161364e90614f4d565b60006040518083038185875af1925050503d806000811461368b576040519150601f19603f3d011682016040523d82523d6000602084013e613690565b606091505b50509050806136b15760405162461bcd60e51b8152600401610cc490615491565b826001600160a01b0316336001600160a01b03167fe64225e0e86b93cbd64a96e476163519fe65be29879338a66adcc08159edc2b3846040516136f49190615961565b60405180910390a3505050565b6001600160a01b03821661375c576040805162461bcd60e51b815260206004820181905260248201527f4552433732313a206d696e7420746f20746865207a65726f2061646472657373604482015290519081900360640190fd5b61376581611e54565b156137b6576040805162461bcd60e51b815260206004820152601c60248201527b115490cdcc8c4e881d1bdad95b88185b1c9958591e481b5a5b9d195960221b604482015290519081900360640190fd5b6137c260008383610b63565b6001600160a01b03821660009081526001602052604090206137e4908261442e565b506137f16002828461443a565b5060405181906001600160a01b03841690600090600080516020615c40833981519152908290a45050565b6138246147ae565b82602001516001600160401b03036001600160401b0316826001600160401b031611156138635760405162461bcd60e51b8152600401610cc490615513565b50602082018051919091016001600160401b0316905290565b600d5460ff161561389f5760405162461bcd60e51b8152600401610cc4906152c9565b600d805460ff1916600117905560405133907fb8d187aa99b531be43e3a058a271522bd2b409c64fde99ab089d46e04c3c1d4c90600090a2565b600d5460ff16156138fc5760405162461bcd60e51b8152600401610cc490615421565b600c541561391c5760405162461bcd60e51b8152600401610cc490615179565b600b5442908101600c81905560405133927fb541144ed00ffd8bbd35d5dd947facd4ae14b74d9f614f23049e2be938317f85926139589261596a565b60405180910390a2565b60608161398757506040805180820190915260018152600360fc1b6020820152610968565b8160005b811561399f57600101600a8204915061398b565b6000816001600160401b03811180156139b757600080fd5b506040519080825280601f01601f1916602001820160405280156139e2576020820181803683370190505b50859350905060001982015b8315613a3357600a840660300160f81b82828060019003935081518110613a1157fe5b60200101906001600160f81b031916908160001a905350600a840493506139ee565b50949350505050565b6040805180820182526001600160a01b038481168083526001600160401b03858116602080860191825260008b815260159091528690209451855491516001600160a01b031990921690851617600160a01b600160e01b031916600160a01b9190921602179092559151909185169086907f28aacdb5c6561da8dedc28ea0f08e1140a887e31a2658eb3c3d315f4e22a57ad90613ada908690615978565b60405180910390a450505050565b6000613af383611dd8565b905060008160070b1215613b195760405162461bcd60e51b8152600401610cc4906150f4565b6001600160401b03600782900b600f0b1315613b3157fe5b80613b3e85858386613b45565b5050505050565b826001600160a01b0316846001600160a01b03161480613b6a5750613b6a8385611c9e565b613b865760405162461bcd60e51b8152600401610cc4906152fc565b6001600160a01b038316600090815260146020908152604080832081516080810183529054600781810b810b900b82526001600160401b03600160401b8204811694830194909452600160801b8104841692820192909252600160c01b909104909116606082015290613bf882611ed3565b815191935091506001600160401b03851660079190910b600f0b1215613c305760405162461bcd60e51b8152600401610cc490615646565b613c3a82856140a6565b6001600160a01b03861660009081526014602090815260409182902083518154928501519385015160608601516001600160401b031990941660079290920b6001600160401b0390811692909217600160401b600160801b031916600160401b958316860217600160801b600160c01b031916600160801b91831691909102176001600160c01b0316600160c01b93821693909302929092179055601654929450613cea92919091041682611f0f565b60168054600160401b600160801b031916600160401b6001600160401b03938416021790558416633b9aca008181029190820414613d2457fe5b6000846001600160a01b031682604051613d3d90614f4d565b60006040518083038185875af1925050503d8060008114613d7a576040519150601f19603f3d011682016040523d82523d6000602084013e613d7f565b606091505b5050905080613da05760405162461bcd60e51b8152600401610cc4906157ea565b846001600160a01b0316876001600160a01b03167fcbf4828e7bb94890004cdec062ea25b42069fcdd8a6d7b87207ebce8d2376f8a888760000151604051613de992919061598c565b60405180910390a35050505050505050565b6000610e788383614450565b613e0f6147ae565b60408501516000906001600160401b038085169082161015613e2e5750825b6000613e4187878a602001518542614468565b90506000816001600160401b0316896000015160070b600f0b12613e66575080613e9c565b6000896000015160070b12613e985788516001600160401b0360079190910b600f0b1315613e9057fe5b508751613e9c565b5060005b816001600160401b0316816001600160401b03161115613eb857fe5b6000896000015160070b12158015613ee05750885160070b600f0b6001600160401b03821613155b80613f0457506000896000015160070b128015613f0457506001600160401b038116155b613f0a57fe5b8851613f16908361451e565b600790810b900b895260408901516001600160401b0316421015613f3657fe5b6001600160401b03421660408a01526060890151613f549082611f0f565b6001600160401b031660608a015297989650505050505050565b5490565b81546000908210613fb45760405162461bcd60e51b81526004018080602001828103825260228152602001806159f76022913960400191505060405180910390fd5b826000018281548110613fc357fe5b9060005260206000200154905092915050565b613fde6147ae565b600080856000015160070b121561405057845160070b6000908103906001600160401b0386168212614011575084614025565b6001600160401b0382131561402257fe5b50805b61402f8582611f0f565b945061403f876060015182611f0f565b6001600160401b0316606088015250505b845161405c9085614574565b600790810b900b85525092939092509050565b6140776147ae565b600e54600f5460105460009261409b928792879291906001600160401b03166145c9565b915091509250929050565b6140ae6147ae565b82516140ba908361451e565b600790810b900b83525090919050565b6140d26147ae565b816001600160401b031683602001516001600160401b031610156140f257fe5b50602082018051919091036001600160401b0316905290565b826001600160a01b031661411e82610fdc565b6001600160a01b0316146141635760405162461bcd60e51b8152600401808060200182810382526029815260200180615be86029913960400191505060405180910390fd5b6001600160a01b0382166141a85760405162461bcd60e51b8152600401808060200182810382526024815260200180615a3f6024913960400191505060405180910390fd5b6141b3838383610b63565b6141be600082611e65565b6001600160a01b03831660009081526001602052604090206141e090826145fb565b506001600160a01b0382166000908152600160205260409020614203908261442e565b506142106002828461443a565b5080826001600160a01b0316846001600160a01b0316600080516020615c4083398151915260405160405180910390a4505050565b600061425082611e54565b61428b5760405162461bcd60e51b815260040180806020018281038252602c815260200180615a63602c913960400191505060405180910390fd5b600061429683610fdc565b9050806001600160a01b0316846001600160a01b031614806142d15750836001600160a01b03166142c684610a30565b6001600160a01b0316145b806142e157506142e18185611c9e565b949350505050565b81546000908190831061432d5760405162461bcd60e51b8152600401808060200182810382526022815260200180615b5a6022913960400191505060405180910390fd5b600084600001848154811061433e57fe5b906000526020600020906002020190508060000154816001015492509250509250929050565b600082815260018401602052604081205482816143ff5760405162461bcd60e51b81526004018080602001828103825283818151815260200191508051906020019080838360005b838110156143c45781810151838201526020016143ac565b50505050905090810190601f1680156143f15780820380516001836020036101000a031916815260200191505b509250505060405180910390fd5b5084600001600182038154811061441257fe5b9060005260206000209060020201600101549150509392505050565b6000610e788383614607565b60006135c784846001600160a01b038516614651565b60009081526001919091016020526040902054151590565b6000826001600160401b0316826001600160401b03161161448b57506000614515565b8282036001600160401b0390811690851602860260008682816144aa57fe5b049050818111156144b757fe5b60006001600160401b0382116144ce5750806144d8565b506001600160401b035b81816001600160401b0316148061450a5750806001600160401b03168211801561450a57506001600160401b03818116145b61451057fe5b925050505b95945050505050565b60006001600160401b038216600784900b038160016001603f1b0319821215614550575060016001603f1b0319614564565b60016001603f1b0382131561456157fe5b50805b8460070b8160070b13156142e157fe5b6000600783900b6001600160401b038316018160016001603f1b038213156145a4575060016001603f1b036145b9565b60016001603f1b03198212156145b657fe5b50805b8460070b8160070b12156142e157fe5b6145d16147ae565b6000806145e088878787613e07565b90985090506145ef8782611f0f565b97989650505050505050565b6000610e7883836146e8565b60006146138383614450565b61464957508154600181810184556000848152602080822090930184905584548482528286019093526040902091909155610e7b565b506000610e7b565b6000828152600184016020526040812054806146b65750506040805180820182528381526020808201848152865460018181018955600089815284812095516002909302909501918255915190820155865486845281880190925292909120556135ca565b828560000160018303815481106146c957fe5b90600052602060002090600202016001018190555060009150506135ca565b600081815260018301602052604081205480156147a4578354600019808301919081019060009087908390811061471b57fe5b906000526020600020015490508087600001848154811061473857fe5b60009182526020808320909101929092558281526001898101909252604090209084019055865487908061476857fe5b60019003818190600052602060002001600090559055866001016000878152602001908152602001600020600090556001945050505050610e7b565b6000915050610e7b565b60408051608081018252600080825260208201819052918101829052606081019190915290565b80356001600160a01b038116811461096857600080fd5b600082601f8301126147fc578081fd5b8135602061481161480c836159d9565b6159b6565b828152818101908583018385028701840188101561482d578586fd5b855b8581101561485257614840826147d5565b8452928401929084019060010161482f565b5090979650505050505050565b600082601f83011261486f578081fd5b8135602061487f61480c836159d9565b8281528181019085830160408086028801850189101561489d578687fd5b865b868110156148f65781838b0312156148b5578788fd5b81518083016001600160401b03811182821017156148cf57fe5b8352833581526148e0878501614a74565b818801528552938501939181019160010161489f565b509198975050505050505050565b600082601f830112614914578081fd5b8135602061492461480c836159d9565b82815281810190858301604080860288018501891015614942578687fd5b865b868110156148f65781838b03121561495a578788fd5b81518083016001600160401b038111828210171561497457fe5b835283358152614985878501614a5d565b8188015285529385019391810191600101614944565b600082601f8301126149ab578081fd5b813560206149bb61480c836159d9565b82815281810190858301838502870184018810156149d7578586fd5b855b85811015614852576149ea82614a5d565b845292840192908401906001016149d9565b600082601f830112614a0c578081fd5b81356020614a1c61480c836159d9565b8281528181019085830183850287018401881015614a38578586fd5b855b8581101561485257614a4b82614a74565b84529284019290840190600101614a3a565b80356001600160401b038116811461096857600080fd5b803560ff8116811461096857600080fd5b600060208284031215614a96578081fd5b610e78826147d5565b60008060408385031215614ab1578081fd5b614aba836147d5565b9150614ac8602084016147d5565b90509250929050565b600080600060608486031215614ae5578081fd5b614aee846147d5565b9250614afc602085016147d5565b9150604084013590509250925092565b60008060008060808587031215614b21578182fd5b614b2a856147d5565b93506020614b398187016147d5565b93506040860135925060608601356001600160401b0380821115614b5b578384fd5b818801915088601f830112614b6e578384fd5b813581811115614b7a57fe5b614b8c601f8201601f191685016159b6565b91508082528984828501011115614ba1578485fd5b8084840185840137810190920192909252939692955090935050565b6000806000806080808688031215614bd3578283fd5b614bdc866147d5565b94506020868101356001600160401b0380821115614bf8578586fd5b818901915089601f830112614c0b578586fd5b8135614c1961480c826159d9565b81815284810190848601878402860187018e1015614c3557898afd5b8995505b83861015614cb25787818f031215614c4f57898afd5b604080518981018181108882111715614c6457fe5b825282358152614c75898401614a5d565b89820152614c84828401614a5d565b8282015260609150614c97828401614a74565b91810191909152835260019590950194918601918701614c39565b50985050506040890135935080841115614cca578586fd5b614cd68a858b0161485f565b95506060890135935080841115614ceb578485fd5b505050614cfa87828801614904565b91505092959194509250565b60008060408385031215614d18578182fd5b614d21836147d5565b915060208301358015158114614d35578182fd5b809150509250929050565b60008060408385031215614d52578182fd5b614d5b836147d5565b946020939093013593505050565b600080600060608486031215614d7d578081fd5b614d86846147d5565b9250614d9460208501614a5d565b9150614da2604085016147d5565b90509250925092565b60008060008060808587031215614dc0578182fd5b84356001600160401b0380821115614dd6578384fd5b818701915087601f830112614de9578384fd5b81356020614df961480c836159d9565b82815281810190858301838502870184018d1015614e15578889fd5b8896505b84871015614e37578035835260019690960195918301918301614e19565b5098505088013592505080821115614e4d578384fd5b614e59888389016147ec565b94506040870135915080821115614e6e578384fd5b614e7a8883890161499b565b93506060870135915080821115614e8f578283fd5b50614cfa878288016149fc565b600060208284031215614ead578081fd5b81356001600160e01b031981168114610e78578182fd5b600060208284031215614ed5578081fd5b5035919050565b600080600060608486031215614ef0578081fd5b83359250614f00602085016147d5565b9150614da260408501614a5d565b600080600060608486031215614f22578081fd5b83359250614f0060208501614a5d565b60008060408385031215614f44578182fd5b614aba83614a5d565b90565b6001600160a01b0391909116815260200190565b901515815260200190565b60079190910b815260200190565b6000602080835283518082850152825b81811015614fa957858101830151858201604001528201614f8d565b81811115614fba5783604083870101525b50601f01601f1916929092016040019392505050565b60208082526026908201527f47726166666974455448323a20706978656c20616c726561647920696e697469604082015265185b1a5e995960d21b606082015260800190565b6020808252603f90820152600080516020615c8183398151915260408201527f20617070726f766564206163636f756e742063616e2073657420636f6c6f7200606082015260800190565b60208082526031908201527f47726166666974455448323a2073656e646572206973206e65697468657220626040820152701d5e595c881b9bdc88185c1c1c9bdd9959607a1b606082015260800190565b60208082526022908201527f47726166666974455448323a206d617820706978656c20494420657863656564604082015261195960f21b606082015260800190565b60208082526031908201527f47726166666974455448323a206163636f756e742062616c616e6365206d757360408201527074206e6f74206265206e6567617469766560781b606082015260800190565b6020808252601a9082015279149d59d41d5b1b0e881b9bdd08185b9b9bdd5b98d959081e595d60321b604082015260600190565b6020808252601a9082015279149d59d41d5b1b0e88185b1c9958591e48185b9b9bdd5b98d95960321b604082015260600190565b60208082526029908201527f47726166666974455448323a2077697468647261772074617865732063616c6c604082015268081c995d995c9d195960ba1b606082015260800190565b60208082526026908201527f47726166666974455448323a2062757965722063616e6e6f74206166666f7264604082015265081c1a5e195b60d21b606082015260800190565b6020808252602a908201527f47726166666974455448323a20706978656c2070726963652065786365656473604082015269206d617820707269636560b01b606082015260800190565b60208082526023908201527f47726166666974455448323a20706978656c20697320746f6f20657870656e7360408201526269766560e81b606082015260800190565b602080825260199082015278149d59d41d5b1b0e88185b1c9958591e48191a5cd8589b1959603a1b604082015260600190565b6020808252602b908201527f47726166666974455448323a2073656e646572206e6f7420616c6c6f7765642060408201526a746f20776974686472617760a81b606082015260800190565b60208082526036908201527f47726166666974455448323a206465706f73697420616d6f756e74206d757374604082015275206265206d756c7469706c65206f662031204757656960501b606082015260800190565b6020808252602f908201527f47726166666974455448323a20706978656c73206f776e65642062792064696660408201526e666572656e74206163636f756e747360881b606082015260800190565b6020808252818101527f52756750756c6c3a206865616473207570206e6f742070617373656420796574604082015260600190565b602080825260119082015270149d59d41d5b1b0e88191a5cd8589b1959607a1b604082015260600190565b60208082526025908201527f47726166666974455448323a2063616e6e6f74206561726d61726b20666f722060408201526437bbb732b960d91b606082015260800190565b6020808252601d908201527f52756750756c6c3a2073656e64696e672066756e6473206661696c6564000000604082015260600190565b6020808252603d908201527f47726166666974455448323a206e756d626572206f6620636f6c6f72732064696040820152600080516020615a8f833981519152606082015260800190565b60208082526038908201527f47726166666974455448323a20706978656c20707269636520746f6f206869676040820152771a0b081d185e0818985cd9481b585e08195e18d95959195960421b606082015260800190565b6020808252603f90820152600080516020615c8183398151915260408201527f20617070726f766564206163636f756e742063616e2073657420707269636500606082015260800190565b60208082526021908201527f47726166666974455448323a20706978656c20696473206e6f7420736f7274656040820152601960fa1b606082015260800190565b6020808252602f908201527f47726166666974455448323a206163636f756e74206e6f7420616c6c6f77656460408201526e081d1bc818db185a5b481c1a5e195b608a1b606082015260800190565b6020808252602e908201527f47726166666974455448323a2063616e6e6f74207769746864726177206d6f7260408201526d65207468616e2062616c616e636560901b606082015260800190565b6020808252603d908201527f47726166666974455448323a206e756d626572206f66207072696365732064696040820152600080516020615a8f833981519152606082015260800190565b60208082526021908201527f47726166666974455448323a20706978656c20646f6573206e6f7420657869736040820152601d60fa1b606082015260800190565b6020808252603d908201527f47726166666974455448323a206e756d626572206f66206f776e6572732064696040820152600080516020615a8f833981519152606082015260800190565b6020808252602a908201527f47726166666974455448323a20627579657220616e642073656c6c657220617260408201526965207468652073616d6560b01b606082015260800190565b6020808252818101527f47726166666974455448323a20616d6f756e7420697320746f6f20736d616c6c604082015260600190565b60208082526023908201527f47726166666974455448323a2077697468647261772063616c6c2072657665726040820152621d195960ea1b606082015260800190565b6020808252602e908201527f47726166666974455448323a20696e697469616c697a6174696f6e207068617360408201526d329030b63932b0b23c9037bb32b960911b606082015260800190565b6020808252604190820152600080516020615c8183398151915260408201527f20617070726f766564206163636f756e742063616e20736574206561726d61726060820152606b60f81b608082015260a00190565b60208082526028908201527f47726166666974455448323a206d6178206465706f73697420616d6f756e7420604082015267195e18d95959195960c21b606082015260800190565b60208082526029908201527f47726166666974455448323a206e6f7420656e6f7567682066756e647320746f60408201526820776974686472617760b81b606082015260800190565b90815260200190565b918252602082015260400190565b6001600160401b0391909116815260200190565b6001600160401b0392909216825260070b602082015260400190565b60ff91909116815260200190565b6040518181016001600160401b03811182821017156159d157fe5b604052919050565b60006001600160401b038211156159ec57fe5b506020908102019056fe456e756d657261626c655365743a20696e646578206f7574206f6620626f756e64734f776e61626c653a206e6577206f776e657220697320746865207a65726f20616464726573734552433732313a207472616e7366657220746f20746865207a65726f20616464726573734552433732313a206f70657261746f7220717565727920666f72206e6f6e6578697374656e7420746f6b656e66666572656e742066726f6d206e756d626572206f6620706978656c730000004552433732313a20617070726f76652063616c6c6572206973206e6f74206f776e6572206e6f7220617070726f76656420666f7220616c6c4552433732313a2062616c616e636520717565727920666f7220746865207a65726f20616464726573734552433732313a206f776e657220717565727920666f72206e6f6e6578697374656e7420746f6b656ea57125e4ff01455f98dea3907ead9066b97a612484d328cb01d3a389df8fa7ec456e756d657261626c654d61703a20696e646578206f7574206f6620626f756e64734552433732313a20617070726f76656420717565727920666f72206e6f6e6578697374656e7420746f6b656e4f776e61626c653a2063616c6c6572206973206e6f7420746865206f776e65728be0079c531659141344cd1fd0a4f28419497f9722a3daafe3b4186f6b6457e04552433732313a207472616e73666572206f6620746f6b656e2074686174206973206e6f74206f776e4552433732314d657461646174613a2055524920717565727920666f72206e6f6e6578697374656e7420746f6b656eddf252ad1be2c89b69c2b068fc378daa952ba7f163c4a11628f55a4df523b3ef4552433732313a20617070726f76616c20746f2063757272656e74206f776e657247726166666974455448323a206f6e6c7920706978656c206f776e6572206f72c1526ed48b58640a10ae476df49794ee6fba1f483ec8093062f7e10f6eaae3bba264697066735822122078be508d0b60c5690e09caa9302d311ecd09d7d9ead1c37cb1efd5e768df4c2864736f6c63430007060033",
  "linkReferences": {},
  "deployedLinkReferences": {}
}