{
  "_format": "hh-sol-artifact-1",
  "contractName": "GraffitETH2",
  "sourceName": "contracts/GraffitETH2.sol",
  "abi": [
    {
      "inputs": [
        {
          "internalType": "uint128",
          "name": "width",
          "type": "uint128"
        },
        {
          "internalType": "uint128",
          "name": "height",
          "type": "uint128"
        },
        {
          "internalType": "uint256",
          "name": "taxRateNumerator",
          "type": "uint256"
        },
        {
          "internalType": "uint256",
          "name": "taxRateDenominator",
          "type": "uint256"
        },
        {
          "internalType": "uint64",
          "name": "taxStartTime",
          "type": "uint64"
        },
        {
          "internalType": "uint64",
          "name": "initialPrice",
          "type": "uint64"
        },
        {
          "internalType": "uint256",
          "name": "rugPullHeadsUp",
          "type": "uint256"
        }
      ],
      "stateMutability": "nonpayable",
      "type": "constructor"
    },
    {
      "anonymous": false,
      "inputs": [
        {
          "indexed": true,
          "internalType": "address",
          "name": "owner",
          "type": "address"
        },
        {
          "indexed": true,
          "internalType": "address",
          "name": "approved",
          "type": "address"
        },
        {
          "indexed": true,
          "internalType": "uint256",
          "name": "tokenId",
          "type": "uint256"
        }
      ],
      "name": "Approval",
      "type": "event"
    },
    {
      "anonymous": false,
      "inputs": [
        {
          "indexed": true,
          "internalType": "address",
          "name": "owner",
          "type": "address"
        },
        {
          "indexed": true,
          "internalType": "address",
          "name": "operator",
          "type": "address"
        },
        {
          "indexed": false,
          "internalType": "bool",
          "name": "approved",
          "type": "bool"
        }
      ],
      "name": "ApprovalForAll",
      "type": "event"
    },
    {
      "anonymous": false,
      "inputs": [
        {
          "indexed": true,
          "internalType": "uint256",
          "name": "pixelID",
          "type": "uint256"
        },
        {
          "indexed": true,
          "internalType": "address",
          "name": "seller",
          "type": "address"
        },
        {
          "indexed": true,
          "internalType": "address",
          "name": "buyer",
          "type": "address"
        },
        {
          "indexed": false,
          "internalType": "uint64",
          "name": "price",
          "type": "uint64"
        }
      ],
      "name": "Bought",
      "type": "event"
    },
    {
      "anonymous": false,
      "inputs": [
        {
          "indexed": true,
          "internalType": "uint256",
          "name": "pixelID",
          "type": "uint256"
        },
        {
          "indexed": true,
          "internalType": "address",
          "name": "owner",
          "type": "address"
        },
        {
          "indexed": false,
          "internalType": "uint8",
          "name": "color",
          "type": "uint8"
        }
      ],
      "name": "ColorChanged",
      "type": "event"
    },
    {
      "anonymous": false,
      "inputs": [
        {
          "indexed": true,
          "internalType": "address",
          "name": "account",
          "type": "address"
        },
        {
          "indexed": true,
          "internalType": "address",
          "name": "depositor",
          "type": "address"
        },
        {
          "indexed": false,
          "internalType": "uint64",
          "name": "amount",
          "type": "uint64"
        },
        {
          "indexed": false,
          "internalType": "int128",
          "name": "balance",
          "type": "int128"
        }
      ],
      "name": "Deposited",
      "type": "event"
    },
    {
      "anonymous": false,
      "inputs": [
        {
          "indexed": true,
          "internalType": "uint256",
          "name": "pixelID",
          "type": "uint256"
        },
        {
          "indexed": true,
          "internalType": "address",
          "name": "owner",
          "type": "address"
        },
        {
          "indexed": true,
          "internalType": "address",
          "name": "receiver",
          "type": "address"
        },
        {
          "indexed": false,
          "internalType": "uint64",
          "name": "amount",
          "type": "uint64"
        }
      ],
      "name": "Earmarked",
      "type": "event"
    },
    {
      "anonymous": false,
      "inputs": [
        {
          "indexed": true,
          "internalType": "address",
          "name": "previousOwner",
          "type": "address"
        },
        {
          "indexed": true,
          "internalType": "address",
          "name": "newOwner",
          "type": "address"
        }
      ],
      "name": "OwnershipTransferred",
      "type": "event"
    },
    {
      "anonymous": false,
      "inputs": [
        {
          "indexed": true,
          "internalType": "uint256",
          "name": "pixelID",
          "type": "uint256"
        },
        {
          "indexed": true,
          "internalType": "address",
          "name": "oldOwner",
          "type": "address"
        },
        {
          "indexed": true,
          "internalType": "address",
          "name": "newOwner",
          "type": "address"
        },
        {
          "indexed": false,
          "internalType": "uint64",
          "name": "amount",
          "type": "uint64"
        }
      ],
      "name": "PixelClaimed",
      "type": "event"
    },
    {
      "anonymous": false,
      "inputs": [
        {
          "indexed": true,
          "internalType": "uint256",
          "name": "pixelID",
          "type": "uint256"
        },
        {
          "indexed": true,
          "internalType": "address",
          "name": "owner",
          "type": "address"
        },
        {
          "indexed": false,
          "internalType": "uint64",
          "name": "price",
          "type": "uint64"
        }
      ],
      "name": "PriceChanged",
      "type": "event"
    },
    {
      "anonymous": false,
      "inputs": [
        {
          "indexed": true,
          "internalType": "address",
          "name": "sender",
          "type": "address"
        },
        {
          "indexed": false,
          "internalType": "uint256",
          "name": "timestamp",
          "type": "uint256"
        },
        {
          "indexed": false,
          "internalType": "uint256",
          "name": "rugPullTime",
          "type": "uint256"
        }
      ],
      "name": "RugPullAnnounced",
      "type": "event"
    },
    {
      "anonymous": false,
      "inputs": [
        {
          "indexed": true,
          "internalType": "address",
          "name": "sender",
          "type": "address"
        }
      ],
      "name": "RugPullDisabled",
      "type": "event"
    },
    {
      "anonymous": false,
      "inputs": [
        {
          "indexed": true,
          "internalType": "address",
          "name": "sender",
          "type": "address"
        },
        {
          "indexed": true,
          "internalType": "address",
          "name": "receiver",
          "type": "address"
        },
        {
          "indexed": false,
          "internalType": "uint256",
          "name": "value",
          "type": "uint256"
        }
      ],
      "name": "RugPulled",
      "type": "event"
    },
    {
      "anonymous": false,
      "inputs": [
        {
          "indexed": false,
          "internalType": "uint256",
          "name": "amount",
          "type": "uint256"
        },
        {
          "indexed": true,
          "internalType": "address",
          "name": "receiver",
          "type": "address"
        }
      ],
      "name": "TaxWithdrawn",
      "type": "event"
    },
    {
      "anonymous": false,
      "inputs": [
        {
          "indexed": true,
          "internalType": "address",
          "name": "from",
          "type": "address"
        },
        {
          "indexed": true,
          "internalType": "address",
          "name": "to",
          "type": "address"
        },
        {
          "indexed": true,
          "internalType": "uint256",
          "name": "tokenId",
          "type": "uint256"
        }
      ],
      "name": "Transfer",
      "type": "event"
    },
    {
      "anonymous": false,
      "inputs": [
        {
          "indexed": true,
          "internalType": "address",
          "name": "account",
          "type": "address"
        },
        {
          "indexed": true,
          "internalType": "address",
          "name": "receiver",
          "type": "address"
        },
        {
          "indexed": false,
          "internalType": "uint64",
          "name": "amount",
          "type": "uint64"
        },
        {
          "indexed": false,
          "internalType": "int128",
          "name": "balance",
          "type": "int128"
        }
      ],
      "name": "Withdrawn",
      "type": "event"
    },
    {
      "inputs": [],
      "name": "announceRugPull",
      "outputs": [],
      "stateMutability": "nonpayable",
      "type": "function"
    },
    {
      "inputs": [
        {
          "internalType": "address",
          "name": "to",
          "type": "address"
        },
        {
          "internalType": "uint256",
          "name": "tokenId",
          "type": "uint256"
        }
      ],
      "name": "approve",
      "outputs": [],
      "stateMutability": "nonpayable",
      "type": "function"
    },
    {
      "inputs": [
        {
          "internalType": "address",
          "name": "owner",
          "type": "address"
        }
      ],
      "name": "balanceOf",
      "outputs": [
        {
          "internalType": "uint256",
          "name": "",
          "type": "uint256"
        }
      ],
      "stateMutability": "view",
      "type": "function"
    },
    {
      "inputs": [],
      "name": "baseURI",
      "outputs": [
        {
          "internalType": "string",
          "name": "",
          "type": "string"
        }
      ],
      "stateMutability": "view",
      "type": "function"
    },
    {
      "inputs": [
        {
          "components": [
            {
              "internalType": "uint256",
              "name": "pixelID",
              "type": "uint256"
            },
            {
              "internalType": "uint64",
              "name": "maxPrice",
              "type": "uint64"
            },
            {
              "internalType": "uint64",
              "name": "newPrice",
              "type": "uint64"
            },
            {
              "internalType": "uint8",
              "name": "color",
              "type": "uint8"
            }
          ],
          "internalType": "struct PixelBuyArgs",
          "name": "args",
          "type": "tuple"
        }
      ],
      "name": "buy",
      "outputs": [],
      "stateMutability": "nonpayable",
      "type": "function"
    },
    {
      "inputs": [
        {
          "components": [
            {
              "internalType": "uint256",
              "name": "pixelID",
              "type": "uint256"
            },
            {
              "internalType": "uint64",
              "name": "maxPrice",
              "type": "uint64"
            },
            {
              "internalType": "uint64",
              "name": "newPrice",
              "type": "uint64"
            },
            {
              "internalType": "uint8",
              "name": "color",
              "type": "uint8"
            }
          ],
          "internalType": "struct PixelBuyArgs[]",
          "name": "args",
          "type": "tuple[]"
        }
      ],
      "name": "buyMany",
      "outputs": [],
      "stateMutability": "nonpayable",
      "type": "function"
    },
    {
      "inputs": [],
      "name": "checkRugPullAnnounced",
      "outputs": [
        {
          "internalType": "bool",
          "name": "",
          "type": "bool"
        }
      ],
      "stateMutability": "view",
      "type": "function"
    },
    {
      "inputs": [],
      "name": "checkRugPullDisabled",
      "outputs": [
        {
          "internalType": "bool",
          "name": "",
          "type": "bool"
        }
      ],
      "stateMutability": "view",
      "type": "function"
    },
    {
      "inputs": [
        {
          "internalType": "uint256",
          "name": "pixelID",
          "type": "uint256"
        },
        {
          "internalType": "uint64",
          "name": "maxPrice",
          "type": "uint64"
        },
        {
          "internalType": "uint64",
          "name": "minAmount",
          "type": "uint64"
        }
      ],
      "name": "claim",
      "outputs": [],
      "stateMutability": "nonpayable",
      "type": "function"
    },
    {
      "inputs": [],
      "name": "deposit",
      "outputs": [],
      "stateMutability": "payable",
      "type": "function"
    },
    {
      "inputs": [
        {
          "components": [
            {
              "internalType": "uint256",
              "name": "pixelID",
              "type": "uint256"
            },
            {
              "internalType": "uint64",
              "name": "maxPrice",
              "type": "uint64"
            },
            {
              "internalType": "uint64",
              "name": "newPrice",
              "type": "uint64"
            },
            {
              "internalType": "uint8",
              "name": "color",
              "type": "uint8"
            }
          ],
          "internalType": "struct PixelBuyArgs",
          "name": "args",
          "type": "tuple"
        }
      ],
      "name": "depositAndBuy",
      "outputs": [],
      "stateMutability": "payable",
      "type": "function"
    },
    {
      "inputs": [
        {
          "components": [
            {
              "internalType": "uint256",
              "name": "pixelID",
              "type": "uint256"
            },
            {
              "internalType": "uint64",
              "name": "maxPrice",
              "type": "uint64"
            },
            {
              "internalType": "uint64",
              "name": "newPrice",
              "type": "uint64"
            },
            {
              "internalType": "uint8",
              "name": "color",
              "type": "uint8"
            }
          ],
          "internalType": "struct PixelBuyArgs[]",
          "name": "args",
          "type": "tuple[]"
        }
      ],
      "name": "depositAndBuyMany",
      "outputs": [],
      "stateMutability": "payable",
      "type": "function"
    },
    {
      "inputs": [
        {
          "internalType": "address",
          "name": "account",
          "type": "address"
        }
      ],
      "name": "depositTo",
      "outputs": [],
      "stateMutability": "payable",
      "type": "function"
    },
    {
      "inputs": [],
      "name": "disableRugPull",
      "outputs": [],
      "stateMutability": "nonpayable",
      "type": "function"
    },
    {
      "inputs": [
        {
          "internalType": "uint256",
          "name": "pixelID",
          "type": "uint256"
        },
        {
          "internalType": "address",
          "name": "receiver",
          "type": "address"
        },
        {
          "internalType": "uint64",
          "name": "amount",
          "type": "uint64"
        }
      ],
      "name": "earmark",
      "outputs": [],
      "stateMutability": "nonpayable",
      "type": "function"
    },
    {
      "inputs": [
        {
          "internalType": "uint256",
          "name": "pixelID",
          "type": "uint256"
        }
      ],
      "name": "exists",
      "outputs": [
        {
          "internalType": "bool",
          "name": "",
          "type": "bool"
        }
      ],
      "stateMutability": "view",
      "type": "function"
    },
    {
      "inputs": [
        {
          "internalType": "uint256",
          "name": "tokenId",
          "type": "uint256"
        }
      ],
      "name": "getApproved",
      "outputs": [
        {
          "internalType": "address",
          "name": "",
          "type": "address"
        }
      ],
      "stateMutability": "view",
      "type": "function"
    },
    {
      "inputs": [
        {
          "internalType": "address",
          "name": "account",
          "type": "address"
        }
      ],
      "name": "getBalance",
      "outputs": [
        {
          "internalType": "int128",
          "name": "",
          "type": "int128"
        }
      ],
      "stateMutability": "view",
      "type": "function"
    },
    {
      "inputs": [
        {
          "internalType": "uint256",
          "name": "pixelID",
          "type": "uint256"
        }
      ],
      "name": "getEarmarkAmount",
      "outputs": [
        {
          "internalType": "uint64",
          "name": "",
          "type": "uint64"
        }
      ],
      "stateMutability": "view",
      "type": "function"
    },
    {
      "inputs": [
        {
          "internalType": "uint256",
          "name": "pixelID",
          "type": "uint256"
        }
      ],
      "name": "getEarmarkReceiver",
      "outputs": [
        {
          "internalType": "address",
          "name": "",
          "type": "address"
        }
      ],
      "stateMutability": "view",
      "type": "function"
    },
    {
      "inputs": [],
      "name": "getInitialPrice",
      "outputs": [
        {
          "internalType": "uint64",
          "name": "",
          "type": "uint64"
        }
      ],
      "stateMutability": "view",
      "type": "function"
    },
    {
      "inputs": [
        {
          "internalType": "address",
          "name": "account",
          "type": "address"
        }
      ],
      "name": "getLastTaxPayment",
      "outputs": [
        {
          "internalType": "uint64",
          "name": "",
          "type": "uint64"
        }
      ],
      "stateMutability": "view",
      "type": "function"
    },
    {
      "inputs": [],
      "name": "getMaxPixelID",
      "outputs": [
        {
          "internalType": "uint256",
          "name": "",
          "type": "uint256"
        }
      ],
      "stateMutability": "view",
      "type": "function"
    },
    {
      "inputs": [
        {
          "internalType": "uint256",
          "name": "pixelID",
          "type": "uint256"
        }
      ],
      "name": "getNominalPrice",
      "outputs": [
        {
          "internalType": "uint64",
          "name": "",
          "type": "uint64"
        }
      ],
      "stateMutability": "view",
      "type": "function"
    },
    {
      "inputs": [],
      "name": "getOwnerWithdrawableAmount",
      "outputs": [
        {
          "internalType": "uint64",
          "name": "",
          "type": "uint64"
        }
      ],
      "stateMutability": "view",
      "type": "function"
    },
    {
      "inputs": [
        {
          "internalType": "uint256",
          "name": "pixelID",
          "type": "uint256"
        }
      ],
      "name": "getPrice",
      "outputs": [
        {
          "internalType": "uint64",
          "name": "",
          "type": "uint64"
        }
      ],
      "stateMutability": "view",
      "type": "function"
    },
    {
      "inputs": [
        {
          "internalType": "address",
          "name": "account",
          "type": "address"
        }
      ],
      "name": "getRecordedBalance",
      "outputs": [
        {
          "internalType": "int128",
          "name": "",
          "type": "int128"
        }
      ],
      "stateMutability": "view",
      "type": "function"
    },
    {
      "inputs": [],
      "name": "getRugPullHeadsUp",
      "outputs": [
        {
          "internalType": "uint256",
          "name": "",
          "type": "uint256"
        }
      ],
      "stateMutability": "view",
      "type": "function"
    },
    {
      "inputs": [],
      "name": "getRugPullTime",
      "outputs": [
        {
          "internalType": "uint256",
          "name": "",
          "type": "uint256"
        }
      ],
      "stateMutability": "view",
      "type": "function"
    },
    {
      "inputs": [
        {
          "internalType": "address",
          "name": "account",
          "type": "address"
        }
      ],
      "name": "getTaxBase",
      "outputs": [
        {
          "internalType": "uint64",
          "name": "",
          "type": "uint64"
        }
      ],
      "stateMutability": "view",
      "type": "function"
    },
    {
      "inputs": [],
      "name": "getTaxRate",
      "outputs": [
        {
          "internalType": "uint256",
          "name": "",
          "type": "uint256"
        },
        {
          "internalType": "uint256",
          "name": "",
          "type": "uint256"
        }
      ],
      "stateMutability": "view",
      "type": "function"
    },
    {
      "inputs": [],
      "name": "getTaxStartTime",
      "outputs": [
        {
          "internalType": "uint64",
          "name": "",
          "type": "uint64"
        }
      ],
      "stateMutability": "view",
      "type": "function"
    },
    {
      "inputs": [],
      "name": "getTotalInitialSaleRevenue",
      "outputs": [
        {
          "internalType": "uint256",
          "name": "",
          "type": "uint256"
        }
      ],
      "stateMutability": "view",
      "type": "function"
    },
    {
      "inputs": [],
      "name": "getTotalTaxesPaid",
      "outputs": [
        {
          "internalType": "uint64",
          "name": "",
          "type": "uint64"
        }
      ],
      "stateMutability": "view",
      "type": "function"
    },
    {
      "inputs": [
        {
          "internalType": "address",
          "name": "account",
          "type": "address"
        }
      ],
      "name": "getTotalTaxesPaidBy",
      "outputs": [
        {
          "internalType": "uint64",
          "name": "",
          "type": "uint64"
        }
      ],
      "stateMutability": "view",
      "type": "function"
    },
    {
      "inputs": [],
      "name": "getTotalWithdrawnByOwner",
      "outputs": [
        {
          "internalType": "uint256",
          "name": "",
          "type": "uint256"
        }
      ],
      "stateMutability": "view",
      "type": "function"
    },
    {
      "inputs": [
        {
          "internalType": "address",
          "name": "account",
          "type": "address"
        }
      ],
      "name": "getVirtualTotalTaxesPaidBy",
      "outputs": [
        {
          "internalType": "uint64",
          "name": "",
          "type": "uint64"
        }
      ],
      "stateMutability": "view",
      "type": "function"
    },
    {
      "inputs": [
        {
          "internalType": "uint256[]",
          "name": "pixelIDs",
          "type": "uint256[]"
        },
        {
          "internalType": "address[]",
          "name": "owners",
          "type": "address[]"
        },
        {
          "internalType": "uint64[]",
          "name": "prices",
          "type": "uint64[]"
        },
        {
          "internalType": "uint8[]",
          "name": "colors",
          "type": "uint8[]"
        }
      ],
      "name": "init",
      "outputs": [],
      "stateMutability": "nonpayable",
      "type": "function"
    },
    {
      "inputs": [
        {
          "internalType": "address",
          "name": "owner",
          "type": "address"
        },
        {
          "internalType": "address",
          "name": "operator",
          "type": "address"
        }
      ],
      "name": "isApprovedForAll",
      "outputs": [
        {
          "internalType": "bool",
          "name": "",
          "type": "bool"
        }
      ],
      "stateMutability": "view",
      "type": "function"
    },
    {
      "inputs": [],
      "name": "isInitializing",
      "outputs": [
        {
          "internalType": "bool",
          "name": "",
          "type": "bool"
        }
      ],
      "stateMutability": "view",
      "type": "function"
    },
    {
      "inputs": [],
      "name": "name",
      "outputs": [
        {
          "internalType": "string",
          "name": "",
          "type": "string"
        }
      ],
      "stateMutability": "view",
      "type": "function"
    },
    {
      "inputs": [],
      "name": "owner",
      "outputs": [
        {
          "internalType": "address",
          "name": "",
          "type": "address"
        }
      ],
      "stateMutability": "view",
      "type": "function"
    },
    {
      "inputs": [
        {
          "internalType": "uint256",
          "name": "tokenId",
          "type": "uint256"
        }
      ],
      "name": "ownerOf",
      "outputs": [
        {
          "internalType": "address",
          "name": "",
          "type": "address"
        }
      ],
      "stateMutability": "view",
      "type": "function"
    },
    {
      "inputs": [
        {
          "internalType": "address",
          "name": "account",
          "type": "address"
        }
      ],
      "name": "payTaxes",
      "outputs": [],
      "stateMutability": "nonpayable",
      "type": "function"
    },
    {
      "inputs": [
        {
          "internalType": "address",
          "name": "receiver",
          "type": "address"
        },
        {
          "internalType": "uint256",
          "name": "value",
          "type": "uint256"
        }
      ],
      "name": "performRugPull",
      "outputs": [],
      "stateMutability": "nonpayable",
      "type": "function"
    },
    {
      "inputs": [],
      "name": "renounceOwnership",
      "outputs": [],
      "stateMutability": "nonpayable",
      "type": "function"
    },
    {
      "inputs": [
        {
          "internalType": "address",
          "name": "",
          "type": "address"
        },
        {
          "internalType": "address",
          "name": "",
          "type": "address"
        },
        {
          "internalType": "uint256",
          "name": "",
          "type": "uint256"
        }
      ],
      "name": "safeTransferFrom",
      "outputs": [],
      "stateMutability": "nonpayable",
      "type": "function"
    },
    {
      "inputs": [
        {
          "internalType": "address",
          "name": "",
          "type": "address"
        },
        {
          "internalType": "address",
          "name": "",
          "type": "address"
        },
        {
          "internalType": "uint256",
          "name": "",
          "type": "uint256"
        },
        {
          "internalType": "bytes",
          "name": "",
          "type": "bytes"
        }
      ],
      "name": "safeTransferFrom",
      "outputs": [],
      "stateMutability": "nonpayable",
      "type": "function"
    },
    {
      "inputs": [
        {
          "internalType": "address",
          "name": "operator",
          "type": "address"
        },
        {
          "internalType": "bool",
          "name": "approved",
          "type": "bool"
        }
      ],
      "name": "setApprovalForAll",
      "outputs": [],
      "stateMutability": "nonpayable",
      "type": "function"
    },
    {
      "inputs": [
        {
          "internalType": "uint256",
          "name": "pixelID",
          "type": "uint256"
        },
        {
          "internalType": "uint8",
          "name": "color",
          "type": "uint8"
        }
      ],
      "name": "setColor",
      "outputs": [],
      "stateMutability": "nonpayable",
      "type": "function"
    },
    {
      "inputs": [
        {
          "internalType": "uint256",
          "name": "pixelID",
          "type": "uint256"
        },
        {
          "internalType": "uint64",
          "name": "newPrice",
          "type": "uint64"
        }
      ],
      "name": "setPrice",
      "outputs": [],
      "stateMutability": "nonpayable",
      "type": "function"
    },
    {
      "inputs": [],
      "name": "stopInitialization",
      "outputs": [],
      "stateMutability": "nonpayable",
      "type": "function"
    },
    {
      "inputs": [
        {
          "internalType": "bytes4",
          "name": "interfaceId",
          "type": "bytes4"
        }
      ],
      "name": "supportsInterface",
      "outputs": [
        {
          "internalType": "bool",
          "name": "",
          "type": "bool"
        }
      ],
      "stateMutability": "view",
      "type": "function"
    },
    {
      "inputs": [],
      "name": "symbol",
      "outputs": [
        {
          "internalType": "string",
          "name": "",
          "type": "string"
        }
      ],
      "stateMutability": "view",
      "type": "function"
    },
    {
      "inputs": [
        {
          "internalType": "uint256",
          "name": "index",
          "type": "uint256"
        }
      ],
      "name": "tokenByIndex",
      "outputs": [
        {
          "internalType": "uint256",
          "name": "",
          "type": "uint256"
        }
      ],
      "stateMutability": "view",
      "type": "function"
    },
    {
      "inputs": [
        {
          "internalType": "address",
          "name": "owner",
          "type": "address"
        },
        {
          "internalType": "uint256",
          "name": "index",
          "type": "uint256"
        }
      ],
      "name": "tokenOfOwnerByIndex",
      "outputs": [
        {
          "internalType": "uint256",
          "name": "",
          "type": "uint256"
        }
      ],
      "stateMutability": "view",
      "type": "function"
    },
    {
      "inputs": [
        {
          "internalType": "uint256",
          "name": "tokenId",
          "type": "uint256"
        }
      ],
      "name": "tokenURI",
      "outputs": [
        {
          "internalType": "string",
          "name": "",
          "type": "string"
        }
      ],
      "stateMutability": "view",
      "type": "function"
    },
    {
      "inputs": [],
      "name": "totalSupply",
      "outputs": [
        {
          "internalType": "uint256",
          "name": "",
          "type": "uint256"
        }
      ],
      "stateMutability": "view",
      "type": "function"
    },
    {
      "inputs": [
        {
          "internalType": "address",
          "name": "",
          "type": "address"
        },
        {
          "internalType": "address",
          "name": "",
          "type": "address"
        },
        {
          "internalType": "uint256",
          "name": "",
          "type": "uint256"
        }
      ],
      "name": "transferFrom",
      "outputs": [],
      "stateMutability": "nonpayable",
      "type": "function"
    },
    {
      "inputs": [
        {
          "internalType": "address",
          "name": "newOwner",
          "type": "address"
        }
      ],
      "name": "transferOwnership",
      "outputs": [],
      "stateMutability": "nonpayable",
      "type": "function"
    },
    {
      "inputs": [
        {
          "internalType": "uint64",
          "name": "amount",
          "type": "uint64"
        }
      ],
      "name": "withdraw",
      "outputs": [],
      "stateMutability": "nonpayable",
      "type": "function"
    },
    {
      "inputs": [],
      "name": "withdrawMax",
      "outputs": [],
      "stateMutability": "nonpayable",
      "type": "function"
    },
    {
      "inputs": [],
      "name": "withdrawMaxOwner",
      "outputs": [],
      "stateMutability": "nonpayable",
      "type": "function"
    },
    {
      "inputs": [
        {
          "internalType": "address",
          "name": "receiver",
          "type": "address"
        }
      ],
      "name": "withdrawMaxOwnerTo",
      "outputs": [],
      "stateMutability": "nonpayable",
      "type": "function"
    },
    {
      "inputs": [
        {
          "internalType": "address",
          "name": "receiver",
          "type": "address"
        }
      ],
      "name": "withdrawMaxTo",
      "outputs": [],
      "stateMutability": "nonpayable",
      "type": "function"
    },
    {
      "inputs": [
        {
          "internalType": "uint64",
          "name": "amount",
          "type": "uint64"
        }
      ],
      "name": "withdrawOwner",
      "outputs": [],
      "stateMutability": "nonpayable",
      "type": "function"
    },
    {
      "inputs": [
        {
          "internalType": "uint64",
          "name": "amount",
          "type": "uint64"
        },
        {
          "internalType": "address",
          "name": "receiver",
          "type": "address"
        }
      ],
      "name": "withdrawOwnerTo",
      "outputs": [],
      "stateMutability": "nonpayable",
      "type": "function"
    },
    {
      "inputs": [
        {
          "internalType": "uint64",
          "name": "amount",
          "type": "uint64"
        },
        {
          "internalType": "address",
          "name": "receiver",
          "type": "address"
        }
      ],
      "name": "withdrawTo",
      "outputs": [],
      "stateMutability": "nonpayable",
      "type": "function"
    }
  ],
  "bytecode": "0x60806040523480156200001157600080fd5b5060405162006098380380620060988339810160408190526200003491620003f4565b6040805180820182526005815264141a5e195b60da1b6020808301919091528251808401909352600383526214161360ea1b9083015282916200007e6301ffc9a760e01b6200028a565b81516200009390600690602085019062000313565b508051620000a990600790602084019062000313565b50620000bc6380ac58cd60e01b6200028a565b620000ce635b5e139f60e01b6200028a565b620000e063780e9d6360e01b6200028a565b5060009050620000ef6200030f565b600a80546001600160a01b0319166001600160a01b038316908117909155604051919250906000907f8be0079c531659141344cd1fd0a4f28419497f9722a3daafe3b4186f6b6457e0908290a35063096601808111156200016d5760405162461bcd60e51b815260040162000164906200046d565b60405180910390fd5b600b55600d805460ff191690556000600c556001600160801b038716620001a85760405162461bcd60e51b8152600401620001649062000553565b6000866001600160801b031611620001d45760405162461bcd60e51b8152600401620001649062000596565b6001600160401b03851115620001fe5760405162461bcd60e51b81526004016200016490620004a4565b60008411620002215760405162461bcd60e51b8152600401620001649062000501565b506012805495909602600019016001600160801b0316601155600e93909355600f91909155601080546001600160401b03199081166001600160401b03938416179091556801000000000000000060ff60401b19909416939093179092169116179055620005da565b6001600160e01b03198082161415620002ea576040805162461bcd60e51b815260206004820152601c60248201527f4552433136353a20696e76616c696420696e7465726661636520696400000000604482015290519081900360640190fd5b6001600160e01b0319166000908152602081905260409020805460ff19166001179055565b3390565b828054600181600116156101000203166002900490600052602060002090601f0160209004810192826200034b576000855562000396565b82601f106200036657805160ff191683800117855562000396565b8280016001018555821562000396579182015b828111156200039657825182559160200191906001019062000379565b50620003a4929150620003a8565b5090565b5b80821115620003a45760008155600101620003a9565b80516001600160801b0381168114620003d757600080fd5b919050565b80516001600160401b0381168114620003d757600080fd5b600080600080600080600060e0888a0312156200040f578283fd5b6200041a88620003bf565b96506200042a60208901620003bf565b955060408801519450606088015193506200044860808901620003dc565b92506200045860a08901620003dc565b915060c0880151905092959891949750929550565b60208082526019908201527f52756750756c6c3a20686561647320757020746f6f2062696700000000000000604082015260600190565b60208082526035908201527f47726166666974455448323a207461782072617465206e756d657261746f722060408201527f6d757374206e6f7420626520746f6f206c617267650000000000000000000000606082015260800190565b60208082526032908201527f47726166666974455448323a2074617820726174652064656e6f6d696e61746f60408201527172206d757374206e6f74206265207a65726f60701b606082015260800190565b60208082526023908201527f47726166666974455448323a207769647468206d757374206e6f74206265207a60408201526265726f60e81b606082015260800190565b60208082526024908201527f47726166666974455448323a20686569676874206d757374206e6f74206265206040820152637a65726f60e01b606082015260800190565b615aae80620005ea6000396000f3fe6080604052600436106102ff5760003560e01c806301ffc9a71461030457806302e080731461033a57806306f660ef1461036757806306fdde0314610389578063081812fc146103ab578063095ea7b3146103d85780630bdfc9e1146103fa5780630cb9bce21461041a57806314c538861461043a5780631668c60e1461045c57806318160ddd1461047c5780631ac2e30514610491578063209b1900146104a6578063234bc026146104bb57806323831494146104db57806323b872dd146104f0578063250f86471461051057806329039967146105255780632ba270191461053a5780632f745c591461055a57806335e19d441461057a5780633dbe1b3b1461058d5780633ec91f05146105a257806342842e0e146104f057806347e4d132146105b75780634f558e79146105d75780634f6ccce7146105f75780635057f0e21461061757806351dde5a8146106375780635bee27641461064c5780635df336071461066c5780636352211e1461068c57806363ff1368146106ac57806369476fe4146106cc5780636c0360eb146106ec57806370a0823114610701578063715018a614610721578063750f0acc146107365780638024f2c41461075657806384b00178146107765780638a078168146107965780638da5cb5b146107b657806395d89b41146107cb578063964e0811146107e057806399dabf9314610800578063a09c372914610815578063a22cb46514610835578063a895372614610855578063ab06a18414610868578063b10a7cce1461087d578063b760faf914610892578063b88d4fde146108a5578063c0530090146108c0578063c373647a146108d5578063c87b56dd146108f5578063cb66667f14610915578063cc1c332614610938578063cfaca2d014610958578063d0e30db014610978578063d3ac46f914610980578063dc28d24e146109a0578063e4fd5446146109b5578063e5cd8b6a146109d5578063e7572230146109ea578063e985e9c514610a0a578063f2fde38b14610a2a578063f88b8a5714610a4a578063f8b2cb4f14610a5f575b600080fd5b34801561031057600080fd5b5061032461031f366004614d27565b610a7f565b6040516103319190614e71565b60405180910390f35b34801561034657600080fd5b5061035a6103553660046149f2565b610aa2565b6040516103319190614e7c565b34801561037357600080fd5b5061037c610ac0565b604051610331919061575c565b34801561039557600080fd5b5061039e610acf565b6040516103319190614e8a565b3480156103b757600080fd5b506103cb6103c6366004614d6a565b610b65565b6040516103319190614e5d565b3480156103e457600080fd5b506103f86103f3366004614b64565b610bc7565b005b34801561040657600080fd5b5061037c6104153660046149f2565b610c9d565b34801561042657600080fd5b5061037c6104353660046149f2565b610cc8565b34801561044657600080fd5b5061044f610d43565b6040516103319190615745565b34801561046857600080fd5b506103f8610477366004614e3f565b610d59565b34801561048857600080fd5b5061044f610dc9565b34801561049d57600080fd5b506103f8610dda565b3480156104b257600080fd5b5061044f610e7d565b3480156104c757600080fd5b506103f86104d63660046149f2565b610e8c565b3480156104e757600080fd5b5061044f610fe0565b3480156104fc57600080fd5b506103f861050b366004614a3e565b610fe6565b34801561051c57600080fd5b506103f8610fe8565b34801561053157600080fd5b5061037c61105d565b34801561054657600080fd5b506103f8610555366004614dbd565b611073565b34801561056657600080fd5b5061044f610575366004614b64565b611289565b6103f8610588366004614b8d565b6112b4565b34801561059957600080fd5b506103246112cb565b3480156105ae57600080fd5b506103246112d3565b3480156105c357600080fd5b506103f86105d2366004614ddf565b6112e3565b3480156105e357600080fd5b506103246105f2366004614d6a565b6112ef565b34801561060357600080fd5b5061044f610612366004614d6a565b6112fa565b34801561062357600080fd5b5061037c6106323660046149f2565b611310565b34801561064357600080fd5b50610324611337565b34801561065857600080fd5b506103f8610667366004614e25565b611340565b34801561067857600080fd5b5061037c610687366004614d6a565b6113ac565b34801561069857600080fd5b506103cb6106a7366004614d6a565b6113e9565b3480156106b857600080fd5b506103f86106c7366004614e03565b611411565b3480156106d857600080fd5b5061037c6106e73660046149f2565b6114a0565b3480156106f857600080fd5b5061039e6114cb565b34801561070d57600080fd5b5061044f61071c3660046149f2565b61152c565b34801561072d57600080fd5b506103f8611594565b34801561074257600080fd5b506103f8610751366004614e25565b61162e565b34801561076257600080fd5b506103f8610771366004614b64565b611639565b34801561078257600080fd5b506103f8610791366004614c2a565b6116a5565b3480156107a257600080fd5b506103f86107b13660046149f2565b611a2e565b3480156107c257600080fd5b506103cb611aa1565b3480156107d757600080fd5b5061039e611ab0565b3480156107ec57600080fd5b506103f86107fb366004614e3f565b611b11565b34801561080c57600080fd5b506103f8611b1c565b34801561082157600080fd5b5061037c610830366004614d6a565b611b86565b34801561084157600080fd5b506103f8610850366004614b2a565b611ba8565b6103f8610863366004614d4f565b611ca9565b34801561087457600080fd5b5061037c611cbd565b34801561088957600080fd5b5061044f611d1d565b6103f86108a03660046149f2565b611d23565b3480156108b157600080fd5b506103f861050b366004614a79565b3480156108cc57600080fd5b506103f8611d33565b3480156108e157600080fd5b506103f86108f0366004614d4f565b611cb3565b34801561090157600080fd5b5061039e610910366004614d6a565b611d9d565b34801561092157600080fd5b5061092a61201e565b60405161033192919061574e565b34801561094457600080fd5b506103f8610953366004614d82565b612028565b34801561096457600080fd5b506103cb610973366004614d6a565b6120c0565b6103f86120db565b34801561098c57600080fd5b506103f861099b366004614b8d565b6112be565b3480156109ac57600080fd5b5061044f6120e5565b3480156109c157600080fd5b506103f86109d03660046149f2565b6120eb565b3480156109e157600080fd5b506103f86120f5565b3480156109f657600080fd5b5061037c610a05366004614d6a565b6120ff565b348015610a1657600080fd5b50610324610a25366004614a0c565b612168565b348015610a3657600080fd5b506103f8610a453660046149f2565b612196565b348015610a5657600080fd5b5061037c612287565b348015610a6b57600080fd5b5061035a610a7a3660046149f2565b612296565b6001600160e01b0319811660009081526020819052604090205460ff165b919050565b6001600160a01b0316600090815260146020526040902054600f0b90565b6012546001600160401b031690565b60068054604080516020601f6002600019610100600188161502019095169490940493840181900481028201810190925282815260609390929091830182828015610b5b5780601f10610b3057610100808354040283529160200191610b5b565b820191906000526020600020905b815481529060010190602001808311610b3e57829003601f168201915b5050505050905090565b6000610b708261230e565b610bab5760405162461bcd60e51b815260040180806020018281038252602c815260200180615954602c913960400191505060405180910390fd5b506000908152600460205260409020546001600160a01b031690565b6000610bd2826113e9565b9050806001600160a01b0316836001600160a01b03161415610c255760405162461bcd60e51b8152600401808060200182810382526021815260200180615a386021913960400191505060405180910390fd5b806001600160a01b0316610c3761231b565b6001600160a01b03161480610c535750610c5381610a2561231b565b610c8e5760405162461bcd60e51b81526004018080602001828103825260388152602001806158876038913960400191505060405180910390fd5b610c98838361231f565b505050565b6001600160a01b0316600090815260146020526040902054600160c01b90046001600160401b031690565b6001600160a01b038116600090815260146020908152604080832081516080810183528154600f81810b810b900b82526001600160401b03600160801b8204811695830195909552600160c01b900484169281019290925260010154909116606082015281610d368261238d565b5060600151949350505050565b601654600160801b90046001600160401b031690565b610d6161231b565b6001600160a01b0316610d72611aa1565b6001600160a01b031614610dbb576040805162461bcd60e51b81526020600482018190526024820152600080516020615980833981519152604482015290519081900360640190fd5b610dc582826123be565b5050565b6000610dd5600261252c565b905090565b610de261231b565b6001600160a01b0316610df3611aa1565b6001600160a01b031614610e3c576040805162461bcd60e51b81526020600482018190526024820152600080516020615980833981519152604482015290519081900360640190fd5b601254600160401b900460ff16610e6e5760405162461bcd60e51b8152600401610e6590615666565b60405180910390fd5b6012805460ff60401b19169055565b6016546001600160401b031690565b6001600160a01b038116600090815260146020908152604080832081516080810183528154600f81810b810b900b82526001600160401b03600160801b8204811695830195909552600160c01b900484169281019290925260010154909116606082015290610efa8261238d565b6001600160a01b0385166000908152601460209081526040918290208451815492860151938601516001600160801b03199093166001600160801b03600f9290920b9190911617600160801b600160c01b031916600160801b6001600160401b0394851602176001600160c01b0316600160c01b928416929092029190911781556060840151600190910180546001600160401b031916918316919091179055601654929450909250610fb591600160401b90041682612537565b601660086101000a8154816001600160401b0302191690836001600160401b03160217905550505050565b600c5490565bfe5b610ff061231b565b6001600160a01b0316611001611aa1565b6001600160a01b03161461104a576040805162461bcd60e51b81526020600482018190526024820152600080516020615980833981519152604482015290519081900360640190fd5b61105b611055611cbd565b336123be565b565b601654600160401b90046001600160401b031690565b61107c8261230e565b61108557600080fd5b6000611090836113e9565b9050336001600160a01b038216146110ba5760405162461bcd60e51b8152600401610e65906155b5565b33600090815260146020908152604080832081516080810183528154600f81810b810b900b82526001600160401b03600160801b8204811695830195909552600160c01b90048416928101929092526001015490911660608201529061111f8261238d565b60008781526013602052604090205491935091506001600160401b031661114683826125d0565b92506111528386612611565b600087815260136020526040902080546001600160401b0319166001600160401b038881169190911790915560165491945061119691600160401b90041683612537565b60168054600160401b600160801b031916600160401b6001600160401b0393841602179055336000908152601460209081526040918290208651815492880151888501516001600160801b03199094166001600160801b03600f9390930b9290921691909117600160801b600160c01b031916600160801b91861691909102176001600160c01b0316600160c01b92851692909202919091178155606086015160019190910180546001600160401b0319169190931617909155516001600160a01b038516908790600080516020615a598339815191529061127990899061575c565b60405180910390a3505050505050565b6001600160a01b03821660009081526001602052604081206112ab9083612671565b90505b92915050565b6112be333361267d565b6112c833826128e6565b50565b600c54151590565b601254600160401b900460ff1690565b610c9833848484613175565b60006112ae8261230e565b600080611308600284613756565b509392505050565b6001600160a01b03166000908152601460205260409020600101546001600160401b031690565b600d5460ff1690565b61134861231b565b6001600160a01b0316611359611aa1565b6001600160a01b0316146113a2576040805162461bcd60e51b81526020600482018190526024820152600080516020615980833981519152604482015290519081900360640190fd5b6112c881336123be565b60006113b78261230e565b6113cd57506012546001600160401b0316610a9d565b506000908152601360205260409020546001600160401b031690565b60006112ae826040518060600160405280602981526020016158e96029913960029190613772565b61141a8261230e565b6114365760405162461bcd60e51b8152600401610e65906154df565b6000611441836113e9565b9050336001600160a01b0382161461146b5760405162461bcd60e51b8152600401610e65906152da565b806001600160a01b03168360008051602061591283398151915284604051611493919061578c565b60405180910390a3505050565b6001600160a01b0316600090815260146020526040902054600160801b90046001600160401b031690565b60098054604080516020601f6002600019610100600188161502019095169490940493840181900481028201810190925282815260609390929091830182828015610b5b5780601f10610b3057610100808354040283529160200191610b5b565b60006001600160a01b0382166115735760405162461bcd60e51b815260040180806020018281038252602a8152602001806158bf602a913960400191505060405180910390fd5b6001600160a01b03821660009081526001602052604090206112ae9061252c565b61159c61231b565b6001600160a01b03166115ad611aa1565b6001600160a01b0316146115f6576040805162461bcd60e51b81526020600482018190526024820152600080516020615980833981519152604482015290519081900360640190fd5b600a546040516000916001600160a01b0316906000805160206159a0833981519152908390a3600a80546001600160a01b0319169055565b6112c8338233613789565b61164161231b565b6001600160a01b0316611652611aa1565b6001600160a01b03161461169b576040805162461bcd60e51b81526020600482018190526024820152600080516020615980833981519152604482015290519081900360640190fd5b610dc58282613a06565b6116ad61231b565b6001600160a01b03166116be611aa1565b6001600160a01b031614611707576040805162461bcd60e51b81526020600482018190526024820152600080516020615980833981519152604482015290519081900360640190fd5b601254600160401b900460ff166117305760405162461bcd60e51b8152600401610e6590615666565b8351835181146117525760405162461bcd60e51b8152600401610e6590615520565b808351146117725760405162461bcd60e51b8152600401610e6590615494565b808251146117925760405162461bcd60e51b8152600401610e6590615313565b60005b81811015611a265760008682815181106117ab57fe5b6020026020010151905060008683815181106117c357fe5b6020026020010151905060008684815181106117db57fe5b6020026020010151905060008685815181106117f357fe5b602002602001015190506118068461230e565b156118235760405162461bcd60e51b8152600401610e6590614edd565b61182d8385613b29565b6001600160a01b038316600090815260146020908152604080832081516080810183528154600f81810b810b900b82526001600160401b03600160801b8204811695830195909552600160c01b90048416928101929092526001015490911660608201529061189b8261238d565b90925090506118aa8285612611565b600087815260136020908152604080832080546001600160401b03808b166001600160401b0319928316179092556001600160a01b038b16855260148452938290208551815494870151938701518316600160c01b026001600160c01b03948416600160801b02600160801b600160c01b0319600f9390930b6001600160801b03166001600160801b0319909716969096179190911694909417929092169290921781556060840151600191909101805491831691909316179091559092508116156119b45760165461198d90600160401b90046001600160401b031682612537565b601660086101000a8154816001600160401b0302191690836001600160401b031602179055505b846001600160a01b031686600080516020615a59833981519152866040516119dc919061575c565b60405180910390a3846001600160a01b03168660008051602061591283398151915285604051611a0c919061578c565b60405180910390a350506001909401935061179592505050565b505050505050565b611a3661231b565b6001600160a01b0316611a47611aa1565b6001600160a01b031614611a90576040805162461bcd60e51b81526020600482018190526024820152600080516020615980833981519152604482015290519081900360640190fd5b6112c8611a9b611cbd565b826123be565b600a546001600160a01b031690565b60078054604080516020601f6002600019610100600188161502019095169490940493840181900481028201810190925282815260609390929091830182828015610b5b5780601f10610b3057610100808354040283529160200191610b5b565b610dc5338383613789565b611b2461231b565b6001600160a01b0316611b35611aa1565b6001600160a01b031614611b7e576040805162461bcd60e51b81526020600482018190526024820152600080516020615980833981519152604482015290519081900360640190fd5b61105b613c44565b600090815260156020526040902054600160a01b90046001600160401b031690565b611bb061231b565b6001600160a01b0316826001600160a01b03161415611c12576040805162461bcd60e51b815260206004820152601960248201527822a9219b99189d1030b8383937bb32903a379031b0b63632b960391b604482015290519081900360640190fd5b8060056000611c1f61231b565b6001600160a01b03908116825260208083019390935260409182016000908120918716808252919093529120805460ff191692151592909217909155611c6361231b565b6001600160a01b03167f17307eab39ab6107e8899845ad3d59bd9653f200f220920489ca2b5937696c318360405180821515815260200191505060405180910390a35050565b611cb3333361267d565b6112c83382613ca1565b6016546000908190611ce1906001600160401b03600160401b820481169116612537565b6016549091506001600160401b03808316600160801b909204161115611d0357fe5b601654600160801b90046001600160401b03169003919050565b60115490565b6112c8338261267d565b50505050565b611d3b61231b565b6001600160a01b0316611d4c611aa1565b6001600160a01b031614611d95576040805162461bcd60e51b81526020600482018190526024820152600080516020615980833981519152604482015290519081900360640190fd5b61105b613cf8565b6060611da88261230e565b611de35760405162461bcd60e51b815260040180806020018281038252602f8152602001806159e9602f913960400191505060405180910390fd5b60008281526008602090815260408083208054825160026001831615610100026000190190921691909104601f810185900485028201850190935282815292909190830182828015611e765780601f10611e4b57610100808354040283529160200191611e76565b820191906000526020600020905b815481529060010190602001808311611e5957829003601f168201915b505050505090506000611e876114cb565b9050805160001415611e9b57509050610a9d565b815115611f5c5780826040516020018083805190602001908083835b60208310611ed65780518252601f199092019160209182019101611eb7565b51815160209384036101000a600019018019909216911617905285519190930192850191508083835b60208310611f1e5780518252601f199092019160209182019101611eff565b6001836020036101000a0380198251168184511680821785525050505050509050019250505060405160208183030381529060405292505050610a9d565b80611f6685613d81565b6040516020018083805190602001908083835b60208310611f985780518252601f199092019160209182019101611f79565b51815160209384036101000a600019018019909216911617905285519190930192850191508083835b60208310611fe05780518252601f199092019160209182019101611fc1565b6001836020036101000a0380198251168184511680821785525050505050509050019250505060405160208183030381529060405292505050919050565b600e54600f549091565b6120318361230e565b61204d5760405162461bcd60e51b8152600401610e65906154df565b6000612058846113e9565b9050336001600160a01b038216146120825760405162461bcd60e51b8152600401610e659061513a565b806001600160a01b0316836001600160a01b031614156120b45760405162461bcd60e51b8152600401610e659061525e565b611d2d84828585613e5b565b6000908152601560205260409020546001600160a01b031690565b61105b333361267d565b600b5490565b6112c83382613f07565b61105b3333613f07565b600061210a8261230e565b61212057506012546001600160401b0316610a9d565b600061212b836113e9565b9050600061213882612296565b600f0b121561214b576000915050610a9d565b50506000908152601360205260409020546001600160401b031690565b6001600160a01b03918216600090815260056020908152604080832093909416825291909152205460ff1690565b61219e61231b565b6001600160a01b03166121af611aa1565b6001600160a01b0316146121f8576040805162461bcd60e51b81526020600482018190526024820152600080516020615980833981519152604482015290519081900360640190fd5b6001600160a01b03811661223d5760405162461bcd60e51b815260040180806020018281038252602681526020018061581d6026913960400191505060405180910390fd5b600a546040516001600160a01b038084169216906000805160206159a083398151915290600090a3600a80546001600160a01b0319166001600160a01b0392909216919091179055565b6010546001600160401b031690565b6001600160a01b038116600090815260146020908152604080832081516080810183528154600f81810b810b900b82526001600160401b03600160801b8204811695830195909552600160c01b9004841692810192909252600101549091166060820152816123048261238d565b5051949350505050565b60006112ae600283613f68565b3390565b600081815260046020526040902080546001600160a01b0319166001600160a01b0384169081179091558190612354826113e9565b6001600160a01b03167f8c5be1e5ebec7d5bd14f71427d1e84f3dd0314c0f7b2291e5b200ac8c7c3b92560405160405180910390a45050565b6123956147e6565b600e54600f546010546000926123b59286926001600160401b0316613f74565b91509150915091565b60006123c8611cbd565b9050806001600160401b0316836001600160401b031611156123fc5760405162461bcd60e51b8152600401610e65906156fc565b60165461241990600160801b90046001600160401b031684612537565b60168054600160801b600160c01b031916600160801b6001600160401b03938416021790558316633b9aca00024781111561245057fe5b6001600160401b038416633b9aca0082041461246857fe5b6000836001600160a01b03168260405161248190614e5a565b60006040518083038185875af1925050503d80600081146124be576040519150601f19603f3d011682016040523d82523d6000602084013e6124c3565b606091505b50509050806124e45760405162461bcd60e51b8152600401610e659061501e565b836001600160a01b03167f8320dd0681f508ec596969c6cb3b91527fbef7815183fa91fcde63f05e2be3128660405161251d919061575c565b60405180910390a25050505050565b60006112ae826140d2565b600080826001600160401b03036001600160401b0316846001600160401b031611612565575082820161256f565b506001600160401b035b836001600160401b0316816001600160401b0316101580156125a35750826001600160401b0316816001600160401b031610155b6125a957fe5b826001600160401b0316846001600160401b031601816001600160401b031611156112ab57fe5b6125d86147e6565b816001600160401b031683602001516001600160401b031610156125f857fe5b50602082018051919091036001600160401b0316905290565b6126196147e6565b82602001516001600160401b03036001600160401b0316826001600160401b031611156126585760405162461bcd60e51b8152600401610e659061535e565b50602082018051919091016001600160401b0316905290565b60006112ab83836140d6565b6001600160a01b038116600090815260146020908152604080832081516080810183528154600f81810b810b900b82526001600160401b03600160801b8204811695830195909552600160c01b9004841692810192909252600101549091166060820152906126eb8261238d565b9092509050633b9aca003406156127145760405162461bcd60e51b8152600401610e65906151a8565b633b9aca0034046001600160401b038111156127425760405162461bcd60e51b8152600401610e65906156b4565b825181906000600f9190910b12156127b5578351600f0b6000908103906001600160401b038316821261277657508161278a565b6001600160401b0382131561278757fe5b50805b6127948582612537565b94506127a4866060015182612537565b6001600160401b0316606087015250505b6127bf848261413a565b6001600160a01b0386166000908152601460209081526040918290208351815492850151938501516001600160801b03199093166001600160801b03600f9290920b9190911617600160801b600160c01b031916600160801b6001600160401b0394851602176001600160c01b0316600160c01b928416929092029190911781556060830151600190910180546001600160401b03191691831691909117905560165491955061287791600160401b90041684612537565b601660086101000a8154816001600160401b0302191690836001600160401b03160217905550856001600160a01b0316856001600160a01b03167fc7921355bf05208382b692023dc2dc0a8d22a078b41a1d3a1ccabe4bccf6ee4c838760000151604051611279929190615770565b6001600160a01b038216600090815260146020908152604080832081516080810183528154600f81810b810b900b82526001600160401b03600160801b8204811695830195909552600160c01b9004841692810192909252600101548216606082015283519092918291908111801561295e57600080fd5b50604051908082528060200260200182016040528015612988578160200160208202803683370190505b509050600084516001600160401b03811180156129a457600080fd5b506040519080825280602002602001820160405280156129de57816020015b6129cb6147e6565b8152602001906001900390816129c35790505b5090506000806129ee868361415e565b909650915060005b8751811015612f7057801580612a3c5750876001820381518110612a1657fe5b602002602001015160000151888281518110612a2e57fe5b602002602001015160000151115b612a585760405162461bcd60e51b8152600401610e65906153b6565b6000612a7a898381518110612a6957fe5b6020026020010151600001516120ff565b9050888281518110612a8857fe5b6020026020010151602001516001600160401b0316816001600160401b03161115612ac55760405162461bcd60e51b8152600401610e65906150ad565b806001600160401b03168860000151600f0b1215612af55760405162461bcd60e51b8152600401610e6590615067565b612aff8882614195565b9750612b22888a8481518110612b1157fe5b602002602001015160400151612611565b97506000612b468a8481518110612b3557fe5b60200260200101516000015161230e565b15612d7857612b6b8a8481518110612b5a57fe5b6020026020010151600001516113e9565b90508a6001600160a01b0316816001600160a01b03161415612b9f5760405162461bcd60e51b8152600401610e659061556b565b612ba76147e6565b60005b89811015612c0257826001600160a01b0316898281518110612bc857fe5b60200260200101516001600160a01b03161415612bfa57878181518110612beb57fe5b60200260200101519150612c02565b600101612baa565b8751811115612c0d57fe5b89811415612cc1576001600160a01b03831660009081526014602090815260409182902082516080810184528154600f81810b810b900b82526001600160401b03600160801b8204811694830194909452600160c01b900483169381019390935260019081015490911660608301528a519b019a90925083908a9083908110612c9257fe5b60200260200101906001600160a01b031690816001600160a01b031681525050612cbc828861415e565b975091505b6000601360008e8881518110612cd357fe5b602090810291909101810151518252810191909152604001600020546001600160401b03169050612d04838661413a565b9250612d1083826125d0565b925082898381518110612d1f57fe5b6020026020010181905250612d4c848f8f8981518110612d3b57fe5b6020026020010151600001516141a9565b612d708d8781518110612d5b57fe5b6020026020010151600001518f600080613e5b565b505050612de1565b506000612d858483612537565b93506011548a8481518110612d9657fe5b6020026020010151600001511115612dc05760405162461bcd60e51b8152600401610e6590614f23565b612de18b8b8581518110612dd057fe5b602002602001015160000151613b29565b898381518110612ded57fe5b602002602001015160400151601360008c8681518110612e0957fe5b602002602001015160000151815260200190815260200160002060006101000a8154816001600160401b0302191690836001600160401b031602179055508a6001600160a01b0316816001600160a01b03168b8581518110612e6757fe5b6020026020010151600001517f42a061f17422d0a3fce98316d85925477270aa3f53991439bfc973e72f65f16085604051612ea2919061575c565b60405180910390a48a6001600160a01b03168a8481518110612ec057fe5b6020026020010151600001516000805160206159128339815191528c8681518110612ee757fe5b602002602001015160600151604051612f00919061578c565b60405180910390a38a6001600160a01b03168a8481518110612f1e57fe5b602002602001015160000151600080516020615a598339815191528c8681518110612f4557fe5b602002602001015160400151604051612f5e919061575c565b60405180910390a350506001016129f6565b506001600160a01b03881660009081526014602090815260409182902088518154928a0151938a01516001600160801b03199093166001600160801b03600f9290920b9190911617600160801b600160c01b031916600160801b6001600160401b0394851602176001600160c01b0316600160c01b928416929092029190911781556060880151600190910180546001600160401b03191691909216179055825184511461301a57fe5b60005b84518110156130fb57600085828151811061303457fe5b6020026020010151905084828151811061304a57fe5b6020908102919091018101516001600160a01b03929092166000908152601482526040908190208351815493850151928501516001600160801b03199094166001600160801b03600f9290920b9190911617600160801b600160c01b031916600160801b6001600160401b0393841602176001600160c01b0316600160c01b93831693909302929092178255606090920151600191820180546001600160401b03191691909316179091550161301d565b5060165461311990600160401b90046001600160401b031683612537565b60168054600160401b600160801b031916600160401b6001600160401b0393841602179081905561314b911682612537565b601680546001600160401b0319166001600160401b03929092169190911790555050505050505050565b61317e8361230e565b61319a5760405162461bcd60e51b8152600401610e65906154df565b60006131a5846113e9565b6000858152601560209081526040918290208251808401909352546001600160a01b03808216808552600160a01b9092046001600160401b03169284019290925292935090919087161461320b5760405162461bcd60e51b8152600401610e65906153f7565b60008060146000856001600160a01b03166001600160a01b031681526020019081526020016000206040518060800160405290816000820160009054906101000a9004600f0b600f0b600f0b81526020016000820160109054906101000a90046001600160401b03166001600160401b03166001600160401b031681526020016000820160189054906101000a90046001600160401b03166001600160401b03166001600160401b031681526020016001820160009054906101000a90046001600160401b03166001600160401b03166001600160401b03168152505090506000601460008a6001600160a01b03166001600160a01b031681526020019081526020016000206040518060800160405290816000820160009054906101000a9004600f0b600f0b600f0b81526020016000820160109054906101000a90046001600160401b03166001600160401b03166001600160401b031681526020016000820160189054906101000a90046001600160401b03166001600160401b03166001600160401b031681526020016001820160009054906101000a90046001600160401b03166001600160401b03166001600160401b03168152505090506133d2828461415e565b935091506133e0818461415e565b9350905060006133ef896113ac565b9050876001600160401b0316816001600160401b031611156134235760405162461bcd60e51b8152600401610e65906150f7565b61342d83826125d0565b92506134398282612611565b9150600085602001516001600160401b03168460000151600f0b1261346357506020850151613496565b60008460000151600f0b126134925783516001600160401b03600f9190910b131561348a57fe5b508251613496565b5060005b876001600160401b0316816001600160401b031610156134c85760405162461bcd60e51b8152600401610e65906155ee565b6134d28482614195565b93506134de838261413a565b92508360146000896001600160a01b03166001600160a01b0316815260200190815260200160002060008201518160000160006101000a8154816001600160801b030219169083600f0b6001600160801b0316021790555060208201518160000160106101000a8154816001600160401b0302191690836001600160401b0316021790555060408201518160000160186101000a8154816001600160401b0302191690836001600160401b0316021790555060608201518160010160006101000a8154816001600160401b0302191690836001600160401b0316021790555090505082601460008d6001600160a01b03166001600160a01b0316815260200190815260200160002060008201518160000160006101000a8154816001600160801b030219169083600f0b6001600160801b0316021790555060208201518160000160106101000a8154816001600160401b0302191690836001600160401b0316021790555060408201518160000160186101000a8154816001600160401b0302191690836001600160401b0316021790555060608201518160010160006101000a8154816001600160401b0302191690836001600160401b031602179055509050506136bf601660089054906101000a90046001600160401b031686612537565b601660086101000a8154816001600160401b0302191690836001600160401b031602179055506136f0878c8c6141a9565b6136fd8a88600080613e5b565b8a6001600160a01b0316876001600160a01b03168b7f054b2f294b34d5fac1690903e9fe65921870f8d7c1ef57f4ca2301894737c36384604051613741919061575c565b60405180910390a45050505050505050505050565b600080808061376586866142e3565b9097909650945050505050565b600061377f84848461435e565b90505b9392505050565b6001600160a01b038316600090815260146020908152604080832081516080810183528154600f81810b810b900b82526001600160401b03600160801b8204811695830195909552600160c01b9004841692810192909252600101549091166060820152906137f78261238d565b815191935091506001600160401b038516600f9190910b121561382c5760405162461bcd60e51b8152600401610e6590615446565b6138368285614195565b9150633b9aca006001600160401b0385168181029182041461385457fe5b6000846001600160a01b03168260405161386d90614e5a565b60006040518083038185875af1925050503d80600081146138aa576040519150601f19603f3d011682016040523d82523d6000602084013e6138af565b606091505b50509050806138d05760405162461bcd60e51b8152600401610e6590615623565b6001600160a01b0387166000908152601460209081526040918290208651815492880151938801516001600160801b03199093166001600160801b03600f9290920b9190911617600160801b600160c01b031916600160801b6001600160401b0394851602176001600160c01b0316600160c01b928416929092029190911781556060860151600190910180546001600160401b03191691831691909117905560165461398691600160401b9091041684612537565b601660086101000a8154816001600160401b0302191690836001600160401b03160217905550846001600160a01b0316876001600160a01b03167fd200b98d2920a80d947f79667cc8b90d91d57ecb33c7898637125d71580e50e08887600001516040516139f5929190615770565b60405180910390a350505050505050565b600d5460ff1615613a295760405162461bcd60e51b8152600401610e6590615233565b600c54613a485760405162461bcd60e51b8152600401610e6590614fb6565b600c54421015613a6a5760405162461bcd60e51b8152600401610e65906151fe565b6000826001600160a01b031682604051613a8390614e5a565b60006040518083038185875af1925050503d8060008114613ac0576040519150601f19603f3d011682016040523d82523d6000602084013e613ac5565b606091505b5050905080613ae65760405162461bcd60e51b8152600401610e65906152a3565b826001600160a01b0316336001600160a01b03167fe64225e0e86b93cbd64a96e476163519fe65be29879338a66adcc08159edc2b3846040516114939190615745565b6001600160a01b038216613b84576040805162461bcd60e51b815260206004820181905260248201527f4552433732313a206d696e7420746f20746865207a65726f2061646472657373604482015290519081900360640190fd5b613b8d8161230e565b15613bde576040805162461bcd60e51b815260206004820152601c60248201527b115490cdcc8c4e881d1bdad95b88185b1c9958591e481b5a5b9d195960221b604482015290519081900360640190fd5b613bea60008383610c98565b6001600160a01b0382166000908152600160205260409020613c0c9082614428565b50613c1960028284614434565b5060405181906001600160a01b03841690600090600080516020615a18833981519152908290a45050565b600d5460ff1615613c675760405162461bcd60e51b8152600401610e6590615175565b600d805460ff1916600117905560405133907fb8d187aa99b531be43e3a058a271522bd2b409c64fde99ab089d46e04c3c1d4c90600090a2565b604080516001808252818301909252600091816020015b613cc06147e6565b815260200190600190039081613cb85790505090508181600081518110613ce357fe5b6020026020010181905250610c9883826128e6565b600d5460ff1615613d1b5760405162461bcd60e51b8152600401610e6590615233565b600c5415613d3b5760405162461bcd60e51b8152600401610e6590614fea565b600b5442908101600c81905560405133927fb541144ed00ffd8bbd35d5dd947facd4ae14b74d9f614f23049e2be938317f8592613d779261574e565b60405180910390a2565b606081613da657506040805180820190915260018152600360fc1b6020820152610a9d565b8160005b8115613dbe57600101600a82049150613daa565b6000816001600160401b0381118015613dd657600080fd5b506040519080825280601f01601f191660200182016040528015613e01576020820181803683370190505b50859350905060001982015b8315613e5257600a840660300160f81b82828060019003935081518110613e3057fe5b60200101906001600160f81b031916908160001a905350600a84049350613e0d565b50949350505050565b6040805180820182526001600160a01b038481168083526001600160401b03858116602080860191825260008b815260159091528690209451855491516001600160a01b031990921690851617600160a01b600160e01b031916600160a01b9190921602179092559151909185169086907f28aacdb5c6561da8dedc28ea0f08e1140a887e31a2658eb3c3d315f4e22a57ad90613ef990869061575c565b60405180910390a450505050565b6000613f1283612296565b9050600081600f0b1215613f385760405162461bcd60e51b8152600401610e6590614f65565b60006001600160401b03600f83900b12613f5a57506001600160401b03613f5d565b50805b611d2d848285613789565b60006112ab838361444a565b613f7c6147e6565b60408501516000906001600160401b038085169082161015613f9b5750825b6000613fae87878a602001518542614462565b90506000816001600160401b03168960000151600f0b12613fd0575080614003565b60008960000151600f0b12613fff5788516001600160401b03600f9190910b1315613ff757fe5b508751614003565b5060005b816001600160401b0316816001600160401b0316111561401f57fe5b60008960000151600f0b1215801561404457508851600f0b6001600160401b03821613155b80614068575060008960000151600f0b12801561406857506001600160401b038116155b61406e57fe5b885161407a9083614518565b600f90810b900b895260408901516001600160401b031642101561409a57fe5b6001600160401b03421660408a015260608901516140b89082612537565b6001600160401b031660608a015297989650505050505050565b5490565b815460009082106141185760405162461bcd60e51b81526004018080602001828103825260228152602001806157db6022913960400191505060405180910390fd5b82600001828154811061412757fe5b9060005260206000200154905092915050565b6141426147e6565b825161414e9083614568565b600f90810b900b83525090919050565b6141666147e6565b600e54600f5460105460009261418a928792879291906001600160401b0316614601565b915091509250929050565b61419d6147e6565b825161414e9083614518565b826001600160a01b03166141bc826113e9565b6001600160a01b0316146142015760405162461bcd60e51b81526004018080602001828103825260298152602001806159c06029913960400191505060405180910390fd5b6001600160a01b0382166142465760405162461bcd60e51b81526004018080602001828103825260248152602001806158436024913960400191505060405180910390fd5b614251838383610c98565b61425c60008261231f565b6001600160a01b038316600090815260016020526040902061427e9082614633565b506001600160a01b03821660009081526001602052604090206142a19082614428565b506142ae60028284614434565b5080826001600160a01b0316846001600160a01b0316600080516020615a1883398151915260405160405180910390a4505050565b8154600090819083106143275760405162461bcd60e51b81526004018080602001828103825260228152602001806159326022913960400191505060405180910390fd5b600084600001848154811061433857fe5b906000526020600020906002020190508060000154816001015492509250509250929050565b600082815260018401602052604081205482816143f95760405162461bcd60e51b81526004018080602001828103825283818151815260200191508051906020019080838360005b838110156143be5781810151838201526020016143a6565b50505050905090810190601f1680156143eb5780820380516001836020036101000a031916815260200191505b509250505060405180910390fd5b5084600001600182038154811061440c57fe5b9060005260206000209060020201600101549150509392505050565b60006112ab838361463f565b600061377f84846001600160a01b038516614689565b60009081526001919091016020526040902054151590565b6000826001600160401b0316826001600160401b0316116144855750600061450f565b8282036001600160401b0390811690851602860260008682816144a457fe5b049050818111156144b157fe5b60006001600160401b0382116144c85750806144d2565b506001600160401b035b81816001600160401b031614806145045750806001600160401b03168211801561450457506001600160401b03818116145b61450a57fe5b925050505b95945050505050565b600080826001600160401b031660016001607f1b031901600f0b84600f0b1261454d57506001600160401b0382168303614558565b5060016001607f1b03195b83600f0b81600f0b13156112ab57fe5b600080826001600160401b031660016001607f1b0303600f0b84600f0b1361459c57506001600160401b03821683016145a6565b5060016001607f1b035b83600f0b81600f0b121580156145fb5750600084600f0b121580156145d75750826001600160401b031681600f0b12155b806145fb5750600084600f0b1280156145fb5750826001600160401b031681600f0b125b6112ab57fe5b6146096147e6565b60008061461888878787613f74565b90985090506146278782612537565b97989650505050505050565b60006112ab8383614720565b600061464b838361444a565b614681575081546001818101845560008481526020808220909301849055845484825282860190935260409020919091556112ae565b5060006112ae565b6000828152600184016020526040812054806146ee575050604080518082018252838152602080820184815286546001818101895560008981528481209551600290930290950191825591519082015586548684528188019092529290912055613782565b8285600001600183038154811061470157fe5b9060005260206000209060020201600101819055506000915050613782565b600081815260018301602052604081205480156147dc578354600019808301919081019060009087908390811061475357fe5b906000526020600020015490508087600001848154811061477057fe5b6000918252602080832090910192909255828152600189810190925260409020908401905586548790806147a057fe5b600190038181906000526020600020016000905590558660010160008781526020019081526020016000206000905560019450505050506112ae565b60009150506112ae565b60408051608081018252600080825260208201819052918101829052606081019190915290565b80356001600160a01b0381168114610a9d57600080fd5b600082601f830112614834578081fd5b81356020614849614844836157bd565b61579a565b8281528181019085830183850287018401881015614865578586fd5b855b8581101561488a576148788261480d565b84529284019290840190600101614867565b5090979650505050505050565b600082601f8301126148a7578081fd5b813560206148b7614844836157bd565b82815281810190858301838502870184018810156148d3578586fd5b855b8581101561488a576148e6826149ca565b845292840192908401906001016148d5565b600082601f830112614908578081fd5b81356020614918614844836157bd565b8281528181019085830183850287018401881015614934578586fd5b855b8581101561488a57614947826149e1565b84529284019290840190600101614936565b60006080828403121561496a578081fd5b604051608081016001600160401b038111828210171561498657fe5b6040528235815290508061499c602084016149ca565b60208201526149ad604084016149ca565b60408201526149be606084016149e1565b60608201525092915050565b80356001600160401b0381168114610a9d57600080fd5b803560ff81168114610a9d57600080fd5b600060208284031215614a03578081fd5b6112ab8261480d565b60008060408385031215614a1e578081fd5b614a278361480d565b9150614a356020840161480d565b90509250929050565b600080600060608486031215614a52578081fd5b614a5b8461480d565b9250614a696020850161480d565b9150604084013590509250925092565b60008060008060808587031215614a8e578182fd5b614a978561480d565b93506020614aa681870161480d565b93506040860135925060608601356001600160401b0380821115614ac8578384fd5b818801915088601f830112614adb578384fd5b813581811115614ae757fe5b614af9601f8201601f1916850161579a565b91508082528984828501011115614b0e578485fd5b8084840185840137810190920192909252939692955090935050565b60008060408385031215614b3c578182fd5b614b458361480d565b915060208301358015158114614b59578182fd5b809150509250929050565b60008060408385031215614b76578182fd5b614b7f8361480d565b946020939093013593505050565b60006020808385031215614b9f578182fd5b82356001600160401b03811115614bb4578283fd5b8301601f81018513614bc4578283fd5b8035614bd2614844826157bd565b818152838101908385016080808502860187018a1015614bf0578788fd5b8795505b84861015614c1c57614c068a83614959565b8452600195909501949286019290810190614bf4565b509098975050505050505050565b60008060008060808587031215614c3f578182fd5b84356001600160401b0380821115614c55578384fd5b818701915087601f830112614c68578384fd5b81356020614c78614844836157bd565b82815281810190858301838502870184018d1015614c94578889fd5b8896505b84871015614cb6578035835260019690960195918301918301614c98565b5098505088013592505080821115614ccc578384fd5b614cd888838901614824565b94506040870135915080821115614ced578384fd5b614cf988838901614897565b93506060870135915080821115614d0e578283fd5b50614d1b878288016148f8565b91505092959194509250565b600060208284031215614d38578081fd5b81356001600160e01b0319811681146112ab578182fd5b600060808284031215614d60578081fd5b6112ab8383614959565b600060208284031215614d7b578081fd5b5035919050565b600080600060608486031215614d96578081fd5b83359250614da66020850161480d565b9150614db4604085016149ca565b90509250925092565b60008060408385031215614dcf578182fd5b82359150614a35602084016149ca565b600080600060608486031215614df3578081fd5b83359250614da6602085016149ca565b60008060408385031215614e15578182fd5b82359150614a35602084016149e1565b600060208284031215614e36578081fd5b6112ab826149ca565b60008060408385031215614e51578182fd5b614a27836149ca565b90565b6001600160a01b0391909116815260200190565b901515815260200190565b600f9190910b815260200190565b6000602080835283518082850152825b81811015614eb657858101830151858201604001528201614e9a565b81811115614ec75783604083870101525b50601f01601f1916929092016040019392505050565b60208082526026908201527f47726166666974455448323a20706978656c20616c726561647920696e697469604082015265185b1a5e995960d21b606082015260800190565b60208082526022908201527f47726166666974455448323a206d617820706978656c20494420657863656564604082015261195960f21b606082015260800190565b60208082526031908201527f47726166666974455448323a206163636f756e742062616c616e6365206d757360408201527074206e6f74206265206e6567617469766560781b606082015260800190565b6020808252601a9082015279149d59d41d5b1b0e881b9bdd08185b9b9bdd5b98d959081e595d60321b604082015260600190565b6020808252601a9082015279149d59d41d5b1b0e88185b1c9958591e48185b9b9bdd5b98d95960321b604082015260600190565b60208082526029908201527f47726166666974455448323a2077697468647261772074617865732063616c6c604082015268081c995d995c9d195960ba1b606082015260800190565b60208082526026908201527f47726166666974455448323a2062757965722063616e6e6f74206166666f7264604082015265081c1a5e195b60d21b606082015260800190565b6020808252602a908201527f47726166666974455448323a20706978656c2070726963652065786365656473604082015269206d617820707269636560b01b606082015260800190565b60208082526023908201527f47726166666974455448323a20706978656c20697320746f6f20657870656e7360408201526269766560e81b606082015260800190565b6020808252602d908201526000805160206157fd83398151915260408201526c6e20736574206561726d61726b60981b606082015260800190565b602080825260199082015278149d59d41d5b1b0e88185b1c9958591e48191a5cd8589b1959603a1b604082015260600190565b60208082526036908201527f47726166666974455448323a206465706f73697420616d6f756e74206d757374604082015275206265206d756c7469706c65206f662031204757656960501b606082015260800190565b6020808252818101527f52756750756c6c3a206865616473207570206e6f742070617373656420796574604082015260600190565b602080825260119082015270149d59d41d5b1b0e88191a5cd8589b1959607a1b604082015260600190565b60208082526025908201527f47726166666974455448323a2063616e6e6f74206561726d61726b20666f722060408201526437bbb732b960d91b606082015260800190565b6020808252601d908201527f52756750756c6c3a2073656e64696e672066756e6473206661696c6564000000604082015260600190565b6020808252602b908201526000805160206157fd83398151915260408201526a371039b2ba1031b7b637b960a91b606082015260800190565b6020808252603d908201527f47726166666974455448323a206e756d626572206f6620636f6c6f72732064696040820152600080516020615867833981519152606082015260800190565b60208082526038908201527f47726166666974455448323a20706978656c20707269636520746f6f206869676040820152771a0b081d185e0818985cd9481b585e08195e18d95959195960421b606082015260800190565b60208082526021908201527f47726166666974455448323a20706978656c20696473206e6f7420736f7274656040820152601960fa1b606082015260800190565b6020808252602f908201527f47726166666974455448323a206163636f756e74206e6f7420616c6c6f77656460408201526e081d1bc818db185a5b481c1a5e195b608a1b606082015260800190565b6020808252602e908201527f47726166666974455448323a2063616e6e6f74207769746864726177206d6f7260408201526d65207468616e2062616c616e636560901b606082015260800190565b6020808252603d908201527f47726166666974455448323a206e756d626572206f66207072696365732064696040820152600080516020615867833981519152606082015260800190565b60208082526021908201527f47726166666974455448323a20706978656c20646f6573206e6f7420657869736040820152601d60fa1b606082015260800190565b6020808252603d908201527f47726166666974455448323a206e756d626572206f66206f776e6572732064696040820152600080516020615867833981519152606082015260800190565b6020808252602a908201527f47726166666974455448323a20627579657220616e642073656c6c657220617260408201526965207468652073616d6560b01b606082015260800190565b6020808252602b908201526000805160206157fd83398151915260408201526a6e2073657420707269636560a81b606082015260800190565b6020808252818101527f47726166666974455448323a20616d6f756e7420697320746f6f20736d616c6c604082015260600190565b60208082526023908201527f47726166666974455448323a2077697468647261772063616c6c2072657665726040820152621d195960ea1b606082015260800190565b6020808252602e908201527f47726166666974455448323a20696e697469616c697a6174696f6e207068617360408201526d329030b63932b0b23c9037bb32b960911b606082015260800190565b60208082526028908201527f47726166666974455448323a206d6178206465706f73697420616d6f756e7420604082015267195e18d95959195960c21b606082015260800190565b60208082526029908201527f47726166666974455448323a206e6f7420656e6f7567682066756e647320746f60408201526820776974686472617760b81b606082015260800190565b90815260200190565b918252602082015260400190565b6001600160401b0391909116815260200190565b6001600160401b03929092168252600f0b602082015260400190565b60ff91909116815260200190565b6040518181016001600160401b03811182821017156157b557fe5b604052919050565b60006001600160401b038211156157d057fe5b506020908102019056fe456e756d657261626c655365743a20696e646578206f7574206f6620626f756e647347726166666974455448323a206f6e6c7920706978656c206f776e65722063614f776e61626c653a206e6577206f776e657220697320746865207a65726f20616464726573734552433732313a207472616e7366657220746f20746865207a65726f206164647265737366666572656e742066726f6d206e756d626572206f6620706978656c730000004552433732313a20617070726f76652063616c6c6572206973206e6f74206f776e6572206e6f7220617070726f76656420666f7220616c6c4552433732313a2062616c616e636520717565727920666f7220746865207a65726f20616464726573734552433732313a206f776e657220717565727920666f72206e6f6e6578697374656e7420746f6b656ea57125e4ff01455f98dea3907ead9066b97a612484d328cb01d3a389df8fa7ec456e756d657261626c654d61703a20696e646578206f7574206f6620626f756e64734552433732313a20617070726f76656420717565727920666f72206e6f6e6578697374656e7420746f6b656e4f776e61626c653a2063616c6c6572206973206e6f7420746865206f776e65728be0079c531659141344cd1fd0a4f28419497f9722a3daafe3b4186f6b6457e04552433732313a207472616e73666572206f6620746f6b656e2074686174206973206e6f74206f776e4552433732314d657461646174613a2055524920717565727920666f72206e6f6e6578697374656e7420746f6b656eddf252ad1be2c89b69c2b068fc378daa952ba7f163c4a11628f55a4df523b3ef4552433732313a20617070726f76616c20746f2063757272656e74206f776e6572c1526ed48b58640a10ae476df49794ee6fba1f483ec8093062f7e10f6eaae3bba264697066735822122042d9c00abaaf884fb56a1883081fcae53502fb3d59b006a18d2a9fe7b5fcbf2964736f6c63430007060033",
  "linkReferences": {},
  "deployedLinkReferences": {}
}