{
  "_format": "hh-sol-artifact-1",
  "contractName": "GraffitETH",
  "sourceName": "contracts/Graffiti.sol",
  "abi": [
    {
      "inputs": [
        {
          "internalType": "uint128",
          "name": "width",
          "type": "uint128"
        },
        {
          "internalType": "uint128",
          "name": "height",
          "type": "uint128"
        },
        {
          "internalType": "uint256",
          "name": "taxRateNumerator",
          "type": "uint256"
        },
        {
          "internalType": "uint256",
          "name": "taxRateDenominator",
          "type": "uint256"
        },
        {
          "internalType": "uint64",
          "name": "initialPrice",
          "type": "uint64"
        }
      ],
      "stateMutability": "nonpayable",
      "type": "constructor"
    },
    {
      "anonymous": false,
      "inputs": [
        {
          "indexed": true,
          "internalType": "address",
          "name": "owner",
          "type": "address"
        },
        {
          "indexed": true,
          "internalType": "address",
          "name": "approved",
          "type": "address"
        },
        {
          "indexed": true,
          "internalType": "uint256",
          "name": "tokenId",
          "type": "uint256"
        }
      ],
      "name": "Approval",
      "type": "event"
    },
    {
      "anonymous": false,
      "inputs": [
        {
          "indexed": true,
          "internalType": "address",
          "name": "owner",
          "type": "address"
        },
        {
          "indexed": true,
          "internalType": "address",
          "name": "operator",
          "type": "address"
        },
        {
          "indexed": false,
          "internalType": "bool",
          "name": "approved",
          "type": "bool"
        }
      ],
      "name": "ApprovalForAll",
      "type": "event"
    },
    {
      "anonymous": false,
      "inputs": [
        {
          "indexed": false,
          "internalType": "uint256",
          "name": "pixelID",
          "type": "uint256"
        },
        {
          "indexed": false,
          "internalType": "address",
          "name": "seller",
          "type": "address"
        },
        {
          "indexed": false,
          "internalType": "address",
          "name": "buyer",
          "type": "address"
        },
        {
          "indexed": false,
          "internalType": "uint64",
          "name": "price",
          "type": "uint64"
        }
      ],
      "name": "Buy",
      "type": "event"
    },
    {
      "anonymous": false,
      "inputs": [
        {
          "indexed": false,
          "internalType": "uint256",
          "name": "pixelID",
          "type": "uint256"
        },
        {
          "indexed": false,
          "internalType": "address",
          "name": "owner",
          "type": "address"
        },
        {
          "indexed": false,
          "internalType": "uint8",
          "name": "color",
          "type": "uint8"
        }
      ],
      "name": "ColorChange",
      "type": "event"
    },
    {
      "anonymous": false,
      "inputs": [
        {
          "indexed": false,
          "internalType": "address",
          "name": "account",
          "type": "address"
        },
        {
          "indexed": false,
          "internalType": "uint64",
          "name": "amount",
          "type": "uint64"
        },
        {
          "indexed": false,
          "internalType": "int128",
          "name": "balance",
          "type": "int128"
        }
      ],
      "name": "Deposit",
      "type": "event"
    },
    {
      "anonymous": false,
      "inputs": [
        {
          "indexed": false,
          "internalType": "uint256",
          "name": "pixelID",
          "type": "uint256"
        },
        {
          "indexed": false,
          "internalType": "address",
          "name": "receiver",
          "type": "address"
        },
        {
          "indexed": false,
          "internalType": "uint64",
          "name": "amount",
          "type": "uint64"
        }
      ],
      "name": "EarmarkUpdate",
      "type": "event"
    },
    {
      "anonymous": false,
      "inputs": [
        {
          "indexed": true,
          "internalType": "address",
          "name": "previousOwner",
          "type": "address"
        },
        {
          "indexed": true,
          "internalType": "address",
          "name": "newOwner",
          "type": "address"
        }
      ],
      "name": "OwnershipTransferred",
      "type": "event"
    },
    {
      "anonymous": false,
      "inputs": [
        {
          "indexed": false,
          "internalType": "uint256",
          "name": "pixelID",
          "type": "uint256"
        },
        {
          "indexed": false,
          "internalType": "uint64",
          "name": "amount",
          "type": "uint64"
        }
      ],
      "name": "PixelClaim",
      "type": "event"
    },
    {
      "anonymous": false,
      "inputs": [
        {
          "indexed": false,
          "internalType": "uint256",
          "name": "pixelID",
          "type": "uint256"
        },
        {
          "indexed": false,
          "internalType": "address",
          "name": "owner",
          "type": "address"
        },
        {
          "indexed": false,
          "internalType": "uint64",
          "name": "price",
          "type": "uint64"
        }
      ],
      "name": "PriceChange",
      "type": "event"
    },
    {
      "anonymous": false,
      "inputs": [
        {
          "indexed": false,
          "internalType": "uint256",
          "name": "amount",
          "type": "uint256"
        },
        {
          "indexed": false,
          "internalType": "address",
          "name": "receiver",
          "type": "address"
        }
      ],
      "name": "TaxWithdraw",
      "type": "event"
    },
    {
      "anonymous": false,
      "inputs": [
        {
          "indexed": true,
          "internalType": "address",
          "name": "from",
          "type": "address"
        },
        {
          "indexed": true,
          "internalType": "address",
          "name": "to",
          "type": "address"
        },
        {
          "indexed": true,
          "internalType": "uint256",
          "name": "tokenId",
          "type": "uint256"
        }
      ],
      "name": "Transfer",
      "type": "event"
    },
    {
      "anonymous": false,
      "inputs": [
        {
          "indexed": false,
          "internalType": "address",
          "name": "account",
          "type": "address"
        },
        {
          "indexed": false,
          "internalType": "uint64",
          "name": "amount",
          "type": "uint64"
        },
        {
          "indexed": false,
          "internalType": "int128",
          "name": "balance",
          "type": "int128"
        }
      ],
      "name": "Withdraw",
      "type": "event"
    },
    {
      "inputs": [
        {
          "internalType": "address",
          "name": "to",
          "type": "address"
        },
        {
          "internalType": "uint256",
          "name": "tokenId",
          "type": "uint256"
        }
      ],
      "name": "approve",
      "outputs": [],
      "stateMutability": "nonpayable",
      "type": "function"
    },
    {
      "inputs": [
        {
          "internalType": "address",
          "name": "owner",
          "type": "address"
        }
      ],
      "name": "balanceOf",
      "outputs": [
        {
          "internalType": "uint256",
          "name": "",
          "type": "uint256"
        }
      ],
      "stateMutability": "view",
      "type": "function"
    },
    {
      "inputs": [],
      "name": "baseURI",
      "outputs": [
        {
          "internalType": "string",
          "name": "",
          "type": "string"
        }
      ],
      "stateMutability": "view",
      "type": "function"
    },
    {
      "inputs": [
        {
          "internalType": "uint256",
          "name": "pixelID",
          "type": "uint256"
        },
        {
          "internalType": "uint64",
          "name": "maxPrice",
          "type": "uint64"
        },
        {
          "internalType": "uint64",
          "name": "newPrice",
          "type": "uint64"
        },
        {
          "internalType": "uint8",
          "name": "color",
          "type": "uint8"
        }
      ],
      "name": "buy",
      "outputs": [],
      "stateMutability": "nonpayable",
      "type": "function"
    },
    {
      "inputs": [
        {
          "internalType": "uint256",
          "name": "pixelID",
          "type": "uint256"
        },
        {
          "internalType": "uint64",
          "name": "maxPrice",
          "type": "uint64"
        },
        {
          "internalType": "uint64",
          "name": "minAmount",
          "type": "uint64"
        }
      ],
      "name": "claim",
      "outputs": [],
      "stateMutability": "nonpayable",
      "type": "function"
    },
    {
      "inputs": [],
      "name": "deposit",
      "outputs": [],
      "stateMutability": "payable",
      "type": "function"
    },
    {
      "inputs": [
        {
          "internalType": "uint256",
          "name": "pixelID",
          "type": "uint256"
        },
        {
          "internalType": "uint64",
          "name": "maxPrice",
          "type": "uint64"
        },
        {
          "internalType": "uint64",
          "name": "newPrice",
          "type": "uint64"
        },
        {
          "internalType": "uint8",
          "name": "color",
          "type": "uint8"
        }
      ],
      "name": "depositAndBuy",
      "outputs": [],
      "stateMutability": "payable",
      "type": "function"
    },
    {
      "inputs": [
        {
          "internalType": "address",
          "name": "account",
          "type": "address"
        }
      ],
      "name": "depositFor",
      "outputs": [],
      "stateMutability": "payable",
      "type": "function"
    },
    {
      "inputs": [
        {
          "internalType": "uint256",
          "name": "pixelID",
          "type": "uint256"
        },
        {
          "internalType": "address",
          "name": "receiver",
          "type": "address"
        },
        {
          "internalType": "uint64",
          "name": "amount",
          "type": "uint64"
        }
      ],
      "name": "earmark",
      "outputs": [],
      "stateMutability": "nonpayable",
      "type": "function"
    },
    {
      "inputs": [
        {
          "internalType": "uint256",
          "name": "pixelID",
          "type": "uint256"
        }
      ],
      "name": "exists",
      "outputs": [
        {
          "internalType": "bool",
          "name": "",
          "type": "bool"
        }
      ],
      "stateMutability": "view",
      "type": "function"
    },
    {
      "inputs": [
        {
          "internalType": "uint256",
          "name": "tokenId",
          "type": "uint256"
        }
      ],
      "name": "getApproved",
      "outputs": [
        {
          "internalType": "address",
          "name": "",
          "type": "address"
        }
      ],
      "stateMutability": "view",
      "type": "function"
    },
    {
      "inputs": [
        {
          "internalType": "address",
          "name": "account",
          "type": "address"
        }
      ],
      "name": "getBalance",
      "outputs": [
        {
          "internalType": "int128",
          "name": "",
          "type": "int128"
        }
      ],
      "stateMutability": "view",
      "type": "function"
    },
    {
      "inputs": [
        {
          "internalType": "uint256",
          "name": "pixelID",
          "type": "uint256"
        }
      ],
      "name": "getEarmarkAmount",
      "outputs": [
        {
          "internalType": "uint64",
          "name": "",
          "type": "uint64"
        }
      ],
      "stateMutability": "view",
      "type": "function"
    },
    {
      "inputs": [
        {
          "internalType": "uint256",
          "name": "pixelID",
          "type": "uint256"
        }
      ],
      "name": "getEarmarkReceiver",
      "outputs": [
        {
          "internalType": "address",
          "name": "",
          "type": "address"
        }
      ],
      "stateMutability": "view",
      "type": "function"
    },
    {
      "inputs": [],
      "name": "getInitialPrice",
      "outputs": [
        {
          "internalType": "uint64",
          "name": "",
          "type": "uint64"
        }
      ],
      "stateMutability": "view",
      "type": "function"
    },
    {
      "inputs": [
        {
          "internalType": "address",
          "name": "account",
          "type": "address"
        }
      ],
      "name": "getLastTaxPayment",
      "outputs": [
        {
          "internalType": "uint64",
          "name": "",
          "type": "uint64"
        }
      ],
      "stateMutability": "view",
      "type": "function"
    },
    {
      "inputs": [],
      "name": "getMaxPixelID",
      "outputs": [
        {
          "internalType": "uint256",
          "name": "",
          "type": "uint256"
        }
      ],
      "stateMutability": "view",
      "type": "function"
    },
    {
      "inputs": [
        {
          "internalType": "uint256",
          "name": "pixelID",
          "type": "uint256"
        }
      ],
      "name": "getNominalPrice",
      "outputs": [
        {
          "internalType": "uint64",
          "name": "",
          "type": "uint64"
        }
      ],
      "stateMutability": "view",
      "type": "function"
    },
    {
      "inputs": [
        {
          "internalType": "uint256",
          "name": "pixelID",
          "type": "uint256"
        }
      ],
      "name": "getPrice",
      "outputs": [
        {
          "internalType": "uint64",
          "name": "",
          "type": "uint64"
        }
      ],
      "stateMutability": "view",
      "type": "function"
    },
    {
      "inputs": [
        {
          "internalType": "address",
          "name": "account",
          "type": "address"
        }
      ],
      "name": "getTaxBase",
      "outputs": [
        {
          "internalType": "uint64",
          "name": "",
          "type": "uint64"
        }
      ],
      "stateMutability": "view",
      "type": "function"
    },
    {
      "inputs": [],
      "name": "getTaxRate",
      "outputs": [
        {
          "internalType": "uint256",
          "name": "",
          "type": "uint256"
        },
        {
          "internalType": "uint256",
          "name": "",
          "type": "uint256"
        }
      ],
      "stateMutability": "view",
      "type": "function"
    },
    {
      "inputs": [],
      "name": "getTotalTaxesPaid",
      "outputs": [
        {
          "internalType": "uint256",
          "name": "",
          "type": "uint256"
        }
      ],
      "stateMutability": "view",
      "type": "function"
    },
    {
      "inputs": [
        {
          "internalType": "address",
          "name": "account",
          "type": "address"
        }
      ],
      "name": "getTotalTaxesPaidBy",
      "outputs": [
        {
          "internalType": "uint256",
          "name": "",
          "type": "uint256"
        }
      ],
      "stateMutability": "view",
      "type": "function"
    },
    {
      "inputs": [],
      "name": "getTotalTaxesWithdrawn",
      "outputs": [
        {
          "internalType": "uint256",
          "name": "",
          "type": "uint256"
        }
      ],
      "stateMutability": "view",
      "type": "function"
    },
    {
      "inputs": [
        {
          "internalType": "address",
          "name": "owner",
          "type": "address"
        },
        {
          "internalType": "address",
          "name": "operator",
          "type": "address"
        }
      ],
      "name": "isApprovedForAll",
      "outputs": [
        {
          "internalType": "bool",
          "name": "",
          "type": "bool"
        }
      ],
      "stateMutability": "view",
      "type": "function"
    },
    {
      "inputs": [],
      "name": "name",
      "outputs": [
        {
          "internalType": "string",
          "name": "",
          "type": "string"
        }
      ],
      "stateMutability": "view",
      "type": "function"
    },
    {
      "inputs": [],
      "name": "owner",
      "outputs": [
        {
          "internalType": "address",
          "name": "",
          "type": "address"
        }
      ],
      "stateMutability": "view",
      "type": "function"
    },
    {
      "inputs": [
        {
          "internalType": "uint256",
          "name": "tokenId",
          "type": "uint256"
        }
      ],
      "name": "ownerOf",
      "outputs": [
        {
          "internalType": "address",
          "name": "",
          "type": "address"
        }
      ],
      "stateMutability": "view",
      "type": "function"
    },
    {
      "inputs": [
        {
          "internalType": "address",
          "name": "account",
          "type": "address"
        }
      ],
      "name": "payTax",
      "outputs": [],
      "stateMutability": "nonpayable",
      "type": "function"
    },
    {
      "inputs": [],
      "name": "renounceOwnership",
      "outputs": [],
      "stateMutability": "nonpayable",
      "type": "function"
    },
    {
      "inputs": [
        {
          "internalType": "address",
          "name": "",
          "type": "address"
        },
        {
          "internalType": "address",
          "name": "",
          "type": "address"
        },
        {
          "internalType": "uint256",
          "name": "",
          "type": "uint256"
        }
      ],
      "name": "safeTransferFrom",
      "outputs": [],
      "stateMutability": "nonpayable",
      "type": "function"
    },
    {
      "inputs": [
        {
          "internalType": "address",
          "name": "",
          "type": "address"
        },
        {
          "internalType": "address",
          "name": "",
          "type": "address"
        },
        {
          "internalType": "uint256",
          "name": "",
          "type": "uint256"
        },
        {
          "internalType": "bytes",
          "name": "",
          "type": "bytes"
        }
      ],
      "name": "safeTransferFrom",
      "outputs": [],
      "stateMutability": "nonpayable",
      "type": "function"
    },
    {
      "inputs": [
        {
          "internalType": "address",
          "name": "operator",
          "type": "address"
        },
        {
          "internalType": "bool",
          "name": "approved",
          "type": "bool"
        }
      ],
      "name": "setApprovalForAll",
      "outputs": [],
      "stateMutability": "nonpayable",
      "type": "function"
    },
    {
      "inputs": [
        {
          "internalType": "uint256",
          "name": "pixelID",
          "type": "uint256"
        },
        {
          "internalType": "uint8",
          "name": "color",
          "type": "uint8"
        }
      ],
      "name": "setColor",
      "outputs": [],
      "stateMutability": "nonpayable",
      "type": "function"
    },
    {
      "inputs": [
        {
          "internalType": "uint256",
          "name": "pixelID",
          "type": "uint256"
        },
        {
          "internalType": "uint64",
          "name": "newPrice",
          "type": "uint64"
        }
      ],
      "name": "setPrice",
      "outputs": [],
      "stateMutability": "nonpayable",
      "type": "function"
    },
    {
      "inputs": [
        {
          "internalType": "bytes4",
          "name": "interfaceId",
          "type": "bytes4"
        }
      ],
      "name": "supportsInterface",
      "outputs": [
        {
          "internalType": "bool",
          "name": "",
          "type": "bool"
        }
      ],
      "stateMutability": "view",
      "type": "function"
    },
    {
      "inputs": [],
      "name": "symbol",
      "outputs": [
        {
          "internalType": "string",
          "name": "",
          "type": "string"
        }
      ],
      "stateMutability": "view",
      "type": "function"
    },
    {
      "inputs": [
        {
          "internalType": "uint256",
          "name": "index",
          "type": "uint256"
        }
      ],
      "name": "tokenByIndex",
      "outputs": [
        {
          "internalType": "uint256",
          "name": "",
          "type": "uint256"
        }
      ],
      "stateMutability": "view",
      "type": "function"
    },
    {
      "inputs": [
        {
          "internalType": "address",
          "name": "owner",
          "type": "address"
        },
        {
          "internalType": "uint256",
          "name": "index",
          "type": "uint256"
        }
      ],
      "name": "tokenOfOwnerByIndex",
      "outputs": [
        {
          "internalType": "uint256",
          "name": "",
          "type": "uint256"
        }
      ],
      "stateMutability": "view",
      "type": "function"
    },
    {
      "inputs": [
        {
          "internalType": "uint256",
          "name": "tokenId",
          "type": "uint256"
        }
      ],
      "name": "tokenURI",
      "outputs": [
        {
          "internalType": "string",
          "name": "",
          "type": "string"
        }
      ],
      "stateMutability": "view",
      "type": "function"
    },
    {
      "inputs": [],
      "name": "totalSupply",
      "outputs": [
        {
          "internalType": "uint256",
          "name": "",
          "type": "uint256"
        }
      ],
      "stateMutability": "view",
      "type": "function"
    },
    {
      "inputs": [
        {
          "internalType": "address",
          "name": "",
          "type": "address"
        },
        {
          "internalType": "address",
          "name": "",
          "type": "address"
        },
        {
          "internalType": "uint256",
          "name": "",
          "type": "uint256"
        }
      ],
      "name": "transferFrom",
      "outputs": [],
      "stateMutability": "nonpayable",
      "type": "function"
    },
    {
      "inputs": [
        {
          "internalType": "address",
          "name": "newOwner",
          "type": "address"
        }
      ],
      "name": "transferOwnership",
      "outputs": [],
      "stateMutability": "nonpayable",
      "type": "function"
    },
    {
      "inputs": [
        {
          "internalType": "uint64",
          "name": "amount",
          "type": "uint64"
        }
      ],
      "name": "withdraw",
      "outputs": [],
      "stateMutability": "nonpayable",
      "type": "function"
    },
    {
      "inputs": [],
      "name": "withdrawAllTaxes",
      "outputs": [],
      "stateMutability": "nonpayable",
      "type": "function"
    },
    {
      "inputs": [
        {
          "internalType": "uint256",
          "name": "amount",
          "type": "uint256"
        }
      ],
      "name": "withdrawTaxes",
      "outputs": [],
      "stateMutability": "nonpayable",
      "type": "function"
    },
    {
      "inputs": [
        {
          "internalType": "uint256",
          "name": "amount",
          "type": "uint256"
        },
        {
          "internalType": "address",
          "name": "receiver",
          "type": "address"
        }
      ],
      "name": "withdrawTaxesTo",
      "outputs": [],
      "stateMutability": "nonpayable",
      "type": "function"
    },
    {
      "inputs": [
        {
          "internalType": "uint64",
          "name": "amount",
          "type": "uint64"
        },
        {
          "internalType": "address",
          "name": "receiver",
          "type": "address"
        }
      ],
      "name": "withdrawTo",
      "outputs": [],
      "stateMutability": "nonpayable",
      "type": "function"
    }
  ],
  "bytecode": "0x60806040523480156200001157600080fd5b506040516200644438038062006444833981810160405260a08110156200003757600080fd5b8101908080519060200190929190805190602001909291908051906020019092919080519060200190929190805190602001909291905050506040518060400160405280600581526020017f506978656c0000000000000000000000000000000000000000000000000000008152506040518060400160405280600381526020017f50584c0000000000000000000000000000000000000000000000000000000000815250620000f46301ffc9a760e01b620003b660201b60201c565b81600690805190602001906200010c929190620004c7565b50806007908051906020019062000125929190620004c7565b506200013e6380ac58cd60e01b620003b660201b60201c565b62000156635b5e139f60e01b620003b660201b60201c565b6200016e63780e9d6360e01b620003b660201b60201c565b5050600062000182620004bf60201b60201c565b905080600a60006101000a81548173ffffffffffffffffffffffffffffffffffffffff021916908373ffffffffffffffffffffffffffffffffffffffff1602179055508073ffffffffffffffffffffffffffffffffffffffff16600073ffffffffffffffffffffffffffffffffffffffff167f8be0079c531659141344cd1fd0a4f28419497f9722a3daafe3b4186f6b6457e060405160405180910390a3506000856fffffffffffffffffffffffffffffffff16116200028e576040517f08c379a0000000000000000000000000000000000000000000000000000000008152600401808060200182810382526022815260200180620063ce6022913960400191505060405180910390fd5b6000846fffffffffffffffffffffffffffffffff1611620002fb576040517f08c379a0000000000000000000000000000000000000000000000000000000008152600401808060200182810382526023815260200180620063f06023913960400191505060405180910390fd5b6000821162000356576040517f08c379a0000000000000000000000000000000000000000000000000000000008152600401808060200182810382526031815260200180620064136031913960400191505060405180910390fd5b6001848602036fffffffffffffffffffffffffffffffff16600d8190555082600b8190555081600c8190555080600e60006101000a81548167ffffffffffffffff021916908367ffffffffffffffff16021790555050505050506200057d565b63ffffffff60e01b817bffffffffffffffffffffffffffffffffffffffffffffffffffffffff1916141562000453576040517f08c379a000000000000000000000000000000000000000000000000000000000815260040180806020018281038252601c8152602001807f4552433136353a20696e76616c696420696e746572666163652069640000000081525060200191505060405180910390fd5b6001600080837bffffffffffffffffffffffffffffffffffffffffffffffffffffffff19167bffffffffffffffffffffffffffffffffffffffffffffffffffffffff1916815260200190815260200160002060006101000a81548160ff02191690831515021790555050565b600033905090565b828054600181600116156101000203166002900490600052602060002090601f016020900481019282620004ff57600085556200054b565b82601f106200051a57805160ff19168380011785556200054b565b828001600101855582156200054b579182015b828111156200054a5782518255916020019190600101906200052d565b5b5090506200055a91906200055e565b5090565b5b80821115620005795760008160009055506001016200055f565b5090565b615e41806200058d6000396000f3fe6080604052600436106102935760003560e01c80636c0360eb1161015a578063bfbc631b116100c1578063e75722301161007a578063e75722301461121f578063e985e9c514611278578063edb5f199146112ff578063f2fde38b1461132a578063f8b2cb4f1461137b578063f8be7632146113e357610293565b8063bfbc631b14610ff8578063c87b56dd1461105b578063cb66667f1461110f578063cc1c332614611141578063cfaca2d0146111b0578063d0e30db01461121557610293565b8063964e081111610113578063964e081114610d5c578063a09c372914610dc1578063a22cb46514610e1a578063aa67c91914610e77578063b10a7cce14610ebb578063b88d4fde14610ee657610293565b80636c0360eb14610b3a57806370a0823114610bca578063715018a614610c2f578063750f0acc14610c465780638da5cb5b14610c8b57806395d89b4114610ccc57610293565b806342842e0e116101fe5780634f6ccce7116101b75780634f6ccce7146109115780635057f0e2146109605780635df33607146109c55780636352211e14610a1e57806363ff136814610a8357806369476fe414610acb57610293565b806342842e0e146106c657806347e4d132146107415780634c192be4146107a45780634c63d602146107ff5780634d68b93a146108505780634f558e79146108c057610293565b806318160ddd1161025057806318160ddd146104fc57806323b872dd1461052757806329039967146105a25780632ba27019146105cd5780632f745c591461061c5780633bfaa4ee1461068b57610293565b806301ffc9a71461029857806306f660ef1461030857806306fdde031461033d578063081812fc146103cd578063095ea7b3146104325780630bdfc9e11461048d575b600080fd5b3480156102a457600080fd5b506102f0600480360360208110156102bb57600080fd5b8101908080357bffffffffffffffffffffffffffffffffffffffffffffffffffffffff191690602001909291905050506113fa565b60405180821515815260200191505060405180910390f35b34801561031457600080fd5b5061031d611461565b604051808267ffffffffffffffff16815260200191505060405180910390f35b34801561034957600080fd5b5061035261147f565b6040518080602001828103825283818151815260200191508051906020019080838360005b83811015610392578082015181840152602081019050610377565b50505050905090810190601f1680156103bf5780820380516001836020036101000a031916815260200191505b509250505060405180910390f35b3480156103d957600080fd5b50610406600480360360208110156103f057600080fd5b8101908080359060200190929190505050611521565b604051808273ffffffffffffffffffffffffffffffffffffffff16815260200191505060405180910390f35b34801561043e57600080fd5b5061048b6004803603604081101561045557600080fd5b81019080803573ffffffffffffffffffffffffffffffffffffffff169060200190929190803590602001909291905050506115bc565b005b34801561049957600080fd5b506104dc600480360360208110156104b057600080fd5b81019080803573ffffffffffffffffffffffffffffffffffffffff169060200190929190505050611700565b604051808267ffffffffffffffff16815260200191505060405180910390f35b34801561050857600080fd5b50610511611760565b6040518082815260200191505060405180910390f35b34801561053357600080fd5b506105a06004803603606081101561054a57600080fd5b81019080803573ffffffffffffffffffffffffffffffffffffffff169060200190929190803573ffffffffffffffffffffffffffffffffffffffff16906020019092919080359060200190929190505050611771565b005b3480156105ae57600080fd5b506105b761177e565b6040518082815260200191505060405180910390f35b3480156105d957600080fd5b5061061a600480360360408110156105f057600080fd5b8101908080359060200190929190803567ffffffffffffffff169060200190929190505050611788565b005b34801561062857600080fd5b506106756004803603604081101561063f57600080fd5b81019080803573ffffffffffffffffffffffffffffffffffffffff16906020019092919080359060200190929190505050611b0d565b6040518082815260200191505060405180910390f35b34801561069757600080fd5b506106c4600480360360208110156106ae57600080fd5b8101908080359060200190929190505050611b68565b005b3480156106d257600080fd5b5061073f600480360360608110156106e957600080fd5b81019080803573ffffffffffffffffffffffffffffffffffffffff169060200190929190803573ffffffffffffffffffffffffffffffffffffffff16906020019092919080359060200190929190505050611c24565b005b34801561074d57600080fd5b506107a26004803603606081101561076457600080fd5b8101908080359060200190929190803567ffffffffffffffff169060200190929190803567ffffffffffffffff169060200190929190505050611c31565b005b3480156107b057600080fd5b506107fd600480360360408110156107c757600080fd5b8101908080359060200190929190803573ffffffffffffffffffffffffffffffffffffffff1690602001909291905050506123d2565b005b34801561080b57600080fd5b5061084e6004803603602081101561082257600080fd5b81019080803573ffffffffffffffffffffffffffffffffffffffff16906020019092919050505061248f565b005b34801561085c57600080fd5b506108be6004803603608081101561087357600080fd5b8101908080359060200190929190803567ffffffffffffffff169060200190929190803567ffffffffffffffff169060200190929190803560ff16906020019092919050505061277e565b005b3480156108cc57600080fd5b506108f9600480360360208110156108e357600080fd5b8101908080359060200190929190505050612791565b60405180821515815260200191505060405180910390f35b34801561091d57600080fd5b5061094a6004803603602081101561093457600080fd5b81019080803590602001909291905050506127a3565b6040518082815260200191505060405180910390f35b34801561096c57600080fd5b506109af6004803603602081101561098357600080fd5b81019080803573ffffffffffffffffffffffffffffffffffffffff1690602001909291905050506127c6565b6040518082815260200191505060405180910390f35b3480156109d157600080fd5b506109fe600480360360208110156109e857600080fd5b810190808035906020019092919050505061280f565b604051808267ffffffffffffffff16815260200191505060405180910390f35b348015610a2a57600080fd5b50610a5760048036036020811015610a4157600080fd5b810190808035906020019092919050505061286c565b604051808273ffffffffffffffffffffffffffffffffffffffff16815260200191505060405180910390f35b348015610a8f57600080fd5b50610ac960048036036040811015610aa657600080fd5b8101908080359060200190929190803560ff1690602001909291905050506128a3565b005b348015610ad757600080fd5b50610b1a60048036036020811015610aee57600080fd5b81019080803573ffffffffffffffffffffffffffffffffffffffff169060200190929190505050612a14565b604051808267ffffffffffffffff16815260200191505060405180910390f35b348015610b4657600080fd5b50610b4f612a74565b6040518080602001828103825283818151815260200191508051906020019080838360005b83811015610b8f578082015181840152602081019050610b74565b50505050905090810190601f168015610bbc5780820380516001836020036101000a031916815260200191505b509250505060405180910390f35b348015610bd657600080fd5b50610c1960048036036020811015610bed57600080fd5b81019080803573ffffffffffffffffffffffffffffffffffffffff169060200190929190505050612b16565b6040518082815260200191505060405180910390f35b348015610c3b57600080fd5b50610c44612beb565b005b348015610c5257600080fd5b50610c8960048036036020811015610c6957600080fd5b81019080803567ffffffffffffffff169060200190929190505050612d5b565b005b348015610c9757600080fd5b50610ca0612d69565b604051808273ffffffffffffffffffffffffffffffffffffffff16815260200191505060405180910390f35b348015610cd857600080fd5b50610ce1612d93565b6040518080602001828103825283818151815260200191508051906020019080838360005b83811015610d21578082015181840152602081019050610d06565b50505050905090810190601f168015610d4e5780820380516001836020036101000a031916815260200191505b509250505060405180910390f35b348015610d6857600080fd5b50610dbf60048036036040811015610d7f57600080fd5b81019080803567ffffffffffffffff169060200190929190803573ffffffffffffffffffffffffffffffffffffffff169060200190929190505050612e35565b005b348015610dcd57600080fd5b50610dfa60048036036020811015610de457600080fd5b8101908080359060200190929190505050612e44565b604051808267ffffffffffffffff16815260200191505060405180910390f35b348015610e2657600080fd5b50610e7560048036036040811015610e3d57600080fd5b81019080803573ffffffffffffffffffffffffffffffffffffffff169060200190929190803515159060200190929190505050612e78565b005b610eb960048036036020811015610e8d57600080fd5b81019080803573ffffffffffffffffffffffffffffffffffffffff16906020019092919050505061302e565b005b348015610ec757600080fd5b50610ed06133a6565b6040518082815260200191505060405180910390f35b348015610ef257600080fd5b50610ff660048036036080811015610f0957600080fd5b81019080803573ffffffffffffffffffffffffffffffffffffffff169060200190929190803573ffffffffffffffffffffffffffffffffffffffff1690602001909291908035906020019092919080359060200190640100000000811115610f7057600080fd5b820183602082011115610f8257600080fd5b80359060200191846001830284011164010000000083111715610fa457600080fd5b91908080601f016020809104026020016040519081016040528093929190818152602001838380828437600081840152601f19601f8201169050808301925050505050505091929192905050506133b0565b005b6110596004803603608081101561100e57600080fd5b8101908080359060200190929190803567ffffffffffffffff169060200190929190803567ffffffffffffffff169060200190929190803560ff1690602001909291905050506133be565b005b34801561106757600080fd5b506110946004803603602081101561107e57600080fd5b81019080803590602001909291905050506133da565b6040518080602001828103825283818151815260200191508051906020019080838360005b838110156110d45780820151818401526020810190506110b9565b50505050905090810190601f1680156111015780820380516001836020036101000a031916815260200191505b509250505060405180910390f35b34801561111b57600080fd5b506111246136ab565b604051808381526020018281526020019250505060405180910390f35b34801561114d57600080fd5b506111ae6004803603606081101561116457600080fd5b8101908080359060200190929190803573ffffffffffffffffffffffffffffffffffffffff169060200190929190803567ffffffffffffffff1690602001909291905050506136bc565b005b3480156111bc57600080fd5b506111e9600480360360208110156111d357600080fd5b810190808035906020019092919050505061385e565b604051808273ffffffffffffffffffffffffffffffffffffffff16815260200191505060405180910390f35b61121d61389e565b005b34801561122b57600080fd5b506112586004803603602081101561124257600080fd5b81019080803590602001909291905050506138a9565b604051808267ffffffffffffffff16815260200191505060405180910390f35b34801561128457600080fd5b506112e76004803603604081101561129b57600080fd5b81019080803573ffffffffffffffffffffffffffffffffffffffff169060200190929190803573ffffffffffffffffffffffffffffffffffffffff169060200190929190505050613931565b60405180821515815260200191505060405180910390f35b34801561130b57600080fd5b506113146139c5565b6040518082815260200191505060405180910390f35b34801561133657600080fd5b506113796004803603602081101561134d57600080fd5b81019080803573ffffffffffffffffffffffffffffffffffffffff1690602001909291905050506139cf565b005b34801561138757600080fd5b506113ca6004803603602081101561139e57600080fd5b81019080803573ffffffffffffffffffffffffffffffffffffffff169060200190929190505050613bc4565b6040518082600f0b815260200191505060405180910390f35b3480156113ef57600080fd5b506113f8613cc2565b005b6000806000837bffffffffffffffffffffffffffffffffffffffffffffffffffffffff19167bffffffffffffffffffffffffffffffffffffffffffffffffffffffff1916815260200190815260200160002060009054906101000a900460ff169050919050565b6000600e60009054906101000a900467ffffffffffffffff16905090565b606060068054600181600116156101000203166002900480601f0160208091040260200160405190810160405280929190818152602001828054600181600116156101000203166002900480156115175780601f106114ec57610100808354040283529160200191611517565b820191906000526020600020905b8154815290600101906020018083116114fa57829003601f168201915b5050505050905090565b600061152c82613d83565b611581576040517f08c379a000000000000000000000000000000000000000000000000000000000815260040180806020018281038252602c815260200180615c12602c913960400191505060405180910390fd5b6004600083815260200190815260200160002060009054906101000a900473ffffffffffffffffffffffffffffffffffffffff169050919050565b60006115c78261286c565b90508073ffffffffffffffffffffffffffffffffffffffff168373ffffffffffffffffffffffffffffffffffffffff16141561164e576040517f08c379a0000000000000000000000000000000000000000000000000000000008152600401808060200182810382526021815260200180615cea6021913960400191505060405180910390fd5b8073ffffffffffffffffffffffffffffffffffffffff1661166d613da0565b73ffffffffffffffffffffffffffffffffffffffff16148061169c575061169b81611696613da0565b613931565b5b6116f1576040517f08c379a0000000000000000000000000000000000000000000000000000000008152600401808060200182810382526038815260200180615abc6038913960400191505060405180910390fd5b6116fb8383613da8565b505050565b6000601060008373ffffffffffffffffffffffffffffffffffffffff1673ffffffffffffffffffffffffffffffffffffffff16815260200190815260200160002060000160189054906101000a900467ffffffffffffffff169050919050565b600061176c6002613e61565b905090565b600061177957fe5b505050565b6000601354905090565b61179182613d83565b61179a57600080fd5b60006117a58361286c565b90508073ffffffffffffffffffffffffffffffffffffffff163373ffffffffffffffffffffffffffffffffffffffff161461182b576040517f08c379a000000000000000000000000000000000000000000000000000000000815260040180806020018281038252602a815260200180615cc0602a913960400191505060405180910390fd5b6118343361248f565b6000601060003373ffffffffffffffffffffffffffffffffffffffff1673ffffffffffffffffffffffffffffffffffffffff1681526020019081526020016000206040518060600160405290816000820160009054906101000a9004600f0b600f0b600f0b81526020016000820160109054906101000a900467ffffffffffffffff1667ffffffffffffffff1667ffffffffffffffff1681526020016000820160189054906101000a900467ffffffffffffffff1667ffffffffffffffff1667ffffffffffffffff168152505090506119388160200151600f600087815260200190815260200160002060009054906101000a900467ffffffffffffffff16613e76565b816020019067ffffffffffffffff16908167ffffffffffffffff1681525050611965816020015184613ea8565b816020019067ffffffffffffffff16908167ffffffffffffffff168152505082600f600086815260200190815260200160002060006101000a81548167ffffffffffffffff021916908367ffffffffffffffff16021790555080601060003373ffffffffffffffffffffffffffffffffffffffff1673ffffffffffffffffffffffffffffffffffffffff16815260200190815260200160002060008201518160000160006101000a8154816fffffffffffffffffffffffffffffffff0219169083600f0b6fffffffffffffffffffffffffffffffff16021790555060208201518160000160106101000a81548167ffffffffffffffff021916908367ffffffffffffffff16021790555060408201518160000160186101000a81548167ffffffffffffffff021916908367ffffffffffffffff1602179055509050507ecca7dff4dc7e06a0cdc2a26f239d67d9e77e5818dbe6062888ad0098013e53848385604051808481526020018373ffffffffffffffffffffffffffffffffffffffff1681526020018267ffffffffffffffff168152602001935050505060405180910390a150505050565b6000611b6082600160008673ffffffffffffffffffffffffffffffffffffffff1673ffffffffffffffffffffffffffffffffffffffff168152602001908152602001600020613eeb90919063ffffffff16565b905092915050565b611b70613da0565b73ffffffffffffffffffffffffffffffffffffffff16611b8e612d69565b73ffffffffffffffffffffffffffffffffffffffff1614611c17576040517f08c379a00000000000000000000000000000000000000000000000000000000081526004018080602001828103825260208152602001807f4f776e61626c653a2063616c6c6572206973206e6f7420746865206f776e657281525060200191505060405180910390fd5b611c218133613f05565b50565b6000611c2c57fe5b505050565b611c3a83613d83565b611cac576040517f08c379a00000000000000000000000000000000000000000000000000000000081526004018080602001828103825260208152602001807f477261666669744554483a20706978656c20646f6573206e6f7420657869737481525060200191505060405180910390fd5b6000611cb78461286c565b90506000601160008681526020019081526020016000206040518060400160405290816000820160009054906101000a900473ffffffffffffffffffffffffffffffffffffffff1673ffffffffffffffffffffffffffffffffffffffff1673ffffffffffffffffffffffffffffffffffffffff1681526020016000820160149054906101000a900467ffffffffffffffff1667ffffffffffffffff1667ffffffffffffffff16815250509050806000015173ffffffffffffffffffffffffffffffffffffffff163373ffffffffffffffffffffffffffffffffffffffff1614611deb576040517f08c379a000000000000000000000000000000000000000000000000000000000815260040180806020018281038252602e815260200180615b9a602e913960400191505060405180910390fd5b611df48261248f565b611dfd3361248f565b6000601060008473ffffffffffffffffffffffffffffffffffffffff1673ffffffffffffffffffffffffffffffffffffffff1681526020019081526020016000206040518060600160405290816000820160009054906101000a9004600f0b600f0b600f0b81526020016000820160109054906101000a900467ffffffffffffffff1667ffffffffffffffff1667ffffffffffffffff1681526020016000820160189054906101000a900467ffffffffffffffff1667ffffffffffffffff1667ffffffffffffffff168152505090506000601060003373ffffffffffffffffffffffffffffffffffffffff1673ffffffffffffffffffffffffffffffffffffffff1681526020019081526020016000206040518060600160405290816000820160009054906101000a9004600f0b600f0b600f0b81526020016000820160109054906101000a900467ffffffffffffffff1667ffffffffffffffff1667ffffffffffffffff1681526020016000820160189054906101000a900467ffffffffffffffff1667ffffffffffffffff1667ffffffffffffffff168152505090506000600f600089815260200190815260200160002060009054906101000a900467ffffffffffffffff1690508667ffffffffffffffff168167ffffffffffffffff161115612034576040517f08c379a0000000000000000000000000000000000000000000000000000000008152600401808060200182810382526022815260200180615a2c6022913960400191505060405180910390fd5b612042836020015182613e76565b836020019067ffffffffffffffff16908167ffffffffffffffff168152505061206f826020015182613ea8565b826020019067ffffffffffffffff16908167ffffffffffffffff16815250506000846020015167ffffffffffffffff168460000151600f0b126120b857846020015190506120d9565b60008460000151600f0b126120d357836000015190506120d8565b600090505b5b8667ffffffffffffffff168167ffffffffffffffff161015612163576040517f08c379a000000000000000000000000000000000000000000000000000000000815260040180806020018281038252601f8152602001807f477261666669744554483a20616d6f756e7420697320746f6f20736d616c6c0081525060200191505060405180910390fd5b612171846000015182614099565b8460000190600f0b9081600f0b81525050612190836000015182614112565b8360000190600f0b9081600f0b8152505083601060008873ffffffffffffffffffffffffffffffffffffffff1673ffffffffffffffffffffffffffffffffffffffff16815260200190815260200160002060008201518160000160006101000a8154816fffffffffffffffffffffffffffffffff0219169083600f0b6fffffffffffffffffffffffffffffffff16021790555060208201518160000160106101000a81548167ffffffffffffffff021916908367ffffffffffffffff16021790555060408201518160000160186101000a81548167ffffffffffffffff021916908367ffffffffffffffff16021790555090505082601060003373ffffffffffffffffffffffffffffffffffffffff1673ffffffffffffffffffffffffffffffffffffffff16815260200190815260200160002060008201518160000160006101000a8154816fffffffffffffffffffffffffffffffff0219169083600f0b6fffffffffffffffffffffffffffffffff16021790555060208201518160000160106101000a81548167ffffffffffffffff021916908367ffffffffffffffff16021790555060408201518160000160186101000a81548167ffffffffffffffff021916908367ffffffffffffffff16021790555090505061237286338b61416b565b61237e896000806143ae565b7fb8686fb2f2a4a57d3187524f6495bfb9a277f56862834b092423954b119868558982604051808381526020018267ffffffffffffffff1681526020019250505060405180910390a1505050505050505050565b6123da613da0565b73ffffffffffffffffffffffffffffffffffffffff166123f8612d69565b73ffffffffffffffffffffffffffffffffffffffff1614612481576040517f08c379a00000000000000000000000000000000000000000000000000000000081526004018080602001828103825260208152602001807f4f776e61626c653a2063616c6c6572206973206e6f7420746865206f776e657281525060200191505060405180910390fd5b61248b8282613f05565b5050565b6000601060008373ffffffffffffffffffffffffffffffffffffffff1673ffffffffffffffffffffffffffffffffffffffff1681526020019081526020016000206040518060600160405290816000820160009054906101000a9004600f0b600f0b600f0b81526020016000820160109054906101000a900467ffffffffffffffff1667ffffffffffffffff1667ffffffffffffffff1681526020016000820160189054906101000a900467ffffffffffffffff1667ffffffffffffffff1667ffffffffffffffff16815250509050600061257382602001518360400151426144db565b905060008167ffffffffffffffff16118061259c57506000826040015167ffffffffffffffff16145b156127795760008167ffffffffffffffff168360000151600f0b126125c3578190506125e4565b60008360000151600f0b126125de57826000015190506125e3565b600090505b5b6125f2836000015183614099565b8360000190600f0b9081600f0b8152505042836040019067ffffffffffffffff16908167ffffffffffffffff168152505082601060008673ffffffffffffffffffffffffffffffffffffffff1673ffffffffffffffffffffffffffffffffffffffff16815260200190815260200160002060008201518160000160006101000a8154816fffffffffffffffffffffffffffffffff0219169083600f0b6fffffffffffffffffffffffffffffffff16021790555060208201518160000160106101000a81548167ffffffffffffffff021916908367ffffffffffffffff16021790555060408201518160000160186101000a81548167ffffffffffffffff021916908367ffffffffffffffff1602179055509050508067ffffffffffffffff166013600082825401925050819055508067ffffffffffffffff16601260008673ffffffffffffffffffffffffffffffffffffffff1673ffffffffffffffffffffffffffffffffffffffff16815260200190815260200160002060008282540192505081905550505b505050565b61278b33858585856145ab565b50505050565b600061279c82613d83565b9050919050565b6000806127ba836002614d8a90919063ffffffff16565b50905080915050919050565b6000601260008373ffffffffffffffffffffffffffffffffffffffff1673ffffffffffffffffffffffffffffffffffffffff168152602001908152602001600020549050919050565b600061281a82613d83565b61283c57600e60009054906101000a900467ffffffffffffffff169050612867565b600f600083815260200190815260200160002060009054906101000a900467ffffffffffffffff1690505b919050565b600061289c82604051806060016040528060298152602001615b3f602991396002614db69092919063ffffffff16565b9050919050565b6128ac82613d83565b61291e576040517f08c379a00000000000000000000000000000000000000000000000000000000081526004018080602001828103825260208152602001807f477261666669744554483a20706978656c20646f6573206e6f7420657869737481525060200191505060405180910390fd5b60006129298361286c565b90508073ffffffffffffffffffffffffffffffffffffffff163373ffffffffffffffffffffffffffffffffffffffff16146129af576040517f08c379a000000000000000000000000000000000000000000000000000000000815260040180806020018281038252602a815260200180615c3e602a913960400191505060405180910390fd5b7ff78249b622bafdeb99737f702e1fc52a05416e016e45841c58a65d6501aefeb3838284604051808481526020018373ffffffffffffffffffffffffffffffffffffffff1681526020018260ff168152602001935050505060405180910390a1505050565b6000601060008373ffffffffffffffffffffffffffffffffffffffff1673ffffffffffffffffffffffffffffffffffffffff16815260200190815260200160002060000160109054906101000a900467ffffffffffffffff169050919050565b606060098054600181600116156101000203166002900480601f016020809104026020016040519081016040528092919081815260200182805460018160011615610100020316600290048015612b0c5780601f10612ae157610100808354040283529160200191612b0c565b820191906000526020600020905b815481529060010190602001808311612aef57829003601f168201915b5050505050905090565b60008073ffffffffffffffffffffffffffffffffffffffff168273ffffffffffffffffffffffffffffffffffffffff161415612b9d576040517f08c379a000000000000000000000000000000000000000000000000000000000815260040180806020018281038252602a815260200180615b15602a913960400191505060405180910390fd5b612be4600160008473ffffffffffffffffffffffffffffffffffffffff1673ffffffffffffffffffffffffffffffffffffffff168152602001908152602001600020614dd5565b9050919050565b612bf3613da0565b73ffffffffffffffffffffffffffffffffffffffff16612c11612d69565b73ffffffffffffffffffffffffffffffffffffffff1614612c9a576040517f08c379a00000000000000000000000000000000000000000000000000000000081526004018080602001828103825260208152602001807f4f776e61626c653a2063616c6c6572206973206e6f7420746865206f776e657281525060200191505060405180910390fd5b600073ffffffffffffffffffffffffffffffffffffffff16600a60009054906101000a900473ffffffffffffffffffffffffffffffffffffffff1673ffffffffffffffffffffffffffffffffffffffff167f8be0079c531659141344cd1fd0a4f28419497f9722a3daafe3b4186f6b6457e060405160405180910390a36000600a60006101000a81548173ffffffffffffffffffffffffffffffffffffffff021916908373ffffffffffffffffffffffffffffffffffffffff160217905550565b612d66338233614dea565b50565b6000600a60009054906101000a900473ffffffffffffffffffffffffffffffffffffffff16905090565b606060078054600181600116156101000203166002900480601f016020809104026020016040519081016040528092919081815260200182805460018160011615610100020316600290048015612e2b5780601f10612e0057610100808354040283529160200191612e2b565b820191906000526020600020905b815481529060010190602001808311612e0e57829003601f168201915b5050505050905090565b612e40338383614dea565b5050565b60006011600083815260200190815260200160002060000160149054906101000a900467ffffffffffffffff169050919050565b612e80613da0565b73ffffffffffffffffffffffffffffffffffffffff168273ffffffffffffffffffffffffffffffffffffffff161415612f21576040517f08c379a00000000000000000000000000000000000000000000000000000000081526004018080602001828103825260198152602001807f4552433732313a20617070726f766520746f2063616c6c65720000000000000081525060200191505060405180910390fd5b8060056000612f2e613da0565b73ffffffffffffffffffffffffffffffffffffffff1673ffffffffffffffffffffffffffffffffffffffff16815260200190815260200160002060008473ffffffffffffffffffffffffffffffffffffffff1673ffffffffffffffffffffffffffffffffffffffff16815260200190815260200160002060006101000a81548160ff0219169083151502179055508173ffffffffffffffffffffffffffffffffffffffff16612fdb613da0565b73ffffffffffffffffffffffffffffffffffffffff167f17307eab39ab6107e8899845ad3d59bd9653f200f220920489ca2b5937696c318360405180821515815260200191505060405180910390a35050565b6130373361248f565b6000601060008373ffffffffffffffffffffffffffffffffffffffff1673ffffffffffffffffffffffffffffffffffffffff1681526020019081526020016000206040518060600160405290816000820160009054906101000a9004600f0b600f0b600f0b81526020016000820160109054906101000a900467ffffffffffffffff1667ffffffffffffffff1667ffffffffffffffff1681526020016000820160189054906101000a900467ffffffffffffffff1667ffffffffffffffff1667ffffffffffffffff168152505090506000633b9aca00348161311557fe5b061461316c576040517f08c379a0000000000000000000000000000000000000000000000000000000008152600401808060200182810382526035815260200180615d856035913960400191505060405180910390fd5b6000633b9aca00348161317b57fe5b04905060008260000151600f0b12156132315760008260000151600003600f0b8267ffffffffffffffff16136131b3578190506131be565b826000015160000390505b8067ffffffffffffffff166013600082825401925050819055508067ffffffffffffffff16601260008673ffffffffffffffffffffffffffffffffffffffff1673ffffffffffffffffffffffffffffffffffffffff16815260200190815260200160002060008282540192505081905550505b61323f826000015182614112565b8260000190600f0b9081600f0b8152505081601060008573ffffffffffffffffffffffffffffffffffffffff1673ffffffffffffffffffffffffffffffffffffffff16815260200190815260200160002060008201518160000160006101000a8154816fffffffffffffffffffffffffffffffff0219169083600f0b6fffffffffffffffffffffffffffffffff16021790555060208201518160000160106101000a81548167ffffffffffffffff021916908367ffffffffffffffff16021790555060408201518160000160186101000a81548167ffffffffffffffff021916908367ffffffffffffffff1602179055509050507f9b4aba9cc4ea6d06a291ac53f1412dd3f42fc7426c27e76b9110b5fdbcb9884783828460000151604051808473ffffffffffffffffffffffffffffffffffffffff1681526020018367ffffffffffffffff16815260200182600f0b8152602001935050505060405180910390a1505050565b6000600d54905090565b60006133b857fe5b50505050565b6133c73361302e565b6133d433858585856145ab565b50505050565b60606133e582613d83565b61343a576040517f08c379a000000000000000000000000000000000000000000000000000000000815260040180806020018281038252602f815260200180615c91602f913960400191505060405180910390fd5b6000600860008481526020019081526020016000208054600181600116156101000203166002900480601f0160208091040260200160405190810160405280929190818152602001828054600181600116156101000203166002900480156134e35780601f106134b8576101008083540402835291602001916134e3565b820191906000526020600020905b8154815290600101906020018083116134c657829003601f168201915b5050505050905060006134f4612a74565b905060008151141561350a5781925050506136a6565b6000825111156135db5780826040516020018083805190602001908083835b6020831061354c5780518252602082019150602081019050602083039250613529565b6001836020036101000a03801982511681845116808217855250505050505090500182805190602001908083835b6020831061359d578051825260208201915060208101905060208303925061357a565b6001836020036101000a03801982511681845116808217855250505050505090500192505050604051602081830303815290604052925050506136a6565b806135e585615172565b6040516020018083805190602001908083835b6020831061361b57805182526020820191506020810190506020830392506135f8565b6001836020036101000a03801982511681845116808217855250505050505090500182805190602001908083835b6020831061366c5780518252602082019150602081019050602083039250613649565b6001836020036101000a03801982511681845116808217855250505050505090500192505050604051602081830303815290604052925050505b919050565b600080600b54600c54915091509091565b6136c583613d83565b613737576040517f08c379a00000000000000000000000000000000000000000000000000000000081526004018080602001828103825260208152602001807f477261666669744554483a20706978656c20646f6573206e6f7420657869737481525060200191505060405180910390fd5b60006137428461286c565b90508073ffffffffffffffffffffffffffffffffffffffff163373ffffffffffffffffffffffffffffffffffffffff16146137c8576040517f08c379a0000000000000000000000000000000000000000000000000000000008152600401808060200182810382526028815260200180615a4e6028913960400191505060405180910390fd5b8073ffffffffffffffffffffffffffffffffffffffff168373ffffffffffffffffffffffffffffffffffffffff16141561384d576040517f08c379a0000000000000000000000000000000000000000000000000000000008152600401808060200182810382526024815260200180615d616024913960400191505060405180910390fd5b6138588484846143ae565b50505050565b60006011600083815260200190815260200160002060000160009054906101000a900473ffffffffffffffffffffffffffffffffffffffff169050919050565b6138a73361302e565b565b60006138b482613d83565b6138d657600e60009054906101000a900467ffffffffffffffff16905061392c565b60006138e18361286c565b905060006138ee82613bc4565b600f0b1361390057600091505061392c565b600f600084815260200190815260200160002060009054906101000a900467ffffffffffffffff169150505b919050565b6000600560008473ffffffffffffffffffffffffffffffffffffffff1673ffffffffffffffffffffffffffffffffffffffff16815260200190815260200160002060008373ffffffffffffffffffffffffffffffffffffffff1673ffffffffffffffffffffffffffffffffffffffff16815260200190815260200160002060009054906101000a900460ff16905092915050565b6000601454905090565b6139d7613da0565b73ffffffffffffffffffffffffffffffffffffffff166139f5612d69565b73ffffffffffffffffffffffffffffffffffffffff1614613a7e576040517f08c379a00000000000000000000000000000000000000000000000000000000081526004018080602001828103825260208152602001807f4f776e61626c653a2063616c6c6572206973206e6f7420746865206f776e657281525060200191505060405180910390fd5b600073ffffffffffffffffffffffffffffffffffffffff168173ffffffffffffffffffffffffffffffffffffffff161415613b04576040517f08c379a0000000000000000000000000000000000000000000000000000000008152600401808060200182810382526026815260200180615a066026913960400191505060405180910390fd5b8073ffffffffffffffffffffffffffffffffffffffff16600a60009054906101000a900473ffffffffffffffffffffffffffffffffffffffff1673ffffffffffffffffffffffffffffffffffffffff167f8be0079c531659141344cd1fd0a4f28419497f9722a3daafe3b4186f6b6457e060405160405180910390a380600a60006101000a81548173ffffffffffffffffffffffffffffffffffffffff021916908373ffffffffffffffffffffffffffffffffffffffff16021790555050565b600080601060008473ffffffffffffffffffffffffffffffffffffffff1673ffffffffffffffffffffffffffffffffffffffff1681526020019081526020016000206040518060600160405290816000820160009054906101000a9004600f0b600f0b600f0b81526020016000820160109054906101000a900467ffffffffffffffff1667ffffffffffffffff1667ffffffffffffffff1681526020016000820160189054906101000a900467ffffffffffffffff1667ffffffffffffffff1667ffffffffffffffff168152505090506000613ca982602001518360400151426144db565b9050613cb9826000015182614099565b92505050919050565b613cca613da0565b73ffffffffffffffffffffffffffffffffffffffff16613ce8612d69565b73ffffffffffffffffffffffffffffffffffffffff1614613d71576040517f08c379a00000000000000000000000000000000000000000000000000000000081526004018080602001828103825260208152602001807f4f776e61626c653a2063616c6c6572206973206e6f7420746865206f776e657281525060200191505060405180910390fd5b613d816014546013540333613f05565b565b6000613d998260026152b990919063ffffffff16565b9050919050565b600033905090565b816004600083815260200190815260200160002060006101000a81548173ffffffffffffffffffffffffffffffffffffffff021916908373ffffffffffffffffffffffffffffffffffffffff160217905550808273ffffffffffffffffffffffffffffffffffffffff16613e1b8361286c565b73ffffffffffffffffffffffffffffffffffffffff167f8c5be1e5ebec7d5bd14f71427d1e84f3dd0314c0f7b2291e5b200ac8c7c3b92560405160405180910390a45050565b6000613e6f826000016152d3565b9050919050565b60008167ffffffffffffffff168367ffffffffffffffff1610613e9d578183039050613ea2565b600090505b92915050565b60008167ffffffffffffffff0367ffffffffffffffff168367ffffffffffffffff1611613ed9578183019050613ee5565b67ffffffffffffffff90505b92915050565b6000613efa83600001836152e4565b60001c905092915050565b600060145460135403905080831115613f69576040517f08c379a0000000000000000000000000000000000000000000000000000000008152600401808060200182810382526028815260200180615bc86028913960400191505060405180910390fd5b8260146000828254019250508190555060008273ffffffffffffffffffffffffffffffffffffffff16633b9aca00850260405180600001905060006040518083038185875af1925050503d8060008114613fdf576040519150601f19603f3d011682016040523d82523d6000602084013e613fe4565b606091505b505090508061403e576040517f08c379a0000000000000000000000000000000000000000000000000000000008152600401808060200182810382526028815260200180615dba6028913960400191505060405180910390fd5b7fe445ea7bb773fbc392a5fd0e00169405de58c9fd30833a277a6a049156291e788484604051808381526020018273ffffffffffffffffffffffffffffffffffffffff1681526020019250505060405180910390a150505050565b60008167ffffffffffffffff167fffffffffffffffffffffffffffffffff8000000000000000000000000000000001600f0b83600f0b126140e8578167ffffffffffffffff168303905061410c565b7fffffffffffffffffffffffffffffffff8000000000000000000000000000000090505b92915050565b60008167ffffffffffffffff166f7fffffffffffffffffffffffffffffff03600f0b83600f0b13614151578167ffffffffffffffff1683019050614165565b6f7fffffffffffffffffffffffffffffff90505b92915050565b8273ffffffffffffffffffffffffffffffffffffffff1661418b8261286c565b73ffffffffffffffffffffffffffffffffffffffff16146141f7576040517f08c379a0000000000000000000000000000000000000000000000000000000008152600401808060200182810382526029815260200180615c686029913960400191505060405180910390fd5b600073ffffffffffffffffffffffffffffffffffffffff168273ffffffffffffffffffffffffffffffffffffffff16141561427d576040517f08c379a0000000000000000000000000000000000000000000000000000000008152600401808060200182810382526024815260200180615a766024913960400191505060405180910390fd5b614288838383615367565b614293600082613da8565b6142e481600160008673ffffffffffffffffffffffffffffffffffffffff1673ffffffffffffffffffffffffffffffffffffffff16815260200190815260200160002061536c90919063ffffffff16565b5061433681600160008573ffffffffffffffffffffffffffffffffffffffff1673ffffffffffffffffffffffffffffffffffffffff16815260200190815260200160002061538690919063ffffffff16565b5061434d818360026153a09092919063ffffffff16565b50808273ffffffffffffffffffffffffffffffffffffffff168473ffffffffffffffffffffffffffffffffffffffff167fddf252ad1be2c89b69c2b068fc378daa952ba7f163c4a11628f55a4df523b3ef60405160405180910390a4505050565b60405180604001604052808373ffffffffffffffffffffffffffffffffffffffff1681526020018267ffffffffffffffff168152506011600085815260200190815260200160002060008201518160000160006101000a81548173ffffffffffffffffffffffffffffffffffffffff021916908373ffffffffffffffffffffffffffffffffffffffff16021790555060208201518160000160146101000a81548167ffffffffffffffff021916908367ffffffffffffffff1602179055509050507f84afc8474dcf15389b6fa53a7f02d9f5c899390ecc31665a1c3561ef8202563b838383604051808481526020018373ffffffffffffffffffffffffffffffffffffffff1681526020018267ffffffffffffffff168152602001935050505060405180910390a1505050565b60008267ffffffffffffffff168267ffffffffffffffff16101561454a576040517f08c379a0000000000000000000000000000000000000000000000000000000008152600401808060200182810382526032815260200180615b686032913960400191505060405180910390fd5b6000600b548567ffffffffffffffff1685850367ffffffffffffffff16020290506000600c54828161457857fe5b04905067ffffffffffffffff801681116145965780925050506145a4565b67ffffffffffffffff925050505b9392505050565b60006145b6856138a9565b90508367ffffffffffffffff168167ffffffffffffffff161115614625576040517f08c379a0000000000000000000000000000000000000000000000000000000008152600401808060200182810382526029815260200180615d386029913960400191505060405180910390fd5b61462e8661248f565b6000601060008873ffffffffffffffffffffffffffffffffffffffff1673ffffffffffffffffffffffffffffffffffffffff1681526020019081526020016000206040518060600160405290816000820160009054906101000a9004600f0b600f0b600f0b81526020016000820160109054906101000a900467ffffffffffffffff1667ffffffffffffffff1667ffffffffffffffff1681526020016000820160189054906101000a900467ffffffffffffffff1667ffffffffffffffff1667ffffffffffffffff168152505090508167ffffffffffffffff168160000151600f0b1215614784576040517f08c379a000000000000000000000000000000000000000000000000000000000815260040180806020018281038252601b8152602001807f477261666669744554483a2062616c616e636520746f6f206c6f77000000000081525060200191505060405180910390fd5b614792816000015183614099565b8160000190600f0b9081600f0b815250506147b1816020015185613ea8565b816020019067ffffffffffffffff16908167ffffffffffffffff168152505080601060008973ffffffffffffffffffffffffffffffffffffffff1673ffffffffffffffffffffffffffffffffffffffff16815260200190815260200160002060008201518160000160006101000a8154816fffffffffffffffffffffffffffffffff0219169083600f0b6fffffffffffffffffffffffffffffffff16021790555060208201518160000160106101000a81548167ffffffffffffffff021916908367ffffffffffffffff16021790555060408201518160000160186101000a81548167ffffffffffffffff021916908367ffffffffffffffff16021790555090505060006148be87613d83565b15614b77576148cc8761286c565b90508773ffffffffffffffffffffffffffffffffffffffff168173ffffffffffffffffffffffffffffffffffffffff161415614953576040517f08c379a000000000000000000000000000000000000000000000000000000000815260040180806020018281038252602a815260200180615de2602a913960400191505060405180910390fd5b61495c8161248f565b6000601060008373ffffffffffffffffffffffffffffffffffffffff1673ffffffffffffffffffffffffffffffffffffffff1681526020019081526020016000206040518060600160405290816000820160009054906101000a9004600f0b600f0b600f0b81526020016000820160109054906101000a900467ffffffffffffffff1667ffffffffffffffff1667ffffffffffffffff1681526020016000820160189054906101000a900467ffffffffffffffff1667ffffffffffffffff1667ffffffffffffffff16815250509050614a39816000015185614112565b8160000190600f0b9081600f0b81525050614a58816020015185613e76565b816020019067ffffffffffffffff16908167ffffffffffffffff168152505080601060008473ffffffffffffffffffffffffffffffffffffffff1673ffffffffffffffffffffffffffffffffffffffff16815260200190815260200160002060008201518160000160006101000a8154816fffffffffffffffffffffffffffffffff0219169083600f0b6fffffffffffffffffffffffffffffffff16021790555060208201518160000160106101000a81548167ffffffffffffffff021916908367ffffffffffffffff16021790555060408201518160000160186101000a81548167ffffffffffffffff021916908367ffffffffffffffff160217905550905050614b65828a8a61416b565b614b71886000806143ae565b50614bfb565b600090508267ffffffffffffffff16601360008282540192505081905550600d54871115614bf0576040517f08c379a0000000000000000000000000000000000000000000000000000000008152600401808060200182810382526021815260200180615af46021913960400191505060405180910390fd5b614bfa88886153d5565b5b84600f600089815260200190815260200160002060006101000a81548167ffffffffffffffff021916908367ffffffffffffffff1602179055507f7bd9b1430089d0bd715a05febc51719eb484ef406b2bfda295a8d072ba65590487828a86604051808581526020018473ffffffffffffffffffffffffffffffffffffffff1681526020018373ffffffffffffffffffffffffffffffffffffffff1681526020018267ffffffffffffffff16815260200194505050505060405180910390a17ff78249b622bafdeb99737f702e1fc52a05416e016e45841c58a65d6501aefeb3878986604051808481526020018373ffffffffffffffffffffffffffffffffffffffff1681526020018260ff168152602001935050505060405180910390a17ecca7dff4dc7e06a0cdc2a26f239d67d9e77e5818dbe6062888ad0098013e53878987604051808481526020018373ffffffffffffffffffffffffffffffffffffffff1681526020018267ffffffffffffffff168152602001935050505060405180910390a15050505050505050565b600080600080614d9d86600001866155c9565b915091508160001c8160001c9350935050509250929050565b6000614dc9846000018460001b84615662565b60001c90509392505050565b6000614de382600001615758565b9050919050565b614df38361248f565b6000601060008573ffffffffffffffffffffffffffffffffffffffff1673ffffffffffffffffffffffffffffffffffffffff1681526020019081526020016000206040518060600160405290816000820160009054906101000a9004600f0b600f0b600f0b81526020016000820160109054906101000a900467ffffffffffffffff1667ffffffffffffffff1667ffffffffffffffff1681526020016000820160189054906101000a900467ffffffffffffffff1667ffffffffffffffff1667ffffffffffffffff168152505090508267ffffffffffffffff168160000151600f0b1215614f2c576040517f08c379a000000000000000000000000000000000000000000000000000000000815260040180806020018281038252602d815260200180615d0b602d913960400191505060405180910390fd5b614f3a816000015184614099565b8160000190600f0b9081600f0b8152505060008273ffffffffffffffffffffffffffffffffffffffff16633b9aca00850267ffffffffffffffff1660405180600001905060006040518083038185875af1925050503d8060008114614fbb576040519150601f19603f3d011682016040523d82523d6000602084013e614fc0565b606091505b505090508061501a576040517f08c379a0000000000000000000000000000000000000000000000000000000008152600401808060200182810382526022815260200180615a9a6022913960400191505060405180910390fd5b81601060008773ffffffffffffffffffffffffffffffffffffffff1673ffffffffffffffffffffffffffffffffffffffff16815260200190815260200160002060008201518160000160006101000a8154816fffffffffffffffffffffffffffffffff0219169083600f0b6fffffffffffffffffffffffffffffffff16021790555060208201518160000160106101000a81548167ffffffffffffffff021916908367ffffffffffffffff16021790555060408201518160000160186101000a81548167ffffffffffffffff021916908367ffffffffffffffff1602179055509050507fa21bb89a006da511a7928df8d894592371345db69d9cfd390b7ba33d31ff079885858460000151604051808473ffffffffffffffffffffffffffffffffffffffff1681526020018367ffffffffffffffff16815260200182600f0b8152602001935050505060405180910390a15050505050565b606060008214156151ba576040518060400160405280600181526020017f300000000000000000000000000000000000000000000000000000000000000081525090506152b4565b600082905060005b600082146151e4578080600101915050600a82816151dc57fe5b0491506151c2565b60008167ffffffffffffffff811180156151fd57600080fd5b506040519080825280601f01601f1916602001820160405280156152305781602001600182028036833780820191505090505b50905060006001830390508593505b600084146152ac57600a848161525157fe5b0660300160f81b8282806001900393508151811061526b57fe5b60200101907effffffffffffffffffffffffffffffffffffffffffffffffffffffffffffff1916908160001a905350600a84816152a457fe5b04935061523f565b819450505050505b919050565b60006152cb836000018360001b615769565b905092915050565b600081600001805490509050919050565b600081836000018054905011615345576040517f08c379a00000000000000000000000000000000000000000000000000000000081526004018080602001828103825260228152602001806159e46022913960400191505060405180910390fd5b82600001828154811061535457fe5b9060005260206000200154905092915050565b505050565b600061537e836000018360001b61578c565b905092915050565b6000615398836000018360001b615874565b905092915050565b60006153cc846000018460001b8473ffffffffffffffffffffffffffffffffffffffff1660001b6158e4565b90509392505050565b600073ffffffffffffffffffffffffffffffffffffffff168273ffffffffffffffffffffffffffffffffffffffff161415615478576040517f08c379a00000000000000000000000000000000000000000000000000000000081526004018080602001828103825260208152602001807f4552433732313a206d696e7420746f20746865207a65726f206164647265737381525060200191505060405180910390fd5b61548181613d83565b156154f4576040517f08c379a000000000000000000000000000000000000000000000000000000000815260040180806020018281038252601c8152602001807f4552433732313a20746f6b656e20616c7265616479206d696e7465640000000081525060200191505060405180910390fd5b61550060008383615367565b61555181600160008573ffffffffffffffffffffffffffffffffffffffff1673ffffffffffffffffffffffffffffffffffffffff16815260200190815260200160002061538690919063ffffffff16565b50615568818360026153a09092919063ffffffff16565b50808273ffffffffffffffffffffffffffffffffffffffff16600073ffffffffffffffffffffffffffffffffffffffff167fddf252ad1be2c89b69c2b068fc378daa952ba7f163c4a11628f55a4df523b3ef60405160405180910390a45050565b6000808284600001805490501161562b576040517f08c379a0000000000000000000000000000000000000000000000000000000008152600401808060200182810382526022815260200180615bf06022913960400191505060405180910390fd5b600084600001848154811061563c57fe5b906000526020600020906002020190508060000154816001015492509250509250929050565b60008084600101600085815260200190815260200160002054905060008114158390615729576040517f08c379a00000000000000000000000000000000000000000000000000000000081526004018080602001828103825283818151815260200191508051906020019080838360005b838110156156ee5780820151818401526020810190506156d3565b50505050905090810190601f16801561571b5780820380516001836020036101000a031916815260200191505b509250505060405180910390fd5b5084600001600182038154811061573c57fe5b9060005260206000209060020201600101549150509392505050565b600081600001805490509050919050565b600080836001016000848152602001908152602001600020541415905092915050565b6000808360010160008481526020019081526020016000205490506000811461586857600060018203905060006001866000018054905003905060008660000182815481106157d757fe5b90600052602060002001549050808760000184815481106157f457fe5b906000526020600020018190555060018301876001016000838152602001908152602001600020819055508660000180548061582c57fe5b6001900381819060005260206000200160009055905586600101600087815260200190815260200160002060009055600194505050505061586e565b60009150505b92915050565b600061588083836159c0565b6158d95782600001829080600181540180825580915050600190039060005260206000200160009091909190915055826000018054905083600101600084815260200190815260200160002081905550600190506158de565b600090505b92915050565b600080846001016000858152602001908152602001600020549050600081141561598b578460000160405180604001604052808681526020018581525090806001815401808255809150506001900390600052602060002090600202016000909190919091506000820151816000015560208201518160010155505084600001805490508560010160008681526020019081526020016000208190555060019150506159b9565b8285600001600183038154811061599e57fe5b90600052602060002090600202016001018190555060009150505b9392505050565b60008083600101600084815260200190815260200160002054141590509291505056fe456e756d657261626c655365743a20696e646578206f7574206f6620626f756e64734f776e61626c653a206e6577206f776e657220697320746865207a65726f2061646472657373477261666669744554483a20706978656c20697320746f6f20657870656e73697665477261666669744554483a206f6e6c79206f776e65722063616e206561726d61726b20706978656c4552433732313a207472616e7366657220746f20746865207a65726f2061646472657373477261666669744554483a2077697468647261772063616c6c2072657665727465644552433732313a20617070726f76652063616c6c6572206973206e6f74206f776e6572206e6f7220617070726f76656420666f7220616c6c477261666669744554483a206d617820706978656c2049442065786365656465644552433732313a2062616c616e636520717565727920666f7220746865207a65726f20616464726573734552433732313a206f776e657220717565727920666f72206e6f6e6578697374656e7420746f6b656e477261666669744554483a20656e642074696d65206d757374206265206c61746572207468616e2073746172742074696d65477261666669744554483a206163636f756e74206e6f7420616c6c6f77656420746f20636c61696d20706978656c477261666669744554483a206e6f7420656e6f75676820746178657320746f207769746864726177456e756d657261626c654d61703a20696e646578206f7574206f6620626f756e64734552433732313a20617070726f76656420717565727920666f72206e6f6e6578697374656e7420746f6b656e477261666669744554483a206f6e6c7920706978656c206f776e65722063616e2073657420636f6c6f724552433732313a207472616e73666572206f6620746f6b656e2074686174206973206e6f74206f776e4552433732314d657461646174613a2055524920717565727920666f72206e6f6e6578697374656e7420746f6b656e477261666669744554483a206f6e6c79206f776e65722063616e2073657420706978656c2070726963654552433732313a20617070726f76616c20746f2063757272656e74206f776e6572477261666669744554483a2063616e6e6f74207769746864726177206d6f7265207468616e2062616c616e6365477261666669744554483a20706978656c2070726963652065786365656473206d6178207072696365477261666669744554483a2063616e6e6f74206561726d61726b20666f72206f776e6572477261666669744554483a206465706f73697420616d6f756e74206d757374206265206d756c7469706c65206f6620312047576569477261666669744554483a2077697468647261772074617865732063616c6c207265766572746564477261666669744554483a2063616e6e6f742062757920706978656c2066726f6d20796f757273656c66a26469706673582212205a052e7a7914c2813be7fa18103856c5038145c1b143bb9f513ab7da0d3ad07d64736f6c63430007060033477261666669744554483a207769647468206d757374206e6f74206265207a65726f477261666669744554483a20686569676874206d757374206e6f74206265207a65726f477261666669744554483a2074617820726174652064656e6f6d696e61746f72206d757374206e6f74206265207a65726f",
  "linkReferences": {},
  "deployedLinkReferences": {}
}