{
  "_format": "hh-sol-artifact-1",
  "contractName": "GraffitETH",
  "sourceName": "contracts/Graffiti.sol",
  "abi": [
    {
      "inputs": [
        {
          "internalType": "uint128",
          "name": "width",
          "type": "uint128"
        },
        {
          "internalType": "uint128",
          "name": "height",
          "type": "uint128"
        },
        {
          "internalType": "uint256",
          "name": "taxRateNumerator",
          "type": "uint256"
        },
        {
          "internalType": "uint256",
          "name": "taxRateDenominator",
          "type": "uint256"
        },
        {
          "internalType": "uint64",
          "name": "initialPrice",
          "type": "uint64"
        }
      ],
      "stateMutability": "nonpayable",
      "type": "constructor"
    },
    {
      "anonymous": false,
      "inputs": [
        {
          "indexed": true,
          "internalType": "address",
          "name": "owner",
          "type": "address"
        },
        {
          "indexed": true,
          "internalType": "address",
          "name": "approved",
          "type": "address"
        },
        {
          "indexed": true,
          "internalType": "uint256",
          "name": "tokenId",
          "type": "uint256"
        }
      ],
      "name": "Approval",
      "type": "event"
    },
    {
      "anonymous": false,
      "inputs": [
        {
          "indexed": true,
          "internalType": "address",
          "name": "owner",
          "type": "address"
        },
        {
          "indexed": true,
          "internalType": "address",
          "name": "operator",
          "type": "address"
        },
        {
          "indexed": false,
          "internalType": "bool",
          "name": "approved",
          "type": "bool"
        }
      ],
      "name": "ApprovalForAll",
      "type": "event"
    },
    {
      "anonymous": false,
      "inputs": [
        {
          "indexed": false,
          "internalType": "uint256",
          "name": "pixelID",
          "type": "uint256"
        },
        {
          "indexed": false,
          "internalType": "address",
          "name": "seller",
          "type": "address"
        },
        {
          "indexed": false,
          "internalType": "address",
          "name": "buyer",
          "type": "address"
        },
        {
          "indexed": false,
          "internalType": "uint64",
          "name": "price",
          "type": "uint64"
        }
      ],
      "name": "Buy",
      "type": "event"
    },
    {
      "anonymous": false,
      "inputs": [
        {
          "indexed": false,
          "internalType": "uint256",
          "name": "pixelID",
          "type": "uint256"
        },
        {
          "indexed": false,
          "internalType": "uint8",
          "name": "color",
          "type": "uint8"
        }
      ],
      "name": "ColorChange",
      "type": "event"
    },
    {
      "anonymous": false,
      "inputs": [
        {
          "indexed": false,
          "internalType": "address",
          "name": "account",
          "type": "address"
        },
        {
          "indexed": false,
          "internalType": "uint64",
          "name": "amount",
          "type": "uint64"
        },
        {
          "indexed": false,
          "internalType": "int128",
          "name": "balance",
          "type": "int128"
        }
      ],
      "name": "Deposit",
      "type": "event"
    },
    {
      "anonymous": false,
      "inputs": [
        {
          "indexed": false,
          "internalType": "uint256",
          "name": "pixelID",
          "type": "uint256"
        },
        {
          "indexed": false,
          "internalType": "address",
          "name": "receiver",
          "type": "address"
        },
        {
          "indexed": false,
          "internalType": "uint64",
          "name": "amount",
          "type": "uint64"
        }
      ],
      "name": "EarmarkUpdate",
      "type": "event"
    },
    {
      "anonymous": false,
      "inputs": [
        {
          "indexed": true,
          "internalType": "address",
          "name": "previousOwner",
          "type": "address"
        },
        {
          "indexed": true,
          "internalType": "address",
          "name": "newOwner",
          "type": "address"
        }
      ],
      "name": "OwnershipTransferred",
      "type": "event"
    },
    {
      "anonymous": false,
      "inputs": [
        {
          "indexed": false,
          "internalType": "uint256",
          "name": "pixelID",
          "type": "uint256"
        },
        {
          "indexed": false,
          "internalType": "uint64",
          "name": "amount",
          "type": "uint64"
        }
      ],
      "name": "PixelClaim",
      "type": "event"
    },
    {
      "anonymous": false,
      "inputs": [
        {
          "indexed": false,
          "internalType": "uint256",
          "name": "pixelID",
          "type": "uint256"
        },
        {
          "indexed": false,
          "internalType": "uint64",
          "name": "price",
          "type": "uint64"
        }
      ],
      "name": "PriceChange",
      "type": "event"
    },
    {
      "anonymous": false,
      "inputs": [
        {
          "indexed": false,
          "internalType": "uint256",
          "name": "amount",
          "type": "uint256"
        },
        {
          "indexed": false,
          "internalType": "address",
          "name": "receiver",
          "type": "address"
        }
      ],
      "name": "TaxWithdraw",
      "type": "event"
    },
    {
      "anonymous": false,
      "inputs": [
        {
          "indexed": true,
          "internalType": "address",
          "name": "from",
          "type": "address"
        },
        {
          "indexed": true,
          "internalType": "address",
          "name": "to",
          "type": "address"
        },
        {
          "indexed": true,
          "internalType": "uint256",
          "name": "tokenId",
          "type": "uint256"
        }
      ],
      "name": "Transfer",
      "type": "event"
    },
    {
      "anonymous": false,
      "inputs": [
        {
          "indexed": false,
          "internalType": "address",
          "name": "account",
          "type": "address"
        },
        {
          "indexed": false,
          "internalType": "uint64",
          "name": "amount",
          "type": "uint64"
        },
        {
          "indexed": false,
          "internalType": "int128",
          "name": "balance",
          "type": "int128"
        }
      ],
      "name": "Withdraw",
      "type": "event"
    },
    {
      "inputs": [
        {
          "internalType": "address",
          "name": "to",
          "type": "address"
        },
        {
          "internalType": "uint256",
          "name": "tokenId",
          "type": "uint256"
        }
      ],
      "name": "approve",
      "outputs": [],
      "stateMutability": "nonpayable",
      "type": "function"
    },
    {
      "inputs": [
        {
          "internalType": "address",
          "name": "owner",
          "type": "address"
        }
      ],
      "name": "balanceOf",
      "outputs": [
        {
          "internalType": "uint256",
          "name": "",
          "type": "uint256"
        }
      ],
      "stateMutability": "view",
      "type": "function"
    },
    {
      "inputs": [],
      "name": "baseURI",
      "outputs": [
        {
          "internalType": "string",
          "name": "",
          "type": "string"
        }
      ],
      "stateMutability": "view",
      "type": "function"
    },
    {
      "inputs": [
        {
          "internalType": "uint256",
          "name": "pixelID",
          "type": "uint256"
        },
        {
          "internalType": "uint64",
          "name": "maxPrice",
          "type": "uint64"
        },
        {
          "internalType": "uint64",
          "name": "newPrice",
          "type": "uint64"
        },
        {
          "internalType": "uint8",
          "name": "color",
          "type": "uint8"
        }
      ],
      "name": "buy",
      "outputs": [],
      "stateMutability": "nonpayable",
      "type": "function"
    },
    {
      "inputs": [
        {
          "internalType": "uint256",
          "name": "pixelID",
          "type": "uint256"
        },
        {
          "internalType": "uint64",
          "name": "maxPrice",
          "type": "uint64"
        },
        {
          "internalType": "uint64",
          "name": "minAmount",
          "type": "uint64"
        }
      ],
      "name": "claim",
      "outputs": [],
      "stateMutability": "nonpayable",
      "type": "function"
    },
    {
      "inputs": [],
      "name": "deposit",
      "outputs": [],
      "stateMutability": "payable",
      "type": "function"
    },
    {
      "inputs": [
        {
          "internalType": "uint256",
          "name": "pixelID",
          "type": "uint256"
        },
        {
          "internalType": "uint64",
          "name": "maxPrice",
          "type": "uint64"
        },
        {
          "internalType": "uint64",
          "name": "newPrice",
          "type": "uint64"
        },
        {
          "internalType": "uint8",
          "name": "color",
          "type": "uint8"
        }
      ],
      "name": "depositAndBuy",
      "outputs": [],
      "stateMutability": "payable",
      "type": "function"
    },
    {
      "inputs": [
        {
          "internalType": "address",
          "name": "account",
          "type": "address"
        }
      ],
      "name": "depositFor",
      "outputs": [],
      "stateMutability": "payable",
      "type": "function"
    },
    {
      "inputs": [
        {
          "internalType": "uint256",
          "name": "pixelID",
          "type": "uint256"
        },
        {
          "internalType": "address",
          "name": "receiver",
          "type": "address"
        },
        {
          "internalType": "uint64",
          "name": "amount",
          "type": "uint64"
        }
      ],
      "name": "earmark",
      "outputs": [],
      "stateMutability": "nonpayable",
      "type": "function"
    },
    {
      "inputs": [
        {
          "internalType": "uint256",
          "name": "pixelID",
          "type": "uint256"
        }
      ],
      "name": "exists",
      "outputs": [
        {
          "internalType": "bool",
          "name": "",
          "type": "bool"
        }
      ],
      "stateMutability": "view",
      "type": "function"
    },
    {
      "inputs": [
        {
          "internalType": "uint256",
          "name": "tokenId",
          "type": "uint256"
        }
      ],
      "name": "getApproved",
      "outputs": [
        {
          "internalType": "address",
          "name": "",
          "type": "address"
        }
      ],
      "stateMutability": "view",
      "type": "function"
    },
    {
      "inputs": [
        {
          "internalType": "address",
          "name": "account",
          "type": "address"
        }
      ],
      "name": "getBalance",
      "outputs": [
        {
          "internalType": "int128",
          "name": "",
          "type": "int128"
        }
      ],
      "stateMutability": "view",
      "type": "function"
    },
    {
      "inputs": [
        {
          "internalType": "uint256",
          "name": "pixelID",
          "type": "uint256"
        }
      ],
      "name": "getEarmarkAmount",
      "outputs": [
        {
          "internalType": "uint64",
          "name": "",
          "type": "uint64"
        }
      ],
      "stateMutability": "view",
      "type": "function"
    },
    {
      "inputs": [
        {
          "internalType": "uint256",
          "name": "pixelID",
          "type": "uint256"
        }
      ],
      "name": "getEarmarkReceiver",
      "outputs": [
        {
          "internalType": "address",
          "name": "",
          "type": "address"
        }
      ],
      "stateMutability": "view",
      "type": "function"
    },
    {
      "inputs": [],
      "name": "getInitialPrice",
      "outputs": [
        {
          "internalType": "uint64",
          "name": "",
          "type": "uint64"
        }
      ],
      "stateMutability": "view",
      "type": "function"
    },
    {
      "inputs": [
        {
          "internalType": "address",
          "name": "account",
          "type": "address"
        }
      ],
      "name": "getLastTaxPayment",
      "outputs": [
        {
          "internalType": "uint64",
          "name": "",
          "type": "uint64"
        }
      ],
      "stateMutability": "view",
      "type": "function"
    },
    {
      "inputs": [],
      "name": "getMaxPixelID",
      "outputs": [
        {
          "internalType": "uint256",
          "name": "",
          "type": "uint256"
        }
      ],
      "stateMutability": "view",
      "type": "function"
    },
    {
      "inputs": [
        {
          "internalType": "uint256",
          "name": "pixelID",
          "type": "uint256"
        }
      ],
      "name": "getPrice",
      "outputs": [
        {
          "internalType": "uint64",
          "name": "",
          "type": "uint64"
        }
      ],
      "stateMutability": "view",
      "type": "function"
    },
    {
      "inputs": [
        {
          "internalType": "address",
          "name": "account",
          "type": "address"
        }
      ],
      "name": "getTaxBase",
      "outputs": [
        {
          "internalType": "uint64",
          "name": "",
          "type": "uint64"
        }
      ],
      "stateMutability": "view",
      "type": "function"
    },
    {
      "inputs": [],
      "name": "getTaxRate",
      "outputs": [
        {
          "internalType": "uint256",
          "name": "",
          "type": "uint256"
        },
        {
          "internalType": "uint256",
          "name": "",
          "type": "uint256"
        }
      ],
      "stateMutability": "view",
      "type": "function"
    },
    {
      "inputs": [],
      "name": "getTotalTaxesPaid",
      "outputs": [
        {
          "internalType": "uint256",
          "name": "",
          "type": "uint256"
        }
      ],
      "stateMutability": "view",
      "type": "function"
    },
    {
      "inputs": [
        {
          "internalType": "address",
          "name": "account",
          "type": "address"
        }
      ],
      "name": "getTotalTaxesPaidBy",
      "outputs": [
        {
          "internalType": "uint256",
          "name": "",
          "type": "uint256"
        }
      ],
      "stateMutability": "view",
      "type": "function"
    },
    {
      "inputs": [],
      "name": "getTotalTaxesWithdrawn",
      "outputs": [
        {
          "internalType": "uint256",
          "name": "",
          "type": "uint256"
        }
      ],
      "stateMutability": "view",
      "type": "function"
    },
    {
      "inputs": [
        {
          "internalType": "address",
          "name": "owner",
          "type": "address"
        },
        {
          "internalType": "address",
          "name": "operator",
          "type": "address"
        }
      ],
      "name": "isApprovedForAll",
      "outputs": [
        {
          "internalType": "bool",
          "name": "",
          "type": "bool"
        }
      ],
      "stateMutability": "view",
      "type": "function"
    },
    {
      "inputs": [],
      "name": "name",
      "outputs": [
        {
          "internalType": "string",
          "name": "",
          "type": "string"
        }
      ],
      "stateMutability": "view",
      "type": "function"
    },
    {
      "inputs": [],
      "name": "owner",
      "outputs": [
        {
          "internalType": "address",
          "name": "",
          "type": "address"
        }
      ],
      "stateMutability": "view",
      "type": "function"
    },
    {
      "inputs": [
        {
          "internalType": "uint256",
          "name": "tokenId",
          "type": "uint256"
        }
      ],
      "name": "ownerOf",
      "outputs": [
        {
          "internalType": "address",
          "name": "",
          "type": "address"
        }
      ],
      "stateMutability": "view",
      "type": "function"
    },
    {
      "inputs": [
        {
          "internalType": "address",
          "name": "account",
          "type": "address"
        }
      ],
      "name": "payTax",
      "outputs": [],
      "stateMutability": "nonpayable",
      "type": "function"
    },
    {
      "inputs": [],
      "name": "renounceOwnership",
      "outputs": [],
      "stateMutability": "nonpayable",
      "type": "function"
    },
    {
      "inputs": [
        {
          "internalType": "address",
          "name": "",
          "type": "address"
        },
        {
          "internalType": "address",
          "name": "",
          "type": "address"
        },
        {
          "internalType": "uint256",
          "name": "",
          "type": "uint256"
        }
      ],
      "name": "safeTransferFrom",
      "outputs": [],
      "stateMutability": "nonpayable",
      "type": "function"
    },
    {
      "inputs": [
        {
          "internalType": "address",
          "name": "",
          "type": "address"
        },
        {
          "internalType": "address",
          "name": "",
          "type": "address"
        },
        {
          "internalType": "uint256",
          "name": "",
          "type": "uint256"
        },
        {
          "internalType": "bytes",
          "name": "",
          "type": "bytes"
        }
      ],
      "name": "safeTransferFrom",
      "outputs": [],
      "stateMutability": "nonpayable",
      "type": "function"
    },
    {
      "inputs": [
        {
          "internalType": "address",
          "name": "operator",
          "type": "address"
        },
        {
          "internalType": "bool",
          "name": "approved",
          "type": "bool"
        }
      ],
      "name": "setApprovalForAll",
      "outputs": [],
      "stateMutability": "nonpayable",
      "type": "function"
    },
    {
      "inputs": [
        {
          "internalType": "uint256",
          "name": "pixelID",
          "type": "uint256"
        },
        {
          "internalType": "uint8",
          "name": "color",
          "type": "uint8"
        }
      ],
      "name": "setColor",
      "outputs": [],
      "stateMutability": "nonpayable",
      "type": "function"
    },
    {
      "inputs": [
        {
          "internalType": "uint256",
          "name": "pixelID",
          "type": "uint256"
        },
        {
          "internalType": "uint64",
          "name": "newPrice",
          "type": "uint64"
        }
      ],
      "name": "setPrice",
      "outputs": [],
      "stateMutability": "nonpayable",
      "type": "function"
    },
    {
      "inputs": [
        {
          "internalType": "bytes4",
          "name": "interfaceId",
          "type": "bytes4"
        }
      ],
      "name": "supportsInterface",
      "outputs": [
        {
          "internalType": "bool",
          "name": "",
          "type": "bool"
        }
      ],
      "stateMutability": "view",
      "type": "function"
    },
    {
      "inputs": [],
      "name": "symbol",
      "outputs": [
        {
          "internalType": "string",
          "name": "",
          "type": "string"
        }
      ],
      "stateMutability": "view",
      "type": "function"
    },
    {
      "inputs": [
        {
          "internalType": "uint256",
          "name": "index",
          "type": "uint256"
        }
      ],
      "name": "tokenByIndex",
      "outputs": [
        {
          "internalType": "uint256",
          "name": "",
          "type": "uint256"
        }
      ],
      "stateMutability": "view",
      "type": "function"
    },
    {
      "inputs": [
        {
          "internalType": "address",
          "name": "owner",
          "type": "address"
        },
        {
          "internalType": "uint256",
          "name": "index",
          "type": "uint256"
        }
      ],
      "name": "tokenOfOwnerByIndex",
      "outputs": [
        {
          "internalType": "uint256",
          "name": "",
          "type": "uint256"
        }
      ],
      "stateMutability": "view",
      "type": "function"
    },
    {
      "inputs": [
        {
          "internalType": "uint256",
          "name": "tokenId",
          "type": "uint256"
        }
      ],
      "name": "tokenURI",
      "outputs": [
        {
          "internalType": "string",
          "name": "",
          "type": "string"
        }
      ],
      "stateMutability": "view",
      "type": "function"
    },
    {
      "inputs": [],
      "name": "totalSupply",
      "outputs": [
        {
          "internalType": "uint256",
          "name": "",
          "type": "uint256"
        }
      ],
      "stateMutability": "view",
      "type": "function"
    },
    {
      "inputs": [
        {
          "internalType": "address",
          "name": "",
          "type": "address"
        },
        {
          "internalType": "address",
          "name": "",
          "type": "address"
        },
        {
          "internalType": "uint256",
          "name": "",
          "type": "uint256"
        }
      ],
      "name": "transferFrom",
      "outputs": [],
      "stateMutability": "nonpayable",
      "type": "function"
    },
    {
      "inputs": [
        {
          "internalType": "address",
          "name": "newOwner",
          "type": "address"
        }
      ],
      "name": "transferOwnership",
      "outputs": [],
      "stateMutability": "nonpayable",
      "type": "function"
    },
    {
      "inputs": [
        {
          "internalType": "uint64",
          "name": "amount",
          "type": "uint64"
        }
      ],
      "name": "withdraw",
      "outputs": [],
      "stateMutability": "nonpayable",
      "type": "function"
    },
    {
      "inputs": [],
      "name": "withdrawAllTaxes",
      "outputs": [],
      "stateMutability": "nonpayable",
      "type": "function"
    },
    {
      "inputs": [
        {
          "internalType": "uint256",
          "name": "amount",
          "type": "uint256"
        }
      ],
      "name": "withdrawTaxes",
      "outputs": [],
      "stateMutability": "nonpayable",
      "type": "function"
    },
    {
      "inputs": [
        {
          "internalType": "uint256",
          "name": "amount",
          "type": "uint256"
        },
        {
          "internalType": "address",
          "name": "receiver",
          "type": "address"
        }
      ],
      "name": "withdrawTaxesTo",
      "outputs": [],
      "stateMutability": "nonpayable",
      "type": "function"
    },
    {
      "inputs": [
        {
          "internalType": "uint64",
          "name": "amount",
          "type": "uint64"
        },
        {
          "internalType": "address",
          "name": "receiver",
          "type": "address"
        }
      ],
      "name": "withdrawTo",
      "outputs": [],
      "stateMutability": "nonpayable",
      "type": "function"
    }
  ],
  "bytecode": "0x60806040523480156200001157600080fd5b506040516200630d3803806200630d833981810160405260a08110156200003757600080fd5b8101908080519060200190929190805190602001909291908051906020019092919080519060200190929190805190602001909291905050506040518060400160405280600581526020017f506978656c0000000000000000000000000000000000000000000000000000008152506040518060400160405280600381526020017f50584c0000000000000000000000000000000000000000000000000000000000815250620000f46301ffc9a760e01b620003b660201b60201c565b81600690805190602001906200010c929190620004c7565b50806007908051906020019062000125929190620004c7565b506200013e6380ac58cd60e01b620003b660201b60201c565b62000156635b5e139f60e01b620003b660201b60201c565b6200016e63780e9d6360e01b620003b660201b60201c565b5050600062000182620004bf60201b60201c565b905080600a60006101000a81548173ffffffffffffffffffffffffffffffffffffffff021916908373ffffffffffffffffffffffffffffffffffffffff1602179055508073ffffffffffffffffffffffffffffffffffffffff16600073ffffffffffffffffffffffffffffffffffffffff167f8be0079c531659141344cd1fd0a4f28419497f9722a3daafe3b4186f6b6457e060405160405180910390a3506000856fffffffffffffffffffffffffffffffff16116200028e576040517f08c379a0000000000000000000000000000000000000000000000000000000008152600401808060200182810382526022815260200180620062976022913960400191505060405180910390fd5b6000846fffffffffffffffffffffffffffffffff1611620002fb576040517f08c379a0000000000000000000000000000000000000000000000000000000008152600401808060200182810382526023815260200180620062b96023913960400191505060405180910390fd5b6000821162000356576040517f08c379a0000000000000000000000000000000000000000000000000000000008152600401808060200182810382526031815260200180620062dc6031913960400191505060405180910390fd5b6001848602036fffffffffffffffffffffffffffffffff16600d8190555082600b8190555081600c8190555080600e60006101000a81548167ffffffffffffffff021916908367ffffffffffffffff16021790555050505050506200057d565b63ffffffff60e01b817bffffffffffffffffffffffffffffffffffffffffffffffffffffffff1916141562000453576040517f08c379a000000000000000000000000000000000000000000000000000000000815260040180806020018281038252601c8152602001807f4552433136353a20696e76616c696420696e746572666163652069640000000081525060200191505060405180910390fd5b6001600080837bffffffffffffffffffffffffffffffffffffffffffffffffffffffff19167bffffffffffffffffffffffffffffffffffffffffffffffffffffffff1916815260200190815260200160002060006101000a81548160ff02191690831515021790555050565b600033905090565b828054600181600116156101000203166002900490600052602060002090601f016020900481019282620004ff57600085556200054b565b82601f106200051a57805160ff19168380011785556200054b565b828001600101855582156200054b579182015b828111156200054a5782518255916020019190600101906200052d565b5b5090506200055a91906200055e565b5090565b5b80821115620005795760008160009055506001016200055f565b5090565b615d0a806200058d6000396000f3fe6080604052600436106102885760003560e01c80636c0360eb1161015a578063bfbc631b116100c1578063e75722301161007a578063e7572230146111bb578063e985e9c514611214578063edb5f1991461129b578063f2fde38b146112c6578063f8b2cb4f14611317578063f8be76321461137f57610288565b8063bfbc631b14610f94578063c87b56dd14610ff7578063cb66667f146110ab578063cc1c3326146110dd578063cfaca2d01461114c578063d0e30db0146111b157610288565b8063964e081111610113578063964e081114610cf8578063a09c372914610d5d578063a22cb46514610db6578063aa67c91914610e13578063b10a7cce14610e57578063b88d4fde14610e8257610288565b80636c0360eb14610ad657806370a0823114610b66578063715018a614610bcb578063750f0acc14610be25780638da5cb5b14610c2757806395d89b4114610c6857610288565b80633bfaa4ee116101fe5780634f558e79116101b75780634f558e79146108b55780634f6ccce7146109065780635057f0e2146109555780636352211e146109ba57806363ff136814610a1f57806369476fe414610a6757610288565b80633bfaa4ee1461068057806342842e0e146106bb57806347e4d132146107365780634c192be4146107995780634c63d602146107f45780634d68b93a1461084557610288565b80630bdfc9e1116102505780630bdfc9e11461048257806318160ddd146104f157806323b872dd1461051c57806329039967146105975780632ba27019146105c25780632f745c591461061157610288565b806301ffc9a71461028d57806306f660ef146102fd57806306fdde0314610332578063081812fc146103c2578063095ea7b314610427575b600080fd5b34801561029957600080fd5b506102e5600480360360208110156102b057600080fd5b8101908080357bffffffffffffffffffffffffffffffffffffffffffffffffffffffff19169060200190929190505050611396565b60405180821515815260200191505060405180910390f35b34801561030957600080fd5b506103126113fd565b604051808267ffffffffffffffff16815260200191505060405180910390f35b34801561033e57600080fd5b5061034761141b565b6040518080602001828103825283818151815260200191508051906020019080838360005b8381101561038757808201518184015260208101905061036c565b50505050905090810190601f1680156103b45780820380516001836020036101000a031916815260200191505b509250505060405180910390f35b3480156103ce57600080fd5b506103fb600480360360208110156103e557600080fd5b81019080803590602001909291905050506114bd565b604051808273ffffffffffffffffffffffffffffffffffffffff16815260200191505060405180910390f35b34801561043357600080fd5b506104806004803603604081101561044a57600080fd5b81019080803573ffffffffffffffffffffffffffffffffffffffff16906020019092919080359060200190929190505050611558565b005b34801561048e57600080fd5b506104d1600480360360208110156104a557600080fd5b81019080803573ffffffffffffffffffffffffffffffffffffffff16906020019092919050505061169c565b604051808267ffffffffffffffff16815260200191505060405180910390f35b3480156104fd57600080fd5b506105066116fc565b6040518082815260200191505060405180910390f35b34801561052857600080fd5b506105956004803603606081101561053f57600080fd5b81019080803573ffffffffffffffffffffffffffffffffffffffff169060200190929190803573ffffffffffffffffffffffffffffffffffffffff1690602001909291908035906020019092919050505061170d565b005b3480156105a357600080fd5b506105ac61171a565b6040518082815260200191505060405180910390f35b3480156105ce57600080fd5b5061060f600480360360408110156105e557600080fd5b8101908080359060200190929190803567ffffffffffffffff169060200190929190505050611724565b005b34801561061d57600080fd5b5061066a6004803603604081101561063457600080fd5b81019080803573ffffffffffffffffffffffffffffffffffffffff16906020019092919080359060200190929190505050611a8c565b6040518082815260200191505060405180910390f35b34801561068c57600080fd5b506106b9600480360360208110156106a357600080fd5b8101908080359060200190929190505050611ae7565b005b3480156106c757600080fd5b50610734600480360360608110156106de57600080fd5b81019080803573ffffffffffffffffffffffffffffffffffffffff169060200190929190803573ffffffffffffffffffffffffffffffffffffffff16906020019092919080359060200190929190505050611ba3565b005b34801561074257600080fd5b506107976004803603606081101561075957600080fd5b8101908080359060200190929190803567ffffffffffffffff169060200190929190803567ffffffffffffffff169060200190929190505050611bb0565b005b3480156107a557600080fd5b506107f2600480360360408110156107bc57600080fd5b8101908080359060200190929190803573ffffffffffffffffffffffffffffffffffffffff169060200190929190505050612351565b005b34801561080057600080fd5b506108436004803603602081101561081757600080fd5b81019080803573ffffffffffffffffffffffffffffffffffffffff16906020019092919050505061240e565b005b34801561085157600080fd5b506108b36004803603608081101561086857600080fd5b8101908080359060200190929190803567ffffffffffffffff169060200190929190803567ffffffffffffffff169060200190929190803560ff1690602001909291905050506126fd565b005b3480156108c157600080fd5b506108ee600480360360208110156108d857600080fd5b8101908080359060200190929190505050612710565b60405180821515815260200191505060405180910390f35b34801561091257600080fd5b5061093f6004803603602081101561092957600080fd5b8101908080359060200190929190505050612722565b6040518082815260200191505060405180910390f35b34801561096157600080fd5b506109a46004803603602081101561097857600080fd5b81019080803573ffffffffffffffffffffffffffffffffffffffff169060200190929190505050612745565b6040518082815260200191505060405180910390f35b3480156109c657600080fd5b506109f3600480360360208110156109dd57600080fd5b810190808035906020019092919050505061278e565b604051808273ffffffffffffffffffffffffffffffffffffffff16815260200191505060405180910390f35b348015610a2b57600080fd5b50610a6560048036036040811015610a4257600080fd5b8101908080359060200190929190803560ff1690602001909291905050506127c5565b005b348015610a7357600080fd5b50610ab660048036036020811015610a8a57600080fd5b81019080803573ffffffffffffffffffffffffffffffffffffffff169060200190929190505050612918565b604051808267ffffffffffffffff16815260200191505060405180910390f35b348015610ae257600080fd5b50610aeb612978565b6040518080602001828103825283818151815260200191508051906020019080838360005b83811015610b2b578082015181840152602081019050610b10565b50505050905090810190601f168015610b585780820380516001836020036101000a031916815260200191505b509250505060405180910390f35b348015610b7257600080fd5b50610bb560048036036020811015610b8957600080fd5b81019080803573ffffffffffffffffffffffffffffffffffffffff169060200190929190505050612a1a565b6040518082815260200191505060405180910390f35b348015610bd757600080fd5b50610be0612aef565b005b348015610bee57600080fd5b50610c2560048036036020811015610c0557600080fd5b81019080803567ffffffffffffffff169060200190929190505050612c5f565b005b348015610c3357600080fd5b50610c3c612c6d565b604051808273ffffffffffffffffffffffffffffffffffffffff16815260200191505060405180910390f35b348015610c7457600080fd5b50610c7d612c97565b6040518080602001828103825283818151815260200191508051906020019080838360005b83811015610cbd578082015181840152602081019050610ca2565b50505050905090810190601f168015610cea5780820380516001836020036101000a031916815260200191505b509250505060405180910390f35b348015610d0457600080fd5b50610d5b60048036036040811015610d1b57600080fd5b81019080803567ffffffffffffffff169060200190929190803573ffffffffffffffffffffffffffffffffffffffff169060200190929190505050612d39565b005b348015610d6957600080fd5b50610d9660048036036020811015610d8057600080fd5b8101908080359060200190929190505050612d48565b604051808267ffffffffffffffff16815260200191505060405180910390f35b348015610dc257600080fd5b50610e1160048036036040811015610dd957600080fd5b81019080803573ffffffffffffffffffffffffffffffffffffffff169060200190929190803515159060200190929190505050612d7c565b005b610e5560048036036020811015610e2957600080fd5b81019080803573ffffffffffffffffffffffffffffffffffffffff169060200190929190505050612f32565b005b348015610e6357600080fd5b50610e6c6132aa565b6040518082815260200191505060405180910390f35b348015610e8e57600080fd5b50610f9260048036036080811015610ea557600080fd5b81019080803573ffffffffffffffffffffffffffffffffffffffff169060200190929190803573ffffffffffffffffffffffffffffffffffffffff1690602001909291908035906020019092919080359060200190640100000000811115610f0c57600080fd5b820183602082011115610f1e57600080fd5b80359060200191846001830284011164010000000083111715610f4057600080fd5b91908080601f016020809104026020016040519081016040528093929190818152602001838380828437600081840152601f19601f8201169050808301925050505050505091929192905050506132b4565b005b610ff560048036036080811015610faa57600080fd5b8101908080359060200190929190803567ffffffffffffffff169060200190929190803567ffffffffffffffff169060200190929190803560ff1690602001909291905050506132c2565b005b34801561100357600080fd5b506110306004803603602081101561101a57600080fd5b81019080803590602001909291905050506132de565b6040518080602001828103825283818151815260200191508051906020019080838360005b83811015611070578082015181840152602081019050611055565b50505050905090810190601f16801561109d5780820380516001836020036101000a031916815260200191505b509250505060405180910390f35b3480156110b757600080fd5b506110c06135af565b604051808381526020018281526020019250505060405180910390f35b3480156110e957600080fd5b5061114a6004803603606081101561110057600080fd5b8101908080359060200190929190803573ffffffffffffffffffffffffffffffffffffffff169060200190929190803567ffffffffffffffff1690602001909291905050506135c0565b005b34801561115857600080fd5b506111856004803603602081101561116f57600080fd5b8101908080359060200190929190505050613762565b604051808273ffffffffffffffffffffffffffffffffffffffff16815260200191505060405180910390f35b6111b96137a2565b005b3480156111c757600080fd5b506111f4600480360360208110156111de57600080fd5b81019080803590602001909291905050506137ad565b604051808267ffffffffffffffff16815260200191505060405180910390f35b34801561122057600080fd5b506112836004803603604081101561123757600080fd5b81019080803573ffffffffffffffffffffffffffffffffffffffff169060200190929190803573ffffffffffffffffffffffffffffffffffffffff169060200190929190505050613835565b60405180821515815260200191505060405180910390f35b3480156112a757600080fd5b506112b06138c9565b6040518082815260200191505060405180910390f35b3480156112d257600080fd5b50611315600480360360208110156112e957600080fd5b81019080803573ffffffffffffffffffffffffffffffffffffffff1690602001909291905050506138d3565b005b34801561132357600080fd5b506113666004803603602081101561133a57600080fd5b81019080803573ffffffffffffffffffffffffffffffffffffffff169060200190929190505050613ac8565b6040518082600f0b815260200191505060405180910390f35b34801561138b57600080fd5b50611394613bc6565b005b6000806000837bffffffffffffffffffffffffffffffffffffffffffffffffffffffff19167bffffffffffffffffffffffffffffffffffffffffffffffffffffffff1916815260200190815260200160002060009054906101000a900460ff169050919050565b6000600e60009054906101000a900467ffffffffffffffff16905090565b606060068054600181600116156101000203166002900480601f0160208091040260200160405190810160405280929190818152602001828054600181600116156101000203166002900480156114b35780601f10611488576101008083540402835291602001916114b3565b820191906000526020600020905b81548152906001019060200180831161149657829003601f168201915b5050505050905090565b60006114c882613c87565b61151d576040517f08c379a000000000000000000000000000000000000000000000000000000000815260040180806020018281038252602c815260200180615adb602c913960400191505060405180910390fd5b6004600083815260200190815260200160002060009054906101000a900473ffffffffffffffffffffffffffffffffffffffff169050919050565b60006115638261278e565b90508073ffffffffffffffffffffffffffffffffffffffff168373ffffffffffffffffffffffffffffffffffffffff1614156115ea576040517f08c379a0000000000000000000000000000000000000000000000000000000008152600401808060200182810382526021815260200180615bb36021913960400191505060405180910390fd5b8073ffffffffffffffffffffffffffffffffffffffff16611609613ca4565b73ffffffffffffffffffffffffffffffffffffffff161480611638575061163781611632613ca4565b613835565b5b61168d576040517f08c379a00000000000000000000000000000000000000000000000000000000081526004018080602001828103825260388152602001806159856038913960400191505060405180910390fd5b6116978383613cac565b505050565b6000601060008373ffffffffffffffffffffffffffffffffffffffff1673ffffffffffffffffffffffffffffffffffffffff16815260200190815260200160002060000160189054906101000a900467ffffffffffffffff169050919050565b60006117086002613d65565b905090565b600061171557fe5b505050565b6000601354905090565b61172d82613c87565b61173657600080fd5b60006117418361278e565b90508073ffffffffffffffffffffffffffffffffffffffff163373ffffffffffffffffffffffffffffffffffffffff16146117c7576040517f08c379a000000000000000000000000000000000000000000000000000000000815260040180806020018281038252602a815260200180615b89602a913960400191505060405180910390fd5b6117d03361240e565b6000601060003373ffffffffffffffffffffffffffffffffffffffff1673ffffffffffffffffffffffffffffffffffffffff1681526020019081526020016000206040518060600160405290816000820160009054906101000a9004600f0b600f0b600f0b81526020016000820160109054906101000a900467ffffffffffffffff1667ffffffffffffffff1667ffffffffffffffff1681526020016000820160189054906101000a900467ffffffffffffffff1667ffffffffffffffff1667ffffffffffffffff168152505090506118d48160200151600f600087815260200190815260200160002060009054906101000a900467ffffffffffffffff16613d7a565b816020019067ffffffffffffffff16908167ffffffffffffffff1681525050611901816020015184613dac565b816020019067ffffffffffffffff16908167ffffffffffffffff168152505082600f600086815260200190815260200160002060006101000a81548167ffffffffffffffff021916908367ffffffffffffffff16021790555080601060003373ffffffffffffffffffffffffffffffffffffffff1673ffffffffffffffffffffffffffffffffffffffff16815260200190815260200160002060008201518160000160006101000a8154816fffffffffffffffffffffffffffffffff0219169083600f0b6fffffffffffffffffffffffffffffffff16021790555060208201518160000160106101000a81548167ffffffffffffffff021916908367ffffffffffffffff16021790555060408201518160000160186101000a81548167ffffffffffffffff021916908367ffffffffffffffff1602179055509050507fbf15f22b607cfe044538540b4bac336af1e06c4273837485a3afca870dde70a68484604051808381526020018267ffffffffffffffff1681526020019250505060405180910390a150505050565b6000611adf82600160008673ffffffffffffffffffffffffffffffffffffffff1673ffffffffffffffffffffffffffffffffffffffff168152602001908152602001600020613def90919063ffffffff16565b905092915050565b611aef613ca4565b73ffffffffffffffffffffffffffffffffffffffff16611b0d612c6d565b73ffffffffffffffffffffffffffffffffffffffff1614611b96576040517f08c379a00000000000000000000000000000000000000000000000000000000081526004018080602001828103825260208152602001807f4f776e61626c653a2063616c6c6572206973206e6f7420746865206f776e657281525060200191505060405180910390fd5b611ba08133613e09565b50565b6000611bab57fe5b505050565b611bb983613c87565b611c2b576040517f08c379a00000000000000000000000000000000000000000000000000000000081526004018080602001828103825260208152602001807f477261666669744554483a20706978656c20646f6573206e6f7420657869737481525060200191505060405180910390fd5b6000611c368461278e565b90506000601160008681526020019081526020016000206040518060400160405290816000820160009054906101000a900473ffffffffffffffffffffffffffffffffffffffff1673ffffffffffffffffffffffffffffffffffffffff1673ffffffffffffffffffffffffffffffffffffffff1681526020016000820160149054906101000a900467ffffffffffffffff1667ffffffffffffffff1667ffffffffffffffff16815250509050806000015173ffffffffffffffffffffffffffffffffffffffff163373ffffffffffffffffffffffffffffffffffffffff1614611d6a576040517f08c379a000000000000000000000000000000000000000000000000000000000815260040180806020018281038252602e815260200180615a63602e913960400191505060405180910390fd5b611d738261240e565b611d7c3361240e565b6000601060008473ffffffffffffffffffffffffffffffffffffffff1673ffffffffffffffffffffffffffffffffffffffff1681526020019081526020016000206040518060600160405290816000820160009054906101000a9004600f0b600f0b600f0b81526020016000820160109054906101000a900467ffffffffffffffff1667ffffffffffffffff1667ffffffffffffffff1681526020016000820160189054906101000a900467ffffffffffffffff1667ffffffffffffffff1667ffffffffffffffff168152505090506000601060003373ffffffffffffffffffffffffffffffffffffffff1673ffffffffffffffffffffffffffffffffffffffff1681526020019081526020016000206040518060600160405290816000820160009054906101000a9004600f0b600f0b600f0b81526020016000820160109054906101000a900467ffffffffffffffff1667ffffffffffffffff1667ffffffffffffffff1681526020016000820160189054906101000a900467ffffffffffffffff1667ffffffffffffffff1667ffffffffffffffff168152505090506000600f600089815260200190815260200160002060009054906101000a900467ffffffffffffffff1690508667ffffffffffffffff168167ffffffffffffffff161115611fb3576040517f08c379a00000000000000000000000000000000000000000000000000000000081526004018080602001828103825260228152602001806158f56022913960400191505060405180910390fd5b611fc1836020015182613d7a565b836020019067ffffffffffffffff16908167ffffffffffffffff1681525050611fee826020015182613dac565b826020019067ffffffffffffffff16908167ffffffffffffffff16815250506000846020015167ffffffffffffffff168460000151600f0b126120375784602001519050612058565b60008460000151600f0b126120525783600001519050612057565b600090505b5b8667ffffffffffffffff168167ffffffffffffffff1610156120e2576040517f08c379a000000000000000000000000000000000000000000000000000000000815260040180806020018281038252601f8152602001807f477261666669744554483a20616d6f756e7420697320746f6f20736d616c6c0081525060200191505060405180910390fd5b6120f0846000015182613f9d565b8460000190600f0b9081600f0b8152505061210f836000015182614016565b8360000190600f0b9081600f0b8152505083601060008873ffffffffffffffffffffffffffffffffffffffff1673ffffffffffffffffffffffffffffffffffffffff16815260200190815260200160002060008201518160000160006101000a8154816fffffffffffffffffffffffffffffffff0219169083600f0b6fffffffffffffffffffffffffffffffff16021790555060208201518160000160106101000a81548167ffffffffffffffff021916908367ffffffffffffffff16021790555060408201518160000160186101000a81548167ffffffffffffffff021916908367ffffffffffffffff16021790555090505082601060003373ffffffffffffffffffffffffffffffffffffffff1673ffffffffffffffffffffffffffffffffffffffff16815260200190815260200160002060008201518160000160006101000a8154816fffffffffffffffffffffffffffffffff0219169083600f0b6fffffffffffffffffffffffffffffffff16021790555060208201518160000160106101000a81548167ffffffffffffffff021916908367ffffffffffffffff16021790555060408201518160000160186101000a81548167ffffffffffffffff021916908367ffffffffffffffff1602179055509050506122f186338b61406f565b6122fd896000806142b2565b7fb8686fb2f2a4a57d3187524f6495bfb9a277f56862834b092423954b119868558982604051808381526020018267ffffffffffffffff1681526020019250505060405180910390a1505050505050505050565b612359613ca4565b73ffffffffffffffffffffffffffffffffffffffff16612377612c6d565b73ffffffffffffffffffffffffffffffffffffffff1614612400576040517f08c379a00000000000000000000000000000000000000000000000000000000081526004018080602001828103825260208152602001807f4f776e61626c653a2063616c6c6572206973206e6f7420746865206f776e657281525060200191505060405180910390fd5b61240a8282613e09565b5050565b6000601060008373ffffffffffffffffffffffffffffffffffffffff1673ffffffffffffffffffffffffffffffffffffffff1681526020019081526020016000206040518060600160405290816000820160009054906101000a9004600f0b600f0b600f0b81526020016000820160109054906101000a900467ffffffffffffffff1667ffffffffffffffff1667ffffffffffffffff1681526020016000820160189054906101000a900467ffffffffffffffff1667ffffffffffffffff1667ffffffffffffffff1681525050905060006124f282602001518360400151426143df565b905060008167ffffffffffffffff16118061251b57506000826040015167ffffffffffffffff16145b156126f85760008167ffffffffffffffff168360000151600f0b1261254257819050612563565b60008360000151600f0b1261255d5782600001519050612562565b600090505b5b612571836000015183613f9d565b8360000190600f0b9081600f0b8152505042836040019067ffffffffffffffff16908167ffffffffffffffff168152505082601060008673ffffffffffffffffffffffffffffffffffffffff1673ffffffffffffffffffffffffffffffffffffffff16815260200190815260200160002060008201518160000160006101000a8154816fffffffffffffffffffffffffffffffff0219169083600f0b6fffffffffffffffffffffffffffffffff16021790555060208201518160000160106101000a81548167ffffffffffffffff021916908367ffffffffffffffff16021790555060408201518160000160186101000a81548167ffffffffffffffff021916908367ffffffffffffffff1602179055509050508067ffffffffffffffff166013600082825401925050819055508067ffffffffffffffff16601260008673ffffffffffffffffffffffffffffffffffffffff1673ffffffffffffffffffffffffffffffffffffffff16815260200190815260200160002060008282540192505081905550505b505050565b61270a33858585856144af565b50505050565b600061271b82613c87565b9050919050565b600080612739836002614c5390919063ffffffff16565b50905080915050919050565b6000601260008373ffffffffffffffffffffffffffffffffffffffff1673ffffffffffffffffffffffffffffffffffffffff168152602001908152602001600020549050919050565b60006127be82604051806060016040528060298152602001615a08602991396002614c7f9092919063ffffffff16565b9050919050565b6127ce82613c87565b612840576040517f08c379a00000000000000000000000000000000000000000000000000000000081526004018080602001828103825260208152602001807f477261666669744554483a20706978656c20646f6573206e6f7420657869737481525060200191505060405180910390fd5b600061284b8361278e565b90508073ffffffffffffffffffffffffffffffffffffffff163373ffffffffffffffffffffffffffffffffffffffff16146128d1576040517f08c379a000000000000000000000000000000000000000000000000000000000815260040180806020018281038252602a815260200180615b07602a913960400191505060405180910390fd5b7ff0fbbaedad1d3a6fc7004560ccc28915f597e9ed4ad3d64b7422f7782d8301038383604051808381526020018260ff1681526020019250505060405180910390a1505050565b6000601060008373ffffffffffffffffffffffffffffffffffffffff1673ffffffffffffffffffffffffffffffffffffffff16815260200190815260200160002060000160109054906101000a900467ffffffffffffffff169050919050565b606060098054600181600116156101000203166002900480601f016020809104026020016040519081016040528092919081815260200182805460018160011615610100020316600290048015612a105780601f106129e557610100808354040283529160200191612a10565b820191906000526020600020905b8154815290600101906020018083116129f357829003601f168201915b5050505050905090565b60008073ffffffffffffffffffffffffffffffffffffffff168273ffffffffffffffffffffffffffffffffffffffff161415612aa1576040517f08c379a000000000000000000000000000000000000000000000000000000000815260040180806020018281038252602a8152602001806159de602a913960400191505060405180910390fd5b612ae8600160008473ffffffffffffffffffffffffffffffffffffffff1673ffffffffffffffffffffffffffffffffffffffff168152602001908152602001600020614c9e565b9050919050565b612af7613ca4565b73ffffffffffffffffffffffffffffffffffffffff16612b15612c6d565b73ffffffffffffffffffffffffffffffffffffffff1614612b9e576040517f08c379a00000000000000000000000000000000000000000000000000000000081526004018080602001828103825260208152602001807f4f776e61626c653a2063616c6c6572206973206e6f7420746865206f776e657281525060200191505060405180910390fd5b600073ffffffffffffffffffffffffffffffffffffffff16600a60009054906101000a900473ffffffffffffffffffffffffffffffffffffffff1673ffffffffffffffffffffffffffffffffffffffff167f8be0079c531659141344cd1fd0a4f28419497f9722a3daafe3b4186f6b6457e060405160405180910390a36000600a60006101000a81548173ffffffffffffffffffffffffffffffffffffffff021916908373ffffffffffffffffffffffffffffffffffffffff160217905550565b612c6a338233614cb3565b50565b6000600a60009054906101000a900473ffffffffffffffffffffffffffffffffffffffff16905090565b606060078054600181600116156101000203166002900480601f016020809104026020016040519081016040528092919081815260200182805460018160011615610100020316600290048015612d2f5780601f10612d0457610100808354040283529160200191612d2f565b820191906000526020600020905b815481529060010190602001808311612d1257829003601f168201915b5050505050905090565b612d44338383614cb3565b5050565b60006011600083815260200190815260200160002060000160149054906101000a900467ffffffffffffffff169050919050565b612d84613ca4565b73ffffffffffffffffffffffffffffffffffffffff168273ffffffffffffffffffffffffffffffffffffffff161415612e25576040517f08c379a00000000000000000000000000000000000000000000000000000000081526004018080602001828103825260198152602001807f4552433732313a20617070726f766520746f2063616c6c65720000000000000081525060200191505060405180910390fd5b8060056000612e32613ca4565b73ffffffffffffffffffffffffffffffffffffffff1673ffffffffffffffffffffffffffffffffffffffff16815260200190815260200160002060008473ffffffffffffffffffffffffffffffffffffffff1673ffffffffffffffffffffffffffffffffffffffff16815260200190815260200160002060006101000a81548160ff0219169083151502179055508173ffffffffffffffffffffffffffffffffffffffff16612edf613ca4565b73ffffffffffffffffffffffffffffffffffffffff167f17307eab39ab6107e8899845ad3d59bd9653f200f220920489ca2b5937696c318360405180821515815260200191505060405180910390a35050565b612f3b3361240e565b6000601060008373ffffffffffffffffffffffffffffffffffffffff1673ffffffffffffffffffffffffffffffffffffffff1681526020019081526020016000206040518060600160405290816000820160009054906101000a9004600f0b600f0b600f0b81526020016000820160109054906101000a900467ffffffffffffffff1667ffffffffffffffff1667ffffffffffffffff1681526020016000820160189054906101000a900467ffffffffffffffff1667ffffffffffffffff1667ffffffffffffffff168152505090506000633b9aca00348161301957fe5b0614613070576040517f08c379a0000000000000000000000000000000000000000000000000000000008152600401808060200182810382526035815260200180615c4e6035913960400191505060405180910390fd5b6000633b9aca00348161307f57fe5b04905060008260000151600f0b12156131355760008260000151600003600f0b8267ffffffffffffffff16136130b7578190506130c2565b826000015160000390505b8067ffffffffffffffff166013600082825401925050819055508067ffffffffffffffff16601260008673ffffffffffffffffffffffffffffffffffffffff1673ffffffffffffffffffffffffffffffffffffffff16815260200190815260200160002060008282540192505081905550505b613143826000015182614016565b8260000190600f0b9081600f0b8152505081601060008573ffffffffffffffffffffffffffffffffffffffff1673ffffffffffffffffffffffffffffffffffffffff16815260200190815260200160002060008201518160000160006101000a8154816fffffffffffffffffffffffffffffffff0219169083600f0b6fffffffffffffffffffffffffffffffff16021790555060208201518160000160106101000a81548167ffffffffffffffff021916908367ffffffffffffffff16021790555060408201518160000160186101000a81548167ffffffffffffffff021916908367ffffffffffffffff1602179055509050507f9b4aba9cc4ea6d06a291ac53f1412dd3f42fc7426c27e76b9110b5fdbcb9884783828460000151604051808473ffffffffffffffffffffffffffffffffffffffff1681526020018367ffffffffffffffff16815260200182600f0b8152602001935050505060405180910390a1505050565b6000600d54905090565b60006132bc57fe5b50505050565b6132cb33612f32565b6132d833858585856144af565b50505050565b60606132e982613c87565b61333e576040517f08c379a000000000000000000000000000000000000000000000000000000000815260040180806020018281038252602f815260200180615b5a602f913960400191505060405180910390fd5b6000600860008481526020019081526020016000208054600181600116156101000203166002900480601f0160208091040260200160405190810160405280929190818152602001828054600181600116156101000203166002900480156133e75780601f106133bc576101008083540402835291602001916133e7565b820191906000526020600020905b8154815290600101906020018083116133ca57829003601f168201915b5050505050905060006133f8612978565b905060008151141561340e5781925050506135aa565b6000825111156134df5780826040516020018083805190602001908083835b60208310613450578051825260208201915060208101905060208303925061342d565b6001836020036101000a03801982511681845116808217855250505050505090500182805190602001908083835b602083106134a1578051825260208201915060208101905060208303925061347e565b6001836020036101000a03801982511681845116808217855250505050505090500192505050604051602081830303815290604052925050506135aa565b806134e98561503b565b6040516020018083805190602001908083835b6020831061351f57805182526020820191506020810190506020830392506134fc565b6001836020036101000a03801982511681845116808217855250505050505090500182805190602001908083835b60208310613570578051825260208201915060208101905060208303925061354d565b6001836020036101000a03801982511681845116808217855250505050505090500192505050604051602081830303815290604052925050505b919050565b600080600b54600c54915091509091565b6135c983613c87565b61363b576040517f08c379a00000000000000000000000000000000000000000000000000000000081526004018080602001828103825260208152602001807f477261666669744554483a20706978656c20646f6573206e6f7420657869737481525060200191505060405180910390fd5b60006136468461278e565b90508073ffffffffffffffffffffffffffffffffffffffff163373ffffffffffffffffffffffffffffffffffffffff16146136cc576040517f08c379a00000000000000000000000000000000000000000000000000000000081526004018080602001828103825260288152602001806159176028913960400191505060405180910390fd5b8073ffffffffffffffffffffffffffffffffffffffff168373ffffffffffffffffffffffffffffffffffffffff161415613751576040517f08c379a0000000000000000000000000000000000000000000000000000000008152600401808060200182810382526024815260200180615c2a6024913960400191505060405180910390fd5b61375c8484846142b2565b50505050565b60006011600083815260200190815260200160002060000160009054906101000a900473ffffffffffffffffffffffffffffffffffffffff169050919050565b6137ab33612f32565b565b60006137b882613c87565b6137da57600e60009054906101000a900467ffffffffffffffff169050613830565b60006137e58361278e565b905060006137f282613ac8565b600f0b13613804576000915050613830565b600f600084815260200190815260200160002060009054906101000a900467ffffffffffffffff169150505b919050565b6000600560008473ffffffffffffffffffffffffffffffffffffffff1673ffffffffffffffffffffffffffffffffffffffff16815260200190815260200160002060008373ffffffffffffffffffffffffffffffffffffffff1673ffffffffffffffffffffffffffffffffffffffff16815260200190815260200160002060009054906101000a900460ff16905092915050565b6000601454905090565b6138db613ca4565b73ffffffffffffffffffffffffffffffffffffffff166138f9612c6d565b73ffffffffffffffffffffffffffffffffffffffff1614613982576040517f08c379a00000000000000000000000000000000000000000000000000000000081526004018080602001828103825260208152602001807f4f776e61626c653a2063616c6c6572206973206e6f7420746865206f776e657281525060200191505060405180910390fd5b600073ffffffffffffffffffffffffffffffffffffffff168173ffffffffffffffffffffffffffffffffffffffff161415613a08576040517f08c379a00000000000000000000000000000000000000000000000000000000081526004018080602001828103825260268152602001806158cf6026913960400191505060405180910390fd5b8073ffffffffffffffffffffffffffffffffffffffff16600a60009054906101000a900473ffffffffffffffffffffffffffffffffffffffff1673ffffffffffffffffffffffffffffffffffffffff167f8be0079c531659141344cd1fd0a4f28419497f9722a3daafe3b4186f6b6457e060405160405180910390a380600a60006101000a81548173ffffffffffffffffffffffffffffffffffffffff021916908373ffffffffffffffffffffffffffffffffffffffff16021790555050565b600080601060008473ffffffffffffffffffffffffffffffffffffffff1673ffffffffffffffffffffffffffffffffffffffff1681526020019081526020016000206040518060600160405290816000820160009054906101000a9004600f0b600f0b600f0b81526020016000820160109054906101000a900467ffffffffffffffff1667ffffffffffffffff1667ffffffffffffffff1681526020016000820160189054906101000a900467ffffffffffffffff1667ffffffffffffffff1667ffffffffffffffff168152505090506000613bad82602001518360400151426143df565b9050613bbd826000015182613f9d565b92505050919050565b613bce613ca4565b73ffffffffffffffffffffffffffffffffffffffff16613bec612c6d565b73ffffffffffffffffffffffffffffffffffffffff1614613c75576040517f08c379a00000000000000000000000000000000000000000000000000000000081526004018080602001828103825260208152602001807f4f776e61626c653a2063616c6c6572206973206e6f7420746865206f776e657281525060200191505060405180910390fd5b613c856014546013540333613e09565b565b6000613c9d82600261518290919063ffffffff16565b9050919050565b600033905090565b816004600083815260200190815260200160002060006101000a81548173ffffffffffffffffffffffffffffffffffffffff021916908373ffffffffffffffffffffffffffffffffffffffff160217905550808273ffffffffffffffffffffffffffffffffffffffff16613d1f8361278e565b73ffffffffffffffffffffffffffffffffffffffff167f8c5be1e5ebec7d5bd14f71427d1e84f3dd0314c0f7b2291e5b200ac8c7c3b92560405160405180910390a45050565b6000613d738260000161519c565b9050919050565b60008167ffffffffffffffff168367ffffffffffffffff1610613da1578183039050613da6565b600090505b92915050565b60008167ffffffffffffffff0367ffffffffffffffff168367ffffffffffffffff1611613ddd578183019050613de9565b67ffffffffffffffff90505b92915050565b6000613dfe83600001836151ad565b60001c905092915050565b600060145460135403905080831115613e6d576040517f08c379a0000000000000000000000000000000000000000000000000000000008152600401808060200182810382526028815260200180615a916028913960400191505060405180910390fd5b8260146000828254019250508190555060008273ffffffffffffffffffffffffffffffffffffffff16633b9aca00850260405180600001905060006040518083038185875af1925050503d8060008114613ee3576040519150601f19603f3d011682016040523d82523d6000602084013e613ee8565b606091505b5050905080613f42576040517f08c379a0000000000000000000000000000000000000000000000000000000008152600401808060200182810382526028815260200180615c836028913960400191505060405180910390fd5b7fe445ea7bb773fbc392a5fd0e00169405de58c9fd30833a277a6a049156291e788484604051808381526020018273ffffffffffffffffffffffffffffffffffffffff1681526020019250505060405180910390a150505050565b60008167ffffffffffffffff167fffffffffffffffffffffffffffffffff8000000000000000000000000000000001600f0b83600f0b12613fec578167ffffffffffffffff1683039050614010565b7fffffffffffffffffffffffffffffffff8000000000000000000000000000000090505b92915050565b60008167ffffffffffffffff166f7fffffffffffffffffffffffffffffff03600f0b83600f0b13614055578167ffffffffffffffff1683019050614069565b6f7fffffffffffffffffffffffffffffff90505b92915050565b8273ffffffffffffffffffffffffffffffffffffffff1661408f8261278e565b73ffffffffffffffffffffffffffffffffffffffff16146140fb576040517f08c379a0000000000000000000000000000000000000000000000000000000008152600401808060200182810382526029815260200180615b316029913960400191505060405180910390fd5b600073ffffffffffffffffffffffffffffffffffffffff168273ffffffffffffffffffffffffffffffffffffffff161415614181576040517f08c379a000000000000000000000000000000000000000000000000000000000815260040180806020018281038252602481526020018061593f6024913960400191505060405180910390fd5b61418c838383615230565b614197600082613cac565b6141e881600160008673ffffffffffffffffffffffffffffffffffffffff1673ffffffffffffffffffffffffffffffffffffffff16815260200190815260200160002061523590919063ffffffff16565b5061423a81600160008573ffffffffffffffffffffffffffffffffffffffff1673ffffffffffffffffffffffffffffffffffffffff16815260200190815260200160002061524f90919063ffffffff16565b50614251818360026152699092919063ffffffff16565b50808273ffffffffffffffffffffffffffffffffffffffff168473ffffffffffffffffffffffffffffffffffffffff167fddf252ad1be2c89b69c2b068fc378daa952ba7f163c4a11628f55a4df523b3ef60405160405180910390a4505050565b60405180604001604052808373ffffffffffffffffffffffffffffffffffffffff1681526020018267ffffffffffffffff168152506011600085815260200190815260200160002060008201518160000160006101000a81548173ffffffffffffffffffffffffffffffffffffffff021916908373ffffffffffffffffffffffffffffffffffffffff16021790555060208201518160000160146101000a81548167ffffffffffffffff021916908367ffffffffffffffff1602179055509050507f84afc8474dcf15389b6fa53a7f02d9f5c899390ecc31665a1c3561ef8202563b838383604051808481526020018373ffffffffffffffffffffffffffffffffffffffff1681526020018267ffffffffffffffff168152602001935050505060405180910390a1505050565b60008267ffffffffffffffff168267ffffffffffffffff16101561444e576040517f08c379a0000000000000000000000000000000000000000000000000000000008152600401808060200182810382526032815260200180615a316032913960400191505060405180910390fd5b6000600b548567ffffffffffffffff1685850367ffffffffffffffff16020290506000600c54828161447c57fe5b04905067ffffffffffffffff8016811161449a5780925050506144a8565b67ffffffffffffffff925050505b9392505050565b60006144ba856137ad565b90508367ffffffffffffffff168167ffffffffffffffff161115614529576040517f08c379a0000000000000000000000000000000000000000000000000000000008152600401808060200182810382526029815260200180615c016029913960400191505060405180910390fd5b6145328661240e565b6000601060008873ffffffffffffffffffffffffffffffffffffffff1673ffffffffffffffffffffffffffffffffffffffff1681526020019081526020016000206040518060600160405290816000820160009054906101000a9004600f0b600f0b600f0b81526020016000820160109054906101000a900467ffffffffffffffff1667ffffffffffffffff1667ffffffffffffffff1681526020016000820160189054906101000a900467ffffffffffffffff1667ffffffffffffffff1667ffffffffffffffff168152505090508167ffffffffffffffff168160000151600f0b1215614688576040517f08c379a000000000000000000000000000000000000000000000000000000000815260040180806020018281038252601b8152602001807f477261666669744554483a2062616c616e636520746f6f206c6f77000000000081525060200191505060405180910390fd5b614696816000015183613f9d565b8160000190600f0b9081600f0b815250506146b5816020015185613dac565b816020019067ffffffffffffffff16908167ffffffffffffffff168152505080601060008973ffffffffffffffffffffffffffffffffffffffff1673ffffffffffffffffffffffffffffffffffffffff16815260200190815260200160002060008201518160000160006101000a8154816fffffffffffffffffffffffffffffffff0219169083600f0b6fffffffffffffffffffffffffffffffff16021790555060208201518160000160106101000a81548167ffffffffffffffff021916908367ffffffffffffffff16021790555060408201518160000160186101000a81548167ffffffffffffffff021916908367ffffffffffffffff16021790555090505060006147c287613c87565b15614a7b576147d08761278e565b90508773ffffffffffffffffffffffffffffffffffffffff168173ffffffffffffffffffffffffffffffffffffffff161415614857576040517f08c379a000000000000000000000000000000000000000000000000000000000815260040180806020018281038252602a815260200180615cab602a913960400191505060405180910390fd5b6148608161240e565b6000601060008373ffffffffffffffffffffffffffffffffffffffff1673ffffffffffffffffffffffffffffffffffffffff1681526020019081526020016000206040518060600160405290816000820160009054906101000a9004600f0b600f0b600f0b81526020016000820160109054906101000a900467ffffffffffffffff1667ffffffffffffffff1667ffffffffffffffff1681526020016000820160189054906101000a900467ffffffffffffffff1667ffffffffffffffff1667ffffffffffffffff1681525050905061493d816000015185614016565b8160000190600f0b9081600f0b8152505061495c816020015185613d7a565b816020019067ffffffffffffffff16908167ffffffffffffffff168152505080601060008473ffffffffffffffffffffffffffffffffffffffff1673ffffffffffffffffffffffffffffffffffffffff16815260200190815260200160002060008201518160000160006101000a8154816fffffffffffffffffffffffffffffffff0219169083600f0b6fffffffffffffffffffffffffffffffff16021790555060208201518160000160106101000a81548167ffffffffffffffff021916908367ffffffffffffffff16021790555060408201518160000160186101000a81548167ffffffffffffffff021916908367ffffffffffffffff160217905550905050614a69828a8a61406f565b614a75886000806142b2565b50614aff565b600090508267ffffffffffffffff16601360008282540192505081905550600d54871115614af4576040517f08c379a00000000000000000000000000000000000000000000000000000000081526004018080602001828103825260218152602001806159bd6021913960400191505060405180910390fd5b614afe888861529e565b5b84600f600089815260200190815260200160002060006101000a81548167ffffffffffffffff021916908367ffffffffffffffff1602179055507f7bd9b1430089d0bd715a05febc51719eb484ef406b2bfda295a8d072ba65590487828a86604051808581526020018473ffffffffffffffffffffffffffffffffffffffff1681526020018373ffffffffffffffffffffffffffffffffffffffff1681526020018267ffffffffffffffff16815260200194505050505060405180910390a17ff0fbbaedad1d3a6fc7004560ccc28915f597e9ed4ad3d64b7422f7782d8301038785604051808381526020018260ff1681526020019250505060405180910390a17fbf15f22b607cfe044538540b4bac336af1e06c4273837485a3afca870dde70a68786604051808381526020018267ffffffffffffffff1681526020019250505060405180910390a15050505050505050565b600080600080614c668660000186615492565b915091508160001c8160001c9350935050509250929050565b6000614c92846000018460001b8461552b565b60001c90509392505050565b6000614cac82600001615621565b9050919050565b614cbc8361240e565b6000601060008573ffffffffffffffffffffffffffffffffffffffff1673ffffffffffffffffffffffffffffffffffffffff1681526020019081526020016000206040518060600160405290816000820160009054906101000a9004600f0b600f0b600f0b81526020016000820160109054906101000a900467ffffffffffffffff1667ffffffffffffffff1667ffffffffffffffff1681526020016000820160189054906101000a900467ffffffffffffffff1667ffffffffffffffff1667ffffffffffffffff168152505090508267ffffffffffffffff168160000151600f0b1215614df5576040517f08c379a000000000000000000000000000000000000000000000000000000000815260040180806020018281038252602d815260200180615bd4602d913960400191505060405180910390fd5b614e03816000015184613f9d565b8160000190600f0b9081600f0b8152505060008273ffffffffffffffffffffffffffffffffffffffff16633b9aca00850267ffffffffffffffff1660405180600001905060006040518083038185875af1925050503d8060008114614e84576040519150601f19603f3d011682016040523d82523d6000602084013e614e89565b606091505b5050905080614ee3576040517f08c379a00000000000000000000000000000000000000000000000000000000081526004018080602001828103825260228152602001806159636022913960400191505060405180910390fd5b81601060008773ffffffffffffffffffffffffffffffffffffffff1673ffffffffffffffffffffffffffffffffffffffff16815260200190815260200160002060008201518160000160006101000a8154816fffffffffffffffffffffffffffffffff0219169083600f0b6fffffffffffffffffffffffffffffffff16021790555060208201518160000160106101000a81548167ffffffffffffffff021916908367ffffffffffffffff16021790555060408201518160000160186101000a81548167ffffffffffffffff021916908367ffffffffffffffff1602179055509050507fa21bb89a006da511a7928df8d894592371345db69d9cfd390b7ba33d31ff079885858460000151604051808473ffffffffffffffffffffffffffffffffffffffff1681526020018367ffffffffffffffff16815260200182600f0b8152602001935050505060405180910390a15050505050565b60606000821415615083576040518060400160405280600181526020017f3000000000000000000000000000000000000000000000000000000000000000815250905061517d565b600082905060005b600082146150ad578080600101915050600a82816150a557fe5b04915061508b565b60008167ffffffffffffffff811180156150c657600080fd5b506040519080825280601f01601f1916602001820160405280156150f95781602001600182028036833780820191505090505b50905060006001830390508593505b6000841461517557600a848161511a57fe5b0660300160f81b8282806001900393508151811061513457fe5b60200101907effffffffffffffffffffffffffffffffffffffffffffffffffffffffffffff1916908160001a905350600a848161516d57fe5b049350615108565b819450505050505b919050565b6000615194836000018360001b615632565b905092915050565b600081600001805490509050919050565b60008183600001805490501161520e576040517f08c379a00000000000000000000000000000000000000000000000000000000081526004018080602001828103825260228152602001806158ad6022913960400191505060405180910390fd5b82600001828154811061521d57fe5b9060005260206000200154905092915050565b505050565b6000615247836000018360001b615655565b905092915050565b6000615261836000018360001b61573d565b905092915050565b6000615295846000018460001b8473ffffffffffffffffffffffffffffffffffffffff1660001b6157ad565b90509392505050565b600073ffffffffffffffffffffffffffffffffffffffff168273ffffffffffffffffffffffffffffffffffffffff161415615341576040517f08c379a00000000000000000000000000000000000000000000000000000000081526004018080602001828103825260208152602001807f4552433732313a206d696e7420746f20746865207a65726f206164647265737381525060200191505060405180910390fd5b61534a81613c87565b156153bd576040517f08c379a000000000000000000000000000000000000000000000000000000000815260040180806020018281038252601c8152602001807f4552433732313a20746f6b656e20616c7265616479206d696e7465640000000081525060200191505060405180910390fd5b6153c960008383615230565b61541a81600160008573ffffffffffffffffffffffffffffffffffffffff1673ffffffffffffffffffffffffffffffffffffffff16815260200190815260200160002061524f90919063ffffffff16565b50615431818360026152699092919063ffffffff16565b50808273ffffffffffffffffffffffffffffffffffffffff16600073ffffffffffffffffffffffffffffffffffffffff167fddf252ad1be2c89b69c2b068fc378daa952ba7f163c4a11628f55a4df523b3ef60405160405180910390a45050565b600080828460000180549050116154f4576040517f08c379a0000000000000000000000000000000000000000000000000000000008152600401808060200182810382526022815260200180615ab96022913960400191505060405180910390fd5b600084600001848154811061550557fe5b906000526020600020906002020190508060000154816001015492509250509250929050565b600080846001016000858152602001908152602001600020549050600081141583906155f2576040517f08c379a00000000000000000000000000000000000000000000000000000000081526004018080602001828103825283818151815260200191508051906020019080838360005b838110156155b757808201518184015260208101905061559c565b50505050905090810190601f1680156155e45780820380516001836020036101000a031916815260200191505b509250505060405180910390fd5b5084600001600182038154811061560557fe5b9060005260206000209060020201600101549150509392505050565b600081600001805490509050919050565b600080836001016000848152602001908152602001600020541415905092915050565b6000808360010160008481526020019081526020016000205490506000811461573157600060018203905060006001866000018054905003905060008660000182815481106156a057fe5b90600052602060002001549050808760000184815481106156bd57fe5b90600052602060002001819055506001830187600101600083815260200190815260200160002081905550866000018054806156f557fe5b60019003818190600052602060002001600090559055866001016000878152602001908152602001600020600090556001945050505050615737565b60009150505b92915050565b60006157498383615889565b6157a25782600001829080600181540180825580915050600190039060005260206000200160009091909190915055826000018054905083600101600084815260200190815260200160002081905550600190506157a7565b600090505b92915050565b600080846001016000858152602001908152602001600020549050600081141561585457846000016040518060400160405280868152602001858152509080600181540180825580915050600190039060005260206000209060020201600090919091909150600082015181600001556020820151816001015550508460000180549050856001016000868152602001908152602001600020819055506001915050615882565b8285600001600183038154811061586757fe5b90600052602060002090600202016001018190555060009150505b9392505050565b60008083600101600084815260200190815260200160002054141590509291505056fe456e756d657261626c655365743a20696e646578206f7574206f6620626f756e64734f776e61626c653a206e6577206f776e657220697320746865207a65726f2061646472657373477261666669744554483a20706978656c20697320746f6f20657870656e73697665477261666669744554483a206f6e6c79206f776e65722063616e206561726d61726b20706978656c4552433732313a207472616e7366657220746f20746865207a65726f2061646472657373477261666669744554483a2077697468647261772063616c6c2072657665727465644552433732313a20617070726f76652063616c6c6572206973206e6f74206f776e6572206e6f7220617070726f76656420666f7220616c6c477261666669744554483a206d617820706978656c2049442065786365656465644552433732313a2062616c616e636520717565727920666f7220746865207a65726f20616464726573734552433732313a206f776e657220717565727920666f72206e6f6e6578697374656e7420746f6b656e477261666669744554483a20656e642074696d65206d757374206265206c61746572207468616e2073746172742074696d65477261666669744554483a206163636f756e74206e6f7420616c6c6f77656420746f20636c61696d20706978656c477261666669744554483a206e6f7420656e6f75676820746178657320746f207769746864726177456e756d657261626c654d61703a20696e646578206f7574206f6620626f756e64734552433732313a20617070726f76656420717565727920666f72206e6f6e6578697374656e7420746f6b656e477261666669744554483a206f6e6c7920706978656c206f776e65722063616e2073657420636f6c6f724552433732313a207472616e73666572206f6620746f6b656e2074686174206973206e6f74206f776e4552433732314d657461646174613a2055524920717565727920666f72206e6f6e6578697374656e7420746f6b656e477261666669744554483a206f6e6c79206f776e65722063616e2073657420706978656c2070726963654552433732313a20617070726f76616c20746f2063757272656e74206f776e6572477261666669744554483a2063616e6e6f74207769746864726177206d6f7265207468616e2062616c616e6365477261666669744554483a20706978656c2070726963652065786365656473206d6178207072696365477261666669744554483a2063616e6e6f74206561726d61726b20666f72206f776e6572477261666669744554483a206465706f73697420616d6f756e74206d757374206265206d756c7469706c65206f6620312047576569477261666669744554483a2077697468647261772074617865732063616c6c207265766572746564477261666669744554483a2063616e6e6f742062757920706978656c2066726f6d20796f757273656c66a26469706673582212209ca8aac4cfa2860d9c738b9e17bcf014cb84fbd222dfb948db89886a8bc1864864736f6c63430007060033477261666669744554483a207769647468206d757374206e6f74206265207a65726f477261666669744554483a20686569676874206d757374206e6f74206265207a65726f477261666669744554483a2074617820726174652064656e6f6d696e61746f72206d757374206e6f74206265207a65726f",
  "linkReferences": {},
  "deployedLinkReferences": {}
}