{
  "_format": "hh-sol-artifact-1",
  "contractName": "Graffiti",
  "sourceName": "contracts/Graffiti.sol",
  "abi": [
    {
      "inputs": [
        {
          "internalType": "uint128",
          "name": "width",
          "type": "uint128"
        },
        {
          "internalType": "uint128",
          "name": "height",
          "type": "uint128"
        }
      ],
      "stateMutability": "nonpayable",
      "type": "constructor"
    },
    {
      "anonymous": false,
      "inputs": [
        {
          "indexed": true,
          "internalType": "address",
          "name": "owner",
          "type": "address"
        },
        {
          "indexed": true,
          "internalType": "address",
          "name": "approved",
          "type": "address"
        },
        {
          "indexed": true,
          "internalType": "uint256",
          "name": "tokenId",
          "type": "uint256"
        }
      ],
      "name": "Approval",
      "type": "event"
    },
    {
      "anonymous": false,
      "inputs": [
        {
          "indexed": true,
          "internalType": "address",
          "name": "owner",
          "type": "address"
        },
        {
          "indexed": true,
          "internalType": "address",
          "name": "operator",
          "type": "address"
        },
        {
          "indexed": false,
          "internalType": "bool",
          "name": "approved",
          "type": "bool"
        }
      ],
      "name": "ApprovalForAll",
      "type": "event"
    },
    {
      "anonymous": false,
      "inputs": [
        {
          "indexed": false,
          "internalType": "uint256",
          "name": "pixelID",
          "type": "uint256"
        },
        {
          "indexed": false,
          "internalType": "address",
          "name": "seller",
          "type": "address"
        },
        {
          "indexed": false,
          "internalType": "address",
          "name": "buyer",
          "type": "address"
        },
        {
          "indexed": false,
          "internalType": "uint64",
          "name": "price",
          "type": "uint64"
        }
      ],
      "name": "Buy",
      "type": "event"
    },
    {
      "anonymous": false,
      "inputs": [
        {
          "indexed": false,
          "internalType": "uint256",
          "name": "pixelID",
          "type": "uint256"
        },
        {
          "indexed": false,
          "internalType": "uint8",
          "name": "color",
          "type": "uint8"
        }
      ],
      "name": "ColorChange",
      "type": "event"
    },
    {
      "anonymous": false,
      "inputs": [
        {
          "indexed": false,
          "internalType": "address",
          "name": "account",
          "type": "address"
        },
        {
          "indexed": false,
          "internalType": "uint64",
          "name": "amount",
          "type": "uint64"
        },
        {
          "indexed": false,
          "internalType": "int128",
          "name": "balance",
          "type": "int128"
        }
      ],
      "name": "Deposit",
      "type": "event"
    },
    {
      "anonymous": false,
      "inputs": [
        {
          "indexed": false,
          "internalType": "uint256",
          "name": "pixelID",
          "type": "uint256"
        },
        {
          "indexed": false,
          "internalType": "address",
          "name": "receiver",
          "type": "address"
        },
        {
          "indexed": false,
          "internalType": "uint64",
          "name": "amount",
          "type": "uint64"
        }
      ],
      "name": "EarmarkUpdate",
      "type": "event"
    },
    {
      "anonymous": false,
      "inputs": [
        {
          "indexed": true,
          "internalType": "address",
          "name": "previousOwner",
          "type": "address"
        },
        {
          "indexed": true,
          "internalType": "address",
          "name": "newOwner",
          "type": "address"
        }
      ],
      "name": "OwnershipTransferred",
      "type": "event"
    },
    {
      "anonymous": false,
      "inputs": [
        {
          "indexed": false,
          "internalType": "uint256",
          "name": "pixelID",
          "type": "uint256"
        },
        {
          "indexed": false,
          "internalType": "uint64",
          "name": "amount",
          "type": "uint64"
        }
      ],
      "name": "PixelClaim",
      "type": "event"
    },
    {
      "anonymous": false,
      "inputs": [
        {
          "indexed": false,
          "internalType": "uint256",
          "name": "pixelID",
          "type": "uint256"
        },
        {
          "indexed": false,
          "internalType": "uint64",
          "name": "price",
          "type": "uint64"
        }
      ],
      "name": "PriceChange",
      "type": "event"
    },
    {
      "anonymous": false,
      "inputs": [
        {
          "indexed": false,
          "internalType": "uint256",
          "name": "amount",
          "type": "uint256"
        },
        {
          "indexed": false,
          "internalType": "address",
          "name": "receiver",
          "type": "address"
        }
      ],
      "name": "TaxWithdraw",
      "type": "event"
    },
    {
      "anonymous": false,
      "inputs": [
        {
          "indexed": true,
          "internalType": "address",
          "name": "from",
          "type": "address"
        },
        {
          "indexed": true,
          "internalType": "address",
          "name": "to",
          "type": "address"
        },
        {
          "indexed": true,
          "internalType": "uint256",
          "name": "tokenId",
          "type": "uint256"
        }
      ],
      "name": "Transfer",
      "type": "event"
    },
    {
      "anonymous": false,
      "inputs": [
        {
          "indexed": false,
          "internalType": "address",
          "name": "account",
          "type": "address"
        },
        {
          "indexed": false,
          "internalType": "uint64",
          "name": "amount",
          "type": "uint64"
        },
        {
          "indexed": false,
          "internalType": "int128",
          "name": "balance",
          "type": "int128"
        }
      ],
      "name": "Withdraw",
      "type": "event"
    },
    {
      "inputs": [
        {
          "internalType": "address",
          "name": "to",
          "type": "address"
        },
        {
          "internalType": "uint256",
          "name": "tokenId",
          "type": "uint256"
        }
      ],
      "name": "approve",
      "outputs": [],
      "stateMutability": "nonpayable",
      "type": "function"
    },
    {
      "inputs": [
        {
          "internalType": "address",
          "name": "owner",
          "type": "address"
        }
      ],
      "name": "balanceOf",
      "outputs": [
        {
          "internalType": "uint256",
          "name": "",
          "type": "uint256"
        }
      ],
      "stateMutability": "view",
      "type": "function"
    },
    {
      "inputs": [],
      "name": "baseURI",
      "outputs": [
        {
          "internalType": "string",
          "name": "",
          "type": "string"
        }
      ],
      "stateMutability": "view",
      "type": "function"
    },
    {
      "inputs": [
        {
          "internalType": "uint256",
          "name": "pixelID",
          "type": "uint256"
        },
        {
          "internalType": "uint64",
          "name": "maxPrice",
          "type": "uint64"
        },
        {
          "internalType": "uint64",
          "name": "newPrice",
          "type": "uint64"
        },
        {
          "internalType": "uint8",
          "name": "color",
          "type": "uint8"
        }
      ],
      "name": "buy",
      "outputs": [],
      "stateMutability": "nonpayable",
      "type": "function"
    },
    {
      "inputs": [
        {
          "internalType": "uint256",
          "name": "pixelID",
          "type": "uint256"
        },
        {
          "internalType": "uint64",
          "name": "maxPrice",
          "type": "uint64"
        },
        {
          "internalType": "uint64",
          "name": "minAmount",
          "type": "uint64"
        }
      ],
      "name": "claim",
      "outputs": [],
      "stateMutability": "nonpayable",
      "type": "function"
    },
    {
      "inputs": [],
      "name": "deposit",
      "outputs": [],
      "stateMutability": "payable",
      "type": "function"
    },
    {
      "inputs": [
        {
          "internalType": "uint256",
          "name": "pixelID",
          "type": "uint256"
        },
        {
          "internalType": "uint64",
          "name": "maxPrice",
          "type": "uint64"
        },
        {
          "internalType": "uint64",
          "name": "newPrice",
          "type": "uint64"
        },
        {
          "internalType": "uint8",
          "name": "color",
          "type": "uint8"
        }
      ],
      "name": "depositAndBuy",
      "outputs": [],
      "stateMutability": "payable",
      "type": "function"
    },
    {
      "inputs": [
        {
          "internalType": "address",
          "name": "account",
          "type": "address"
        }
      ],
      "name": "depositFor",
      "outputs": [],
      "stateMutability": "payable",
      "type": "function"
    },
    {
      "inputs": [
        {
          "internalType": "uint256",
          "name": "pixelID",
          "type": "uint256"
        },
        {
          "internalType": "address",
          "name": "receiver",
          "type": "address"
        },
        {
          "internalType": "uint64",
          "name": "amount",
          "type": "uint64"
        }
      ],
      "name": "earmark",
      "outputs": [],
      "stateMutability": "nonpayable",
      "type": "function"
    },
    {
      "inputs": [
        {
          "internalType": "uint256",
          "name": "pixelID",
          "type": "uint256"
        }
      ],
      "name": "exists",
      "outputs": [
        {
          "internalType": "bool",
          "name": "",
          "type": "bool"
        }
      ],
      "stateMutability": "view",
      "type": "function"
    },
    {
      "inputs": [
        {
          "internalType": "uint256",
          "name": "tokenId",
          "type": "uint256"
        }
      ],
      "name": "getApproved",
      "outputs": [
        {
          "internalType": "address",
          "name": "",
          "type": "address"
        }
      ],
      "stateMutability": "view",
      "type": "function"
    },
    {
      "inputs": [
        {
          "internalType": "address",
          "name": "account",
          "type": "address"
        }
      ],
      "name": "getBalance",
      "outputs": [
        {
          "internalType": "int128",
          "name": "",
          "type": "int128"
        }
      ],
      "stateMutability": "view",
      "type": "function"
    },
    {
      "inputs": [
        {
          "internalType": "uint256",
          "name": "pixelID",
          "type": "uint256"
        }
      ],
      "name": "getEarmarkAmount",
      "outputs": [
        {
          "internalType": "uint64",
          "name": "",
          "type": "uint64"
        }
      ],
      "stateMutability": "view",
      "type": "function"
    },
    {
      "inputs": [
        {
          "internalType": "uint256",
          "name": "pixelID",
          "type": "uint256"
        }
      ],
      "name": "getEarmarkReceiver",
      "outputs": [
        {
          "internalType": "address",
          "name": "",
          "type": "address"
        }
      ],
      "stateMutability": "view",
      "type": "function"
    },
    {
      "inputs": [
        {
          "internalType": "address",
          "name": "account",
          "type": "address"
        }
      ],
      "name": "getLastTaxPayment",
      "outputs": [
        {
          "internalType": "uint64",
          "name": "",
          "type": "uint64"
        }
      ],
      "stateMutability": "view",
      "type": "function"
    },
    {
      "inputs": [],
      "name": "getMaxPixelID",
      "outputs": [
        {
          "internalType": "uint256",
          "name": "",
          "type": "uint256"
        }
      ],
      "stateMutability": "view",
      "type": "function"
    },
    {
      "inputs": [
        {
          "internalType": "uint256",
          "name": "pixelID",
          "type": "uint256"
        }
      ],
      "name": "getPrice",
      "outputs": [
        {
          "internalType": "uint64",
          "name": "",
          "type": "uint64"
        }
      ],
      "stateMutability": "view",
      "type": "function"
    },
    {
      "inputs": [
        {
          "internalType": "address",
          "name": "account",
          "type": "address"
        }
      ],
      "name": "getTaxBase",
      "outputs": [
        {
          "internalType": "uint64",
          "name": "",
          "type": "uint64"
        }
      ],
      "stateMutability": "view",
      "type": "function"
    },
    {
      "inputs": [],
      "name": "getTotalTaxesPayed",
      "outputs": [
        {
          "internalType": "uint256",
          "name": "",
          "type": "uint256"
        }
      ],
      "stateMutability": "view",
      "type": "function"
    },
    {
      "inputs": [
        {
          "internalType": "address",
          "name": "account",
          "type": "address"
        }
      ],
      "name": "getTotalTaxesPayedBy",
      "outputs": [
        {
          "internalType": "uint256",
          "name": "",
          "type": "uint256"
        }
      ],
      "stateMutability": "view",
      "type": "function"
    },
    {
      "inputs": [],
      "name": "getTotalTaxesWithdrawn",
      "outputs": [
        {
          "internalType": "uint256",
          "name": "",
          "type": "uint256"
        }
      ],
      "stateMutability": "view",
      "type": "function"
    },
    {
      "inputs": [
        {
          "internalType": "address",
          "name": "owner",
          "type": "address"
        },
        {
          "internalType": "address",
          "name": "operator",
          "type": "address"
        }
      ],
      "name": "isApprovedForAll",
      "outputs": [
        {
          "internalType": "bool",
          "name": "",
          "type": "bool"
        }
      ],
      "stateMutability": "view",
      "type": "function"
    },
    {
      "inputs": [],
      "name": "name",
      "outputs": [
        {
          "internalType": "string",
          "name": "",
          "type": "string"
        }
      ],
      "stateMutability": "view",
      "type": "function"
    },
    {
      "inputs": [],
      "name": "owner",
      "outputs": [
        {
          "internalType": "address",
          "name": "",
          "type": "address"
        }
      ],
      "stateMutability": "view",
      "type": "function"
    },
    {
      "inputs": [
        {
          "internalType": "uint256",
          "name": "tokenId",
          "type": "uint256"
        }
      ],
      "name": "ownerOf",
      "outputs": [
        {
          "internalType": "address",
          "name": "",
          "type": "address"
        }
      ],
      "stateMutability": "view",
      "type": "function"
    },
    {
      "inputs": [
        {
          "internalType": "address",
          "name": "account",
          "type": "address"
        }
      ],
      "name": "payTax",
      "outputs": [],
      "stateMutability": "nonpayable",
      "type": "function"
    },
    {
      "inputs": [],
      "name": "renounceOwnership",
      "outputs": [],
      "stateMutability": "nonpayable",
      "type": "function"
    },
    {
      "inputs": [
        {
          "internalType": "address",
          "name": "",
          "type": "address"
        },
        {
          "internalType": "address",
          "name": "",
          "type": "address"
        },
        {
          "internalType": "uint256",
          "name": "",
          "type": "uint256"
        }
      ],
      "name": "safeTransferFrom",
      "outputs": [],
      "stateMutability": "nonpayable",
      "type": "function"
    },
    {
      "inputs": [
        {
          "internalType": "address",
          "name": "",
          "type": "address"
        },
        {
          "internalType": "address",
          "name": "",
          "type": "address"
        },
        {
          "internalType": "uint256",
          "name": "",
          "type": "uint256"
        },
        {
          "internalType": "bytes",
          "name": "",
          "type": "bytes"
        }
      ],
      "name": "safeTransferFrom",
      "outputs": [],
      "stateMutability": "nonpayable",
      "type": "function"
    },
    {
      "inputs": [
        {
          "internalType": "address",
          "name": "operator",
          "type": "address"
        },
        {
          "internalType": "bool",
          "name": "approved",
          "type": "bool"
        }
      ],
      "name": "setApprovalForAll",
      "outputs": [],
      "stateMutability": "nonpayable",
      "type": "function"
    },
    {
      "inputs": [
        {
          "internalType": "uint256",
          "name": "pixelID",
          "type": "uint256"
        },
        {
          "internalType": "uint8",
          "name": "color",
          "type": "uint8"
        }
      ],
      "name": "setColor",
      "outputs": [],
      "stateMutability": "nonpayable",
      "type": "function"
    },
    {
      "inputs": [
        {
          "internalType": "uint256",
          "name": "pixelID",
          "type": "uint256"
        },
        {
          "internalType": "uint64",
          "name": "newPrice",
          "type": "uint64"
        }
      ],
      "name": "setPrice",
      "outputs": [],
      "stateMutability": "nonpayable",
      "type": "function"
    },
    {
      "inputs": [
        {
          "internalType": "bytes4",
          "name": "interfaceId",
          "type": "bytes4"
        }
      ],
      "name": "supportsInterface",
      "outputs": [
        {
          "internalType": "bool",
          "name": "",
          "type": "bool"
        }
      ],
      "stateMutability": "view",
      "type": "function"
    },
    {
      "inputs": [],
      "name": "symbol",
      "outputs": [
        {
          "internalType": "string",
          "name": "",
          "type": "string"
        }
      ],
      "stateMutability": "view",
      "type": "function"
    },
    {
      "inputs": [
        {
          "internalType": "uint256",
          "name": "index",
          "type": "uint256"
        }
      ],
      "name": "tokenByIndex",
      "outputs": [
        {
          "internalType": "uint256",
          "name": "",
          "type": "uint256"
        }
      ],
      "stateMutability": "view",
      "type": "function"
    },
    {
      "inputs": [
        {
          "internalType": "address",
          "name": "owner",
          "type": "address"
        },
        {
          "internalType": "uint256",
          "name": "index",
          "type": "uint256"
        }
      ],
      "name": "tokenOfOwnerByIndex",
      "outputs": [
        {
          "internalType": "uint256",
          "name": "",
          "type": "uint256"
        }
      ],
      "stateMutability": "view",
      "type": "function"
    },
    {
      "inputs": [
        {
          "internalType": "uint256",
          "name": "tokenId",
          "type": "uint256"
        }
      ],
      "name": "tokenURI",
      "outputs": [
        {
          "internalType": "string",
          "name": "",
          "type": "string"
        }
      ],
      "stateMutability": "view",
      "type": "function"
    },
    {
      "inputs": [],
      "name": "totalSupply",
      "outputs": [
        {
          "internalType": "uint256",
          "name": "",
          "type": "uint256"
        }
      ],
      "stateMutability": "view",
      "type": "function"
    },
    {
      "inputs": [
        {
          "internalType": "address",
          "name": "",
          "type": "address"
        },
        {
          "internalType": "address",
          "name": "",
          "type": "address"
        },
        {
          "internalType": "uint256",
          "name": "",
          "type": "uint256"
        }
      ],
      "name": "transferFrom",
      "outputs": [],
      "stateMutability": "nonpayable",
      "type": "function"
    },
    {
      "inputs": [
        {
          "internalType": "address",
          "name": "newOwner",
          "type": "address"
        }
      ],
      "name": "transferOwnership",
      "outputs": [],
      "stateMutability": "nonpayable",
      "type": "function"
    },
    {
      "inputs": [
        {
          "internalType": "uint64",
          "name": "amount",
          "type": "uint64"
        }
      ],
      "name": "withdraw",
      "outputs": [],
      "stateMutability": "nonpayable",
      "type": "function"
    },
    {
      "inputs": [],
      "name": "withdrawAllTaxes",
      "outputs": [],
      "stateMutability": "nonpayable",
      "type": "function"
    },
    {
      "inputs": [
        {
          "internalType": "uint256",
          "name": "amount",
          "type": "uint256"
        }
      ],
      "name": "withdrawTaxes",
      "outputs": [],
      "stateMutability": "nonpayable",
      "type": "function"
    },
    {
      "inputs": [
        {
          "internalType": "uint256",
          "name": "amount",
          "type": "uint256"
        },
        {
          "internalType": "address",
          "name": "receiver",
          "type": "address"
        }
      ],
      "name": "withdrawTaxesTo",
      "outputs": [],
      "stateMutability": "nonpayable",
      "type": "function"
    },
    {
      "inputs": [
        {
          "internalType": "uint64",
          "name": "amount",
          "type": "uint64"
        },
        {
          "internalType": "address",
          "name": "receiver",
          "type": "address"
        }
      ],
      "name": "withdrawTo",
      "outputs": [],
      "stateMutability": "nonpayable",
      "type": "function"
    }
  ],
  "bytecode": "0x60806040523480156200001157600080fd5b506040516200612b3803806200612b833981810160405260408110156200003757600080fd5b8101908080519060200190929190805190602001909291905050506040518060400160405280600581526020017f506978656c0000000000000000000000000000000000000000000000000000008152506040518060400160405280600381526020017f5049580000000000000000000000000000000000000000000000000000000000815250620000d66301ffc9a760e01b6200031f60201b60201c565b8160069080519060200190620000ee92919062000430565b5080600790805190602001906200010792919062000430565b50620001206380ac58cd60e01b6200031f60201b60201c565b62000138635b5e139f60e01b6200031f60201b60201c565b6200015063780e9d6360e01b6200031f60201b60201c565b50506000620001646200042860201b60201c565b905080600a60006101000a81548173ffffffffffffffffffffffffffffffffffffffff021916908373ffffffffffffffffffffffffffffffffffffffff1602179055508073ffffffffffffffffffffffffffffffffffffffff16600073ffffffffffffffffffffffffffffffffffffffff167f8be0079c531659141344cd1fd0a4f28419497f9722a3daafe3b4186f6b6457e060405160405180910390a3506000826fffffffffffffffffffffffffffffffff16116200028c576040517f08c379a00000000000000000000000000000000000000000000000000000000081526004018080602001828103825260208152602001807f47726166666974693a207769647468206d757374206e6f74206265207a65726f81525060200191505060405180910390fd5b6000816fffffffffffffffffffffffffffffffff1611620002f9576040517f08c379a00000000000000000000000000000000000000000000000000000000081526004018080602001828103825260218152602001806200610a6021913960400191505060405180910390fd5b6001818302036fffffffffffffffffffffffffffffffff16600b819055505050620004e6565b63ffffffff60e01b817bffffffffffffffffffffffffffffffffffffffffffffffffffffffff19161415620003bc576040517f08c379a000000000000000000000000000000000000000000000000000000000815260040180806020018281038252601c8152602001807f4552433136353a20696e76616c696420696e746572666163652069640000000081525060200191505060405180910390fd5b6001600080837bffffffffffffffffffffffffffffffffffffffffffffffffffffffff19167bffffffffffffffffffffffffffffffffffffffffffffffffffffffff1916815260200190815260200160002060006101000a81548160ff02191690831515021790555050565b600033905090565b828054600181600116156101000203166002900490600052602060002090601f016020900481019282620004685760008555620004b4565b82601f106200048357805160ff1916838001178555620004b4565b82800160010185558215620004b4579182015b82811115620004b357825182559160200191906001019062000496565b5b509050620004c39190620004c7565b5090565b5b80821115620004e2576000816000905550600101620004c8565b5090565b615c1480620004f66000396000f3fe6080604052600436106102725760003560e01c806370a082311161014f578063bfbc631b116100c1578063e75722301161007a578063e75722301461113e578063e985e9c514611197578063edb5f1991461121e578063f2fde38b14611249578063f8b2cb4f1461129a578063f8be76321461130257610272565b8063bfbc631b14610f1e578063c87b56dd14610f81578063cc1c332614611035578063cfaca2d0146110a4578063d0e30db014611109578063e6f452eb1461111357610272565b8063964e081111610113578063964e081114610c82578063a09c372914610ce7578063a22cb46514610d40578063aa67c91914610d9d578063b10a7cce14610de1578063b88d4fde14610e0c57610272565b806370a0823114610af0578063715018a614610b55578063750f0acc14610b6c5780638da5cb5b14610bb157806395d89b4114610bf257610272565b806342842e0e116101e85780634f558e79116101ac5780634f558e79146108a45780634f6ccce7146108f55780636352211e1461094457806363ff1368146109a957806369476fe4146109f15780636c0360eb14610a6057610272565b806342842e0e146106aa57806347e4d132146107255780634c192be4146107885780634c63d602146107e35780634d68b93a1461083457610272565b806318160ddd1161023a57806318160ddd146104a65780631d23984a146104d157806323b872dd146105365780632ba27019146105b15780632f745c59146106005780633bfaa4ee1461066f57610272565b806301ffc9a71461027757806306fdde03146102e7578063081812fc14610377578063095ea7b3146103dc5780630bdfc9e114610437575b600080fd5b34801561028357600080fd5b506102cf6004803603602081101561029a57600080fd5b8101908080357bffffffffffffffffffffffffffffffffffffffffffffffffffffffff19169060200190929190505050611319565b60405180821515815260200191505060405180910390f35b3480156102f357600080fd5b506102fc611380565b6040518080602001828103825283818151815260200191508051906020019080838360005b8381101561033c578082015181840152602081019050610321565b50505050905090810190601f1680156103695780820380516001836020036101000a031916815260200191505b509250505060405180910390f35b34801561038357600080fd5b506103b06004803603602081101561039a57600080fd5b8101908080359060200190929190505050611422565b604051808273ffffffffffffffffffffffffffffffffffffffff16815260200191505060405180910390f35b3480156103e857600080fd5b50610435600480360360408110156103ff57600080fd5b81019080803573ffffffffffffffffffffffffffffffffffffffff169060200190929190803590602001909291905050506114bd565b005b34801561044357600080fd5b506104866004803603602081101561045a57600080fd5b81019080803573ffffffffffffffffffffffffffffffffffffffff169060200190929190505050611601565b604051808267ffffffffffffffff16815260200191505060405180910390f35b3480156104b257600080fd5b506104bb611661565b6040518082815260200191505060405180910390f35b3480156104dd57600080fd5b50610520600480360360208110156104f457600080fd5b81019080803573ffffffffffffffffffffffffffffffffffffffff169060200190929190505050611672565b6040518082815260200191505060405180910390f35b34801561054257600080fd5b506105af6004803603606081101561055957600080fd5b81019080803573ffffffffffffffffffffffffffffffffffffffff169060200190929190803573ffffffffffffffffffffffffffffffffffffffff169060200190929190803590602001909291905050506116bb565b005b3480156105bd57600080fd5b506105fe600480360360408110156105d457600080fd5b8101908080359060200190929190803567ffffffffffffffff1690602001909291905050506116c8565b005b34801561060c57600080fd5b506106596004803603604081101561062357600080fd5b81019080803573ffffffffffffffffffffffffffffffffffffffff16906020019092919080359060200190929190505050611a30565b6040518082815260200191505060405180910390f35b34801561067b57600080fd5b506106a86004803603602081101561069257600080fd5b8101908080359060200190929190505050611a8b565b005b3480156106b657600080fd5b50610723600480360360608110156106cd57600080fd5b81019080803573ffffffffffffffffffffffffffffffffffffffff169060200190929190803573ffffffffffffffffffffffffffffffffffffffff16906020019092919080359060200190929190505050611b47565b005b34801561073157600080fd5b506107866004803603606081101561074857600080fd5b8101908080359060200190929190803567ffffffffffffffff169060200190929190803567ffffffffffffffff169060200190929190505050611b54565b005b34801561079457600080fd5b506107e1600480360360408110156107ab57600080fd5b8101908080359060200190929190803573ffffffffffffffffffffffffffffffffffffffff169060200190929190505050612312565b005b3480156107ef57600080fd5b506108326004803603602081101561080657600080fd5b81019080803573ffffffffffffffffffffffffffffffffffffffff1690602001909291905050506123cf565b005b34801561084057600080fd5b506108a26004803603608081101561085757600080fd5b8101908080359060200190929190803567ffffffffffffffff169060200190929190803567ffffffffffffffff169060200190929190803560ff1690602001909291905050506126be565b005b3480156108b057600080fd5b506108dd600480360360208110156108c757600080fd5b81019080803590602001909291905050506126d1565b60405180821515815260200191505060405180910390f35b34801561090157600080fd5b5061092e6004803603602081101561091857600080fd5b81019080803590602001909291905050506126e3565b6040518082815260200191505060405180910390f35b34801561095057600080fd5b5061097d6004803603602081101561096757600080fd5b8101908080359060200190929190505050612706565b604051808273ffffffffffffffffffffffffffffffffffffffff16815260200191505060405180910390f35b3480156109b557600080fd5b506109ef600480360360408110156109cc57600080fd5b8101908080359060200190929190803560ff16906020019092919050505061273d565b005b3480156109fd57600080fd5b50610a4060048036036020811015610a1457600080fd5b81019080803573ffffffffffffffffffffffffffffffffffffffff169060200190929190505050612890565b604051808267ffffffffffffffff16815260200191505060405180910390f35b348015610a6c57600080fd5b50610a756128f0565b6040518080602001828103825283818151815260200191508051906020019080838360005b83811015610ab5578082015181840152602081019050610a9a565b50505050905090810190601f168015610ae25780820380516001836020036101000a031916815260200191505b509250505060405180910390f35b348015610afc57600080fd5b50610b3f60048036036020811015610b1357600080fd5b81019080803573ffffffffffffffffffffffffffffffffffffffff169060200190929190505050612992565b6040518082815260200191505060405180910390f35b348015610b6157600080fd5b50610b6a612a67565b005b348015610b7857600080fd5b50610baf60048036036020811015610b8f57600080fd5b81019080803567ffffffffffffffff169060200190929190505050612bd7565b005b348015610bbd57600080fd5b50610bc6612be5565b604051808273ffffffffffffffffffffffffffffffffffffffff16815260200191505060405180910390f35b348015610bfe57600080fd5b50610c07612c0f565b6040518080602001828103825283818151815260200191508051906020019080838360005b83811015610c47578082015181840152602081019050610c2c565b50505050905090810190601f168015610c745780820380516001836020036101000a031916815260200191505b509250505060405180910390f35b348015610c8e57600080fd5b50610ce560048036036040811015610ca557600080fd5b81019080803567ffffffffffffffff169060200190929190803573ffffffffffffffffffffffffffffffffffffffff169060200190929190505050612cb1565b005b348015610cf357600080fd5b50610d2060048036036020811015610d0a57600080fd5b8101908080359060200190929190505050612cc0565b604051808267ffffffffffffffff16815260200191505060405180910390f35b348015610d4c57600080fd5b50610d9b60048036036040811015610d6357600080fd5b81019080803573ffffffffffffffffffffffffffffffffffffffff169060200190929190803515159060200190929190505050612cf4565b005b610ddf60048036036020811015610db357600080fd5b81019080803573ffffffffffffffffffffffffffffffffffffffff169060200190929190505050612eaa565b005b348015610ded57600080fd5b50610df6613222565b6040518082815260200191505060405180910390f35b348015610e1857600080fd5b50610f1c60048036036080811015610e2f57600080fd5b81019080803573ffffffffffffffffffffffffffffffffffffffff169060200190929190803573ffffffffffffffffffffffffffffffffffffffff1690602001909291908035906020019092919080359060200190640100000000811115610e9657600080fd5b820183602082011115610ea857600080fd5b80359060200191846001830284011164010000000083111715610eca57600080fd5b91908080601f016020809104026020016040519081016040528093929190818152602001838380828437600081840152601f19601f82011690508083019250505050505050919291929050505061322c565b005b610f7f60048036036080811015610f3457600080fd5b8101908080359060200190929190803567ffffffffffffffff169060200190929190803567ffffffffffffffff169060200190929190803560ff16906020019092919050505061323a565b005b348015610f8d57600080fd5b50610fba60048036036020811015610fa457600080fd5b8101908080359060200190929190505050613256565b6040518080602001828103825283818151815260200191508051906020019080838360005b83811015610ffa578082015181840152602081019050610fdf565b50505050905090810190601f1680156110275780820380516001836020036101000a031916815260200191505b509250505060405180910390f35b34801561104157600080fd5b506110a26004803603606081101561105857600080fd5b8101908080359060200190929190803573ffffffffffffffffffffffffffffffffffffffff169060200190929190803567ffffffffffffffff169060200190929190505050613527565b005b3480156110b057600080fd5b506110dd600480360360208110156110c757600080fd5b81019080803590602001909291905050506136c9565b604051808273ffffffffffffffffffffffffffffffffffffffff16815260200191505060405180910390f35b611111613709565b005b34801561111f57600080fd5b50611128613714565b6040518082815260200191505060405180910390f35b34801561114a57600080fd5b506111776004803603602081101561116157600080fd5b810190808035906020019092919050505061371e565b604051808267ffffffffffffffff16815260200191505060405180910390f35b3480156111a357600080fd5b50611206600480360360408110156111ba57600080fd5b81019080803573ffffffffffffffffffffffffffffffffffffffff169060200190929190803573ffffffffffffffffffffffffffffffffffffffff169060200190929190505050613791565b60405180821515815260200191505060405180910390f35b34801561122a57600080fd5b50611233613825565b6040518082815260200191505060405180910390f35b34801561125557600080fd5b506112986004803603602081101561126c57600080fd5b81019080803573ffffffffffffffffffffffffffffffffffffffff16906020019092919050505061382f565b005b3480156112a657600080fd5b506112e9600480360360208110156112bd57600080fd5b81019080803573ffffffffffffffffffffffffffffffffffffffff169060200190929190505050613a24565b6040518082600f0b815260200191505060405180910390f35b34801561130e57600080fd5b50611317613b22565b005b6000806000837bffffffffffffffffffffffffffffffffffffffffffffffffffffffff19167bffffffffffffffffffffffffffffffffffffffffffffffffffffffff1916815260200190815260200160002060009054906101000a900460ff169050919050565b606060068054600181600116156101000203166002900480601f0160208091040260200160405190810160405280929190818152602001828054600181600116156101000203166002900480156114185780601f106113ed57610100808354040283529160200191611418565b820191906000526020600020905b8154815290600101906020018083116113fb57829003601f168201915b5050505050905090565b600061142d82613be3565b611482576040517f08c379a000000000000000000000000000000000000000000000000000000000815260040180806020018281038252602c815260200180615a90602c913960400191505060405180910390fd5b6004600083815260200190815260200160002060009054906101000a900473ffffffffffffffffffffffffffffffffffffffff169050919050565b60006114c882612706565b90508073ffffffffffffffffffffffffffffffffffffffff168373ffffffffffffffffffffffffffffffffffffffff16141561154f576040517f08c379a0000000000000000000000000000000000000000000000000000000008152600401808060200182810382526021815260200180615b146021913960400191505060405180910390fd5b8073ffffffffffffffffffffffffffffffffffffffff1661156e613c00565b73ffffffffffffffffffffffffffffffffffffffff16148061159d575061159c81611597613c00565b613791565b5b6115f2576040517f08c379a000000000000000000000000000000000000000000000000000000000815260040180806020018281038252603881526020018061596b6038913960400191505060405180910390fd5b6115fc8383613c08565b505050565b6000600d60008373ffffffffffffffffffffffffffffffffffffffff1673ffffffffffffffffffffffffffffffffffffffff16815260200190815260200160002060000160189054906101000a900467ffffffffffffffff169050919050565b600061166d6002613cc1565b905090565b6000600f60008373ffffffffffffffffffffffffffffffffffffffff1673ffffffffffffffffffffffffffffffffffffffff168152602001908152602001600020549050919050565b60006116c357fe5b505050565b6116d182613be3565b6116da57600080fd5b60006116e583612706565b90508073ffffffffffffffffffffffffffffffffffffffff163373ffffffffffffffffffffffffffffffffffffffff161461176b576040517f08c379a0000000000000000000000000000000000000000000000000000000008152600401808060200182810382526028815260200180615b356028913960400191505060405180910390fd5b611774336123cf565b6000600d60003373ffffffffffffffffffffffffffffffffffffffff1673ffffffffffffffffffffffffffffffffffffffff1681526020019081526020016000206040518060600160405290816000820160009054906101000a9004600f0b600f0b600f0b81526020016000820160109054906101000a900467ffffffffffffffff1667ffffffffffffffff1667ffffffffffffffff1681526020016000820160189054906101000a900467ffffffffffffffff1667ffffffffffffffff1667ffffffffffffffff168152505090506118788160200151600c600087815260200190815260200160002060009054906101000a900467ffffffffffffffff16613cd6565b816020019067ffffffffffffffff16908167ffffffffffffffff16815250506118a5816020015184613d08565b816020019067ffffffffffffffff16908167ffffffffffffffff168152505082600c600086815260200190815260200160002060006101000a81548167ffffffffffffffff021916908367ffffffffffffffff16021790555080600d60003373ffffffffffffffffffffffffffffffffffffffff1673ffffffffffffffffffffffffffffffffffffffff16815260200190815260200160002060008201518160000160006101000a8154816fffffffffffffffffffffffffffffffff0219169083600f0b6fffffffffffffffffffffffffffffffff16021790555060208201518160000160106101000a81548167ffffffffffffffff021916908367ffffffffffffffff16021790555060408201518160000160186101000a81548167ffffffffffffffff021916908367ffffffffffffffff1602179055509050507fbf15f22b607cfe044538540b4bac336af1e06c4273837485a3afca870dde70a68484604051808381526020018267ffffffffffffffff1681526020019250505060405180910390a150505050565b6000611a8382600160008673ffffffffffffffffffffffffffffffffffffffff1673ffffffffffffffffffffffffffffffffffffffff168152602001908152602001600020613d4b90919063ffffffff16565b905092915050565b611a93613c00565b73ffffffffffffffffffffffffffffffffffffffff16611ab1612be5565b73ffffffffffffffffffffffffffffffffffffffff1614611b3a576040517f08c379a00000000000000000000000000000000000000000000000000000000081526004018080602001828103825260208152602001807f4f776e61626c653a2063616c6c6572206973206e6f7420746865206f776e657281525060200191505060405180910390fd5b611b448133613d65565b50565b6000611b4f57fe5b505050565b611b5d83613be3565b611bcf576040517f08c379a000000000000000000000000000000000000000000000000000000000815260040180806020018281038252601e8152602001807f47726166666974693a20706978656c20646f6573206e6f74206578697374000081525060200191505060405180910390fd5b6000611bda84612706565b90506000600e60008681526020019081526020016000206040518060400160405290816000820160009054906101000a900473ffffffffffffffffffffffffffffffffffffffff1673ffffffffffffffffffffffffffffffffffffffff1673ffffffffffffffffffffffffffffffffffffffff1681526020016000820160149054906101000a900467ffffffffffffffff1667ffffffffffffffff1667ffffffffffffffff16815250509050806000015173ffffffffffffffffffffffffffffffffffffffff163373ffffffffffffffffffffffffffffffffffffffff1614611d0e576040517f08c379a000000000000000000000000000000000000000000000000000000000815260040180806020018281038252602c815260200180615bb3602c913960400191505060405180910390fd5b611d17826123cf565b611d20336123cf565b6000600d60008473ffffffffffffffffffffffffffffffffffffffff1673ffffffffffffffffffffffffffffffffffffffff1681526020019081526020016000206040518060600160405290816000820160009054906101000a9004600f0b600f0b600f0b81526020016000820160109054906101000a900467ffffffffffffffff1667ffffffffffffffff1667ffffffffffffffff1681526020016000820160189054906101000a900467ffffffffffffffff1667ffffffffffffffff1667ffffffffffffffff168152505090506000600d60003373ffffffffffffffffffffffffffffffffffffffff1673ffffffffffffffffffffffffffffffffffffffff1681526020019081526020016000206040518060600160405290816000820160009054906101000a9004600f0b600f0b600f0b81526020016000820160109054906101000a900467ffffffffffffffff1667ffffffffffffffff1667ffffffffffffffff1681526020016000820160189054906101000a900467ffffffffffffffff1667ffffffffffffffff1667ffffffffffffffff168152505090506000600c600089815260200190815260200160002060009054906101000a900467ffffffffffffffff1690508667ffffffffffffffff168167ffffffffffffffff161115611f74576040517f08c379a00000000000000000000000000000000000000000000000000000000081526004018080602001828103825260208152602001807f47726166666974693a20706978656c20697320746f6f20657870656e7369766581525060200191505060405180910390fd5b611f82836020015182613cd6565b836020019067ffffffffffffffff16908167ffffffffffffffff1681525050611faf826020015182613d08565b826020019067ffffffffffffffff16908167ffffffffffffffff16815250506000846020015167ffffffffffffffff168460000151600f0b12611ff85784602001519050612019565b60008460000151600f0b126120135783600001519050612018565b600090505b5b8667ffffffffffffffff168167ffffffffffffffff1610156120a3576040517f08c379a000000000000000000000000000000000000000000000000000000000815260040180806020018281038252601d8152602001807f47726166666974693a20616d6f756e7420697320746f6f20736d616c6c00000081525060200191505060405180910390fd5b6120b1846000015182613ef9565b8460000190600f0b9081600f0b815250506120d0836000015182613f72565b8360000190600f0b9081600f0b8152505083600d60008873ffffffffffffffffffffffffffffffffffffffff1673ffffffffffffffffffffffffffffffffffffffff16815260200190815260200160002060008201518160000160006101000a8154816fffffffffffffffffffffffffffffffff0219169083600f0b6fffffffffffffffffffffffffffffffff16021790555060208201518160000160106101000a81548167ffffffffffffffff021916908367ffffffffffffffff16021790555060408201518160000160186101000a81548167ffffffffffffffff021916908367ffffffffffffffff16021790555090505082600d60003373ffffffffffffffffffffffffffffffffffffffff1673ffffffffffffffffffffffffffffffffffffffff16815260200190815260200160002060008201518160000160006101000a8154816fffffffffffffffffffffffffffffffff0219169083600f0b6fffffffffffffffffffffffffffffffff16021790555060208201518160000160106101000a81548167ffffffffffffffff021916908367ffffffffffffffff16021790555060408201518160000160186101000a81548167ffffffffffffffff021916908367ffffffffffffffff1602179055509050506122b286338b613fcb565b6122be8960008061420e565b7fb8686fb2f2a4a57d3187524f6495bfb9a277f56862834b092423954b119868558982604051808381526020018267ffffffffffffffff1681526020019250505060405180910390a1505050505050505050565b61231a613c00565b73ffffffffffffffffffffffffffffffffffffffff16612338612be5565b73ffffffffffffffffffffffffffffffffffffffff16146123c1576040517f08c379a00000000000000000000000000000000000000000000000000000000081526004018080602001828103825260208152602001807f4f776e61626c653a2063616c6c6572206973206e6f7420746865206f776e657281525060200191505060405180910390fd5b6123cb8282613d65565b5050565b6000600d60008373ffffffffffffffffffffffffffffffffffffffff1673ffffffffffffffffffffffffffffffffffffffff1681526020019081526020016000206040518060600160405290816000820160009054906101000a9004600f0b600f0b600f0b81526020016000820160109054906101000a900467ffffffffffffffff1667ffffffffffffffff1667ffffffffffffffff1681526020016000820160189054906101000a900467ffffffffffffffff1667ffffffffffffffff1667ffffffffffffffff1681525050905060006124b3826020015183604001514261433b565b905060008167ffffffffffffffff1611806124dc57506000826040015167ffffffffffffffff16145b156126b95760008167ffffffffffffffff168360000151600f0b1261250357819050612524565b60008360000151600f0b1261251e5782600001519050612523565b600090505b5b612532836000015183613ef9565b8360000190600f0b9081600f0b8152505042836040019067ffffffffffffffff16908167ffffffffffffffff168152505082600d60008673ffffffffffffffffffffffffffffffffffffffff1673ffffffffffffffffffffffffffffffffffffffff16815260200190815260200160002060008201518160000160006101000a8154816fffffffffffffffffffffffffffffffff0219169083600f0b6fffffffffffffffffffffffffffffffff16021790555060208201518160000160106101000a81548167ffffffffffffffff021916908367ffffffffffffffff16021790555060408201518160000160186101000a81548167ffffffffffffffff021916908367ffffffffffffffff1602179055509050508067ffffffffffffffff166010600082825401925050819055508067ffffffffffffffff16600f60008673ffffffffffffffffffffffffffffffffffffffff1673ffffffffffffffffffffffffffffffffffffffff16815260200190815260200160002060008282540192505081905550505b505050565b6126cb3385858585614416565b50505050565b60006126dc82613be3565b9050919050565b6000806126fa836002614bbd90919063ffffffff16565b50905080915050919050565b6000612736826040518060600160405280602981526020016159f8602991396002614be99092919063ffffffff16565b9050919050565b61274682613be3565b6127b8576040517f08c379a000000000000000000000000000000000000000000000000000000000815260040180806020018281038252601e8152602001807f47726166666974693a20706978656c20646f6573206e6f74206578697374000081525060200191505060405180910390fd5b60006127c383612706565b90508073ffffffffffffffffffffffffffffffffffffffff163373ffffffffffffffffffffffffffffffffffffffff1614612849576040517f08c379a000000000000000000000000000000000000000000000000000000000815260040180806020018281038252602881526020018061591d6028913960400191505060405180910390fd5b7ff0fbbaedad1d3a6fc7004560ccc28915f597e9ed4ad3d64b7422f7782d8301038383604051808381526020018260ff1681526020019250505060405180910390a1505050565b6000600d60008373ffffffffffffffffffffffffffffffffffffffff1673ffffffffffffffffffffffffffffffffffffffff16815260200190815260200160002060000160109054906101000a900467ffffffffffffffff169050919050565b606060098054600181600116156101000203166002900480601f0160208091040260200160405190810160405280929190818152602001828054600181600116156101000203166002900480156129885780601f1061295d57610100808354040283529160200191612988565b820191906000526020600020905b81548152906001019060200180831161296b57829003601f168201915b5050505050905090565b60008073ffffffffffffffffffffffffffffffffffffffff168273ffffffffffffffffffffffffffffffffffffffff161415612a19576040517f08c379a000000000000000000000000000000000000000000000000000000000815260040180806020018281038252602a8152602001806159a3602a913960400191505060405180910390fd5b612a60600160008473ffffffffffffffffffffffffffffffffffffffff1673ffffffffffffffffffffffffffffffffffffffff168152602001908152602001600020614c08565b9050919050565b612a6f613c00565b73ffffffffffffffffffffffffffffffffffffffff16612a8d612be5565b73ffffffffffffffffffffffffffffffffffffffff1614612b16576040517f08c379a00000000000000000000000000000000000000000000000000000000081526004018080602001828103825260208152602001807f4f776e61626c653a2063616c6c6572206973206e6f7420746865206f776e657281525060200191505060405180910390fd5b600073ffffffffffffffffffffffffffffffffffffffff16600a60009054906101000a900473ffffffffffffffffffffffffffffffffffffffff1673ffffffffffffffffffffffffffffffffffffffff167f8be0079c531659141344cd1fd0a4f28419497f9722a3daafe3b4186f6b6457e060405160405180910390a36000600a60006101000a81548173ffffffffffffffffffffffffffffffffffffffff021916908373ffffffffffffffffffffffffffffffffffffffff160217905550565b612be2338233614c1d565b50565b6000600a60009054906101000a900473ffffffffffffffffffffffffffffffffffffffff16905090565b606060078054600181600116156101000203166002900480601f016020809104026020016040519081016040528092919081815260200182805460018160011615610100020316600290048015612ca75780601f10612c7c57610100808354040283529160200191612ca7565b820191906000526020600020905b815481529060010190602001808311612c8a57829003601f168201915b5050505050905090565b612cbc338383614c1d565b5050565b6000600e600083815260200190815260200160002060000160149054906101000a900467ffffffffffffffff169050919050565b612cfc613c00565b73ffffffffffffffffffffffffffffffffffffffff168273ffffffffffffffffffffffffffffffffffffffff161415612d9d576040517f08c379a00000000000000000000000000000000000000000000000000000000081526004018080602001828103825260198152602001807f4552433732313a20617070726f766520746f2063616c6c65720000000000000081525060200191505060405180910390fd5b8060056000612daa613c00565b73ffffffffffffffffffffffffffffffffffffffff1673ffffffffffffffffffffffffffffffffffffffff16815260200190815260200160002060008473ffffffffffffffffffffffffffffffffffffffff1673ffffffffffffffffffffffffffffffffffffffff16815260200190815260200160002060006101000a81548160ff0219169083151502179055508173ffffffffffffffffffffffffffffffffffffffff16612e57613c00565b73ffffffffffffffffffffffffffffffffffffffff167f17307eab39ab6107e8899845ad3d59bd9653f200f220920489ca2b5937696c318360405180821515815260200191505060405180910390a35050565b612eb3336123cf565b6000600d60008373ffffffffffffffffffffffffffffffffffffffff1673ffffffffffffffffffffffffffffffffffffffff1681526020019081526020016000206040518060600160405290816000820160009054906101000a9004600f0b600f0b600f0b81526020016000820160109054906101000a900467ffffffffffffffff1667ffffffffffffffff1667ffffffffffffffff1681526020016000820160189054906101000a900467ffffffffffffffff1667ffffffffffffffff1667ffffffffffffffff168152505090506000633b9aca003481612f9157fe5b0614612fe8576040517f08c379a000000000000000000000000000000000000000000000000000000000815260040180806020018281038252603381526020018061587e6033913960400191505060405180910390fd5b6000633b9aca003481612ff757fe5b04905060008260000151600f0b12156130ad5760008260000151600003600f0b8267ffffffffffffffff161361302f5781905061303a565b826000015160000390505b8067ffffffffffffffff166010600082825401925050819055508067ffffffffffffffff16600f60008673ffffffffffffffffffffffffffffffffffffffff1673ffffffffffffffffffffffffffffffffffffffff16815260200190815260200160002060008282540192505081905550505b6130bb826000015182613f72565b8260000190600f0b9081600f0b8152505081600d60008573ffffffffffffffffffffffffffffffffffffffff1673ffffffffffffffffffffffffffffffffffffffff16815260200190815260200160002060008201518160000160006101000a8154816fffffffffffffffffffffffffffffffff0219169083600f0b6fffffffffffffffffffffffffffffffff16021790555060208201518160000160106101000a81548167ffffffffffffffff021916908367ffffffffffffffff16021790555060408201518160000160186101000a81548167ffffffffffffffff021916908367ffffffffffffffff1602179055509050507f9b4aba9cc4ea6d06a291ac53f1412dd3f42fc7426c27e76b9110b5fdbcb9884783828460000151604051808473ffffffffffffffffffffffffffffffffffffffff1681526020018367ffffffffffffffff16815260200182600f0b8152602001935050505060405180910390a1505050565b6000600b54905090565b600061323457fe5b50505050565b61324333612eaa565b6132503385858585614416565b50505050565b606061326182613be3565b6132b6576040517f08c379a000000000000000000000000000000000000000000000000000000000815260040180806020018281038252602f815260200180615ae5602f913960400191505060405180910390fd5b6000600860008481526020019081526020016000208054600181600116156101000203166002900480601f01602080910402602001604051908101604052809291908181526020018280546001816001161561010002031660029004801561335f5780601f106133345761010080835404028352916020019161335f565b820191906000526020600020905b81548152906001019060200180831161334257829003601f168201915b5050505050905060006133706128f0565b9050600081511415613386578192505050613522565b6000825111156134575780826040516020018083805190602001908083835b602083106133c857805182526020820191506020810190506020830392506133a5565b6001836020036101000a03801982511681845116808217855250505050505090500182805190602001908083835b6020831061341957805182526020820191506020810190506020830392506133f6565b6001836020036101000a0380198251168184511680821785525050505050509050019250505060405160208183030381529060405292505050613522565b8061346185614fc2565b6040516020018083805190602001908083835b602083106134975780518252602082019150602081019050602083039250613474565b6001836020036101000a03801982511681845116808217855250505050505090500182805190602001908083835b602083106134e857805182526020820191506020810190506020830392506134c5565b6001836020036101000a03801982511681845116808217855250505050505090500192505050604051602081830303815290604052925050505b919050565b61353083613be3565b6135a2576040517f08c379a000000000000000000000000000000000000000000000000000000000815260040180806020018281038252601e8152602001807f47726166666974693a20706978656c20646f6573206e6f74206578697374000081525060200191505060405180910390fd5b60006135ad84612706565b90508073ffffffffffffffffffffffffffffffffffffffff163373ffffffffffffffffffffffffffffffffffffffff1614613633576040517f08c379a0000000000000000000000000000000000000000000000000000000008152600401808060200182810382526026815260200180615a216026913960400191505060405180910390fd5b8073ffffffffffffffffffffffffffffffffffffffff168373ffffffffffffffffffffffffffffffffffffffff1614156136b8576040517f08c379a00000000000000000000000000000000000000000000000000000000081526004018080602001828103825260228152602001806158d76022913960400191505060405180910390fd5b6136c384848461420e565b50505050565b6000600e600083815260200190815260200160002060000160009054906101000a900473ffffffffffffffffffffffffffffffffffffffff169050919050565b61371233612eaa565b565b6000601054905090565b600061372982613be3565b613736576000905061378c565b600061374183612706565b9050600061374e82613a24565b600f0b1361376057600091505061378c565b600c600084815260200190815260200160002060009054906101000a900467ffffffffffffffff169150505b919050565b6000600560008473ffffffffffffffffffffffffffffffffffffffff1673ffffffffffffffffffffffffffffffffffffffff16815260200190815260200160002060008373ffffffffffffffffffffffffffffffffffffffff1673ffffffffffffffffffffffffffffffffffffffff16815260200190815260200160002060009054906101000a900460ff16905092915050565b6000601154905090565b613837613c00565b73ffffffffffffffffffffffffffffffffffffffff16613855612be5565b73ffffffffffffffffffffffffffffffffffffffff16146138de576040517f08c379a00000000000000000000000000000000000000000000000000000000081526004018080602001828103825260208152602001807f4f776e61626c653a2063616c6c6572206973206e6f7420746865206f776e657281525060200191505060405180910390fd5b600073ffffffffffffffffffffffffffffffffffffffff168173ffffffffffffffffffffffffffffffffffffffff161415613964576040517f08c379a00000000000000000000000000000000000000000000000000000000081526004018080602001828103825260268152602001806158b16026913960400191505060405180910390fd5b8073ffffffffffffffffffffffffffffffffffffffff16600a60009054906101000a900473ffffffffffffffffffffffffffffffffffffffff1673ffffffffffffffffffffffffffffffffffffffff167f8be0079c531659141344cd1fd0a4f28419497f9722a3daafe3b4186f6b6457e060405160405180910390a380600a60006101000a81548173ffffffffffffffffffffffffffffffffffffffff021916908373ffffffffffffffffffffffffffffffffffffffff16021790555050565b600080600d60008473ffffffffffffffffffffffffffffffffffffffff1673ffffffffffffffffffffffffffffffffffffffff1681526020019081526020016000206040518060600160405290816000820160009054906101000a9004600f0b600f0b600f0b81526020016000820160109054906101000a900467ffffffffffffffff1667ffffffffffffffff1667ffffffffffffffff1681526020016000820160189054906101000a900467ffffffffffffffff1667ffffffffffffffff1667ffffffffffffffff168152505090506000613b09826020015183604001514261433b565b9050613b19826000015182613ef9565b92505050919050565b613b2a613c00565b73ffffffffffffffffffffffffffffffffffffffff16613b48612be5565b73ffffffffffffffffffffffffffffffffffffffff1614613bd1576040517f08c379a00000000000000000000000000000000000000000000000000000000081526004018080602001828103825260208152602001807f4f776e61626c653a2063616c6c6572206973206e6f7420746865206f776e657281525060200191505060405180910390fd5b613be16011546010540333613d65565b565b6000613bf982600261510990919063ffffffff16565b9050919050565b600033905090565b816004600083815260200190815260200160002060006101000a81548173ffffffffffffffffffffffffffffffffffffffff021916908373ffffffffffffffffffffffffffffffffffffffff160217905550808273ffffffffffffffffffffffffffffffffffffffff16613c7b83612706565b73ffffffffffffffffffffffffffffffffffffffff167f8c5be1e5ebec7d5bd14f71427d1e84f3dd0314c0f7b2291e5b200ac8c7c3b92560405160405180910390a45050565b6000613ccf82600001615123565b9050919050565b60008167ffffffffffffffff168367ffffffffffffffff1610613cfd578183039050613d02565b600090505b92915050565b60008167ffffffffffffffff0367ffffffffffffffff168367ffffffffffffffff1611613d39578183019050613d45565b67ffffffffffffffff90505b92915050565b6000613d5a8360000183615134565b60001c905092915050565b600060115460105403905080831115613dc9576040517f08c379a0000000000000000000000000000000000000000000000000000000008152600401808060200182810382526026815260200180615b8d6026913960400191505060405180910390fd5b8260116000828254019250508190555060008273ffffffffffffffffffffffffffffffffffffffff16633b9aca00850260405180600001905060006040518083038185875af1925050503d8060008114613e3f576040519150601f19603f3d011682016040523d82523d6000602084013e613e44565b606091505b5050905080613e9e576040517f08c379a00000000000000000000000000000000000000000000000000000000081526004018080602001828103825260268152602001806159456026913960400191505060405180910390fd5b7fe445ea7bb773fbc392a5fd0e00169405de58c9fd30833a277a6a049156291e788484604051808381526020018273ffffffffffffffffffffffffffffffffffffffff1681526020019250505060405180910390a150505050565b60008167ffffffffffffffff167fffffffffffffffffffffffffffffffff8000000000000000000000000000000001600f0b83600f0b12613f48578167ffffffffffffffff1683039050613f6c565b7fffffffffffffffffffffffffffffffff8000000000000000000000000000000090505b92915050565b60008167ffffffffffffffff166f7fffffffffffffffffffffffffffffff03600f0b83600f0b13613fb1578167ffffffffffffffff1683019050613fc5565b6f7fffffffffffffffffffffffffffffff90505b92915050565b8273ffffffffffffffffffffffffffffffffffffffff16613feb82612706565b73ffffffffffffffffffffffffffffffffffffffff1614614057576040517f08c379a0000000000000000000000000000000000000000000000000000000008152600401808060200182810382526029815260200180615abc6029913960400191505060405180910390fd5b600073ffffffffffffffffffffffffffffffffffffffff168273ffffffffffffffffffffffffffffffffffffffff1614156140dd576040517f08c379a00000000000000000000000000000000000000000000000000000000081526004018080602001828103825260248152602001806158f96024913960400191505060405180910390fd5b6140e88383836151b7565b6140f3600082613c08565b61414481600160008673ffffffffffffffffffffffffffffffffffffffff1673ffffffffffffffffffffffffffffffffffffffff1681526020019081526020016000206151bc90919063ffffffff16565b5061419681600160008573ffffffffffffffffffffffffffffffffffffffff1673ffffffffffffffffffffffffffffffffffffffff1681526020019081526020016000206151d690919063ffffffff16565b506141ad818360026151f09092919063ffffffff16565b50808273ffffffffffffffffffffffffffffffffffffffff168473ffffffffffffffffffffffffffffffffffffffff167fddf252ad1be2c89b69c2b068fc378daa952ba7f163c4a11628f55a4df523b3ef60405160405180910390a4505050565b60405180604001604052808373ffffffffffffffffffffffffffffffffffffffff1681526020018267ffffffffffffffff16815250600e600085815260200190815260200160002060008201518160000160006101000a81548173ffffffffffffffffffffffffffffffffffffffff021916908373ffffffffffffffffffffffffffffffffffffffff16021790555060208201518160000160146101000a81548167ffffffffffffffff021916908367ffffffffffffffff1602179055509050507f84afc8474dcf15389b6fa53a7f02d9f5c899390ecc31665a1c3561ef8202563b838383604051808481526020018373ffffffffffffffffffffffffffffffffffffffff1681526020018267ffffffffffffffff168152602001935050505060405180910390a1505050565b60008267ffffffffffffffff168267ffffffffffffffff1610156143aa576040517f08c379a0000000000000000000000000000000000000000000000000000000008152600401808060200182810382526030815260200180615b5d6030913960400191505060405180910390fd5b600060018567ffffffffffffffff1685850367ffffffffffffffff16020290506000600a6301e1338002905060008183816143e157fe5b04905067ffffffffffffffff801681116144005780935050505061440f565b67ffffffffffffffff93505050505b9392505050565b60006144218561371e565b90508367ffffffffffffffff168167ffffffffffffffff161115614490576040517f08c379a0000000000000000000000000000000000000000000000000000000008152600401808060200182810382526027815260200180615a696027913960400191505060405180910390fd5b614499866123cf565b6000600d60008873ffffffffffffffffffffffffffffffffffffffff1673ffffffffffffffffffffffffffffffffffffffff1681526020019081526020016000206040518060600160405290816000820160009054906101000a9004600f0b600f0b600f0b81526020016000820160109054906101000a900467ffffffffffffffff1667ffffffffffffffff1667ffffffffffffffff1681526020016000820160189054906101000a900467ffffffffffffffff1667ffffffffffffffff1667ffffffffffffffff168152505090508167ffffffffffffffff168160000151600f0b12156145ef576040517f08c379a00000000000000000000000000000000000000000000000000000000081526004018080602001828103825260198152602001807f47726166666974693a2062616c616e636520746f6f206c6f770000000000000081525060200191505060405180910390fd5b6145fd816000015183613ef9565b8160000190600f0b9081600f0b8152505061461c816020015185613d08565b816020019067ffffffffffffffff16908167ffffffffffffffff168152505080600d60008973ffffffffffffffffffffffffffffffffffffffff1673ffffffffffffffffffffffffffffffffffffffff16815260200190815260200160002060008201518160000160006101000a8154816fffffffffffffffffffffffffffffffff0219169083600f0b6fffffffffffffffffffffffffffffffff16021790555060208201518160000160106101000a81548167ffffffffffffffff021916908367ffffffffffffffff16021790555060408201518160000160186101000a81548167ffffffffffffffff021916908367ffffffffffffffff160217905550905050600061472987613be3565b156149e25761473787612706565b90508773ffffffffffffffffffffffffffffffffffffffff168173ffffffffffffffffffffffffffffffffffffffff1614156147be576040517f08c379a00000000000000000000000000000000000000000000000000000000081526004018080602001828103825260288152602001806158346028913960400191505060405180910390fd5b6147c7816123cf565b6000600d60008373ffffffffffffffffffffffffffffffffffffffff1673ffffffffffffffffffffffffffffffffffffffff1681526020019081526020016000206040518060600160405290816000820160009054906101000a9004600f0b600f0b600f0b81526020016000820160109054906101000a900467ffffffffffffffff1667ffffffffffffffff1667ffffffffffffffff1681526020016000820160189054906101000a900467ffffffffffffffff1667ffffffffffffffff1667ffffffffffffffff168152505090506148a4816000015185613f72565b8160000190600f0b9081600f0b815250506148c3816020015185613cd6565b816020019067ffffffffffffffff16908167ffffffffffffffff168152505080600d60008473ffffffffffffffffffffffffffffffffffffffff1673ffffffffffffffffffffffffffffffffffffffff16815260200190815260200160002060008201518160000160006101000a8154816fffffffffffffffffffffffffffffffff0219169083600f0b6fffffffffffffffffffffffffffffffff16021790555060208201518160000160106101000a81548167ffffffffffffffff021916908367ffffffffffffffff16021790555060408201518160000160186101000a81548167ffffffffffffffff021916908367ffffffffffffffff1602179055509050506149d0828a8a613fcb565b6149dc8860008061420e565b50614a69565b60009050600b54871115614a5e576040517f08c379a000000000000000000000000000000000000000000000000000000000815260040180806020018281038252601f8152602001807f47726166666974693a206d617820706978656c2049442065786365656465640081525060200191505060405180910390fd5b614a688888615225565b5b84600c600089815260200190815260200160002060006101000a81548167ffffffffffffffff021916908367ffffffffffffffff1602179055507f7bd9b1430089d0bd715a05febc51719eb484ef406b2bfda295a8d072ba65590487828a86604051808581526020018473ffffffffffffffffffffffffffffffffffffffff1681526020018373ffffffffffffffffffffffffffffffffffffffff1681526020018267ffffffffffffffff16815260200194505050505060405180910390a17ff0fbbaedad1d3a6fc7004560ccc28915f597e9ed4ad3d64b7422f7782d8301038785604051808381526020018260ff1681526020019250505060405180910390a17fbf15f22b607cfe044538540b4bac336af1e06c4273837485a3afca870dde70a68786604051808381526020018267ffffffffffffffff1681526020019250505060405180910390a15050505050505050565b600080600080614bd08660000186615419565b915091508160001c8160001c9350935050509250929050565b6000614bfc846000018460001b846154b2565b60001c90509392505050565b6000614c16826000016155a8565b9050919050565b614c26836123cf565b6000600d60008573ffffffffffffffffffffffffffffffffffffffff1673ffffffffffffffffffffffffffffffffffffffff1681526020019081526020016000206040518060600160405290816000820160009054906101000a9004600f0b600f0b600f0b81526020016000820160109054906101000a900467ffffffffffffffff1667ffffffffffffffff1667ffffffffffffffff1681526020016000820160189054906101000a900467ffffffffffffffff1667ffffffffffffffff1667ffffffffffffffff168152505090508267ffffffffffffffff168160000151600f0b1215614d5f576040517f08c379a000000000000000000000000000000000000000000000000000000000815260040180806020018281038252602b8152602001806159cd602b913960400191505060405180910390fd5b614d6d816000015184613ef9565b8160000190600f0b9081600f0b8152505060008273ffffffffffffffffffffffffffffffffffffffff16633b9aca00850267ffffffffffffffff1660405180600001905060006040518083038185875af1925050503d8060008114614dee576040519150601f19603f3d011682016040523d82523d6000602084013e614df3565b606091505b5050905080614e6a576040517f08c379a00000000000000000000000000000000000000000000000000000000081526004018080602001828103825260208152602001807f47726166666974693a2077697468647261772063616c6c20726576657274656481525060200191505060405180910390fd5b81600d60008773ffffffffffffffffffffffffffffffffffffffff1673ffffffffffffffffffffffffffffffffffffffff16815260200190815260200160002060008201518160000160006101000a8154816fffffffffffffffffffffffffffffffff0219169083600f0b6fffffffffffffffffffffffffffffffff16021790555060208201518160000160106101000a81548167ffffffffffffffff021916908367ffffffffffffffff16021790555060408201518160000160186101000a81548167ffffffffffffffff021916908367ffffffffffffffff1602179055509050507fa21bb89a006da511a7928df8d894592371345db69d9cfd390b7ba33d31ff079885858460000151604051808473ffffffffffffffffffffffffffffffffffffffff1681526020018367ffffffffffffffff16815260200182600f0b8152602001935050505060405180910390a15050505050565b6060600082141561500a576040518060400160405280600181526020017f30000000000000000000000000000000000000000000000000000000000000008152509050615104565b600082905060005b60008214615034578080600101915050600a828161502c57fe5b049150615012565b60008167ffffffffffffffff8111801561504d57600080fd5b506040519080825280601f01601f1916602001820160405280156150805781602001600182028036833780820191505090505b50905060006001830390508593505b600084146150fc57600a84816150a157fe5b0660300160f81b828280600190039350815181106150bb57fe5b60200101907effffffffffffffffffffffffffffffffffffffffffffffffffffffffffffff1916908160001a905350600a84816150f457fe5b04935061508f565b819450505050505b919050565b600061511b836000018360001b6155b9565b905092915050565b600081600001805490509050919050565b600081836000018054905011615195576040517f08c379a000000000000000000000000000000000000000000000000000000000815260040180806020018281038252602281526020018061585c6022913960400191505060405180910390fd5b8260000182815481106151a457fe5b9060005260206000200154905092915050565b505050565b60006151ce836000018360001b6155dc565b905092915050565b60006151e8836000018360001b6156c4565b905092915050565b600061521c846000018460001b8473ffffffffffffffffffffffffffffffffffffffff1660001b615734565b90509392505050565b600073ffffffffffffffffffffffffffffffffffffffff168273ffffffffffffffffffffffffffffffffffffffff1614156152c8576040517f08c379a00000000000000000000000000000000000000000000000000000000081526004018080602001828103825260208152602001807f4552433732313a206d696e7420746f20746865207a65726f206164647265737381525060200191505060405180910390fd5b6152d181613be3565b15615344576040517f08c379a000000000000000000000000000000000000000000000000000000000815260040180806020018281038252601c8152602001807f4552433732313a20746f6b656e20616c7265616479206d696e7465640000000081525060200191505060405180910390fd5b615350600083836151b7565b6153a181600160008573ffffffffffffffffffffffffffffffffffffffff1673ffffffffffffffffffffffffffffffffffffffff1681526020019081526020016000206151d690919063ffffffff16565b506153b8818360026151f09092919063ffffffff16565b50808273ffffffffffffffffffffffffffffffffffffffff16600073ffffffffffffffffffffffffffffffffffffffff167fddf252ad1be2c89b69c2b068fc378daa952ba7f163c4a11628f55a4df523b3ef60405160405180910390a45050565b6000808284600001805490501161547b576040517f08c379a0000000000000000000000000000000000000000000000000000000008152600401808060200182810382526022815260200180615a476022913960400191505060405180910390fd5b600084600001848154811061548c57fe5b906000526020600020906002020190508060000154816001015492509250509250929050565b60008084600101600085815260200190815260200160002054905060008114158390615579576040517f08c379a00000000000000000000000000000000000000000000000000000000081526004018080602001828103825283818151815260200191508051906020019080838360005b8381101561553e578082015181840152602081019050615523565b50505050905090810190601f16801561556b5780820380516001836020036101000a031916815260200191505b509250505060405180910390fd5b5084600001600182038154811061558c57fe5b9060005260206000209060020201600101549150509392505050565b600081600001805490509050919050565b600080836001016000848152602001908152602001600020541415905092915050565b600080836001016000848152602001908152602001600020549050600081146156b8576000600182039050600060018660000180549050039050600086600001828154811061562757fe5b906000526020600020015490508087600001848154811061564457fe5b906000526020600020018190555060018301876001016000838152602001908152602001600020819055508660000180548061567c57fe5b600190038181906000526020600020016000905590558660010160008781526020019081526020016000206000905560019450505050506156be565b60009150505b92915050565b60006156d08383615810565b61572957826000018290806001815401808255809150506001900390600052602060002001600090919091909150558260000180549050836001016000848152602001908152602001600020819055506001905061572e565b600090505b92915050565b60008084600101600085815260200190815260200160002054905060008114156157db57846000016040518060400160405280868152602001858152509080600181540180825580915050600190039060005260206000209060020201600090919091909150600082015181600001556020820151816001015550508460000180549050856001016000868152602001908152602001600020819055506001915050615809565b828560000160018303815481106157ee57fe5b90600052602060002090600202016001018190555060009150505b9392505050565b60008083600101600084815260200190815260200160002054141590509291505056fe47726166666974693a2063616e6e6f742062757920706978656c2066726f6d20796f757273656c66456e756d657261626c655365743a20696e646578206f7574206f6620626f756e647347726166666974693a206465706f73697420616d6f756e74206d757374206265206d756c7469706c65206f66203120475765694f776e61626c653a206e6577206f776e657220697320746865207a65726f206164647265737347726166666974693a2063616e6e6f74206561726d61726b20666f72206f776e65724552433732313a207472616e7366657220746f20746865207a65726f206164647265737347726166666974693a206f6e6c7920706978656c206f776e65722063616e2073657420636f6c6f7247726166666974693a2077697468647261772074617865732063616c6c2072657665727465644552433732313a20617070726f76652063616c6c6572206973206e6f74206f776e6572206e6f7220617070726f76656420666f7220616c6c4552433732313a2062616c616e636520717565727920666f7220746865207a65726f206164647265737347726166666974693a2063616e6e6f74207769746864726177206d6f7265207468616e2062616c616e63654552433732313a206f776e657220717565727920666f72206e6f6e6578697374656e7420746f6b656e47726166666974693a206f6e6c79206f776e65722063616e206561726d61726b20706978656c456e756d657261626c654d61703a20696e646578206f7574206f6620626f756e647347726166666974693a20706978656c2070726963652065786365656473206d61782070726963654552433732313a20617070726f76656420717565727920666f72206e6f6e6578697374656e7420746f6b656e4552433732313a207472616e73666572206f6620746f6b656e2074686174206973206e6f74206f776e4552433732314d657461646174613a2055524920717565727920666f72206e6f6e6578697374656e7420746f6b656e4552433732313a20617070726f76616c20746f2063757272656e74206f776e657247726166666974693a206f6e6c79206f776e65722063616e2073657420706978656c20707269636547726166666974693a20656e642074696d65206d757374206265206c61746572207468616e2073746172742074696d6547726166666974693a206e6f7420656e6f75676820746178657320746f20776974686472617747726166666974693a206163636f756e74206e6f7420616c6c6f77656420746f20636c61696d20706978656ca264697066735822122001108a67f9c1b5ffe54b1f94a231c15de931dce4e145477745af46382311a94664736f6c6343000706003347726166666974693a20686569676874206d757374206e6f74206265207a65726f",
  "linkReferences": {},
  "deployedLinkReferences": {}
}