{
  "_format": "hh-sol-artifact-1",
  "contractName": "GraffitETH2",
  "sourceName": "contracts/GraffitETH2.sol",
  "abi": [
    {
      "inputs": [
        {
          "internalType": "uint128",
          "name": "width",
          "type": "uint128"
        },
        {
          "internalType": "uint128",
          "name": "height",
          "type": "uint128"
        },
        {
          "internalType": "uint256",
          "name": "taxRateNumerator",
          "type": "uint256"
        },
        {
          "internalType": "uint256",
          "name": "taxRateDenominator",
          "type": "uint256"
        },
        {
          "internalType": "uint64",
          "name": "taxStartTime",
          "type": "uint64"
        },
        {
          "internalType": "uint64",
          "name": "initialPrice",
          "type": "uint64"
        },
        {
          "internalType": "uint256",
          "name": "rugPullHeadsUp",
          "type": "uint256"
        }
      ],
      "stateMutability": "nonpayable",
      "type": "constructor"
    },
    {
      "anonymous": false,
      "inputs": [
        {
          "indexed": true,
          "internalType": "address",
          "name": "owner",
          "type": "address"
        },
        {
          "indexed": true,
          "internalType": "address",
          "name": "approved",
          "type": "address"
        },
        {
          "indexed": true,
          "internalType": "uint256",
          "name": "tokenId",
          "type": "uint256"
        }
      ],
      "name": "Approval",
      "type": "event"
    },
    {
      "anonymous": false,
      "inputs": [
        {
          "indexed": true,
          "internalType": "address",
          "name": "owner",
          "type": "address"
        },
        {
          "indexed": true,
          "internalType": "address",
          "name": "operator",
          "type": "address"
        },
        {
          "indexed": false,
          "internalType": "bool",
          "name": "approved",
          "type": "bool"
        }
      ],
      "name": "ApprovalForAll",
      "type": "event"
    },
    {
      "anonymous": false,
      "inputs": [
        {
          "indexed": true,
          "internalType": "uint256",
          "name": "pixelID",
          "type": "uint256"
        },
        {
          "indexed": true,
          "internalType": "address",
          "name": "seller",
          "type": "address"
        },
        {
          "indexed": true,
          "internalType": "address",
          "name": "buyer",
          "type": "address"
        },
        {
          "indexed": false,
          "internalType": "uint64",
          "name": "price",
          "type": "uint64"
        }
      ],
      "name": "Bought",
      "type": "event"
    },
    {
      "anonymous": false,
      "inputs": [
        {
          "indexed": true,
          "internalType": "uint256",
          "name": "pixelID",
          "type": "uint256"
        },
        {
          "indexed": true,
          "internalType": "address",
          "name": "owner",
          "type": "address"
        },
        {
          "indexed": false,
          "internalType": "uint8",
          "name": "color",
          "type": "uint8"
        }
      ],
      "name": "ColorChanged",
      "type": "event"
    },
    {
      "anonymous": false,
      "inputs": [
        {
          "indexed": true,
          "internalType": "address",
          "name": "account",
          "type": "address"
        },
        {
          "indexed": true,
          "internalType": "address",
          "name": "depositor",
          "type": "address"
        },
        {
          "indexed": false,
          "internalType": "uint64",
          "name": "amount",
          "type": "uint64"
        },
        {
          "indexed": false,
          "internalType": "int128",
          "name": "balance",
          "type": "int128"
        }
      ],
      "name": "Deposited",
      "type": "event"
    },
    {
      "anonymous": false,
      "inputs": [
        {
          "indexed": true,
          "internalType": "uint256",
          "name": "pixelID",
          "type": "uint256"
        },
        {
          "indexed": true,
          "internalType": "address",
          "name": "owner",
          "type": "address"
        },
        {
          "indexed": true,
          "internalType": "address",
          "name": "receiver",
          "type": "address"
        },
        {
          "indexed": false,
          "internalType": "uint64",
          "name": "amount",
          "type": "uint64"
        }
      ],
      "name": "Earmarked",
      "type": "event"
    },
    {
      "anonymous": false,
      "inputs": [
        {
          "indexed": true,
          "internalType": "address",
          "name": "previousOwner",
          "type": "address"
        },
        {
          "indexed": true,
          "internalType": "address",
          "name": "newOwner",
          "type": "address"
        }
      ],
      "name": "OwnershipTransferred",
      "type": "event"
    },
    {
      "anonymous": false,
      "inputs": [
        {
          "indexed": true,
          "internalType": "uint256",
          "name": "pixelID",
          "type": "uint256"
        },
        {
          "indexed": true,
          "internalType": "address",
          "name": "oldOwner",
          "type": "address"
        },
        {
          "indexed": true,
          "internalType": "address",
          "name": "newOwner",
          "type": "address"
        },
        {
          "indexed": false,
          "internalType": "uint64",
          "name": "amount",
          "type": "uint64"
        }
      ],
      "name": "PixelClaimed",
      "type": "event"
    },
    {
      "anonymous": false,
      "inputs": [
        {
          "indexed": true,
          "internalType": "uint256",
          "name": "pixelID",
          "type": "uint256"
        },
        {
          "indexed": true,
          "internalType": "address",
          "name": "owner",
          "type": "address"
        },
        {
          "indexed": false,
          "internalType": "uint64",
          "name": "price",
          "type": "uint64"
        }
      ],
      "name": "PriceChanged",
      "type": "event"
    },
    {
      "anonymous": false,
      "inputs": [
        {
          "indexed": true,
          "internalType": "address",
          "name": "sender",
          "type": "address"
        },
        {
          "indexed": false,
          "internalType": "uint256",
          "name": "timestamp",
          "type": "uint256"
        },
        {
          "indexed": false,
          "internalType": "uint256",
          "name": "rugPullTime",
          "type": "uint256"
        }
      ],
      "name": "RugPullAnnounced",
      "type": "event"
    },
    {
      "anonymous": false,
      "inputs": [
        {
          "indexed": true,
          "internalType": "address",
          "name": "sender",
          "type": "address"
        }
      ],
      "name": "RugPullDisabled",
      "type": "event"
    },
    {
      "anonymous": false,
      "inputs": [
        {
          "indexed": true,
          "internalType": "address",
          "name": "sender",
          "type": "address"
        },
        {
          "indexed": true,
          "internalType": "address",
          "name": "receiver",
          "type": "address"
        },
        {
          "indexed": false,
          "internalType": "uint256",
          "name": "value",
          "type": "uint256"
        }
      ],
      "name": "RugPulled",
      "type": "event"
    },
    {
      "anonymous": false,
      "inputs": [
        {
          "indexed": false,
          "internalType": "uint256",
          "name": "amount",
          "type": "uint256"
        },
        {
          "indexed": true,
          "internalType": "address",
          "name": "receiver",
          "type": "address"
        }
      ],
      "name": "TaxWithdrawn",
      "type": "event"
    },
    {
      "anonymous": false,
      "inputs": [
        {
          "indexed": true,
          "internalType": "address",
          "name": "from",
          "type": "address"
        },
        {
          "indexed": true,
          "internalType": "address",
          "name": "to",
          "type": "address"
        },
        {
          "indexed": true,
          "internalType": "uint256",
          "name": "tokenId",
          "type": "uint256"
        }
      ],
      "name": "Transfer",
      "type": "event"
    },
    {
      "anonymous": false,
      "inputs": [
        {
          "indexed": true,
          "internalType": "address",
          "name": "account",
          "type": "address"
        },
        {
          "indexed": true,
          "internalType": "address",
          "name": "receiver",
          "type": "address"
        },
        {
          "indexed": false,
          "internalType": "uint64",
          "name": "amount",
          "type": "uint64"
        },
        {
          "indexed": false,
          "internalType": "int128",
          "name": "balance",
          "type": "int128"
        }
      ],
      "name": "Withdrawn",
      "type": "event"
    },
    {
      "inputs": [],
      "name": "announceRugPull",
      "outputs": [],
      "stateMutability": "nonpayable",
      "type": "function"
    },
    {
      "inputs": [
        {
          "internalType": "address",
          "name": "to",
          "type": "address"
        },
        {
          "internalType": "uint256",
          "name": "tokenId",
          "type": "uint256"
        }
      ],
      "name": "approve",
      "outputs": [],
      "stateMutability": "nonpayable",
      "type": "function"
    },
    {
      "inputs": [
        {
          "internalType": "address",
          "name": "owner",
          "type": "address"
        }
      ],
      "name": "balanceOf",
      "outputs": [
        {
          "internalType": "uint256",
          "name": "",
          "type": "uint256"
        }
      ],
      "stateMutability": "view",
      "type": "function"
    },
    {
      "inputs": [],
      "name": "baseURI",
      "outputs": [
        {
          "internalType": "string",
          "name": "",
          "type": "string"
        }
      ],
      "stateMutability": "view",
      "type": "function"
    },
    {
      "inputs": [
        {
          "components": [
            {
              "internalType": "uint256",
              "name": "pixelID",
              "type": "uint256"
            },
            {
              "internalType": "uint64",
              "name": "maxPrice",
              "type": "uint64"
            },
            {
              "internalType": "uint64",
              "name": "newPrice",
              "type": "uint64"
            },
            {
              "internalType": "uint8",
              "name": "color",
              "type": "uint8"
            }
          ],
          "internalType": "struct PixelBuyArgs",
          "name": "args",
          "type": "tuple"
        }
      ],
      "name": "buy",
      "outputs": [],
      "stateMutability": "nonpayable",
      "type": "function"
    },
    {
      "inputs": [
        {
          "components": [
            {
              "internalType": "uint256",
              "name": "pixelID",
              "type": "uint256"
            },
            {
              "internalType": "uint64",
              "name": "maxPrice",
              "type": "uint64"
            },
            {
              "internalType": "uint64",
              "name": "newPrice",
              "type": "uint64"
            },
            {
              "internalType": "uint8",
              "name": "color",
              "type": "uint8"
            }
          ],
          "internalType": "struct PixelBuyArgs[]",
          "name": "args",
          "type": "tuple[]"
        }
      ],
      "name": "buyMany",
      "outputs": [],
      "stateMutability": "nonpayable",
      "type": "function"
    },
    {
      "inputs": [],
      "name": "checkRugPullAnnounced",
      "outputs": [
        {
          "internalType": "bool",
          "name": "",
          "type": "bool"
        }
      ],
      "stateMutability": "view",
      "type": "function"
    },
    {
      "inputs": [],
      "name": "checkRugPullDisabled",
      "outputs": [
        {
          "internalType": "bool",
          "name": "",
          "type": "bool"
        }
      ],
      "stateMutability": "view",
      "type": "function"
    },
    {
      "inputs": [
        {
          "internalType": "uint256",
          "name": "pixelID",
          "type": "uint256"
        },
        {
          "internalType": "uint64",
          "name": "maxPrice",
          "type": "uint64"
        },
        {
          "internalType": "uint64",
          "name": "minAmount",
          "type": "uint64"
        }
      ],
      "name": "claim",
      "outputs": [],
      "stateMutability": "nonpayable",
      "type": "function"
    },
    {
      "inputs": [],
      "name": "deposit",
      "outputs": [],
      "stateMutability": "payable",
      "type": "function"
    },
    {
      "inputs": [
        {
          "components": [
            {
              "internalType": "uint256",
              "name": "pixelID",
              "type": "uint256"
            },
            {
              "internalType": "uint64",
              "name": "maxPrice",
              "type": "uint64"
            },
            {
              "internalType": "uint64",
              "name": "newPrice",
              "type": "uint64"
            },
            {
              "internalType": "uint8",
              "name": "color",
              "type": "uint8"
            }
          ],
          "internalType": "struct PixelBuyArgs",
          "name": "args",
          "type": "tuple"
        }
      ],
      "name": "depositAndBuy",
      "outputs": [],
      "stateMutability": "payable",
      "type": "function"
    },
    {
      "inputs": [
        {
          "components": [
            {
              "internalType": "uint256",
              "name": "pixelID",
              "type": "uint256"
            },
            {
              "internalType": "uint64",
              "name": "maxPrice",
              "type": "uint64"
            },
            {
              "internalType": "uint64",
              "name": "newPrice",
              "type": "uint64"
            },
            {
              "internalType": "uint8",
              "name": "color",
              "type": "uint8"
            }
          ],
          "internalType": "struct PixelBuyArgs[]",
          "name": "args",
          "type": "tuple[]"
        }
      ],
      "name": "depositAndBuyMany",
      "outputs": [],
      "stateMutability": "payable",
      "type": "function"
    },
    {
      "inputs": [
        {
          "internalType": "address",
          "name": "account",
          "type": "address"
        }
      ],
      "name": "depositTo",
      "outputs": [],
      "stateMutability": "payable",
      "type": "function"
    },
    {
      "inputs": [],
      "name": "disableRugPull",
      "outputs": [],
      "stateMutability": "nonpayable",
      "type": "function"
    },
    {
      "inputs": [
        {
          "internalType": "uint256",
          "name": "pixelID",
          "type": "uint256"
        },
        {
          "internalType": "address",
          "name": "receiver",
          "type": "address"
        },
        {
          "internalType": "uint64",
          "name": "amount",
          "type": "uint64"
        }
      ],
      "name": "earmark",
      "outputs": [],
      "stateMutability": "nonpayable",
      "type": "function"
    },
    {
      "inputs": [
        {
          "internalType": "uint256",
          "name": "pixelID",
          "type": "uint256"
        }
      ],
      "name": "exists",
      "outputs": [
        {
          "internalType": "bool",
          "name": "",
          "type": "bool"
        }
      ],
      "stateMutability": "view",
      "type": "function"
    },
    {
      "inputs": [
        {
          "internalType": "uint256",
          "name": "tokenId",
          "type": "uint256"
        }
      ],
      "name": "getApproved",
      "outputs": [
        {
          "internalType": "address",
          "name": "",
          "type": "address"
        }
      ],
      "stateMutability": "view",
      "type": "function"
    },
    {
      "inputs": [
        {
          "internalType": "address",
          "name": "account",
          "type": "address"
        }
      ],
      "name": "getBalance",
      "outputs": [
        {
          "internalType": "int128",
          "name": "",
          "type": "int128"
        }
      ],
      "stateMutability": "view",
      "type": "function"
    },
    {
      "inputs": [
        {
          "internalType": "uint256",
          "name": "pixelID",
          "type": "uint256"
        }
      ],
      "name": "getEarmarkAmount",
      "outputs": [
        {
          "internalType": "uint64",
          "name": "",
          "type": "uint64"
        }
      ],
      "stateMutability": "view",
      "type": "function"
    },
    {
      "inputs": [
        {
          "internalType": "uint256",
          "name": "pixelID",
          "type": "uint256"
        }
      ],
      "name": "getEarmarkReceiver",
      "outputs": [
        {
          "internalType": "address",
          "name": "",
          "type": "address"
        }
      ],
      "stateMutability": "view",
      "type": "function"
    },
    {
      "inputs": [],
      "name": "getInitialPrice",
      "outputs": [
        {
          "internalType": "uint64",
          "name": "",
          "type": "uint64"
        }
      ],
      "stateMutability": "view",
      "type": "function"
    },
    {
      "inputs": [
        {
          "internalType": "address",
          "name": "account",
          "type": "address"
        }
      ],
      "name": "getLastTaxPayment",
      "outputs": [
        {
          "internalType": "uint64",
          "name": "",
          "type": "uint64"
        }
      ],
      "stateMutability": "view",
      "type": "function"
    },
    {
      "inputs": [],
      "name": "getMaxPixelID",
      "outputs": [
        {
          "internalType": "uint256",
          "name": "",
          "type": "uint256"
        }
      ],
      "stateMutability": "view",
      "type": "function"
    },
    {
      "inputs": [
        {
          "internalType": "uint256",
          "name": "pixelID",
          "type": "uint256"
        }
      ],
      "name": "getNominalPrice",
      "outputs": [
        {
          "internalType": "uint64",
          "name": "",
          "type": "uint64"
        }
      ],
      "stateMutability": "view",
      "type": "function"
    },
    {
      "inputs": [],
      "name": "getOwnerWithdrawableAmount",
      "outputs": [
        {
          "internalType": "uint64",
          "name": "",
          "type": "uint64"
        }
      ],
      "stateMutability": "view",
      "type": "function"
    },
    {
      "inputs": [
        {
          "internalType": "uint256",
          "name": "pixelID",
          "type": "uint256"
        }
      ],
      "name": "getPrice",
      "outputs": [
        {
          "internalType": "uint64",
          "name": "",
          "type": "uint64"
        }
      ],
      "stateMutability": "view",
      "type": "function"
    },
    {
      "inputs": [],
      "name": "getRugPullHeadsUp",
      "outputs": [
        {
          "internalType": "uint256",
          "name": "",
          "type": "uint256"
        }
      ],
      "stateMutability": "view",
      "type": "function"
    },
    {
      "inputs": [],
      "name": "getRugPullTime",
      "outputs": [
        {
          "internalType": "uint256",
          "name": "",
          "type": "uint256"
        }
      ],
      "stateMutability": "view",
      "type": "function"
    },
    {
      "inputs": [
        {
          "internalType": "address",
          "name": "account",
          "type": "address"
        }
      ],
      "name": "getTaxBase",
      "outputs": [
        {
          "internalType": "uint64",
          "name": "",
          "type": "uint64"
        }
      ],
      "stateMutability": "view",
      "type": "function"
    },
    {
      "inputs": [],
      "name": "getTaxRate",
      "outputs": [
        {
          "internalType": "uint256",
          "name": "",
          "type": "uint256"
        },
        {
          "internalType": "uint256",
          "name": "",
          "type": "uint256"
        }
      ],
      "stateMutability": "view",
      "type": "function"
    },
    {
      "inputs": [],
      "name": "getTaxStartTime",
      "outputs": [
        {
          "internalType": "uint64",
          "name": "",
          "type": "uint64"
        }
      ],
      "stateMutability": "view",
      "type": "function"
    },
    {
      "inputs": [],
      "name": "getTotalInitialSaleRevenue",
      "outputs": [
        {
          "internalType": "uint256",
          "name": "",
          "type": "uint256"
        }
      ],
      "stateMutability": "view",
      "type": "function"
    },
    {
      "inputs": [],
      "name": "getTotalTaxesPaid",
      "outputs": [
        {
          "internalType": "uint256",
          "name": "",
          "type": "uint256"
        }
      ],
      "stateMutability": "view",
      "type": "function"
    },
    {
      "inputs": [
        {
          "internalType": "address",
          "name": "account",
          "type": "address"
        }
      ],
      "name": "getTotalTaxesPaidBy",
      "outputs": [
        {
          "internalType": "uint256",
          "name": "",
          "type": "uint256"
        }
      ],
      "stateMutability": "view",
      "type": "function"
    },
    {
      "inputs": [],
      "name": "getTotalWithdrawnByOwner",
      "outputs": [
        {
          "internalType": "uint256",
          "name": "",
          "type": "uint256"
        }
      ],
      "stateMutability": "view",
      "type": "function"
    },
    {
      "inputs": [
        {
          "internalType": "uint256[]",
          "name": "pixelIDs",
          "type": "uint256[]"
        },
        {
          "internalType": "address[]",
          "name": "owners",
          "type": "address[]"
        },
        {
          "internalType": "uint64[]",
          "name": "prices",
          "type": "uint64[]"
        },
        {
          "internalType": "uint8[]",
          "name": "colors",
          "type": "uint8[]"
        }
      ],
      "name": "init",
      "outputs": [],
      "stateMutability": "nonpayable",
      "type": "function"
    },
    {
      "inputs": [
        {
          "internalType": "address",
          "name": "owner",
          "type": "address"
        },
        {
          "internalType": "address",
          "name": "operator",
          "type": "address"
        }
      ],
      "name": "isApprovedForAll",
      "outputs": [
        {
          "internalType": "bool",
          "name": "",
          "type": "bool"
        }
      ],
      "stateMutability": "view",
      "type": "function"
    },
    {
      "inputs": [],
      "name": "isInitializing",
      "outputs": [
        {
          "internalType": "bool",
          "name": "",
          "type": "bool"
        }
      ],
      "stateMutability": "view",
      "type": "function"
    },
    {
      "inputs": [],
      "name": "name",
      "outputs": [
        {
          "internalType": "string",
          "name": "",
          "type": "string"
        }
      ],
      "stateMutability": "view",
      "type": "function"
    },
    {
      "inputs": [],
      "name": "owner",
      "outputs": [
        {
          "internalType": "address",
          "name": "",
          "type": "address"
        }
      ],
      "stateMutability": "view",
      "type": "function"
    },
    {
      "inputs": [
        {
          "internalType": "uint256",
          "name": "tokenId",
          "type": "uint256"
        }
      ],
      "name": "ownerOf",
      "outputs": [
        {
          "internalType": "address",
          "name": "",
          "type": "address"
        }
      ],
      "stateMutability": "view",
      "type": "function"
    },
    {
      "inputs": [
        {
          "internalType": "address",
          "name": "account",
          "type": "address"
        }
      ],
      "name": "payTaxes",
      "outputs": [],
      "stateMutability": "nonpayable",
      "type": "function"
    },
    {
      "inputs": [
        {
          "internalType": "address",
          "name": "receiver",
          "type": "address"
        },
        {
          "internalType": "uint256",
          "name": "value",
          "type": "uint256"
        }
      ],
      "name": "performRugPull",
      "outputs": [],
      "stateMutability": "nonpayable",
      "type": "function"
    },
    {
      "inputs": [],
      "name": "renounceOwnership",
      "outputs": [],
      "stateMutability": "nonpayable",
      "type": "function"
    },
    {
      "inputs": [
        {
          "internalType": "address",
          "name": "",
          "type": "address"
        },
        {
          "internalType": "address",
          "name": "",
          "type": "address"
        },
        {
          "internalType": "uint256",
          "name": "",
          "type": "uint256"
        }
      ],
      "name": "safeTransferFrom",
      "outputs": [],
      "stateMutability": "nonpayable",
      "type": "function"
    },
    {
      "inputs": [
        {
          "internalType": "address",
          "name": "",
          "type": "address"
        },
        {
          "internalType": "address",
          "name": "",
          "type": "address"
        },
        {
          "internalType": "uint256",
          "name": "",
          "type": "uint256"
        },
        {
          "internalType": "bytes",
          "name": "",
          "type": "bytes"
        }
      ],
      "name": "safeTransferFrom",
      "outputs": [],
      "stateMutability": "nonpayable",
      "type": "function"
    },
    {
      "inputs": [
        {
          "internalType": "address",
          "name": "operator",
          "type": "address"
        },
        {
          "internalType": "bool",
          "name": "approved",
          "type": "bool"
        }
      ],
      "name": "setApprovalForAll",
      "outputs": [],
      "stateMutability": "nonpayable",
      "type": "function"
    },
    {
      "inputs": [
        {
          "internalType": "uint256",
          "name": "pixelID",
          "type": "uint256"
        },
        {
          "internalType": "uint8",
          "name": "color",
          "type": "uint8"
        }
      ],
      "name": "setColor",
      "outputs": [],
      "stateMutability": "nonpayable",
      "type": "function"
    },
    {
      "inputs": [
        {
          "internalType": "uint256",
          "name": "pixelID",
          "type": "uint256"
        },
        {
          "internalType": "uint64",
          "name": "newPrice",
          "type": "uint64"
        }
      ],
      "name": "setPrice",
      "outputs": [],
      "stateMutability": "nonpayable",
      "type": "function"
    },
    {
      "inputs": [],
      "name": "stopInitialization",
      "outputs": [],
      "stateMutability": "nonpayable",
      "type": "function"
    },
    {
      "inputs": [
        {
          "internalType": "bytes4",
          "name": "interfaceId",
          "type": "bytes4"
        }
      ],
      "name": "supportsInterface",
      "outputs": [
        {
          "internalType": "bool",
          "name": "",
          "type": "bool"
        }
      ],
      "stateMutability": "view",
      "type": "function"
    },
    {
      "inputs": [],
      "name": "symbol",
      "outputs": [
        {
          "internalType": "string",
          "name": "",
          "type": "string"
        }
      ],
      "stateMutability": "view",
      "type": "function"
    },
    {
      "inputs": [
        {
          "internalType": "uint256",
          "name": "index",
          "type": "uint256"
        }
      ],
      "name": "tokenByIndex",
      "outputs": [
        {
          "internalType": "uint256",
          "name": "",
          "type": "uint256"
        }
      ],
      "stateMutability": "view",
      "type": "function"
    },
    {
      "inputs": [
        {
          "internalType": "address",
          "name": "owner",
          "type": "address"
        },
        {
          "internalType": "uint256",
          "name": "index",
          "type": "uint256"
        }
      ],
      "name": "tokenOfOwnerByIndex",
      "outputs": [
        {
          "internalType": "uint256",
          "name": "",
          "type": "uint256"
        }
      ],
      "stateMutability": "view",
      "type": "function"
    },
    {
      "inputs": [
        {
          "internalType": "uint256",
          "name": "tokenId",
          "type": "uint256"
        }
      ],
      "name": "tokenURI",
      "outputs": [
        {
          "internalType": "string",
          "name": "",
          "type": "string"
        }
      ],
      "stateMutability": "view",
      "type": "function"
    },
    {
      "inputs": [],
      "name": "totalSupply",
      "outputs": [
        {
          "internalType": "uint256",
          "name": "",
          "type": "uint256"
        }
      ],
      "stateMutability": "view",
      "type": "function"
    },
    {
      "inputs": [
        {
          "internalType": "address",
          "name": "",
          "type": "address"
        },
        {
          "internalType": "address",
          "name": "",
          "type": "address"
        },
        {
          "internalType": "uint256",
          "name": "",
          "type": "uint256"
        }
      ],
      "name": "transferFrom",
      "outputs": [],
      "stateMutability": "nonpayable",
      "type": "function"
    },
    {
      "inputs": [
        {
          "internalType": "address",
          "name": "newOwner",
          "type": "address"
        }
      ],
      "name": "transferOwnership",
      "outputs": [],
      "stateMutability": "nonpayable",
      "type": "function"
    },
    {
      "inputs": [
        {
          "internalType": "uint64",
          "name": "amount",
          "type": "uint64"
        }
      ],
      "name": "withdraw",
      "outputs": [],
      "stateMutability": "nonpayable",
      "type": "function"
    },
    {
      "inputs": [],
      "name": "withdrawMax",
      "outputs": [],
      "stateMutability": "nonpayable",
      "type": "function"
    },
    {
      "inputs": [],
      "name": "withdrawMaxOwner",
      "outputs": [],
      "stateMutability": "nonpayable",
      "type": "function"
    },
    {
      "inputs": [
        {
          "internalType": "address",
          "name": "receiver",
          "type": "address"
        }
      ],
      "name": "withdrawMaxTo",
      "outputs": [],
      "stateMutability": "nonpayable",
      "type": "function"
    },
    {
      "inputs": [
        {
          "internalType": "uint64",
          "name": "amount",
          "type": "uint64"
        }
      ],
      "name": "withdrawOwner",
      "outputs": [],
      "stateMutability": "nonpayable",
      "type": "function"
    },
    {
      "inputs": [
        {
          "internalType": "uint64",
          "name": "amount",
          "type": "uint64"
        },
        {
          "internalType": "address",
          "name": "receiver",
          "type": "address"
        }
      ],
      "name": "withdrawOwnerTo",
      "outputs": [],
      "stateMutability": "nonpayable",
      "type": "function"
    },
    {
      "inputs": [
        {
          "internalType": "uint64",
          "name": "amount",
          "type": "uint64"
        },
        {
          "internalType": "address",
          "name": "receiver",
          "type": "address"
        }
      ],
      "name": "withdrawTo",
      "outputs": [],
      "stateMutability": "nonpayable",
      "type": "function"
    }
  ],
  "bytecode": "0x60806040523480156200001157600080fd5b5060405162005e6338038062005e638339810160408190526200003491620003f4565b6040805180820182526005815264141a5e195b60da1b6020808301919091528251808401909352600383526214161360ea1b9083015282916200007e6301ffc9a760e01b6200028a565b81516200009390600690602085019062000313565b508051620000a990600790602084019062000313565b50620000bc6380ac58cd60e01b6200028a565b620000ce635b5e139f60e01b6200028a565b620000e063780e9d6360e01b6200028a565b5060009050620000ef6200030f565b600a80546001600160a01b0319166001600160a01b038316908117909155604051919250906000907f8be0079c531659141344cd1fd0a4f28419497f9722a3daafe3b4186f6b6457e0908290a35063096601808111156200016d5760405162461bcd60e51b815260040162000164906200046d565b60405180910390fd5b600b55600d805460ff191690556000600c556001600160801b038716620001a85760405162461bcd60e51b8152600401620001649062000553565b6000866001600160801b031611620001d45760405162461bcd60e51b8152600401620001649062000596565b6001600160401b03851115620001fe5760405162461bcd60e51b81526004016200016490620004a4565b60008411620002215760405162461bcd60e51b8152600401620001649062000501565b506012805495909602600019016001600160801b0316601155600e93909355600f91909155601080546001600160401b03199081166001600160401b03938416179091556801000000000000000060ff60401b19909416939093179092169116179055620005da565b6001600160e01b03198082161415620002ea576040805162461bcd60e51b815260206004820152601c60248201527f4552433136353a20696e76616c696420696e7465726661636520696400000000604482015290519081900360640190fd5b6001600160e01b0319166000908152602081905260409020805460ff19166001179055565b3390565b828054600181600116156101000203166002900490600052602060002090601f0160209004810192826200034b576000855562000396565b82601f106200036657805160ff191683800117855562000396565b8280016001018555821562000396579182015b828111156200039657825182559160200191906001019062000379565b50620003a4929150620003a8565b5090565b5b80821115620003a45760008155600101620003a9565b80516001600160801b0381168114620003d757600080fd5b919050565b80516001600160401b0381168114620003d757600080fd5b600080600080600080600060e0888a0312156200040f578283fd5b6200041a88620003bf565b96506200042a60208901620003bf565b955060408801519450606088015193506200044860808901620003dc565b92506200045860a08901620003dc565b915060c0880151905092959891949750929550565b60208082526019908201527f52756750756c6c3a20686561647320757020746f6f2062696700000000000000604082015260600190565b60208082526035908201527f47726166666974455448323a207461782072617465206e756d657261746f722060408201527f6d757374206e6f7420626520746f6f206c617267650000000000000000000000606082015260800190565b60208082526032908201527f47726166666974455448323a2074617820726174652064656e6f6d696e61746f60408201527172206d757374206e6f74206265207a65726f60701b606082015260800190565b60208082526023908201527f47726166666974455448323a207769647468206d757374206e6f74206265207a60408201526265726f60e81b606082015260800190565b60208082526024908201527f47726166666974455448323a20686569676874206d757374206e6f74206265206040820152637a65726f60e01b606082015260800190565b61587980620005ea6000396000f3fe6080604052600436106102de5760003560e01c806301ffc9a7146102e357806306f660ef1461031957806306fdde031461033b578063081812fc1461035d578063095ea7b31461038a5780630bdfc9e1146103ac57806314c53886146103cc5780631668c60e146103ee57806318160ddd1461040e5780631ac2e30514610423578063209b190014610438578063234bc0261461044d578063238314941461046d57806323b872dd14610482578063250f8647146104a257806329039967146104b75780632ba27019146104cc5780632f745c59146104ec57806335e19d441461050c5780633dbe1b3b1461051f5780633ec91f051461053457806342842e0e1461048257806347e4d132146105495780634f558e79146105695780634f6ccce7146105895780635057f0e2146105a957806351dde5a8146105c95780635bee2764146105de5780635df33607146105fe5780636352211e1461061e57806363ff13681461063e57806369476fe41461065e5780636c0360eb1461067e57806370a0823114610693578063715018a6146106b3578063750f0acc146106c85780638024f2c4146106e857806384b00178146107085780638da5cb5b1461072857806395d89b411461073d578063964e08111461075257806399dabf9314610772578063a09c372914610787578063a22cb465146107a7578063a8953726146107c7578063ab06a184146107da578063b10a7cce146107ef578063b760faf914610804578063b88d4fde14610817578063c053009014610832578063c373647a14610847578063c87b56dd14610867578063cb66667f14610887578063cc1c3326146108aa578063cfaca2d0146108ca578063d0e30db0146108ea578063d3ac46f9146108f2578063dc28d24e14610912578063e4fd544614610927578063e5cd8b6a14610947578063e75722301461095c578063e985e9c51461097c578063f2fde38b1461099c578063f88b8a57146109bc578063f8b2cb4f146109d1575b600080fd5b3480156102ef57600080fd5b506103036102fe366004614b38565b6109fe565b6040516103109190614c82565b60405180910390f35b34801561032557600080fd5b5061032e610a21565b6040516103109190615527565b34801561034757600080fd5b50610350610a30565b6040516103109190614c9b565b34801561036957600080fd5b5061037d610378366004614b7b565b610ac6565b6040516103109190614c6e565b34801561039657600080fd5b506103aa6103a5366004614975565b610b28565b005b3480156103b857600080fd5b5061032e6103c7366004614803565b610bfe565b3480156103d857600080fd5b506103e1610c29565b6040516103109190615510565b3480156103fa57600080fd5b506103aa610409366004614c50565b610c3f565b34801561041a57600080fd5b506103e1610caf565b34801561042f57600080fd5b506103aa610cc0565b34801561044457600080fd5b506103e1610d63565b34801561045957600080fd5b506103aa610468366004614803565b610d72565b34801561047957600080fd5b506103e1610ec6565b34801561048e57600080fd5b506103aa61049d36600461484f565b610ecc565b3480156104ae57600080fd5b506103aa610ece565b3480156104c357600080fd5b506103e1610f43565b3480156104d857600080fd5b506103aa6104e7366004614bce565b610f59565b3480156104f857600080fd5b506103e1610507366004614975565b61116f565b6103aa61051a36600461499e565b61119a565b34801561052b57600080fd5b506103036111b1565b34801561054057600080fd5b506103036111b9565b34801561055557600080fd5b506103aa610564366004614bf0565b6111c9565b34801561057557600080fd5b50610303610584366004614b7b565b6111d5565b34801561059557600080fd5b506103e16105a4366004614b7b565b6111e0565b3480156105b557600080fd5b506103e16105c4366004614803565b6111f6565b3480156105d557600080fd5b5061030361121d565b3480156105ea57600080fd5b506103aa6105f9366004614c36565b611226565b34801561060a57600080fd5b5061032e610619366004614b7b565b611292565b34801561062a57600080fd5b5061037d610639366004614b7b565b6112cf565b34801561064a57600080fd5b506103aa610659366004614c14565b6112f7565b34801561066a57600080fd5b5061032e610679366004614803565b611386565b34801561068a57600080fd5b506103506113b1565b34801561069f57600080fd5b506103e16106ae366004614803565b611412565b3480156106bf57600080fd5b506103aa61147a565b3480156106d457600080fd5b506103aa6106e3366004614c36565b611514565b3480156106f457600080fd5b506103aa610703366004614975565b61151f565b34801561071457600080fd5b506103aa610723366004614a3b565b61158b565b34801561073457600080fd5b5061037d6118b2565b34801561074957600080fd5b506103506118c1565b34801561075e57600080fd5b506103aa61076d366004614c50565b611922565b34801561077e57600080fd5b506103aa61192d565b34801561079357600080fd5b5061032e6107a2366004614b7b565b611997565b3480156107b357600080fd5b506103aa6107c236600461493b565b6119b9565b6103aa6107d5366004614b60565b611aba565b3480156107e657600080fd5b5061032e611ace565b3480156107fb57600080fd5b506103e1611b2e565b6103aa610812366004614803565b611b34565b34801561082357600080fd5b506103aa61049d36600461488a565b34801561083e57600080fd5b506103aa611b44565b34801561085357600080fd5b506103aa610862366004614b60565b611ac4565b34801561087357600080fd5b50610350610882366004614b7b565b611bae565b34801561089357600080fd5b5061089c611e2f565b604051610310929190615519565b3480156108b657600080fd5b506103aa6108c5366004614b93565b611e39565b3480156108d657600080fd5b5061037d6108e5366004614b7b565b611ed1565b6103aa611eec565b3480156108fe57600080fd5b506103aa61090d36600461499e565b6111a4565b34801561091e57600080fd5b506103e1611ef6565b34801561093357600080fd5b506103aa610942366004614803565b611efc565b34801561095357600080fd5b506103aa611f06565b34801561096857600080fd5b5061032e610977366004614b7b565b611f10565b34801561098857600080fd5b5061030361099736600461481d565b611f79565b3480156109a857600080fd5b506103aa6109b7366004614803565b611fa7565b3480156109c857600080fd5b5061032e612098565b3480156109dd57600080fd5b506109f16109ec366004614803565b6120a7565b6040516103109190614c8d565b6001600160e01b0319811660009081526020819052604090205460ff165b919050565b6012546001600160401b031690565b60068054604080516020601f6002600019610100600188161502019095169490940493840181900481028201810190925282815260609390929091830182828015610abc5780601f10610a9157610100808354040283529160200191610abc565b820191906000526020600020905b815481529060010190602001808311610a9f57829003601f168201915b5050505050905090565b6000610ad18261211f565b610b0c5760405162461bcd60e51b815260040180806020018281038252602c81526020018061571f602c913960400191505060405180910390fd5b506000908152600460205260409020546001600160a01b031690565b6000610b33826112cf565b9050806001600160a01b0316836001600160a01b03161415610b865760405162461bcd60e51b81526004018080602001828103825260218152602001806158036021913960400191505060405180910390fd5b806001600160a01b0316610b9861212c565b6001600160a01b03161480610bb45750610bb48161099761212c565b610bef5760405162461bcd60e51b81526004018080602001828103825260388152602001806156526038913960400191505060405180910390fd5b610bf98383612130565b505050565b6001600160a01b0316600090815260146020526040902054600160c01b90046001600160401b031690565b601654600160801b90046001600160401b031690565b610c4761212c565b6001600160a01b0316610c586118b2565b6001600160a01b031614610ca1576040805162461bcd60e51b8152602060048201819052602482015260008051602061574b833981519152604482015290519081900360640190fd5b610cab828261219e565b5050565b6000610cbb600261230c565b905090565b610cc861212c565b6001600160a01b0316610cd96118b2565b6001600160a01b031614610d22576040805162461bcd60e51b8152602060048201819052602482015260008051602061574b833981519152604482015290519081900360640190fd5b601254600160401b900460ff16610d545760405162461bcd60e51b8152600401610d4b90615431565b60405180910390fd5b6012805460ff60401b19169055565b6016546001600160401b031690565b6001600160a01b038116600090815260146020908152604080832081516080810183528154600f81810b810b900b82526001600160401b03600160801b8204811695830195909552600160c01b900484169281019290925260010154909116606082015290610de082612317565b6001600160a01b0385166000908152601460209081526040918290208451815492860151938601516001600160801b03199093166001600160801b03600f9290920b9190911617600160801b600160c01b031916600160801b6001600160401b0394851602176001600160c01b0316600160c01b928416929092029190911781556060840151600190910180546001600160401b031916918316919091179055601654929450909250610e9b91600160401b90041682612348565b601660086101000a8154816001600160401b0302191690836001600160401b03160217905550505050565b600c5490565bfe5b610ed661212c565b6001600160a01b0316610ee76118b2565b6001600160a01b031614610f30576040805162461bcd60e51b8152602060048201819052602482015260008051602061574b833981519152604482015290519081900360640190fd5b610f41610f3b611ace565b3361219e565b565b601654600160401b90046001600160401b031690565b610f628261211f565b610f6b57600080fd5b6000610f76836112cf565b9050336001600160a01b03821614610fa05760405162461bcd60e51b8152600401610d4b90615380565b33600090815260146020908152604080832081516080810183528154600f81810b810b900b82526001600160401b03600160801b8204811695830195909552600160c01b90048416928101929092526001015490911660608201529061100582612317565b60008781526013602052604090205491935091506001600160401b031661102c83826123e1565b92506110388386612422565b600087815260136020526040902080546001600160401b0319166001600160401b038881169190911790915560165491945061107c91600160401b90041683612348565b60168054600160401b600160801b031916600160401b6001600160401b0393841602179055336000908152601460209081526040918290208651815492880151888501516001600160801b03199094166001600160801b03600f9390930b9290921691909117600160801b600160c01b031916600160801b91861691909102176001600160c01b0316600160c01b92851692909202919091178155606086015160019190910180546001600160401b0319169190931617909155516001600160a01b0385169087906000805160206158248339815191529061115f908990615527565b60405180910390a3505050505050565b6001600160a01b03821660009081526001602052604081206111919083612482565b90505b92915050565b6111a4333361248e565b6111ae33826126f7565b50565b600c54151590565b601254600160401b900460ff1690565b610bf933848484612f86565b60006111948261211f565b6000806111ee600284613567565b509392505050565b6001600160a01b03166000908152601460205260409020600101546001600160401b031690565b600d5460ff1690565b61122e61212c565b6001600160a01b031661123f6118b2565b6001600160a01b031614611288576040805162461bcd60e51b8152602060048201819052602482015260008051602061574b833981519152604482015290519081900360640190fd5b6111ae813361219e565b600061129d8261211f565b6112b357506012546001600160401b0316610a1c565b506000908152601360205260409020546001600160401b031690565b6000611194826040518060600160405280602981526020016156b46029913960029190613583565b6113008261211f565b61131c5760405162461bcd60e51b8152600401610d4b906152aa565b6000611327836112cf565b9050336001600160a01b038216146113515760405162461bcd60e51b8152600401610d4b906150a5565b806001600160a01b0316836000805160206156dd833981519152846040516113799190615557565b60405180910390a3505050565b6001600160a01b0316600090815260146020526040902054600160801b90046001600160401b031690565b60098054604080516020601f6002600019610100600188161502019095169490940493840181900481028201810190925282815260609390929091830182828015610abc5780601f10610a9157610100808354040283529160200191610abc565b60006001600160a01b0382166114595760405162461bcd60e51b815260040180806020018281038252602a81526020018061568a602a913960400191505060405180910390fd5b6001600160a01b03821660009081526001602052604090206111949061230c565b61148261212c565b6001600160a01b03166114936118b2565b6001600160a01b0316146114dc576040805162461bcd60e51b8152602060048201819052602482015260008051602061574b833981519152604482015290519081900360640190fd5b600a546040516000916001600160a01b03169060008051602061576b833981519152908390a3600a80546001600160a01b0319169055565b6111ae33823361359a565b61152761212c565b6001600160a01b03166115386118b2565b6001600160a01b031614611581576040805162461bcd60e51b8152602060048201819052602482015260008051602061574b833981519152604482015290519081900360640190fd5b610cab8282613817565b61159361212c565b6001600160a01b03166115a46118b2565b6001600160a01b0316146115ed576040805162461bcd60e51b8152602060048201819052602482015260008051602061574b833981519152604482015290519081900360640190fd5b601254600160401b900460ff166116165760405162461bcd60e51b8152600401610d4b90615431565b8351835181146116385760405162461bcd60e51b8152600401610d4b906152eb565b808351146116585760405162461bcd60e51b8152600401610d4b9061525f565b808251146116785760405162461bcd60e51b8152600401610d4b906150de565b60005b818110156118aa57600086828151811061169157fe5b6020026020010151905060008683815181106116a957fe5b6020026020010151905060008684815181106116c157fe5b6020026020010151905060008685815181106116d957fe5b602002602001015190506116ec8461211f565b15611709576117046116fd856112cf565b848661393a565b611713565b6117138385613a74565b6001600160a01b03831660009081526014602090815260409182902082516080810184528154600f81810b810b900b82526001600160401b03600160801b8204811694830194909452600160c01b9004831693810193909352600101541660608201526117808184612422565b600086815260136020908152604080832080546001600160401b03808a166001600160401b0319928316179092556001600160a01b038a1680865260148552948390208651815495880151858901518516600160c01b026001600160c01b03918616600160801b02600160801b600160c01b0319600f9490940b6001600160801b03166001600160801b03199099169890981792909216969096179590951694909417845560608601516001949094018054949092169316929092179091555191925090869060008051602061582483398151915290611861908790615527565b60405180910390a3836001600160a01b0316856000805160206156dd833981519152846040516118919190615557565b60405180910390a350506001909301925061167b915050565b505050505050565b600a546001600160a01b031690565b60078054604080516020601f6002600019610100600188161502019095169490940493840181900481028201810190925282815260609390929091830182828015610abc5780601f10610a9157610100808354040283529160200191610abc565b610cab33838361359a565b61193561212c565b6001600160a01b03166119466118b2565b6001600160a01b03161461198f576040805162461bcd60e51b8152602060048201819052602482015260008051602061574b833981519152604482015290519081900360640190fd5b610f41613b8f565b600090815260156020526040902054600160a01b90046001600160401b031690565b6119c161212c565b6001600160a01b0316826001600160a01b03161415611a23576040805162461bcd60e51b815260206004820152601960248201527822a9219b99189d1030b8383937bb32903a379031b0b63632b960391b604482015290519081900360640190fd5b8060056000611a3061212c565b6001600160a01b03908116825260208083019390935260409182016000908120918716808252919093529120805460ff191692151592909217909155611a7461212c565b6001600160a01b03167f17307eab39ab6107e8899845ad3d59bd9653f200f220920489ca2b5937696c318360405180821515815260200191505060405180910390a35050565b611ac4333361248e565b6111ae3382613bec565b6016546000908190611af2906001600160401b03600160401b820481169116612348565b6016549091506001600160401b03808316600160801b909204161115611b1457fe5b601654600160801b90046001600160401b03169003919050565b60115490565b6111ae338261248e565b50505050565b611b4c61212c565b6001600160a01b0316611b5d6118b2565b6001600160a01b031614611ba6576040805162461bcd60e51b8152602060048201819052602482015260008051602061574b833981519152604482015290519081900360640190fd5b610f41613c43565b6060611bb98261211f565b611bf45760405162461bcd60e51b815260040180806020018281038252602f8152602001806157b4602f913960400191505060405180910390fd5b60008281526008602090815260408083208054825160026001831615610100026000190190921691909104601f810185900485028201850190935282815292909190830182828015611c875780601f10611c5c57610100808354040283529160200191611c87565b820191906000526020600020905b815481529060010190602001808311611c6a57829003601f168201915b505050505090506000611c986113b1565b9050805160001415611cac57509050610a1c565b815115611d6d5780826040516020018083805190602001908083835b60208310611ce75780518252601f199092019160209182019101611cc8565b51815160209384036101000a600019018019909216911617905285519190930192850191508083835b60208310611d2f5780518252601f199092019160209182019101611d10565b6001836020036101000a0380198251168184511680821785525050505050509050019250505060405160208183030381529060405292505050610a1c565b80611d7785613ccc565b6040516020018083805190602001908083835b60208310611da95780518252601f199092019160209182019101611d8a565b51815160209384036101000a600019018019909216911617905285519190930192850191508083835b60208310611df15780518252601f199092019160209182019101611dd2565b6001836020036101000a0380198251168184511680821785525050505050509050019250505060405160208183030381529060405292505050919050565b600e54600f549091565b611e428361211f565b611e5e5760405162461bcd60e51b8152600401610d4b906152aa565b6000611e69846112cf565b9050336001600160a01b03821614611e935760405162461bcd60e51b8152600401610d4b90614f05565b806001600160a01b0316836001600160a01b03161415611ec55760405162461bcd60e51b8152600401610d4b90615029565b611b3e84828585613da6565b6000908152601560205260409020546001600160a01b031690565b610f41333361248e565b600b5490565b6111ae3382613e52565b610f413333613e52565b6000611f1b8261211f565b611f3157506012546001600160401b0316610a1c565b6000611f3c836112cf565b90506000611f49826120a7565b600f0b1215611f5c576000915050610a1c565b50506000908152601360205260409020546001600160401b031690565b6001600160a01b03918216600090815260056020908152604080832093909416825291909152205460ff1690565b611faf61212c565b6001600160a01b0316611fc06118b2565b6001600160a01b031614612009576040805162461bcd60e51b8152602060048201819052602482015260008051602061574b833981519152604482015290519081900360640190fd5b6001600160a01b03811661204e5760405162461bcd60e51b81526004018080602001828103825260268152602001806155e86026913960400191505060405180910390fd5b600a546040516001600160a01b0380841692169060008051602061576b83398151915290600090a3600a80546001600160a01b0319166001600160a01b0392909216919091179055565b6010546001600160401b031690565b6001600160a01b038116600090815260146020908152604080832081516080810183528154600f81810b810b900b82526001600160401b03600160801b8204811695830195909552600160c01b90048416928101929092526001015490911660608201528161211582612317565b5051949350505050565b6000611194600283613eb3565b3390565b600081815260046020526040902080546001600160a01b0319166001600160a01b0384169081179091558190612165826112cf565b6001600160a01b03167f8c5be1e5ebec7d5bd14f71427d1e84f3dd0314c0f7b2291e5b200ac8c7c3b92560405160405180910390a45050565b60006121a8611ace565b9050806001600160401b0316836001600160401b031611156121dc5760405162461bcd60e51b8152600401610d4b906154c7565b6016546121f990600160801b90046001600160401b031684612348565b60168054600160801b600160c01b031916600160801b6001600160401b03938416021790558316633b9aca00024781111561223057fe5b6001600160401b038416633b9aca0082041461224857fe5b6000836001600160a01b03168260405161226190614c6b565b60006040518083038185875af1925050503d806000811461229e576040519150601f19603f3d011682016040523d82523d6000602084013e6122a3565b606091505b50509050806122c45760405162461bcd60e51b8152600401610d4b90614de9565b836001600160a01b03167f8320dd0681f508ec596969c6cb3b91527fbef7815183fa91fcde63f05e2be312866040516122fd9190615527565b60405180910390a25050505050565b600061119482613ebf565b61231f6145f7565b600e54600f5460105460009261233f9286926001600160401b0316613ec3565b91509150915091565b600080826001600160401b03036001600160401b0316846001600160401b0316116123765750828201612380565b506001600160401b035b836001600160401b0316816001600160401b0316101580156123b45750826001600160401b0316816001600160401b031610155b6123ba57fe5b826001600160401b0316846001600160401b031601816001600160401b0316111561119157fe5b6123e96145f7565b816001600160401b031683602001516001600160401b0316101561240957fe5b50602082018051919091036001600160401b0316905290565b61242a6145f7565b82602001516001600160401b03036001600160401b0316826001600160401b031611156124695760405162461bcd60e51b8152600401610d4b90615129565b50602082018051919091016001600160401b0316905290565b60006111918383614021565b6001600160a01b038116600090815260146020908152604080832081516080810183528154600f81810b810b900b82526001600160401b03600160801b8204811695830195909552600160c01b9004841692810192909252600101549091166060820152906124fc82612317565b9092509050633b9aca003406156125255760405162461bcd60e51b8152600401610d4b90614f73565b633b9aca0034046001600160401b038111156125535760405162461bcd60e51b8152600401610d4b9061547f565b825181906000600f9190910b12156125c6578351600f0b6000908103906001600160401b038316821261258757508161259b565b6001600160401b0382131561259857fe5b50805b6125a58582612348565b94506125b5866060015182612348565b6001600160401b0316606087015250505b6125d08482614085565b6001600160a01b0386166000908152601460209081526040918290208351815492850151938501516001600160801b03199093166001600160801b03600f9290920b9190911617600160801b600160c01b031916600160801b6001600160401b0394851602176001600160c01b0316600160c01b928416929092029190911781556060830151600190910180546001600160401b03191691831691909117905560165491955061268891600160401b90041684612348565b601660086101000a8154816001600160401b0302191690836001600160401b03160217905550856001600160a01b0316856001600160a01b03167fc7921355bf05208382b692023dc2dc0a8d22a078b41a1d3a1ccabe4bccf6ee4c83876000015160405161115f92919061553b565b6001600160a01b038216600090815260146020908152604080832081516080810183528154600f81810b810b900b82526001600160401b03600160801b8204811695830195909552600160c01b9004841692810192909252600101548216606082015283519092918291908111801561276f57600080fd5b50604051908082528060200260200182016040528015612799578160200160208202803683370190505b509050600084516001600160401b03811180156127b557600080fd5b506040519080825280602002602001820160405280156127ef57816020015b6127dc6145f7565b8152602001906001900390816127d45790505b5090506000806127ff86836140a9565b909650915060005b8751811015612d815780158061284d575087600182038151811061282757fe5b60200260200101516000015188828151811061283f57fe5b602002602001015160000151115b6128695760405162461bcd60e51b8152600401610d4b90615181565b600061288b89838151811061287a57fe5b602002602001015160000151611f10565b905088828151811061289957fe5b6020026020010151602001516001600160401b0316816001600160401b031611156128d65760405162461bcd60e51b8152600401610d4b90614e78565b806001600160401b03168860000151600f0b12156129065760405162461bcd60e51b8152600401610d4b90614e32565b61291088826140e0565b9750612933888a848151811061292257fe5b602002602001015160400151612422565b975060006129578a848151811061294657fe5b60200260200101516000015161211f565b15612b895761297c8a848151811061296b57fe5b6020026020010151600001516112cf565b90508a6001600160a01b0316816001600160a01b031614156129b05760405162461bcd60e51b8152600401610d4b90615336565b6129b86145f7565b60005b89811015612a1357826001600160a01b03168982815181106129d957fe5b60200260200101516001600160a01b03161415612a0b578781815181106129fc57fe5b60200260200101519150612a13565b6001016129bb565b8751811115612a1e57fe5b89811415612ad2576001600160a01b03831660009081526014602090815260409182902082516080810184528154600f81810b810b900b82526001600160401b03600160801b8204811694830194909452600160c01b900483169381019390935260019081015490911660608301528a519b019a90925083908a9083908110612aa357fe5b60200260200101906001600160a01b031690816001600160a01b031681525050612acd82886140a9565b975091505b6000601360008e8881518110612ae457fe5b602090810291909101810151518252810191909152604001600020546001600160401b03169050612b158386614085565b9250612b2183826123e1565b925082898381518110612b3057fe5b6020026020010181905250612b5d848f8f8981518110612b4c57fe5b60200260200101516000015161393a565b612b818d8781518110612b6c57fe5b6020026020010151600001518f600080613da6565b505050612bf2565b506000612b968483612348565b93506011548a8481518110612ba757fe5b6020026020010151600001511115612bd15760405162461bcd60e51b8152600401610d4b90614cee565b612bf28b8b8581518110612be157fe5b602002602001015160000151613a74565b898381518110612bfe57fe5b602002602001015160400151601360008c8681518110612c1a57fe5b602002602001015160000151815260200190815260200160002060006101000a8154816001600160401b0302191690836001600160401b031602179055508a6001600160a01b0316816001600160a01b03168b8581518110612c7857fe5b6020026020010151600001517f42a061f17422d0a3fce98316d85925477270aa3f53991439bfc973e72f65f16085604051612cb39190615527565b60405180910390a48a6001600160a01b03168a8481518110612cd157fe5b6020026020010151600001516000805160206156dd8339815191528c8681518110612cf857fe5b602002602001015160600151604051612d119190615557565b60405180910390a38a6001600160a01b03168a8481518110612d2f57fe5b6020026020010151600001516000805160206158248339815191528c8681518110612d5657fe5b602002602001015160400151604051612d6f9190615527565b60405180910390a35050600101612807565b506001600160a01b03881660009081526014602090815260409182902088518154928a0151938a01516001600160801b03199093166001600160801b03600f9290920b9190911617600160801b600160c01b031916600160801b6001600160401b0394851602176001600160c01b0316600160c01b928416929092029190911781556060880151600190910180546001600160401b031916919092161790558251845114612e2b57fe5b60005b8451811015612f0c576000858281518110612e4557fe5b60200260200101519050848281518110612e5b57fe5b6020908102919091018101516001600160a01b03929092166000908152601482526040908190208351815493850151928501516001600160801b03199094166001600160801b03600f9290920b9190911617600160801b600160c01b031916600160801b6001600160401b0393841602176001600160c01b0316600160c01b93831693909302929092178255606090920151600191820180546001600160401b031916919093161790915501612e2e565b50601654612f2a90600160401b90046001600160401b031683612348565b60168054600160401b600160801b031916600160401b6001600160401b03938416021790819055612f5c911682612348565b601680546001600160401b0319166001600160401b03929092169190911790555050505050505050565b612f8f8361211f565b612fab5760405162461bcd60e51b8152600401610d4b906152aa565b6000612fb6846112cf565b6000858152601560209081526040918290208251808401909352546001600160a01b03808216808552600160a01b9092046001600160401b03169284019290925292935090919087161461301c5760405162461bcd60e51b8152600401610d4b906151c2565b60008060146000856001600160a01b03166001600160a01b031681526020019081526020016000206040518060800160405290816000820160009054906101000a9004600f0b600f0b600f0b81526020016000820160109054906101000a90046001600160401b03166001600160401b03166001600160401b031681526020016000820160189054906101000a90046001600160401b03166001600160401b03166001600160401b031681526020016001820160009054906101000a90046001600160401b03166001600160401b03166001600160401b03168152505090506000601460008a6001600160a01b03166001600160a01b031681526020019081526020016000206040518060800160405290816000820160009054906101000a9004600f0b600f0b600f0b81526020016000820160109054906101000a90046001600160401b03166001600160401b03166001600160401b031681526020016000820160189054906101000a90046001600160401b03166001600160401b03166001600160401b031681526020016001820160009054906101000a90046001600160401b03166001600160401b03166001600160401b03168152505090506131e382846140a9565b935091506131f181846140a9565b93509050600061320089611292565b9050876001600160401b0316816001600160401b031611156132345760405162461bcd60e51b8152600401610d4b90614ec2565b61323e83826123e1565b925061324a8282612422565b9150600085602001516001600160401b03168460000151600f0b12613274575060208501516132a7565b60008460000151600f0b126132a35783516001600160401b03600f9190910b131561329b57fe5b5082516132a7565b5060005b876001600160401b0316816001600160401b031610156132d95760405162461bcd60e51b8152600401610d4b906153b9565b6132e384826140e0565b93506132ef8382614085565b92508360146000896001600160a01b03166001600160a01b0316815260200190815260200160002060008201518160000160006101000a8154816001600160801b030219169083600f0b6001600160801b0316021790555060208201518160000160106101000a8154816001600160401b0302191690836001600160401b0316021790555060408201518160000160186101000a8154816001600160401b0302191690836001600160401b0316021790555060608201518160010160006101000a8154816001600160401b0302191690836001600160401b0316021790555090505082601460008d6001600160a01b03166001600160a01b0316815260200190815260200160002060008201518160000160006101000a8154816001600160801b030219169083600f0b6001600160801b0316021790555060208201518160000160106101000a8154816001600160401b0302191690836001600160401b0316021790555060408201518160000160186101000a8154816001600160401b0302191690836001600160401b0316021790555060608201518160010160006101000a8154816001600160401b0302191690836001600160401b031602179055509050506134d0601660089054906101000a90046001600160401b031686612348565b601660086101000a8154816001600160401b0302191690836001600160401b03160217905550613501878c8c61393a565b61350e8a88600080613da6565b8a6001600160a01b0316876001600160a01b03168b7f054b2f294b34d5fac1690903e9fe65921870f8d7c1ef57f4ca2301894737c363846040516135529190615527565b60405180910390a45050505050505050505050565b600080808061357686866140f4565b9097909650945050505050565b600061359084848461416f565b90505b9392505050565b6001600160a01b038316600090815260146020908152604080832081516080810183528154600f81810b810b900b82526001600160401b03600160801b8204811695830195909552600160c01b90048416928101929092526001015490911660608201529061360882612317565b815191935091506001600160401b038516600f9190910b121561363d5760405162461bcd60e51b8152600401610d4b90615211565b61364782856140e0565b9150633b9aca006001600160401b0385168181029182041461366557fe5b6000846001600160a01b03168260405161367e90614c6b565b60006040518083038185875af1925050503d80600081146136bb576040519150601f19603f3d011682016040523d82523d6000602084013e6136c0565b606091505b50509050806136e15760405162461bcd60e51b8152600401610d4b906153ee565b6001600160a01b0387166000908152601460209081526040918290208651815492880151938801516001600160801b03199093166001600160801b03600f9290920b9190911617600160801b600160c01b031916600160801b6001600160401b0394851602176001600160c01b0316600160c01b928416929092029190911781556060860151600190910180546001600160401b03191691831691909117905560165461379791600160401b9091041684612348565b601660086101000a8154816001600160401b0302191690836001600160401b03160217905550846001600160a01b0316876001600160a01b03167fd200b98d2920a80d947f79667cc8b90d91d57ecb33c7898637125d71580e50e088876000015160405161380692919061553b565b60405180910390a350505050505050565b600d5460ff161561383a5760405162461bcd60e51b8152600401610d4b90614ffe565b600c546138595760405162461bcd60e51b8152600401610d4b90614d81565b600c5442101561387b5760405162461bcd60e51b8152600401610d4b90614fc9565b6000826001600160a01b03168260405161389490614c6b565b60006040518083038185875af1925050503d80600081146138d1576040519150601f19603f3d011682016040523d82523d6000602084013e6138d6565b606091505b50509050806138f75760405162461bcd60e51b8152600401610d4b9061506e565b826001600160a01b0316336001600160a01b03167fe64225e0e86b93cbd64a96e476163519fe65be29879338a66adcc08159edc2b3846040516113799190615510565b826001600160a01b031661394d826112cf565b6001600160a01b0316146139925760405162461bcd60e51b815260040180806020018281038252602981526020018061578b6029913960400191505060405180910390fd5b6001600160a01b0382166139d75760405162461bcd60e51b815260040180806020018281038252602481526020018061560e6024913960400191505060405180910390fd5b6139e2838383610bf9565b6139ed600082612130565b6001600160a01b0383166000908152600160205260409020613a0f9082614239565b506001600160a01b0382166000908152600160205260409020613a329082614245565b50613a3f60028284614251565b5080826001600160a01b0316846001600160a01b03166000805160206157e383398151915260405160405180910390a4505050565b6001600160a01b038216613acf576040805162461bcd60e51b815260206004820181905260248201527f4552433732313a206d696e7420746f20746865207a65726f2061646472657373604482015290519081900360640190fd5b613ad88161211f565b15613b29576040805162461bcd60e51b815260206004820152601c60248201527b115490cdcc8c4e881d1bdad95b88185b1c9958591e481b5a5b9d195960221b604482015290519081900360640190fd5b613b3560008383610bf9565b6001600160a01b0382166000908152600160205260409020613b579082614245565b50613b6460028284614251565b5060405181906001600160a01b038416906000906000805160206157e3833981519152908290a45050565b600d5460ff1615613bb25760405162461bcd60e51b8152600401610d4b90614f40565b600d805460ff1916600117905560405133907fb8d187aa99b531be43e3a058a271522bd2b409c64fde99ab089d46e04c3c1d4c90600090a2565b604080516001808252818301909252600091816020015b613c0b6145f7565b815260200190600190039081613c035790505090508181600081518110613c2e57fe5b6020026020010181905250610bf983826126f7565b600d5460ff1615613c665760405162461bcd60e51b8152600401610d4b90614ffe565b600c5415613c865760405162461bcd60e51b8152600401610d4b90614db5565b600b5442908101600c81905560405133927fb541144ed00ffd8bbd35d5dd947facd4ae14b74d9f614f23049e2be938317f8592613cc292615519565b60405180910390a2565b606081613cf157506040805180820190915260018152600360fc1b6020820152610a1c565b8160005b8115613d0957600101600a82049150613cf5565b6000816001600160401b0381118015613d2157600080fd5b506040519080825280601f01601f191660200182016040528015613d4c576020820181803683370190505b50859350905060001982015b8315613d9d57600a840660300160f81b82828060019003935081518110613d7b57fe5b60200101906001600160f81b031916908160001a905350600a84049350613d58565b50949350505050565b6040805180820182526001600160a01b038481168083526001600160401b03858116602080860191825260008b815260159091528690209451855491516001600160a01b031990921690851617600160a01b600160e01b031916600160a01b9190921602179092559151909185169086907f28aacdb5c6561da8dedc28ea0f08e1140a887e31a2658eb3c3d315f4e22a57ad90613e44908690615527565b60405180910390a450505050565b6000613e5d836120a7565b9050600081600f0b1215613e835760405162461bcd60e51b8152600401610d4b90614d30565b60006001600160401b03600f83900b12613ea557506001600160401b03613ea8565b50805b611b3e84828561359a565b60006111918383614267565b5490565b613ecb6145f7565b60408501516000906001600160401b038085169082161015613eea5750825b6000613efd87878a60200151854261427f565b90506000816001600160401b03168960000151600f0b12613f1f575080613f52565b60008960000151600f0b12613f4e5788516001600160401b03600f9190910b1315613f4657fe5b508751613f52565b5060005b816001600160401b0316816001600160401b03161115613f6e57fe5b60008960000151600f0b12158015613f9357508851600f0b6001600160401b03821613155b80613fb7575060008960000151600f0b128015613fb757506001600160401b038116155b613fbd57fe5b8851613fc99083614335565b600f90810b900b895260408901516001600160401b0316421015613fe957fe5b6001600160401b03421660408a015260608901516140079082612348565b6001600160401b031660608a015297989650505050505050565b815460009082106140635760405162461bcd60e51b81526004018080602001828103825260228152602001806155a66022913960400191505060405180910390fd5b82600001828154811061407257fe5b9060005260206000200154905092915050565b61408d6145f7565b82516140999083614385565b600f90810b900b83525090919050565b6140b16145f7565b600e54600f546010546000926140d5928792879291906001600160401b031661441e565b915091509250929050565b6140e86145f7565b82516140999083614335565b8154600090819083106141385760405162461bcd60e51b81526004018080602001828103825260228152602001806156fd6022913960400191505060405180910390fd5b600084600001848154811061414957fe5b906000526020600020906002020190508060000154816001015492509250509250929050565b6000828152600184016020526040812054828161420a5760405162461bcd60e51b81526004018080602001828103825283818151815260200191508051906020019080838360005b838110156141cf5781810151838201526020016141b7565b50505050905090810190601f1680156141fc5780820380516001836020036101000a031916815260200191505b509250505060405180910390fd5b5084600001600182038154811061421d57fe5b9060005260206000209060020201600101549150509392505050565b60006111918383614450565b60006111918383614516565b600061359084846001600160a01b038516614560565b60009081526001919091016020526040902054151590565b6000826001600160401b0316826001600160401b0316116142a25750600061432c565b8282036001600160401b0390811690851602860260008682816142c157fe5b049050818111156142ce57fe5b60006001600160401b0382116142e55750806142ef565b506001600160401b035b81816001600160401b031614806143215750806001600160401b03168211801561432157506001600160401b03818116145b61432757fe5b925050505b95945050505050565b600080826001600160401b031660016001607f1b031901600f0b84600f0b1261436a57506001600160401b0382168303614375565b5060016001607f1b03195b83600f0b81600f0b131561119157fe5b600080826001600160401b031660016001607f1b0303600f0b84600f0b136143b957506001600160401b03821683016143c3565b5060016001607f1b035b83600f0b81600f0b121580156144185750600084600f0b121580156143f45750826001600160401b031681600f0b12155b806144185750600084600f0b1280156144185750826001600160401b031681600f0b125b61119157fe5b6144266145f7565b60008061443588878787613ec3565b90985090506144448782612348565b97989650505050505050565b6000818152600183016020526040812054801561450c578354600019808301919081019060009087908390811061448357fe5b90600052602060002001549050808760000184815481106144a057fe5b6000918252602080832090910192909255828152600189810190925260409020908401905586548790806144d057fe5b60019003818190600052602060002001600090559055866001016000878152602001908152602001600020600090556001945050505050611194565b6000915050611194565b60006145228383614267565b61455857508154600181810184556000848152602080822090930184905584548482528286019093526040902091909155611194565b506000611194565b6000828152600184016020526040812054806145c5575050604080518082018252838152602080820184815286546001818101895560008981528481209551600290930290950191825591519082015586548684528188019092529290912055613593565b828560000160018303815481106145d857fe5b9060005260206000209060020201600101819055506000915050613593565b60408051608081018252600080825260208201819052918101829052606081019190915290565b80356001600160a01b0381168114610a1c57600080fd5b600082601f830112614645578081fd5b8135602061465a61465583615588565b615565565b8281528181019085830183850287018401881015614676578586fd5b855b8581101561469b576146898261461e565b84529284019290840190600101614678565b5090979650505050505050565b600082601f8301126146b8578081fd5b813560206146c861465583615588565b82815281810190858301838502870184018810156146e4578586fd5b855b8581101561469b576146f7826147db565b845292840192908401906001016146e6565b600082601f830112614719578081fd5b8135602061472961465583615588565b8281528181019085830183850287018401881015614745578586fd5b855b8581101561469b57614758826147f2565b84529284019290840190600101614747565b60006080828403121561477b578081fd5b604051608081016001600160401b038111828210171561479757fe5b604052823581529050806147ad602084016147db565b60208201526147be604084016147db565b60408201526147cf606084016147f2565b60608201525092915050565b80356001600160401b0381168114610a1c57600080fd5b803560ff81168114610a1c57600080fd5b600060208284031215614814578081fd5b6111918261461e565b6000806040838503121561482f578081fd5b6148388361461e565b91506148466020840161461e565b90509250929050565b600080600060608486031215614863578081fd5b61486c8461461e565b925061487a6020850161461e565b9150604084013590509250925092565b6000806000806080858703121561489f578182fd5b6148a88561461e565b935060206148b781870161461e565b93506040860135925060608601356001600160401b03808211156148d9578384fd5b818801915088601f8301126148ec578384fd5b8135818111156148f857fe5b61490a601f8201601f19168501615565565b9150808252898482850101111561491f578485fd5b8084840185840137810190920192909252939692955090935050565b6000806040838503121561494d578182fd5b6149568361461e565b91506020830135801515811461496a578182fd5b809150509250929050565b60008060408385031215614987578182fd5b6149908361461e565b946020939093013593505050565b600060208083850312156149b0578182fd5b82356001600160401b038111156149c5578283fd5b8301601f810185136149d5578283fd5b80356149e361465582615588565b818152838101908385016080808502860187018a1015614a01578788fd5b8795505b84861015614a2d57614a178a8361476a565b8452600195909501949286019290810190614a05565b509098975050505050505050565b60008060008060808587031215614a50578182fd5b84356001600160401b0380821115614a66578384fd5b818701915087601f830112614a79578384fd5b81356020614a8961465583615588565b82815281810190858301838502870184018d1015614aa5578889fd5b8896505b84871015614ac7578035835260019690960195918301918301614aa9565b5098505088013592505080821115614add578384fd5b614ae988838901614635565b94506040870135915080821115614afe578384fd5b614b0a888389016146a8565b93506060870135915080821115614b1f578283fd5b50614b2c87828801614709565b91505092959194509250565b600060208284031215614b49578081fd5b81356001600160e01b031981168114611191578182fd5b600060808284031215614b71578081fd5b611191838361476a565b600060208284031215614b8c578081fd5b5035919050565b600080600060608486031215614ba7578081fd5b83359250614bb76020850161461e565b9150614bc5604085016147db565b90509250925092565b60008060408385031215614be0578182fd5b82359150614846602084016147db565b600080600060608486031215614c04578081fd5b83359250614bb7602085016147db565b60008060408385031215614c26578182fd5b82359150614846602084016147f2565b600060208284031215614c47578081fd5b611191826147db565b60008060408385031215614c62578182fd5b614838836147db565b90565b6001600160a01b0391909116815260200190565b901515815260200190565b600f9190910b815260200190565b6000602080835283518082850152825b81811015614cc757858101830151858201604001528201614cab565b81811115614cd85783604083870101525b50601f01601f1916929092016040019392505050565b60208082526022908201527f47726166666974455448323a206d617820706978656c20494420657863656564604082015261195960f21b606082015260800190565b60208082526031908201527f47726166666974455448323a206163636f756e742062616c616e6365206d757360408201527074206e6f74206265206e6567617469766560781b606082015260800190565b6020808252601a9082015279149d59d41d5b1b0e881b9bdd08185b9b9bdd5b98d959081e595d60321b604082015260600190565b6020808252601a9082015279149d59d41d5b1b0e88185b1c9958591e48185b9b9bdd5b98d95960321b604082015260600190565b60208082526029908201527f47726166666974455448323a2077697468647261772074617865732063616c6c604082015268081c995d995c9d195960ba1b606082015260800190565b60208082526026908201527f47726166666974455448323a2062757965722063616e6e6f74206166666f7264604082015265081c1a5e195b60d21b606082015260800190565b6020808252602a908201527f47726166666974455448323a20706978656c2070726963652065786365656473604082015269206d617820707269636560b01b606082015260800190565b60208082526023908201527f47726166666974455448323a20706978656c20697320746f6f20657870656e7360408201526269766560e81b606082015260800190565b6020808252602d908201526000805160206155c883398151915260408201526c6e20736574206561726d61726b60981b606082015260800190565b602080825260199082015278149d59d41d5b1b0e88185b1c9958591e48191a5cd8589b1959603a1b604082015260600190565b60208082526036908201527f47726166666974455448323a206465706f73697420616d6f756e74206d757374604082015275206265206d756c7469706c65206f662031204757656960501b606082015260800190565b6020808252818101527f52756750756c6c3a206865616473207570206e6f742070617373656420796574604082015260600190565b602080825260119082015270149d59d41d5b1b0e88191a5cd8589b1959607a1b604082015260600190565b60208082526025908201527f47726166666974455448323a2063616e6e6f74206561726d61726b20666f722060408201526437bbb732b960d91b606082015260800190565b6020808252601d908201527f52756750756c6c3a2073656e64696e672066756e6473206661696c6564000000604082015260600190565b6020808252602b908201526000805160206155c883398151915260408201526a371039b2ba1031b7b637b960a91b606082015260800190565b6020808252603d908201527f47726166666974455448323a206e756d626572206f6620636f6c6f72732064696040820152600080516020615632833981519152606082015260800190565b60208082526038908201527f47726166666974455448323a20706978656c20707269636520746f6f206869676040820152771a0b081d185e0818985cd9481b585e08195e18d95959195960421b606082015260800190565b60208082526021908201527f47726166666974455448323a20706978656c20696473206e6f7420736f7274656040820152601960fa1b606082015260800190565b6020808252602f908201527f47726166666974455448323a206163636f756e74206e6f7420616c6c6f77656460408201526e081d1bc818db185a5b481c1a5e195b608a1b606082015260800190565b6020808252602e908201527f47726166666974455448323a2063616e6e6f74207769746864726177206d6f7260408201526d65207468616e2062616c616e636560901b606082015260800190565b6020808252603d908201527f47726166666974455448323a206e756d626572206f66207072696365732064696040820152600080516020615632833981519152606082015260800190565b60208082526021908201527f47726166666974455448323a20706978656c20646f6573206e6f7420657869736040820152601d60fa1b606082015260800190565b6020808252603d908201527f47726166666974455448323a206e756d626572206f66206f776e6572732064696040820152600080516020615632833981519152606082015260800190565b6020808252602a908201527f47726166666974455448323a20627579657220616e642073656c6c657220617260408201526965207468652073616d6560b01b606082015260800190565b6020808252602b908201526000805160206155c883398151915260408201526a6e2073657420707269636560a81b606082015260800190565b6020808252818101527f47726166666974455448323a20616d6f756e7420697320746f6f20736d616c6c604082015260600190565b60208082526023908201527f47726166666974455448323a2077697468647261772063616c6c2072657665726040820152621d195960ea1b606082015260800190565b6020808252602e908201527f47726166666974455448323a20696e697469616c697a6174696f6e207068617360408201526d329030b63932b0b23c9037bb32b960911b606082015260800190565b60208082526028908201527f47726166666974455448323a206d6178206465706f73697420616d6f756e7420604082015267195e18d95959195960c21b606082015260800190565b60208082526029908201527f47726166666974455448323a206e6f7420656e6f7567682066756e647320746f60408201526820776974686472617760b81b606082015260800190565b90815260200190565b918252602082015260400190565b6001600160401b0391909116815260200190565b6001600160401b03929092168252600f0b602082015260400190565b60ff91909116815260200190565b6040518181016001600160401b038111828210171561558057fe5b604052919050565b60006001600160401b0382111561559b57fe5b506020908102019056fe456e756d657261626c655365743a20696e646578206f7574206f6620626f756e647347726166666974455448323a206f6e6c7920706978656c206f776e65722063614f776e61626c653a206e6577206f776e657220697320746865207a65726f20616464726573734552433732313a207472616e7366657220746f20746865207a65726f206164647265737366666572656e742066726f6d206e756d626572206f6620706978656c730000004552433732313a20617070726f76652063616c6c6572206973206e6f74206f776e6572206e6f7220617070726f76656420666f7220616c6c4552433732313a2062616c616e636520717565727920666f7220746865207a65726f20616464726573734552433732313a206f776e657220717565727920666f72206e6f6e6578697374656e7420746f6b656ea57125e4ff01455f98dea3907ead9066b97a612484d328cb01d3a389df8fa7ec456e756d657261626c654d61703a20696e646578206f7574206f6620626f756e64734552433732313a20617070726f76656420717565727920666f72206e6f6e6578697374656e7420746f6b656e4f776e61626c653a2063616c6c6572206973206e6f7420746865206f776e65728be0079c531659141344cd1fd0a4f28419497f9722a3daafe3b4186f6b6457e04552433732313a207472616e73666572206f6620746f6b656e2074686174206973206e6f74206f776e4552433732314d657461646174613a2055524920717565727920666f72206e6f6e6578697374656e7420746f6b656eddf252ad1be2c89b69c2b068fc378daa952ba7f163c4a11628f55a4df523b3ef4552433732313a20617070726f76616c20746f2063757272656e74206f776e6572c1526ed48b58640a10ae476df49794ee6fba1f483ec8093062f7e10f6eaae3bba2646970667358221220e3e2d145061981cb34e16d983644078cb3082c87dd289afa01f017b26f9539ff64736f6c63430007060033",
  "linkReferences": {},
  "deployedLinkReferences": {}
}