{
  "_format": "hh-sol-artifact-1",
  "contractName": "GraffitETH2",
  "sourceName": "contracts/GraffitETH2.sol",
  "abi": [
    {
      "inputs": [
        {
          "internalType": "uint128",
          "name": "width",
          "type": "uint128"
        },
        {
          "internalType": "uint128",
          "name": "height",
          "type": "uint128"
        },
        {
          "internalType": "uint256",
          "name": "taxRateNumerator",
          "type": "uint256"
        },
        {
          "internalType": "uint256",
          "name": "taxRateDenominator",
          "type": "uint256"
        },
        {
          "internalType": "uint64",
          "name": "taxStartTime",
          "type": "uint64"
        },
        {
          "internalType": "uint64",
          "name": "initialPrice",
          "type": "uint64"
        },
        {
          "internalType": "uint256",
          "name": "rugPullHeadsUp",
          "type": "uint256"
        }
      ],
      "stateMutability": "nonpayable",
      "type": "constructor"
    },
    {
      "anonymous": false,
      "inputs": [
        {
          "indexed": true,
          "internalType": "address",
          "name": "owner",
          "type": "address"
        },
        {
          "indexed": true,
          "internalType": "address",
          "name": "approved",
          "type": "address"
        },
        {
          "indexed": true,
          "internalType": "uint256",
          "name": "tokenId",
          "type": "uint256"
        }
      ],
      "name": "Approval",
      "type": "event"
    },
    {
      "anonymous": false,
      "inputs": [
        {
          "indexed": true,
          "internalType": "address",
          "name": "owner",
          "type": "address"
        },
        {
          "indexed": true,
          "internalType": "address",
          "name": "operator",
          "type": "address"
        },
        {
          "indexed": false,
          "internalType": "bool",
          "name": "approved",
          "type": "bool"
        }
      ],
      "name": "ApprovalForAll",
      "type": "event"
    },
    {
      "anonymous": false,
      "inputs": [
        {
          "indexed": true,
          "internalType": "uint256",
          "name": "pixelID",
          "type": "uint256"
        },
        {
          "indexed": true,
          "internalType": "address",
          "name": "seller",
          "type": "address"
        },
        {
          "indexed": true,
          "internalType": "address",
          "name": "buyer",
          "type": "address"
        },
        {
          "indexed": false,
          "internalType": "uint64",
          "name": "price",
          "type": "uint64"
        }
      ],
      "name": "Bought",
      "type": "event"
    },
    {
      "anonymous": false,
      "inputs": [
        {
          "indexed": true,
          "internalType": "uint256",
          "name": "pixelID",
          "type": "uint256"
        },
        {
          "indexed": true,
          "internalType": "address",
          "name": "owner",
          "type": "address"
        },
        {
          "indexed": false,
          "internalType": "uint8",
          "name": "color",
          "type": "uint8"
        }
      ],
      "name": "ColorChanged",
      "type": "event"
    },
    {
      "anonymous": false,
      "inputs": [
        {
          "indexed": true,
          "internalType": "address",
          "name": "account",
          "type": "address"
        },
        {
          "indexed": true,
          "internalType": "address",
          "name": "depositor",
          "type": "address"
        },
        {
          "indexed": false,
          "internalType": "uint64",
          "name": "amount",
          "type": "uint64"
        },
        {
          "indexed": false,
          "internalType": "int128",
          "name": "balance",
          "type": "int128"
        }
      ],
      "name": "Deposited",
      "type": "event"
    },
    {
      "anonymous": false,
      "inputs": [
        {
          "indexed": true,
          "internalType": "uint256",
          "name": "pixelID",
          "type": "uint256"
        },
        {
          "indexed": true,
          "internalType": "address",
          "name": "owner",
          "type": "address"
        },
        {
          "indexed": true,
          "internalType": "address",
          "name": "receiver",
          "type": "address"
        },
        {
          "indexed": false,
          "internalType": "uint64",
          "name": "amount",
          "type": "uint64"
        }
      ],
      "name": "Earmarked",
      "type": "event"
    },
    {
      "anonymous": false,
      "inputs": [
        {
          "indexed": true,
          "internalType": "address",
          "name": "previousOwner",
          "type": "address"
        },
        {
          "indexed": true,
          "internalType": "address",
          "name": "newOwner",
          "type": "address"
        }
      ],
      "name": "OwnershipTransferred",
      "type": "event"
    },
    {
      "anonymous": false,
      "inputs": [
        {
          "indexed": true,
          "internalType": "uint256",
          "name": "pixelID",
          "type": "uint256"
        },
        {
          "indexed": true,
          "internalType": "address",
          "name": "oldOwner",
          "type": "address"
        },
        {
          "indexed": true,
          "internalType": "address",
          "name": "newOwner",
          "type": "address"
        },
        {
          "indexed": false,
          "internalType": "uint64",
          "name": "amount",
          "type": "uint64"
        }
      ],
      "name": "PixelClaimed",
      "type": "event"
    },
    {
      "anonymous": false,
      "inputs": [
        {
          "indexed": true,
          "internalType": "uint256",
          "name": "pixelID",
          "type": "uint256"
        },
        {
          "indexed": true,
          "internalType": "address",
          "name": "owner",
          "type": "address"
        },
        {
          "indexed": false,
          "internalType": "uint64",
          "name": "price",
          "type": "uint64"
        }
      ],
      "name": "PriceChanged",
      "type": "event"
    },
    {
      "anonymous": false,
      "inputs": [
        {
          "indexed": true,
          "internalType": "address",
          "name": "sender",
          "type": "address"
        },
        {
          "indexed": false,
          "internalType": "uint256",
          "name": "timestamp",
          "type": "uint256"
        },
        {
          "indexed": false,
          "internalType": "uint256",
          "name": "rugPullTime",
          "type": "uint256"
        }
      ],
      "name": "RugPullAnnounced",
      "type": "event"
    },
    {
      "anonymous": false,
      "inputs": [
        {
          "indexed": true,
          "internalType": "address",
          "name": "sender",
          "type": "address"
        }
      ],
      "name": "RugPullDisabled",
      "type": "event"
    },
    {
      "anonymous": false,
      "inputs": [
        {
          "indexed": true,
          "internalType": "address",
          "name": "sender",
          "type": "address"
        },
        {
          "indexed": true,
          "internalType": "address",
          "name": "receiver",
          "type": "address"
        },
        {
          "indexed": false,
          "internalType": "uint256",
          "name": "value",
          "type": "uint256"
        }
      ],
      "name": "RugPulled",
      "type": "event"
    },
    {
      "anonymous": false,
      "inputs": [
        {
          "indexed": false,
          "internalType": "uint256",
          "name": "amount",
          "type": "uint256"
        },
        {
          "indexed": true,
          "internalType": "address",
          "name": "receiver",
          "type": "address"
        }
      ],
      "name": "TaxWithdrawn",
      "type": "event"
    },
    {
      "anonymous": false,
      "inputs": [
        {
          "indexed": true,
          "internalType": "address",
          "name": "from",
          "type": "address"
        },
        {
          "indexed": true,
          "internalType": "address",
          "name": "to",
          "type": "address"
        },
        {
          "indexed": true,
          "internalType": "uint256",
          "name": "tokenId",
          "type": "uint256"
        }
      ],
      "name": "Transfer",
      "type": "event"
    },
    {
      "anonymous": false,
      "inputs": [
        {
          "indexed": true,
          "internalType": "address",
          "name": "account",
          "type": "address"
        },
        {
          "indexed": true,
          "internalType": "address",
          "name": "receiver",
          "type": "address"
        },
        {
          "indexed": false,
          "internalType": "uint64",
          "name": "amount",
          "type": "uint64"
        },
        {
          "indexed": false,
          "internalType": "int128",
          "name": "balance",
          "type": "int128"
        }
      ],
      "name": "Withdrawn",
      "type": "event"
    },
    {
      "inputs": [],
      "name": "announceRugPull",
      "outputs": [],
      "stateMutability": "nonpayable",
      "type": "function"
    },
    {
      "inputs": [
        {
          "internalType": "address",
          "name": "to",
          "type": "address"
        },
        {
          "internalType": "uint256",
          "name": "tokenId",
          "type": "uint256"
        }
      ],
      "name": "approve",
      "outputs": [],
      "stateMutability": "nonpayable",
      "type": "function"
    },
    {
      "inputs": [
        {
          "internalType": "address",
          "name": "owner",
          "type": "address"
        }
      ],
      "name": "balanceOf",
      "outputs": [
        {
          "internalType": "uint256",
          "name": "",
          "type": "uint256"
        }
      ],
      "stateMutability": "view",
      "type": "function"
    },
    {
      "inputs": [],
      "name": "baseURI",
      "outputs": [
        {
          "internalType": "string",
          "name": "",
          "type": "string"
        }
      ],
      "stateMutability": "view",
      "type": "function"
    },
    {
      "inputs": [],
      "name": "checkRugPullAnnounced",
      "outputs": [
        {
          "internalType": "bool",
          "name": "",
          "type": "bool"
        }
      ],
      "stateMutability": "view",
      "type": "function"
    },
    {
      "inputs": [],
      "name": "checkRugPullDisabled",
      "outputs": [
        {
          "internalType": "bool",
          "name": "",
          "type": "bool"
        }
      ],
      "stateMutability": "view",
      "type": "function"
    },
    {
      "inputs": [
        {
          "internalType": "uint256",
          "name": "pixelID",
          "type": "uint256"
        },
        {
          "internalType": "uint64",
          "name": "maxPrice",
          "type": "uint64"
        },
        {
          "internalType": "uint64",
          "name": "minAmount",
          "type": "uint64"
        }
      ],
      "name": "claim",
      "outputs": [],
      "stateMutability": "nonpayable",
      "type": "function"
    },
    {
      "inputs": [],
      "name": "deposit",
      "outputs": [],
      "stateMutability": "payable",
      "type": "function"
    },
    {
      "inputs": [
        {
          "internalType": "address",
          "name": "buyerAddress",
          "type": "address"
        },
        {
          "components": [
            {
              "internalType": "uint256",
              "name": "pixelID",
              "type": "uint256"
            },
            {
              "internalType": "uint64",
              "name": "maxPrice",
              "type": "uint64"
            },
            {
              "internalType": "uint64",
              "name": "newPrice",
              "type": "uint64"
            },
            {
              "internalType": "uint8",
              "name": "color",
              "type": "uint8"
            }
          ],
          "internalType": "struct PixelBuyArgs[]",
          "name": "buyArgss",
          "type": "tuple[]"
        },
        {
          "components": [
            {
              "internalType": "uint256",
              "name": "pixelID",
              "type": "uint256"
            },
            {
              "internalType": "uint8",
              "name": "newColor",
              "type": "uint8"
            }
          ],
          "internalType": "struct SetColorArgs[]",
          "name": "setColorArgss",
          "type": "tuple[]"
        },
        {
          "components": [
            {
              "internalType": "uint256",
              "name": "pixelID",
              "type": "uint256"
            },
            {
              "internalType": "uint64",
              "name": "newPrice",
              "type": "uint64"
            }
          ],
          "internalType": "struct SetPriceArgs[]",
          "name": "setPriceArgss",
          "type": "tuple[]"
        }
      ],
      "name": "depositAndEdit",
      "outputs": [],
      "stateMutability": "payable",
      "type": "function"
    },
    {
      "inputs": [
        {
          "internalType": "address",
          "name": "account",
          "type": "address"
        }
      ],
      "name": "depositTo",
      "outputs": [],
      "stateMutability": "payable",
      "type": "function"
    },
    {
      "inputs": [],
      "name": "disableRugPull",
      "outputs": [],
      "stateMutability": "nonpayable",
      "type": "function"
    },
    {
      "inputs": [
        {
          "internalType": "uint256",
          "name": "pixelID",
          "type": "uint256"
        },
        {
          "internalType": "address",
          "name": "receiver",
          "type": "address"
        },
        {
          "internalType": "uint64",
          "name": "amount",
          "type": "uint64"
        }
      ],
      "name": "earmark",
      "outputs": [],
      "stateMutability": "nonpayable",
      "type": "function"
    },
    {
      "inputs": [
        {
          "internalType": "address",
          "name": "buyerAddress",
          "type": "address"
        },
        {
          "components": [
            {
              "internalType": "uint256",
              "name": "pixelID",
              "type": "uint256"
            },
            {
              "internalType": "uint64",
              "name": "maxPrice",
              "type": "uint64"
            },
            {
              "internalType": "uint64",
              "name": "newPrice",
              "type": "uint64"
            },
            {
              "internalType": "uint8",
              "name": "color",
              "type": "uint8"
            }
          ],
          "internalType": "struct PixelBuyArgs[]",
          "name": "buyArgss",
          "type": "tuple[]"
        },
        {
          "components": [
            {
              "internalType": "uint256",
              "name": "pixelID",
              "type": "uint256"
            },
            {
              "internalType": "uint8",
              "name": "newColor",
              "type": "uint8"
            }
          ],
          "internalType": "struct SetColorArgs[]",
          "name": "setColorArgss",
          "type": "tuple[]"
        },
        {
          "components": [
            {
              "internalType": "uint256",
              "name": "pixelID",
              "type": "uint256"
            },
            {
              "internalType": "uint64",
              "name": "newPrice",
              "type": "uint64"
            }
          ],
          "internalType": "struct SetPriceArgs[]",
          "name": "setPriceArgss",
          "type": "tuple[]"
        }
      ],
      "name": "edit",
      "outputs": [],
      "stateMutability": "nonpayable",
      "type": "function"
    },
    {
      "inputs": [
        {
          "internalType": "uint256",
          "name": "pixelID",
          "type": "uint256"
        }
      ],
      "name": "exists",
      "outputs": [
        {
          "internalType": "bool",
          "name": "",
          "type": "bool"
        }
      ],
      "stateMutability": "view",
      "type": "function"
    },
    {
      "inputs": [
        {
          "internalType": "uint256",
          "name": "tokenId",
          "type": "uint256"
        }
      ],
      "name": "getApproved",
      "outputs": [
        {
          "internalType": "address",
          "name": "",
          "type": "address"
        }
      ],
      "stateMutability": "view",
      "type": "function"
    },
    {
      "inputs": [
        {
          "internalType": "address",
          "name": "account",
          "type": "address"
        }
      ],
      "name": "getBalance",
      "outputs": [
        {
          "internalType": "int128",
          "name": "",
          "type": "int128"
        }
      ],
      "stateMutability": "view",
      "type": "function"
    },
    {
      "inputs": [
        {
          "internalType": "uint256",
          "name": "pixelID",
          "type": "uint256"
        }
      ],
      "name": "getEarmarkAmount",
      "outputs": [
        {
          "internalType": "uint64",
          "name": "",
          "type": "uint64"
        }
      ],
      "stateMutability": "view",
      "type": "function"
    },
    {
      "inputs": [
        {
          "internalType": "uint256",
          "name": "pixelID",
          "type": "uint256"
        }
      ],
      "name": "getEarmarkReceiver",
      "outputs": [
        {
          "internalType": "address",
          "name": "",
          "type": "address"
        }
      ],
      "stateMutability": "view",
      "type": "function"
    },
    {
      "inputs": [],
      "name": "getInitialPrice",
      "outputs": [
        {
          "internalType": "uint64",
          "name": "",
          "type": "uint64"
        }
      ],
      "stateMutability": "view",
      "type": "function"
    },
    {
      "inputs": [
        {
          "internalType": "address",
          "name": "account",
          "type": "address"
        }
      ],
      "name": "getLastTaxPayment",
      "outputs": [
        {
          "internalType": "uint64",
          "name": "",
          "type": "uint64"
        }
      ],
      "stateMutability": "view",
      "type": "function"
    },
    {
      "inputs": [],
      "name": "getMaxPixelID",
      "outputs": [
        {
          "internalType": "uint256",
          "name": "",
          "type": "uint256"
        }
      ],
      "stateMutability": "view",
      "type": "function"
    },
    {
      "inputs": [
        {
          "internalType": "uint256",
          "name": "pixelID",
          "type": "uint256"
        }
      ],
      "name": "getNominalPrice",
      "outputs": [
        {
          "internalType": "uint64",
          "name": "",
          "type": "uint64"
        }
      ],
      "stateMutability": "view",
      "type": "function"
    },
    {
      "inputs": [],
      "name": "getOwnerWithdrawableAmount",
      "outputs": [
        {
          "internalType": "uint64",
          "name": "",
          "type": "uint64"
        }
      ],
      "stateMutability": "view",
      "type": "function"
    },
    {
      "inputs": [
        {
          "internalType": "uint256",
          "name": "pixelID",
          "type": "uint256"
        }
      ],
      "name": "getPrice",
      "outputs": [
        {
          "internalType": "uint64",
          "name": "",
          "type": "uint64"
        }
      ],
      "stateMutability": "view",
      "type": "function"
    },
    {
      "inputs": [
        {
          "internalType": "address",
          "name": "account",
          "type": "address"
        }
      ],
      "name": "getRecordedBalance",
      "outputs": [
        {
          "internalType": "int128",
          "name": "",
          "type": "int128"
        }
      ],
      "stateMutability": "view",
      "type": "function"
    },
    {
      "inputs": [],
      "name": "getRugPullHeadsUp",
      "outputs": [
        {
          "internalType": "uint256",
          "name": "",
          "type": "uint256"
        }
      ],
      "stateMutability": "view",
      "type": "function"
    },
    {
      "inputs": [],
      "name": "getRugPullTime",
      "outputs": [
        {
          "internalType": "uint256",
          "name": "",
          "type": "uint256"
        }
      ],
      "stateMutability": "view",
      "type": "function"
    },
    {
      "inputs": [
        {
          "internalType": "address",
          "name": "account",
          "type": "address"
        }
      ],
      "name": "getTaxBase",
      "outputs": [
        {
          "internalType": "uint64",
          "name": "",
          "type": "uint64"
        }
      ],
      "stateMutability": "view",
      "type": "function"
    },
    {
      "inputs": [],
      "name": "getTaxRate",
      "outputs": [
        {
          "internalType": "uint256",
          "name": "",
          "type": "uint256"
        },
        {
          "internalType": "uint256",
          "name": "",
          "type": "uint256"
        }
      ],
      "stateMutability": "view",
      "type": "function"
    },
    {
      "inputs": [],
      "name": "getTaxStartTime",
      "outputs": [
        {
          "internalType": "uint64",
          "name": "",
          "type": "uint64"
        }
      ],
      "stateMutability": "view",
      "type": "function"
    },
    {
      "inputs": [],
      "name": "getTotalInitialSaleRevenue",
      "outputs": [
        {
          "internalType": "uint256",
          "name": "",
          "type": "uint256"
        }
      ],
      "stateMutability": "view",
      "type": "function"
    },
    {
      "inputs": [],
      "name": "getTotalTaxesPaid",
      "outputs": [
        {
          "internalType": "uint64",
          "name": "",
          "type": "uint64"
        }
      ],
      "stateMutability": "view",
      "type": "function"
    },
    {
      "inputs": [
        {
          "internalType": "address",
          "name": "account",
          "type": "address"
        }
      ],
      "name": "getTotalTaxesPaidBy",
      "outputs": [
        {
          "internalType": "uint64",
          "name": "",
          "type": "uint64"
        }
      ],
      "stateMutability": "view",
      "type": "function"
    },
    {
      "inputs": [],
      "name": "getTotalWithdrawnByOwner",
      "outputs": [
        {
          "internalType": "uint256",
          "name": "",
          "type": "uint256"
        }
      ],
      "stateMutability": "view",
      "type": "function"
    },
    {
      "inputs": [
        {
          "internalType": "address",
          "name": "account",
          "type": "address"
        }
      ],
      "name": "getVirtualTotalTaxesPaidBy",
      "outputs": [
        {
          "internalType": "uint64",
          "name": "",
          "type": "uint64"
        }
      ],
      "stateMutability": "view",
      "type": "function"
    },
    {
      "inputs": [
        {
          "internalType": "uint256[]",
          "name": "pixelIDs",
          "type": "uint256[]"
        },
        {
          "internalType": "address[]",
          "name": "owners",
          "type": "address[]"
        },
        {
          "internalType": "uint64[]",
          "name": "prices",
          "type": "uint64[]"
        },
        {
          "internalType": "uint8[]",
          "name": "colors",
          "type": "uint8[]"
        }
      ],
      "name": "init",
      "outputs": [],
      "stateMutability": "nonpayable",
      "type": "function"
    },
    {
      "inputs": [
        {
          "internalType": "address",
          "name": "owner",
          "type": "address"
        },
        {
          "internalType": "address",
          "name": "operator",
          "type": "address"
        }
      ],
      "name": "isApprovedForAll",
      "outputs": [
        {
          "internalType": "bool",
          "name": "",
          "type": "bool"
        }
      ],
      "stateMutability": "view",
      "type": "function"
    },
    {
      "inputs": [],
      "name": "isInitializing",
      "outputs": [
        {
          "internalType": "bool",
          "name": "",
          "type": "bool"
        }
      ],
      "stateMutability": "view",
      "type": "function"
    },
    {
      "inputs": [],
      "name": "name",
      "outputs": [
        {
          "internalType": "string",
          "name": "",
          "type": "string"
        }
      ],
      "stateMutability": "view",
      "type": "function"
    },
    {
      "inputs": [],
      "name": "owner",
      "outputs": [
        {
          "internalType": "address",
          "name": "",
          "type": "address"
        }
      ],
      "stateMutability": "view",
      "type": "function"
    },
    {
      "inputs": [
        {
          "internalType": "uint256",
          "name": "tokenId",
          "type": "uint256"
        }
      ],
      "name": "ownerOf",
      "outputs": [
        {
          "internalType": "address",
          "name": "",
          "type": "address"
        }
      ],
      "stateMutability": "view",
      "type": "function"
    },
    {
      "inputs": [
        {
          "internalType": "address",
          "name": "account",
          "type": "address"
        }
      ],
      "name": "payTaxes",
      "outputs": [],
      "stateMutability": "nonpayable",
      "type": "function"
    },
    {
      "inputs": [
        {
          "internalType": "address",
          "name": "receiver",
          "type": "address"
        },
        {
          "internalType": "uint256",
          "name": "value",
          "type": "uint256"
        }
      ],
      "name": "performRugPull",
      "outputs": [],
      "stateMutability": "nonpayable",
      "type": "function"
    },
    {
      "inputs": [],
      "name": "renounceOwnership",
      "outputs": [],
      "stateMutability": "nonpayable",
      "type": "function"
    },
    {
      "inputs": [
        {
          "internalType": "address",
          "name": "",
          "type": "address"
        },
        {
          "internalType": "address",
          "name": "",
          "type": "address"
        },
        {
          "internalType": "uint256",
          "name": "",
          "type": "uint256"
        }
      ],
      "name": "safeTransferFrom",
      "outputs": [],
      "stateMutability": "nonpayable",
      "type": "function"
    },
    {
      "inputs": [
        {
          "internalType": "address",
          "name": "",
          "type": "address"
        },
        {
          "internalType": "address",
          "name": "",
          "type": "address"
        },
        {
          "internalType": "uint256",
          "name": "",
          "type": "uint256"
        },
        {
          "internalType": "bytes",
          "name": "",
          "type": "bytes"
        }
      ],
      "name": "safeTransferFrom",
      "outputs": [],
      "stateMutability": "nonpayable",
      "type": "function"
    },
    {
      "inputs": [
        {
          "internalType": "address",
          "name": "operator",
          "type": "address"
        },
        {
          "internalType": "bool",
          "name": "approved",
          "type": "bool"
        }
      ],
      "name": "setApprovalForAll",
      "outputs": [],
      "stateMutability": "nonpayable",
      "type": "function"
    },
    {
      "inputs": [],
      "name": "stopInitialization",
      "outputs": [],
      "stateMutability": "nonpayable",
      "type": "function"
    },
    {
      "inputs": [
        {
          "internalType": "bytes4",
          "name": "interfaceId",
          "type": "bytes4"
        }
      ],
      "name": "supportsInterface",
      "outputs": [
        {
          "internalType": "bool",
          "name": "",
          "type": "bool"
        }
      ],
      "stateMutability": "view",
      "type": "function"
    },
    {
      "inputs": [],
      "name": "symbol",
      "outputs": [
        {
          "internalType": "string",
          "name": "",
          "type": "string"
        }
      ],
      "stateMutability": "view",
      "type": "function"
    },
    {
      "inputs": [
        {
          "internalType": "uint256",
          "name": "index",
          "type": "uint256"
        }
      ],
      "name": "tokenByIndex",
      "outputs": [
        {
          "internalType": "uint256",
          "name": "",
          "type": "uint256"
        }
      ],
      "stateMutability": "view",
      "type": "function"
    },
    {
      "inputs": [
        {
          "internalType": "address",
          "name": "owner",
          "type": "address"
        },
        {
          "internalType": "uint256",
          "name": "index",
          "type": "uint256"
        }
      ],
      "name": "tokenOfOwnerByIndex",
      "outputs": [
        {
          "internalType": "uint256",
          "name": "",
          "type": "uint256"
        }
      ],
      "stateMutability": "view",
      "type": "function"
    },
    {
      "inputs": [
        {
          "internalType": "uint256",
          "name": "tokenId",
          "type": "uint256"
        }
      ],
      "name": "tokenURI",
      "outputs": [
        {
          "internalType": "string",
          "name": "",
          "type": "string"
        }
      ],
      "stateMutability": "view",
      "type": "function"
    },
    {
      "inputs": [],
      "name": "totalSupply",
      "outputs": [
        {
          "internalType": "uint256",
          "name": "",
          "type": "uint256"
        }
      ],
      "stateMutability": "view",
      "type": "function"
    },
    {
      "inputs": [
        {
          "internalType": "address",
          "name": "",
          "type": "address"
        },
        {
          "internalType": "address",
          "name": "",
          "type": "address"
        },
        {
          "internalType": "uint256",
          "name": "",
          "type": "uint256"
        }
      ],
      "name": "transferFrom",
      "outputs": [],
      "stateMutability": "nonpayable",
      "type": "function"
    },
    {
      "inputs": [
        {
          "internalType": "address",
          "name": "newOwner",
          "type": "address"
        }
      ],
      "name": "transferOwnership",
      "outputs": [],
      "stateMutability": "nonpayable",
      "type": "function"
    },
    {
      "inputs": [
        {
          "internalType": "address",
          "name": "account",
          "type": "address"
        },
        {
          "internalType": "uint64",
          "name": "amount",
          "type": "uint64"
        },
        {
          "internalType": "address",
          "name": "receiver",
          "type": "address"
        }
      ],
      "name": "withdraw",
      "outputs": [],
      "stateMutability": "nonpayable",
      "type": "function"
    },
    {
      "inputs": [
        {
          "internalType": "address",
          "name": "account",
          "type": "address"
        },
        {
          "internalType": "address",
          "name": "receiver",
          "type": "address"
        }
      ],
      "name": "withdrawMax",
      "outputs": [],
      "stateMutability": "nonpayable",
      "type": "function"
    },
    {
      "inputs": [
        {
          "internalType": "address",
          "name": "receiver",
          "type": "address"
        }
      ],
      "name": "withdrawMaxOwner",
      "outputs": [],
      "stateMutability": "nonpayable",
      "type": "function"
    },
    {
      "inputs": [
        {
          "internalType": "uint64",
          "name": "amount",
          "type": "uint64"
        },
        {
          "internalType": "address",
          "name": "receiver",
          "type": "address"
        }
      ],
      "name": "withdrawOwner",
      "outputs": [],
      "stateMutability": "nonpayable",
      "type": "function"
    }
  ],
  "bytecode": "0x60806040523480156200001157600080fd5b5060405162006313380380620063138339810160408190526200003491620003f4565b6040805180820182526005815264141a5e195b60da1b6020808301919091528251808401909352600383526214161360ea1b9083015282916200007e6301ffc9a760e01b6200028a565b81516200009390600690602085019062000313565b508051620000a990600790602084019062000313565b50620000bc6380ac58cd60e01b6200028a565b620000ce635b5e139f60e01b6200028a565b620000e063780e9d6360e01b6200028a565b5060009050620000ef6200030f565b600a80546001600160a01b0319166001600160a01b038316908117909155604051919250906000907f8be0079c531659141344cd1fd0a4f28419497f9722a3daafe3b4186f6b6457e0908290a35063096601808111156200016d5760405162461bcd60e51b815260040162000164906200046d565b60405180910390fd5b600b55600d805460ff191690556000600c556001600160801b038716620001a85760405162461bcd60e51b8152600401620001649062000553565b6000866001600160801b031611620001d45760405162461bcd60e51b8152600401620001649062000596565b6001600160401b03851115620001fe5760405162461bcd60e51b81526004016200016490620004a4565b60008411620002215760405162461bcd60e51b8152600401620001649062000501565b506012805495909602600019016001600160801b0316601155600e93909355600f91909155601080546001600160401b03199081166001600160401b03938416179091556801000000000000000060ff60401b19909416939093179092169116179055620005da565b6001600160e01b03198082161415620002ea576040805162461bcd60e51b815260206004820152601c60248201527f4552433136353a20696e76616c696420696e7465726661636520696400000000604482015290519081900360640190fd5b6001600160e01b0319166000908152602081905260409020805460ff19166001179055565b3390565b828054600181600116156101000203166002900490600052602060002090601f0160209004810192826200034b576000855562000396565b82601f106200036657805160ff191683800117855562000396565b8280016001018555821562000396579182015b828111156200039657825182559160200191906001019062000379565b50620003a4929150620003a8565b5090565b5b80821115620003a45760008155600101620003a9565b80516001600160801b0381168114620003d757600080fd5b919050565b80516001600160401b0381168114620003d757600080fd5b600080600080600080600060e0888a0312156200040f578283fd5b6200041a88620003bf565b96506200042a60208901620003bf565b955060408801519450606088015193506200044860808901620003dc565b92506200045860a08901620003dc565b915060c0880151905092959891949750929550565b60208082526019908201527f52756750756c6c3a20686561647320757020746f6f2062696700000000000000604082015260600190565b60208082526035908201527f47726166666974455448323a207461782072617465206e756d657261746f722060408201527f6d757374206e6f7420626520746f6f206c617267650000000000000000000000606082015260800190565b60208082526032908201527f47726166666974455448323a2074617820726174652064656e6f6d696e61746f60408201527172206d757374206e6f74206265207a65726f60701b606082015260800190565b60208082526023908201527f47726166666974455448323a207769647468206d757374206e6f74206265207a60408201526265726f60e81b606082015260800190565b60208082526024908201527f47726166666974455448323a20686569676874206d757374206e6f74206265206040820152637a65726f60e01b606082015260800190565b615d2980620005ea6000396000f3fe6080604052600436106102a75760003560e01c806301ffc9a7146102ac57806302e08073146102e257806306f660ef1461030f57806306fdde0314610331578063081812fc14610353578063095ea7b3146103805780630bdfc9e1146103a25780630cb9bce2146103c257806314c53886146103e257806318160ddd146104045780631ac2e30514610419578063209b19001461042e578063234bc02614610443578063238314941461046357806323b872dd1461047857806329039967146104985780632f745c59146104ad5780633dbe1b3b146104cd5780633ec91f05146104e257806342842e0e146104785780634764b194146104f757806347e4d1321461050a578063492a80111461052a5780634f558e791461054a5780634f6ccce71461056a5780635057f0e21461058a57806351dde5a8146105aa5780635df33607146105bf5780636352211e146105df57806369476fe4146105ff5780636c0360eb1461061f57806370a0823114610634578063715018a6146106545780638024f2c41461066957806384b00178146106895780638da5cb5b146106a957806395d89b41146106be57806399dabf93146106d3578063a09c3729146106e8578063a22cb46514610708578063a5e139e614610728578063ab06a18414610748578063b10a7cce1461075d578063b760faf914610772578063b88d4fde14610785578063c0530090146107a0578063c229aaf8146107b5578063c87b56dd146107d5578063cb66667f146107f5578063cc1c332614610818578063cfaca2d014610838578063d0e30db014610858578063dc28d24e14610860578063e528815c14610875578063e757223014610895578063e985e9c5146108b5578063ef43e29d146108d5578063f2fde38b146108f5578063f88b8a5714610915578063f8b2cb4f1461092a575b600080fd5b3480156102b857600080fd5b506102cc6102c7366004614ecf565b61094a565b6040516102d99190614f97565b60405180910390f35b3480156102ee57600080fd5b506103026102fd366004614ab8565b61096d565b6040516102d99190614fa2565b34801561031b57600080fd5b5061032461098b565b6040516102d991906159ab565b34801561033d57600080fd5b5061034661099a565b6040516102d99190614fb0565b34801561035f57600080fd5b5061037361036e366004614ef7565b610a30565b6040516102d99190614f83565b34801561038c57600080fd5b506103a061039b366004614d73565b610a92565b005b3480156103ae57600080fd5b506103246103bd366004614ab8565b610b68565b3480156103ce57600080fd5b506103246103dd366004614ab8565b610b93565b3480156103ee57600080fd5b506103f7610c0e565b6040516102d99190615994565b34801561041057600080fd5b506103f7610c24565b34801561042557600080fd5b506103a0610c35565b34801561043a57600080fd5b506103f7610cd8565b34801561044f57600080fd5b506103a061045e366004614ab8565b610ce7565b34801561046f57600080fd5b506103f7610e3b565b34801561048457600080fd5b506103a0610493366004614b04565b610e41565b3480156104a457600080fd5b50610324610e43565b3480156104b957600080fd5b506103f76104c8366004614d73565b610e59565b3480156104d957600080fd5b506102cc610e84565b3480156104ee57600080fd5b506102cc610e8c565b6103a0610505366004614bf0565b610e9c565b34801561051657600080fd5b506103a0610525366004614f41565b610ecb565b34801561053657600080fd5b506103a0610545366004614ab8565b610ed7565b34801561055657600080fd5b506102cc610565366004614ef7565b610f4d565b34801561057657600080fd5b506103f7610585366004614ef7565b610f58565b34801561059657600080fd5b506103246105a5366004614ab8565b610f6e565b3480156105b657600080fd5b506102cc610f95565b3480156105cb57600080fd5b506103246105da366004614ef7565b610f9e565b3480156105eb57600080fd5b506103736105fa366004614ef7565b610fdb565b34801561060b57600080fd5b5061032461061a366004614ab8565b611003565b34801561062b57600080fd5b5061034661102e565b34801561064057600080fd5b506103f761064f366004614ab8565b61108f565b34801561066057600080fd5b506103a06110f7565b34801561067557600080fd5b506103a0610684366004614d73565b611191565b34801561069557600080fd5b506103a06106a4366004614dde565b611201565b3480156106b557600080fd5b5061037361158a565b3480156106ca57600080fd5b50610346611599565b3480156106df57600080fd5b506103a06115fa565b3480156106f457600080fd5b50610324610703366004614ef7565b611666565b34801561071457600080fd5b506103a0610723366004614d39565b611688565b34801561073457600080fd5b506103a0610743366004614bf0565b610ea6565b34801561075457600080fd5b50610324611789565b34801561076957600080fd5b506103f76117e9565b6103a0610780366004614ab8565b6117ef565b34801561079157600080fd5b506103a0610493366004614b3f565b3480156107ac57600080fd5b506103a06117f9565b3480156107c157600080fd5b506103a06107d0366004614f65565b611863565b3480156107e157600080fd5b506103466107f0366004614ef7565b6118cf565b34801561080157600080fd5b5061080a611b50565b6040516102d992919061599d565b34801561082457600080fd5b506103a0610833366004614f0f565b611b5a565b34801561084457600080fd5b50610373610853366004614ef7565b611c02565b6103a0611c1d565b34801561086c57600080fd5b506103f7611c27565b34801561088157600080fd5b506103a0610890366004614ad2565b611c2d565b3480156108a157600080fd5b506103246108b0366004614ef7565b611c38565b3480156108c157600080fd5b506102cc6108d0366004614ad2565b611ca1565b3480156108e157600080fd5b506103a06108f0366004614d9c565b611ccf565b34801561090157600080fd5b506103a0610910366004614ab8565b611cdb565b34801561092157600080fd5b50610324611dcc565b34801561093657600080fd5b50610302610945366004614ab8565b611ddb565b6001600160e01b0319811660009081526020819052604090205460ff165b919050565b6001600160a01b0316600090815260146020526040902054600f0b90565b6012546001600160401b031690565b60068054604080516020601f6002600019610100600188161502019095169490940493840181900481028201810190925282815260609390929091830182828015610a265780601f106109fb57610100808354040283529160200191610a26565b820191906000526020600020905b815481529060010190602001808311610a0957829003601f168201915b5050505050905090565b6000610a3b82611e53565b610a765760405162461bcd60e51b815260040180806020018281038252602c815260200180615baf602c913960400191505060405180910390fd5b506000908152600460205260409020546001600160a01b031690565b6000610a9d82610fdb565b9050806001600160a01b0316836001600160a01b03161415610af05760405162461bcd60e51b8152600401808060200182810382526021815260200180615c936021913960400191505060405180910390fd5b806001600160a01b0316610b02611e60565b6001600160a01b03161480610b1e5750610b1e816108d0611e60565b610b595760405162461bcd60e51b8152600401808060200182810382526038815260200180615ae26038913960400191505060405180910390fd5b610b638383611e64565b505050565b6001600160a01b0316600090815260146020526040902054600160c01b90046001600160401b031690565b6001600160a01b038116600090815260146020908152604080832081516080810183528154600f81810b810b900b82526001600160401b03600160801b8204811695830195909552600160c01b900484169281019290925260010154909116606082015281610c0182611ed2565b5060600151949350505050565b601654600160801b90046001600160401b031690565b6000610c306002611f03565b905090565b610c3d611e60565b6001600160a01b0316610c4e61158a565b6001600160a01b031614610c97576040805162461bcd60e51b81526020600482018190526024820152600080516020615bdb833981519152604482015290519081900360640190fd5b601254600160401b900460ff16610cc95760405162461bcd60e51b8152600401610cc090615860565b60405180910390fd5b6012805460ff60401b19169055565b6016546001600160401b031690565b6001600160a01b038116600090815260146020908152604080832081516080810183528154600f81810b810b900b82526001600160401b03600160801b8204811695830195909552600160c01b900484169281019290925260010154909116606082015290610d5582611ed2565b6001600160a01b0385166000908152601460209081526040918290208451815492860151938601516001600160801b03199093166001600160801b03600f9290920b9190911617600160801b600160c01b031916600160801b6001600160401b0394851602176001600160c01b0316600160c01b928416929092029190911781556060840151600190910180546001600160401b031916918316919091179055601654929450909250610e1091600160401b90041682611f0e565b601660086101000a8154816001600160401b0302191690836001600160401b03160217905550505050565b600c5490565bfe5b601654600160401b90046001600160401b031690565b6001600160a01b0382166000908152600160205260408120610e7b9083611fa7565b90505b92915050565b600c54151590565b601254600160401b900460ff1690565b610ea63385611fb3565b610eb1338585612236565b610ebb3383612b11565b610ec53382612be8565b50505050565b610b6333848484612ebd565b610edf611e60565b6001600160a01b0316610ef061158a565b6001600160a01b031614610f39576040805162461bcd60e51b81526020600482018190526024820152600080516020615bdb833981519152604482015290519081900360640190fd5b610f4a610f44611789565b8261349e565b50565b6000610e7e82611e53565b600080610f6660028461360c565b509392505050565b6001600160a01b03166000908152601460205260409020600101546001600160401b031690565b600d5460ff1690565b6000610fa982611e53565b610fbf57506012546001600160401b0316610968565b506000908152601360205260409020546001600160401b031690565b6000610e7e82604051806060016040528060298152602001615b446029913960029190613628565b6001600160a01b0316600090815260146020526040902054600160801b90046001600160401b031690565b60098054604080516020601f6002600019610100600188161502019095169490940493840181900481028201810190925282815260609390929091830182828015610a265780601f106109fb57610100808354040283529160200191610a26565b60006001600160a01b0382166110d65760405162461bcd60e51b815260040180806020018281038252602a815260200180615b1a602a913960400191505060405180910390fd5b6001600160a01b0382166000908152600160205260409020610e7e90611f03565b6110ff611e60565b6001600160a01b031661111061158a565b6001600160a01b031614611159576040805162461bcd60e51b81526020600482018190526024820152600080516020615bdb833981519152604482015290519081900360640190fd5b600a546040516000916001600160a01b031690600080516020615bfb833981519152908390a3600a80546001600160a01b0319169055565b611199611e60565b6001600160a01b03166111aa61158a565b6001600160a01b0316146111f3576040805162461bcd60e51b81526020600482018190526024820152600080516020615bdb833981519152604482015290519081900360640190fd5b6111fd828261363f565b5050565b611209611e60565b6001600160a01b031661121a61158a565b6001600160a01b031614611263576040805162461bcd60e51b81526020600482018190526024820152600080516020615bdb833981519152604482015290519081900360640190fd5b601254600160401b900460ff1661128c5760405162461bcd60e51b8152600401610cc090615860565b8351835181146112ae5760405162461bcd60e51b8152600401610cc090615753565b808351146112ce5760405162461bcd60e51b8152600401610cc0906156c7565b808251146112ee5760405162461bcd60e51b8152600401610cc0906154fb565b60005b8181101561158257600086828151811061130757fe5b60200260200101519050600086838151811061131f57fe5b60200260200101519050600086848151811061133757fe5b60200260200101519050600086858151811061134f57fe5b6020026020010151905061136284611e53565b1561137f5760405162461bcd60e51b8152600401610cc090615003565b611389838561376f565b6001600160a01b038316600090815260146020908152604080832081516080810183528154600f81810b810b900b82526001600160401b03600160801b8204811695830195909552600160c01b9004841692810192909252600101549091166060820152906113f782611ed2565b9092509050611406828561388a565b600087815260136020908152604080832080546001600160401b03808b166001600160401b0319928316179092556001600160a01b038b16855260148452938290208551815494870151938701518316600160c01b026001600160c01b03948416600160801b02600160801b600160c01b0319600f9390930b6001600160801b03166001600160801b031990971696909617919091169490941792909216929092178155606084015160019190910180549183169190931617909155909250811615611510576016546114e990600160401b90046001600160401b031682611f0e565b601660086101000a8154816001600160401b0302191690836001600160401b031602179055505b846001600160a01b031686600080516020615cd48339815191528660405161153891906159ab565b60405180910390a3846001600160a01b031686600080516020615b6d8339815191528560405161156891906159db565b60405180910390a35050600190940193506112f192505050565b505050505050565b600a546001600160a01b031690565b60078054604080516020601f6002600019610100600188161502019095169490940493840181900481028201810190925282815260609390929091830182828015610a265780601f106109fb57610100808354040283529160200191610a26565b611602611e60565b6001600160a01b031661161361158a565b6001600160a01b03161461165c576040805162461bcd60e51b81526020600482018190526024820152600080516020615bdb833981519152604482015290519081900360640190fd5b6116646138ea565b565b600090815260156020526040902054600160a01b90046001600160401b031690565b611690611e60565b6001600160a01b0316826001600160a01b031614156116f2576040805162461bcd60e51b815260206004820152601960248201527822a9219b99189d1030b8383937bb32903a379031b0b63632b960391b604482015290519081900360640190fd5b80600560006116ff611e60565b6001600160a01b03908116825260208083019390935260409182016000908120918716808252919093529120805460ff191692151592909217909155611743611e60565b6001600160a01b03167f17307eab39ab6107e8899845ad3d59bd9653f200f220920489ca2b5937696c318360405180821515815260200191505060405180910390a35050565b60165460009081906117ad906001600160401b03600160401b820481169116611f0e565b6016549091506001600160401b03808316600160801b9092041611156117cf57fe5b601654600160801b90046001600160401b03169003919050565b60115490565b610f4a3382611fb3565b611801611e60565b6001600160a01b031661181261158a565b6001600160a01b03161461185b576040805162461bcd60e51b81526020600482018190526024820152600080516020615bdb833981519152604482015290519081900360640190fd5b611664613947565b61186b611e60565b6001600160a01b031661187c61158a565b6001600160a01b0316146118c5576040805162461bcd60e51b81526020600482018190526024820152600080516020615bdb833981519152604482015290519081900360640190fd5b6111fd828261349e565b60606118da82611e53565b6119155760405162461bcd60e51b815260040180806020018281038252602f815260200180615c44602f913960400191505060405180910390fd5b60008281526008602090815260408083208054825160026001831615610100026000190190921691909104601f8101859004850282018501909352828152929091908301828280156119a85780601f1061197d576101008083540402835291602001916119a8565b820191906000526020600020905b81548152906001019060200180831161198b57829003601f168201915b5050505050905060006119b961102e565b90508051600014156119cd57509050610968565b815115611a8e5780826040516020018083805190602001908083835b60208310611a085780518252601f1990920191602091820191016119e9565b51815160209384036101000a600019018019909216911617905285519190930192850191508083835b60208310611a505780518252601f199092019160209182019101611a31565b6001836020036101000a0380198251168184511680821785525050505050509050019250505060405160208183030381529060405292505050610968565b80611a98856139d0565b6040516020018083805190602001908083835b60208310611aca5780518252601f199092019160209182019101611aab565b51815160209384036101000a600019018019909216911617905285519190930192850191508083835b60208310611b125780518252601f199092019160209182019101611af3565b6001836020036101000a0380198251168184511680821785525050505050509050019250505060405160208183030381529060405292505050919050565b600e54600f549091565b611b6383611e53565b611b7f5760405162461bcd60e51b8152600401610cc090615712565b6000611b8a84610fdb565b9050336001600160a01b0382161480611ba85750611ba88133611ca1565b611bc45760405162461bcd60e51b8152600401610cc0906158ae565b806001600160a01b0316836001600160a01b03161415611bf65760405162461bcd60e51b8152600401610cc09061547f565b610ec584828585613aaa565b6000908152601560205260409020546001600160a01b031690565b6116643333611fb3565b600b5490565b6111fd338383613b56565b6000611c4382611e53565b611c5957506012546001600160401b0316610968565b6000611c6483610fdb565b90506000611c7182611ddb565b600f0b1215611c84576000915050610968565b50506000908152601360205260409020546001600160401b031690565b6001600160a01b03918216600090815260056020908152604080832093909416825291909152205460ff1690565b610b6333848484613bbf565b611ce3611e60565b6001600160a01b0316611cf461158a565b6001600160a01b031614611d3d576040805162461bcd60e51b81526020600482018190526024820152600080516020615bdb833981519152604482015290519081900360640190fd5b6001600160a01b038116611d825760405162461bcd60e51b8152600401808060200182810382526026815260200180615a4c6026913960400191505060405180910390fd5b600a546040516001600160a01b03808416921690600080516020615bfb83398151915290600090a3600a80546001600160a01b0319166001600160a01b0392909216919091179055565b6010546001600160401b031690565b6001600160a01b038116600090815260146020908152604080832081516080810183528154600f81810b810b900b82526001600160401b03600160801b8204811695830195909552600160c01b900484169281019290925260010154909116606082015281611e4982611ed2565b5051949350505050565b6000610e7e600283613e7e565b3390565b600081815260046020526040902080546001600160a01b0319166001600160a01b0384169081179091558190611e9982610fdb565b6001600160a01b03167f8c5be1e5ebec7d5bd14f71427d1e84f3dd0314c0f7b2291e5b200ac8c7c3b92560405160405180910390a45050565b611eda6147e1565b600e54600f54601054600092611efa9286926001600160401b0316613e8a565b91509150915091565b6000610e7e82613fe8565b600080826001600160401b03036001600160401b0316846001600160401b031611611f3c5750828201611f46565b506001600160401b035b836001600160401b0316816001600160401b031610158015611f7a5750826001600160401b0316816001600160401b031610155b611f8057fe5b826001600160401b0316846001600160401b031601816001600160401b03161115610e7b57fe5b6000610e7b8383613fec565b34611fbd576111fd565b6001600160a01b038116600090815260146020908152604080832081516080810183528154600f81810b810b900b82526001600160401b03600160801b8204811695830195909552600160c01b90048416928101929092526001015490911660608201529061202b82611ed2565b9092509050633b9aca003406156120545760405162461bcd60e51b8152600401610cc09061537a565b633b9aca0034046001600160401b038111156120825760405162461bcd60e51b8152600401610cc090615903565b825181906000600f9190910b12156120f5578351600f0b6000908103906001600160401b03831682126120b65750816120ca565b6001600160401b038213156120c757fe5b50805b6120d48582611f0e565b94506120e4866060015182611f0e565b6001600160401b0316606087015250505b6120ff8482614050565b6001600160a01b0386166000908152601460209081526040918290208351815492850151938501516001600160801b03199093166001600160801b03600f9290920b9190911617600160801b600160c01b031916600160801b6001600160401b0394851602176001600160c01b0316600160c01b928416929092029190911781556060830151600190910180546001600160401b0319169183169190911790556016549195506121b791600160401b90041684611f0e565b601660086101000a8154816001600160401b0302191690836001600160401b03160217905550856001600160a01b0316856001600160a01b03167fc7921355bf05208382b692023dc2dc0a8d22a078b41a1d3a1ccabe4bccf6ee4c8387600001516040516122269291906159bf565b60405180910390a3505050505050565b816001600160a01b0316836001600160a01b0316148061225b575061225b8284611ca1565b6122775760405162461bcd60e51b8152600401610cc090615094565b805161228257610b63565b6001600160a01b038216600090815260146020908152604080832081516080810183528154600f81810b810b900b82526001600160401b03600160801b8204811695830195909552600160c01b900484169281019290925260010154821660608201528351909291829190811180156122fa57600080fd5b50604051908082528060200260200182016040528015612324578160200160208202803683370190505b509050600084516001600160401b038111801561234057600080fd5b5060405190808252806020026020018201604052801561237a57816020015b6123676147e1565b81526020019060019003908161235f5790505b50905060008061238a8683614074565b909650915060005b875181101561290b578015806123d857508760018203815181106123b257fe5b6020026020010151600001518882815181106123ca57fe5b602002602001015160000151115b6123f45760405162461bcd60e51b8152600401610cc0906155e9565b600061241689838151811061240557fe5b602002602001015160000151611c38565b905088828151811061242457fe5b6020026020010151602001516001600160401b0316816001600160401b031611156124615760405162461bcd60e51b8152600401610cc09061526f565b806001600160401b03168860000151600f0b12156124915760405162461bcd60e51b8152600401610cc090615229565b61249b88826140ab565b97506124be888a84815181106124ad57fe5b60200260200101516040015161388a565b975060006124e28a84815181106124d157fe5b602002602001015160000151611e53565b15612713576125078a84815181106124f657fe5b602002602001015160000151610fdb565b90508a6001600160a01b0316816001600160a01b0316141561253b5760405162461bcd60e51b8152600401610cc09061579e565b6125436147e1565b60005b8981101561259e57826001600160a01b031689828151811061256457fe5b60200260200101516001600160a01b031614156125965787818151811061258757fe5b6020026020010151915061259e565b600101612546565b898111156125a857fe5b8981141561265c576001600160a01b03831660009081526014602090815260409182902082516080810184528154600f81810b810b900b82526001600160401b03600160801b8204811694830194909452600160c01b900483169381019390935260019081015490911660608301528a519b019a90925083908a908390811061262d57fe5b60200260200101906001600160a01b031690816001600160a01b0316815250506126578288614074565b975091505b6000601360008e888151811061266e57fe5b602090810291909101810151518252810191909152604001600020546001600160401b0316905061269f8386614050565b92506126ab83826140bf565b9250828983815181106126ba57fe5b60200260200101819052506126e7848f8f89815181106126d657fe5b602002602001015160000151614100565b61270b8d87815181106126f657fe5b6020026020010151600001518f600080613aaa565b50505061277c565b5060006127208483611f0e565b93506011548a848151811061273157fe5b602002602001015160000151111561275b5760405162461bcd60e51b8152600401610cc0906150e5565b61277c8b8b858151811061276b57fe5b60200260200101516000015161376f565b89838151811061278857fe5b602002602001015160400151601360008c86815181106127a457fe5b602002602001015160000151815260200190815260200160002060006101000a8154816001600160401b0302191690836001600160401b031602179055508a6001600160a01b0316816001600160a01b03168b858151811061280257fe5b6020026020010151600001517f42a061f17422d0a3fce98316d85925477270aa3f53991439bfc973e72f65f1608560405161283d91906159ab565b60405180910390a48a6001600160a01b03168a848151811061285b57fe5b602002602001015160000151600080516020615b6d8339815191528c868151811061288257fe5b60200260200101516060015160405161289b91906159db565b60405180910390a38a6001600160a01b03168a84815181106128b957fe5b602002602001015160000151600080516020615cd48339815191528c86815181106128e057fe5b6020026020010151604001516040516128f991906159ab565b60405180910390a35050600101612392565b506001600160a01b03881660009081526014602090815260409182902088518154928a0151938a01516001600160801b03199093166001600160801b03600f9290920b9190911617600160801b600160c01b031916600160801b6001600160401b0394851602176001600160c01b0316600160c01b928416929092029190911781556060880151600190910180546001600160401b0319169190921617905582518451146129b557fe5b60005b8451811015612a965760008582815181106129cf57fe5b602002602001015190508482815181106129e557fe5b6020908102919091018101516001600160a01b03929092166000908152601482526040908190208351815493850151928501516001600160801b03199094166001600160801b03600f9290920b9190911617600160801b600160c01b031916600160801b6001600160401b0393841602176001600160c01b0316600160c01b93831693909302929092178255606090920151600191820180546001600160401b0319169190931617909155016129b8565b50601654612ab490600160401b90046001600160401b031683611f0e565b60168054600160401b600160801b031916600160401b6001600160401b03938416021790819055612ae6911682611f0e565b601680546001600160401b0319166001600160401b0392909216919091179055505050505050505050565b60005b8151811015610b63576000828281518110612b2b57fe5b60200260200101516000015190506000838381518110612b4757fe5b6020026020010151602001519050612b5e82611e53565b612b7a5760405162461bcd60e51b8152600401610cc090615712565b6000612b8583610fdb565b9050612b91868461423a565b612bad5760405162461bcd60e51b8152600401610cc090615049565b806001600160a01b031683600080516020615b6d83398151915284604051612bd591906159db565b60405180910390a3505050600101612b14565b8051612bf3576111fd565b6000612bfd6147e1565b6000805b8451811015612dd4576000858281518110612c1857fe5b60200260200101516000015190506000868381518110612c3457fe5b6020026020010151602001519050612c4b82611e53565b612c5457600080fd5b6000612c5f83610fdb565b9050612c6b898461423a565b612c875760405162461bcd60e51b8152600401610cc09061559e565b83612d08576001600160a01b03811660009081526014602090815260409182902082516080810184528154600f81810b810b900b82526001600160401b03600160801b8204811694830194909452600160c01b900483169381019390935260010154166060820152909650945085612cfe86611ed2565b9096509450612d39565b866001600160a01b0316816001600160a01b031614612d395760405162461bcd60e51b8152600401610cc0906153d0565b6000838152601360205260409020546001600160401b0316612d5b87826140bf565b9650612d67878461388a565b6000858152601360205260409081902080546001600160401b0319166001600160401b038716179055519097506001600160a01b038316908590600080516020615cd483398151915290612dbc9087906159ab565b60405180910390a3505060019092019150612c019050565b50601654612df290600160401b90046001600160401b031682611f0e565b60168054600160401b600160801b031916600160401b6001600160401b03938416021790556001600160a01b03939093166000908152601460209081526040918290208451815492860151938601516001600160801b03199093166001600160801b03600f9290920b9190911617600160801b600160c01b031916600160801b93871693909302929092176001600160c01b0316600160c01b9186169190910217815560609092015160019290920180546001600160401b0319169290931691909117909155505050565b612ec683611e53565b612ee25760405162461bcd60e51b8152600401610cc090615712565b6000612eed84610fdb565b6000858152601560209081526040918290208251808401909352546001600160a01b03808216808552600160a01b9092046001600160401b031692840192909252929350909190871614612f535760405162461bcd60e51b8152600401610cc09061562a565b60008060146000856001600160a01b03166001600160a01b031681526020019081526020016000206040518060800160405290816000820160009054906101000a9004600f0b600f0b600f0b81526020016000820160109054906101000a90046001600160401b03166001600160401b03166001600160401b031681526020016000820160189054906101000a90046001600160401b03166001600160401b03166001600160401b031681526020016001820160009054906101000a90046001600160401b03166001600160401b03166001600160401b03168152505090506000601460008a6001600160a01b03166001600160a01b031681526020019081526020016000206040518060800160405290816000820160009054906101000a9004600f0b600f0b600f0b81526020016000820160109054906101000a90046001600160401b03166001600160401b03166001600160401b031681526020016000820160189054906101000a90046001600160401b03166001600160401b03166001600160401b031681526020016001820160009054906101000a90046001600160401b03166001600160401b03166001600160401b031681525050905061311a8284614074565b935091506131288184614074565b93509050600061313789610f9e565b9050876001600160401b0316816001600160401b0316111561316b5760405162461bcd60e51b8152600401610cc0906152b9565b61317583826140bf565b9250613181828261388a565b9150600085602001516001600160401b03168460000151600f0b126131ab575060208501516131de565b60008460000151600f0b126131da5783516001600160401b03600f9190910b13156131d257fe5b5082516131de565b5060005b876001600160401b0316816001600160401b031610156132105760405162461bcd60e51b8152600401610cc0906157e8565b61321a84826140ab565b93506132268382614050565b92508360146000896001600160a01b03166001600160a01b0316815260200190815260200160002060008201518160000160006101000a8154816001600160801b030219169083600f0b6001600160801b0316021790555060208201518160000160106101000a8154816001600160401b0302191690836001600160401b0316021790555060408201518160000160186101000a8154816001600160401b0302191690836001600160401b0316021790555060608201518160010160006101000a8154816001600160401b0302191690836001600160401b0316021790555090505082601460008d6001600160a01b03166001600160a01b0316815260200190815260200160002060008201518160000160006101000a8154816001600160801b030219169083600f0b6001600160801b0316021790555060208201518160000160106101000a8154816001600160401b0302191690836001600160401b0316021790555060408201518160000160186101000a8154816001600160401b0302191690836001600160401b0316021790555060608201518160010160006101000a8154816001600160401b0302191690836001600160401b03160217905550905050613407601660089054906101000a90046001600160401b031686611f0e565b601660086101000a8154816001600160401b0302191690836001600160401b03160217905550613438878c8c614100565b6134458a88600080613aaa565b8a6001600160a01b0316876001600160a01b03168b7f054b2f294b34d5fac1690903e9fe65921870f8d7c1ef57f4ca2301894737c3638460405161348991906159ab565b60405180910390a45050505050505050505050565b60006134a8611789565b9050806001600160401b0316836001600160401b031611156134dc5760405162461bcd60e51b8152600401610cc09061594b565b6016546134f990600160801b90046001600160401b031684611f0e565b60168054600160801b600160c01b031916600160801b6001600160401b03938416021790558316633b9aca00024781111561353057fe5b6001600160401b038416633b9aca0082041461354857fe5b6000836001600160a01b03168260405161356190614f80565b60006040518083038185875af1925050503d806000811461359e576040519150601f19603f3d011682016040523d82523d6000602084013e6135a3565b606091505b50509050806135c45760405162461bcd60e51b8152600401610cc0906151e0565b836001600160a01b03167f8320dd0681f508ec596969c6cb3b91527fbef7815183fa91fcde63f05e2be312866040516135fd91906159ab565b60405180910390a25050505050565b600080808061361b86866142de565b9097909650945050505050565b6000613635848484614359565b90505b9392505050565b600d5460ff16156136625760405162461bcd60e51b8152600401610cc090615454565b600c546136815760405162461bcd60e51b8152600401610cc090615178565b600c544210156136a35760405162461bcd60e51b8152600401610cc09061541f565b6000826001600160a01b0316826040516136bc90614f80565b60006040518083038185875af1925050503d80600081146136f9576040519150601f19603f3d011682016040523d82523d6000602084013e6136fe565b606091505b505090508061371f5760405162461bcd60e51b8152600401610cc0906154c4565b826001600160a01b0316336001600160a01b03167fe64225e0e86b93cbd64a96e476163519fe65be29879338a66adcc08159edc2b3846040516137629190615994565b60405180910390a3505050565b6001600160a01b0382166137ca576040805162461bcd60e51b815260206004820181905260248201527f4552433732313a206d696e7420746f20746865207a65726f2061646472657373604482015290519081900360640190fd5b6137d381611e53565b15613824576040805162461bcd60e51b815260206004820152601c60248201527b115490cdcc8c4e881d1bdad95b88185b1c9958591e481b5a5b9d195960221b604482015290519081900360640190fd5b61383060008383610b63565b6001600160a01b03821660009081526001602052604090206138529082614423565b5061385f6002828461442f565b5060405181906001600160a01b03841690600090600080516020615c73833981519152908290a45050565b6138926147e1565b82602001516001600160401b03036001600160401b0316826001600160401b031611156138d15760405162461bcd60e51b8152600401610cc090615546565b50602082018051919091016001600160401b0316905290565b600d5460ff161561390d5760405162461bcd60e51b8152600401610cc0906152fc565b600d805460ff1916600117905560405133907fb8d187aa99b531be43e3a058a271522bd2b409c64fde99ab089d46e04c3c1d4c90600090a2565b600d5460ff161561396a5760405162461bcd60e51b8152600401610cc090615454565b600c541561398a5760405162461bcd60e51b8152600401610cc0906151ac565b600b5442908101600c81905560405133927fb541144ed00ffd8bbd35d5dd947facd4ae14b74d9f614f23049e2be938317f85926139c69261599d565b60405180910390a2565b6060816139f557506040805180820190915260018152600360fc1b6020820152610968565b8160005b8115613a0d57600101600a820491506139f9565b6000816001600160401b0381118015613a2557600080fd5b506040519080825280601f01601f191660200182016040528015613a50576020820181803683370190505b50859350905060001982015b8315613aa157600a840660300160f81b82828060019003935081518110613a7f57fe5b60200101906001600160f81b031916908160001a905350600a84049350613a5c565b50949350505050565b6040805180820182526001600160a01b038481168083526001600160401b03858116602080860191825260008b815260159091528690209451855491516001600160a01b031990921690851617600160a01b600160e01b031916600160a01b9190921602179092559151909185169086907f28aacdb5c6561da8dedc28ea0f08e1140a887e31a2658eb3c3d315f4e22a57ad90613b489086906159ab565b60405180910390a450505050565b6000613b6183611ddb565b9050600081600f0b1215613b875760405162461bcd60e51b8152600401610cc090615127565b60006001600160401b03600f83900b12613ba957506001600160401b03613bac565b50805b613bb885858386613bbf565b5050505050565b826001600160a01b0316846001600160a01b03161480613be45750613be48385611ca1565b613c005760405162461bcd60e51b8152600401610cc09061532f565b6001600160a01b038316600090815260146020908152604080832081516080810183528154600f81810b810b900b82526001600160401b03600160801b8204811695830195909552600160c01b900484169281019290925260010154909116606082015290613c6e82611ed2565b815191935091506001600160401b038516600f9190910b1215613ca35760405162461bcd60e51b8152600401610cc090615679565b613cad82856140ab565b9150633b9aca006001600160401b03851681810291820414613ccb57fe5b6000846001600160a01b031682604051613ce490614f80565b60006040518083038185875af1925050503d8060008114613d21576040519150601f19603f3d011682016040523d82523d6000602084013e613d26565b606091505b5050905080613d475760405162461bcd60e51b8152600401610cc09061581d565b6001600160a01b0387166000908152601460209081526040918290208651815492880151938801516001600160801b03199093166001600160801b03600f9290920b9190911617600160801b600160c01b031916600160801b6001600160401b0394851602176001600160c01b0316600160c01b928416929092029190911781556060860151600190910180546001600160401b031916918316919091179055601654613dfd91600160401b9091041684611f0e565b601660086101000a8154816001600160401b0302191690836001600160401b03160217905550846001600160a01b0316876001600160a01b03167fd200b98d2920a80d947f79667cc8b90d91d57ecb33c7898637125d71580e50e0888760000151604051613e6c9291906159bf565b60405180910390a35050505050505050565b6000610e7b8383614445565b613e926147e1565b60408501516000906001600160401b038085169082161015613eb15750825b6000613ec487878a60200151854261445d565b90506000816001600160401b03168960000151600f0b12613ee6575080613f19565b60008960000151600f0b12613f155788516001600160401b03600f9190910b1315613f0d57fe5b508751613f19565b5060005b816001600160401b0316816001600160401b03161115613f3557fe5b60008960000151600f0b12158015613f5a57508851600f0b6001600160401b03821613155b80613f7e575060008960000151600f0b128015613f7e57506001600160401b038116155b613f8457fe5b8851613f909083614513565b600f90810b900b895260408901516001600160401b0316421015613fb057fe5b6001600160401b03421660408a01526060890151613fce9082611f0e565b6001600160401b031660608a015297989650505050505050565b5490565b8154600090821061402e5760405162461bcd60e51b8152600401808060200182810382526022815260200180615a2a6022913960400191505060405180910390fd5b82600001828154811061403d57fe5b9060005260206000200154905092915050565b6140586147e1565b82516140649083614563565b600f90810b900b83525090919050565b61407c6147e1565b600e54600f546010546000926140a0928792879291906001600160401b03166145fc565b915091509250929050565b6140b36147e1565b82516140649083614513565b6140c76147e1565b816001600160401b031683602001516001600160401b031610156140e757fe5b50602082018051919091036001600160401b0316905290565b826001600160a01b031661411382610fdb565b6001600160a01b0316146141585760405162461bcd60e51b8152600401808060200182810382526029815260200180615c1b6029913960400191505060405180910390fd5b6001600160a01b03821661419d5760405162461bcd60e51b8152600401808060200182810382526024815260200180615a726024913960400191505060405180910390fd5b6141a8838383610b63565b6141b3600082611e64565b6001600160a01b03831660009081526001602052604090206141d5908261462e565b506001600160a01b03821660009081526001602052604090206141f89082614423565b506142056002828461442f565b5080826001600160a01b0316846001600160a01b0316600080516020615c7383398151915260405160405180910390a4505050565b600061424582611e53565b6142805760405162461bcd60e51b815260040180806020018281038252602c815260200180615a96602c913960400191505060405180910390fd5b600061428b83610fdb565b9050806001600160a01b0316846001600160a01b031614806142c65750836001600160a01b03166142bb84610a30565b6001600160a01b0316145b806142d657506142d68185611ca1565b949350505050565b8154600090819083106143225760405162461bcd60e51b8152600401808060200182810382526022815260200180615b8d6022913960400191505060405180910390fd5b600084600001848154811061433357fe5b906000526020600020906002020190508060000154816001015492509250509250929050565b600082815260018401602052604081205482816143f45760405162461bcd60e51b81526004018080602001828103825283818151815260200191508051906020019080838360005b838110156143b95781810151838201526020016143a1565b50505050905090810190601f1680156143e65780820380516001836020036101000a031916815260200191505b509250505060405180910390fd5b5084600001600182038154811061440757fe5b9060005260206000209060020201600101549150509392505050565b6000610e7b838361463a565b600061363584846001600160a01b038516614684565b60009081526001919091016020526040902054151590565b6000826001600160401b0316826001600160401b0316116144805750600061450a565b8282036001600160401b03908116908516028602600086828161449f57fe5b049050818111156144ac57fe5b60006001600160401b0382116144c35750806144cd565b506001600160401b035b81816001600160401b031614806144ff5750806001600160401b0316821180156144ff57506001600160401b03818116145b61450557fe5b925050505b95945050505050565b600080826001600160401b031660016001607f1b031901600f0b84600f0b1261454857506001600160401b0382168303614553565b5060016001607f1b03195b83600f0b81600f0b1315610e7b57fe5b600080826001600160401b031660016001607f1b0303600f0b84600f0b1361459757506001600160401b03821683016145a1565b5060016001607f1b035b83600f0b81600f0b121580156145f65750600084600f0b121580156145d25750826001600160401b031681600f0b12155b806145f65750600084600f0b1280156145f65750826001600160401b031681600f0b125b610e7b57fe5b6146046147e1565b60008061461388878787613e8a565b90985090506146228782611f0e565b97989650505050505050565b6000610e7b838361471b565b60006146468383614445565b61467c57508154600181810184556000848152602080822090930184905584548482528286019093526040902091909155610e7e565b506000610e7e565b6000828152600184016020526040812054806146e9575050604080518082018252838152602080820184815286546001818101895560008981528481209551600290930290950191825591519082015586548684528188019092529290912055613638565b828560000160018303815481106146fc57fe5b9060005260206000209060020201600101819055506000915050613638565b600081815260018301602052604081205480156147d7578354600019808301919081019060009087908390811061474e57fe5b906000526020600020015490508087600001848154811061476b57fe5b60009182526020808320909101929092558281526001898101909252604090209084019055865487908061479b57fe5b60019003818190600052602060002001600090559055866001016000878152602001908152602001600020600090556001945050505050610e7e565b6000915050610e7e565b60408051608081018252600080825260208201819052918101829052606081019190915290565b80356001600160a01b038116811461096857600080fd5b600082601f83011261482f578081fd5b8135602061484461483f83615a0c565b6159e9565b8281528181019085830183850287018401881015614860578586fd5b855b858110156148855761487382614808565b84529284019290840190600101614862565b5090979650505050505050565b600082601f8301126148a2578081fd5b813560206148b261483f83615a0c565b828152818101908583016040808602880185018910156148d0578687fd5b865b868110156149295781838b0312156148e8578788fd5b81518083016001600160401b038111828210171561490257fe5b835283358152614913878501614aa7565b81880152855293850193918101916001016148d2565b509198975050505050505050565b600082601f830112614947578081fd5b8135602061495761483f83615a0c565b82815281810190858301604080860288018501891015614975578687fd5b865b868110156149295781838b03121561498d578788fd5b81518083016001600160401b03811182821017156149a757fe5b8352833581526149b8878501614a90565b8188015285529385019391810191600101614977565b600082601f8301126149de578081fd5b813560206149ee61483f83615a0c565b8281528181019085830183850287018401881015614a0a578586fd5b855b8581101561488557614a1d82614a90565b84529284019290840190600101614a0c565b600082601f830112614a3f578081fd5b81356020614a4f61483f83615a0c565b8281528181019085830183850287018401881015614a6b578586fd5b855b8581101561488557614a7e82614aa7565b84529284019290840190600101614a6d565b80356001600160401b038116811461096857600080fd5b803560ff8116811461096857600080fd5b600060208284031215614ac9578081fd5b610e7b82614808565b60008060408385031215614ae4578081fd5b614aed83614808565b9150614afb60208401614808565b90509250929050565b600080600060608486031215614b18578081fd5b614b2184614808565b9250614b2f60208501614808565b9150604084013590509250925092565b60008060008060808587031215614b54578182fd5b614b5d85614808565b93506020614b6c818701614808565b93506040860135925060608601356001600160401b0380821115614b8e578384fd5b818801915088601f830112614ba1578384fd5b813581811115614bad57fe5b614bbf601f8201601f191685016159e9565b91508082528984828501011115614bd4578485fd5b8084840185840137810190920192909252939692955090935050565b6000806000806080808688031215614c06578283fd5b614c0f86614808565b94506020868101356001600160401b0380821115614c2b578586fd5b818901915089601f830112614c3e578586fd5b8135614c4c61483f82615a0c565b81815284810190848601878402860187018e1015614c6857898afd5b8995505b83861015614ce55787818f031215614c8257898afd5b604080518981018181108882111715614c9757fe5b825282358152614ca8898401614a90565b89820152614cb7828401614a90565b8282015260609150614cca828401614aa7565b91810191909152835260019590950194918601918701614c6c565b50985050506040890135935080841115614cfd578586fd5b614d098a858b01614892565b95506060890135935080841115614d1e578485fd5b505050614d2d87828801614937565b91505092959194509250565b60008060408385031215614d4b578182fd5b614d5483614808565b915060208301358015158114614d68578182fd5b809150509250929050565b60008060408385031215614d85578182fd5b614d8e83614808565b946020939093013593505050565b600080600060608486031215614db0578081fd5b614db984614808565b9250614dc760208501614a90565b9150614dd560408501614808565b90509250925092565b60008060008060808587031215614df3578182fd5b84356001600160401b0380821115614e09578384fd5b818701915087601f830112614e1c578384fd5b81356020614e2c61483f83615a0c565b82815281810190858301838502870184018d1015614e48578889fd5b8896505b84871015614e6a578035835260019690960195918301918301614e4c565b5098505088013592505080821115614e80578384fd5b614e8c8883890161481f565b94506040870135915080821115614ea1578384fd5b614ead888389016149ce565b93506060870135915080821115614ec2578283fd5b50614d2d87828801614a2f565b600060208284031215614ee0578081fd5b81356001600160e01b031981168114610e7b578182fd5b600060208284031215614f08578081fd5b5035919050565b600080600060608486031215614f23578081fd5b83359250614f3360208501614808565b9150614dd560408501614a90565b600080600060608486031215614f55578081fd5b83359250614f3360208501614a90565b60008060408385031215614f77578182fd5b614aed83614a90565b90565b6001600160a01b0391909116815260200190565b901515815260200190565b600f9190910b815260200190565b6000602080835283518082850152825b81811015614fdc57858101830151858201604001528201614fc0565b81811115614fed5783604083870101525b50601f01601f1916929092016040019392505050565b60208082526026908201527f47726166666974455448323a20706978656c20616c726561647920696e697469604082015265185b1a5e995960d21b606082015260800190565b6020808252603f90820152600080516020615cb483398151915260408201527f20617070726f766564206163636f756e742063616e2073657420636f6c6f7200606082015260800190565b60208082526031908201527f47726166666974455448323a2073656e646572206973206e65697468657220626040820152701d5e595c881b9bdc88185c1c1c9bdd9959607a1b606082015260800190565b60208082526022908201527f47726166666974455448323a206d617820706978656c20494420657863656564604082015261195960f21b606082015260800190565b60208082526031908201527f47726166666974455448323a206163636f756e742062616c616e6365206d757360408201527074206e6f74206265206e6567617469766560781b606082015260800190565b6020808252601a9082015279149d59d41d5b1b0e881b9bdd08185b9b9bdd5b98d959081e595d60321b604082015260600190565b6020808252601a9082015279149d59d41d5b1b0e88185b1c9958591e48185b9b9bdd5b98d95960321b604082015260600190565b60208082526029908201527f47726166666974455448323a2077697468647261772074617865732063616c6c604082015268081c995d995c9d195960ba1b606082015260800190565b60208082526026908201527f47726166666974455448323a2062757965722063616e6e6f74206166666f7264604082015265081c1a5e195b60d21b606082015260800190565b6020808252602a908201527f47726166666974455448323a20706978656c2070726963652065786365656473604082015269206d617820707269636560b01b606082015260800190565b60208082526023908201527f47726166666974455448323a20706978656c20697320746f6f20657870656e7360408201526269766560e81b606082015260800190565b602080825260199082015278149d59d41d5b1b0e88185b1c9958591e48191a5cd8589b1959603a1b604082015260600190565b6020808252602b908201527f47726166666974455448323a2073656e646572206e6f7420616c6c6f7765642060408201526a746f20776974686472617760a81b606082015260800190565b60208082526036908201527f47726166666974455448323a206465706f73697420616d6f756e74206d757374604082015275206265206d756c7469706c65206f662031204757656960501b606082015260800190565b6020808252602f908201527f47726166666974455448323a20706978656c73206f776e65642062792064696660408201526e666572656e74206163636f756e747360881b606082015260800190565b6020808252818101527f52756750756c6c3a206865616473207570206e6f742070617373656420796574604082015260600190565b602080825260119082015270149d59d41d5b1b0e88191a5cd8589b1959607a1b604082015260600190565b60208082526025908201527f47726166666974455448323a2063616e6e6f74206561726d61726b20666f722060408201526437bbb732b960d91b606082015260800190565b6020808252601d908201527f52756750756c6c3a2073656e64696e672066756e6473206661696c6564000000604082015260600190565b6020808252603d908201527f47726166666974455448323a206e756d626572206f6620636f6c6f72732064696040820152600080516020615ac2833981519152606082015260800190565b60208082526038908201527f47726166666974455448323a20706978656c20707269636520746f6f206869676040820152771a0b081d185e0818985cd9481b585e08195e18d95959195960421b606082015260800190565b6020808252603f90820152600080516020615cb483398151915260408201527f20617070726f766564206163636f756e742063616e2073657420707269636500606082015260800190565b60208082526021908201527f47726166666974455448323a20706978656c20696473206e6f7420736f7274656040820152601960fa1b606082015260800190565b6020808252602f908201527f47726166666974455448323a206163636f756e74206e6f7420616c6c6f77656460408201526e081d1bc818db185a5b481c1a5e195b608a1b606082015260800190565b6020808252602e908201527f47726166666974455448323a2063616e6e6f74207769746864726177206d6f7260408201526d65207468616e2062616c616e636560901b606082015260800190565b6020808252603d908201527f47726166666974455448323a206e756d626572206f66207072696365732064696040820152600080516020615ac2833981519152606082015260800190565b60208082526021908201527f47726166666974455448323a20706978656c20646f6573206e6f7420657869736040820152601d60fa1b606082015260800190565b6020808252603d908201527f47726166666974455448323a206e756d626572206f66206f776e6572732064696040820152600080516020615ac2833981519152606082015260800190565b6020808252602a908201527f47726166666974455448323a20627579657220616e642073656c6c657220617260408201526965207468652073616d6560b01b606082015260800190565b6020808252818101527f47726166666974455448323a20616d6f756e7420697320746f6f20736d616c6c604082015260600190565b60208082526023908201527f47726166666974455448323a2077697468647261772063616c6c2072657665726040820152621d195960ea1b606082015260800190565b6020808252602e908201527f47726166666974455448323a20696e697469616c697a6174696f6e207068617360408201526d329030b63932b0b23c9037bb32b960911b606082015260800190565b6020808252604190820152600080516020615cb483398151915260408201527f20617070726f766564206163636f756e742063616e20736574206561726d61726060820152606b60f81b608082015260a00190565b60208082526028908201527f47726166666974455448323a206d6178206465706f73697420616d6f756e7420604082015267195e18d95959195960c21b606082015260800190565b60208082526029908201527f47726166666974455448323a206e6f7420656e6f7567682066756e647320746f60408201526820776974686472617760b81b606082015260800190565b90815260200190565b918252602082015260400190565b6001600160401b0391909116815260200190565b6001600160401b03929092168252600f0b602082015260400190565b60ff91909116815260200190565b6040518181016001600160401b0381118282101715615a0457fe5b604052919050565b60006001600160401b03821115615a1f57fe5b506020908102019056fe456e756d657261626c655365743a20696e646578206f7574206f6620626f756e64734f776e61626c653a206e6577206f776e657220697320746865207a65726f20616464726573734552433732313a207472616e7366657220746f20746865207a65726f20616464726573734552433732313a206f70657261746f7220717565727920666f72206e6f6e6578697374656e7420746f6b656e66666572656e742066726f6d206e756d626572206f6620706978656c730000004552433732313a20617070726f76652063616c6c6572206973206e6f74206f776e6572206e6f7220617070726f76656420666f7220616c6c4552433732313a2062616c616e636520717565727920666f7220746865207a65726f20616464726573734552433732313a206f776e657220717565727920666f72206e6f6e6578697374656e7420746f6b656ea57125e4ff01455f98dea3907ead9066b97a612484d328cb01d3a389df8fa7ec456e756d657261626c654d61703a20696e646578206f7574206f6620626f756e64734552433732313a20617070726f76656420717565727920666f72206e6f6e6578697374656e7420746f6b656e4f776e61626c653a2063616c6c6572206973206e6f7420746865206f776e65728be0079c531659141344cd1fd0a4f28419497f9722a3daafe3b4186f6b6457e04552433732313a207472616e73666572206f6620746f6b656e2074686174206973206e6f74206f776e4552433732314d657461646174613a2055524920717565727920666f72206e6f6e6578697374656e7420746f6b656eddf252ad1be2c89b69c2b068fc378daa952ba7f163c4a11628f55a4df523b3ef4552433732313a20617070726f76616c20746f2063757272656e74206f776e657247726166666974455448323a206f6e6c7920706978656c206f776e6572206f72c1526ed48b58640a10ae476df49794ee6fba1f483ec8093062f7e10f6eaae3bba2646970667358221220466d3527dfa9d9047dfa9813a8ed839e8b2eaf1627b88a29405cc21dbad3900d64736f6c63430007060033",
  "linkReferences": {},
  "deployedLinkReferences": {}
}